:100000000C94BA010C941B140C94D7010C941F0986
:100010000C94D7010C9478090C94D7010C94D70157
:100020000C94D7010C94300F0C94D7010C94D70189
:100030000C94D7010C94D7010C94D7010C94D701E0
:100040000C9444070C94D7010C94D7010C94D7015D
:100050000C94D7010C94D7010C94D7010C94C50EC5
:100060000C94D7010C94D701FA3E1A7ADE8EF62E44
:100070006078AE1CAA2A3ACEF30AB61E3838B86E9B
:1000800076DA6800FC60DAF266B6BEE0FEE684006E
:1000900003070809060A050C0490000B10120F0D47
:1000A0000E11139B00616C61726D206F66660053C8
:1000B000657420646179005365742064617900641B
:1000C0006F6E6500616C61726D20696E69740063AA
:1000D0006C6F636B20696E697400737065616B652A
:1000E0007220696E697400626F6F737420696E6943
:1000F000740076666420696E6974007475726E6946
:100100006E67206F6E20616C61726D73770074751D
:10011000726E696E67206F6E20627574746F6E7395
:1001200000636C6F636B20696E69740021007761F6
:100130006B6574696D650057414B45524553455495
:10014000007A00616C61726D206F6E210062320076
:10015000623300623100736E6F6F7A6500140000C5
:10016000000000000000000000000000000000008F
:10017000000000002800000000010101010202024D
:10018000030303040404050506060832000000000A
:100190000001010101020202020303040404050537
:1001A00005073C00000000000001010101020202FD
:1001B00003030304040405050646000000000101D2
:1001C000010101020202020303030404040400000B
:1001D00050000000000000000000000000000000CF
:1001E00000000000000005140000000000000000F6
:1001F00000000000000000000000000000001E00E1
:1002000000000101010102020303030404050506C5
:10021000060707080D280000000101010102020283
:1002200003030304040505060606070B320000005D
:100230000000010101020202030303040404050596
:1002400006060A3C00000000000000010101010256
:100250000202030303040404050746000000000033
:100260000000000101010102020202020303030374
:100270000550000000000000000000000000010127
:100280000101010101010202140000000000000050
:100290000000000000000000000000000000002836
:1002A0000000000000000000010101010101020244
:1002B000020202030304140000000000000000001A
:1002C000000000000000000000000000001E000010
:1002D000000000000001010101010202020203030B
:1002E00003030406280000000000000001010101D2
:1002F0000101020202020303030305190000001EAC
:1003000000B30A23008F0A2800FD092D00D8093206
:10031000006A093700D9083C00FE074100FE064686
:100320000047065000B504190000001E003F092DCB
:10033000001B093200F6083700D1083C0090084144
:1003400000F606460022074B0065055000480419D8
:100350000000001E00FE042800DA04190000001E40
:1003600000900528006C051F1C1F1E1F1E1F1F1E4E
:100370001F1E1F0011241FBECFEFD4E0DEBFCDBF74
:1003800012E0A0E0B1E0E0E2F2E302C005900D92DD
:10039000AE38B107D9F712E0AEE8B2E001C01D9265
:1003A000AB3BB107E1F70E94E4120C940E190C94D8
:1003B00000009C01789410929C0210929B02809104
:1003C0009B0290919C0282179307C8F30895A89509
:1003D000089581E0809391025B9A8CB58F7B8CBDF0
:1003E00085B1877D85B95E9815BC1092A9021092DF
:1003F000680085B1897F85B98BB18F7C8BB92898CE
:100400008AB18F7C8AB920985A985298E1E6F0E038
:1004100090E8908388E08083449A83B7876083BFA5
:10042000889590831082449808958EE284B988E478
:100430008AB989E187B984E38BB991E095B985E000
:100440008093680090936B0080E380936D00089523
:10045000FC0183709070892B39F4CF0164E670E061
:100460000E947918892B49F420E030E0CF0160E93F
:1004700071E00E947918892B11F421E030E0822F7D
:1004800008951092800010928100299A2A987894F9
:1004900010929C0210929B0280919B0290919C0270
:1004A0000A97D0F32A9A2998789410929C02109275
:1004B0009B0280919B0290919C020A97D0F385B198
:1004C000897F85B982EB8093800088E180938100E9
:1004D00008951F93162F9C0140E050E060E472E401
:1004E0008FE090E00E94C21830938700209386002E
:1004F00080918600909187009695879590938B00C8
:1005000080938A0080918A0090918B00909389005B
:100510008093880028EC30E01CC0809181008260CC
:100520008093810080ED97E0F9013197F1F7019711
:10053000D9F7809181008D7F8093810085B1897F7B
:1005400085B980ED97E0F9013197F1F70197D9F777
:100550001150112311F785B1897F85B91F91089535
:100560008B3590F58E3110F08E3111F48EE12DC067
:10057000843210F483E229C0893210F488E225C065
:100580008E3210F48DE221C0833310F482E31DC05B
:10059000883310F487E319C08D3310F48CE315C051
:1005A000823410F481E411C0873410F486E40DC065
:1005B0008C3410F48BE409C0813510F480E505C05B
:1005C000863510F485E501C08AE587BD83E084BDEA
:1005D00081E085BD84B5806884BD80916E008160B6
:1005E00080936E00789408951F93182F262F842FE0
:1005F0006AE00E946D18E92FF0E0EC57FF4FE4919C
:10060000E093B302842F0E946D18E82FF0E0EC57BE
:10061000FF4FE491E093B2021092B102822F0E9448
:100620006D18E92FF0E0EC57FF4FE491E093B00232
:10063000822F0E946D18E82FF0E0EC57FF4FE491F5
:10064000E093AF021092AE0280919002882361F590
:10065000812F90E00B966CE070E00E948D189C0159
:100660002F5F3F4FC9016AE070E00E948D18FC01C6
:10067000EC57FF4FE491E093AD02C9016AE070E0EE
:100680000E948D18FB01EC57FF4FE491E093AC0200
:100690001C3020F08091AB02816003C08091AB02DE
:1006A0008E7F8093AB021AC0812F68E10E946D1883
:1006B000292F892F6AE00E946D18E92FF0E0EC578E
:1006C000FF4FE491E093AD02822F0E946D18E82F56
:1006D000F0E0EC57FF4FE491E093AC021F910895D6
:1006E000382F262F1092B3021092B2021092B1024C
:1006F000862F6AE00E946D18E92FF0E0EC57FF4F5B
:10070000E491E093B002822F0E946D18E82FF0E090
:10071000EC57FF4FE491E093AF021092AE0280914C
:100720009002882309F03BC03C3058F08091AB0226
:1007300081608093AB02E7E7F0E0E491E093B202DE
:100740000AC0E8E6F0E0E491E093B2028091AB02E7
:100750008E7F8093AB02E4E7F0E0E491E093B30294
:10076000832F90E00B966CE070E00E948D189C0146
:100770002F5F3F4FC9016AE070E00E948D18FC01B5
:10078000EC57FF4FE491E093AD02C9016AE070E0DD
:100790000E948D18FB01EC57FF4FE4911EC0832F80
:1007A00090E0479668E170E00E948D189C012F5FF1
:1007B0003F4FC9016AE070E00E948D18FC01EC57C0
:1007C000FF4FE491E093AD02C9016AE070E00E943E
:1007D0008D18FB01EC57FF4FE491E093AC020895B4
:1007E000CF93DF931092AB02EC01ACEAB2E0E88168
:1007F000EE23D1F08E2F81568A3128F4F0E0E95FA4
:10080000FF4FE49108C08E2F80538A3030F4F0E01F
:10081000EC5AFF4FE491EC9301C01C922196119683
:1008200082E0A43BB80719F7DF91CF910895CF93E9
:10083000DF93882309F07AC01092AB0282E08093A4
:10084000AE028093B10280919002882361F580917D
:10085000B9026AE00E946D18E82FF0E0EC57FF4FF4
:10086000E491E093AC028091B9020E946D18E92FE7
:10087000F0E0EC57FF4FE491E093AD028091AA02C3
:100880000E946D18E82FF0E0EC57FF4FE491E093E1
:10089000AF028091AA020E946D18E92FF0E0EC5798
:1008A000FF4FE4912BC08091AA026AE00E946D186C
:1008B000E82FF0E0EC57FF4FE491E093AC02809119
:1008C000AA020E946D18E92FF0E0EC57FF4FE49167
:1008D000E093AD028091B9020E946D18E82FF0E01C
:1008E000EC57FF4FE491E093AF028091B9020E9470
:1008F0006D18E92FF0E0EC57FF4FE491E093B00260
:100900008091A7026AE00E946D18E82FF0E0EC5792
:10091000FF4FE491E093B2028091A7020E946D180C
:10092000E92FF0E0EC57FF4FE49186C1823009F0E7
:10093000A0C01092AB0280919002882361F5809153
:10094000B9026AE00E946D18E82FF0E0EC57FF4F03
:10095000E491E093AC028091B9020E946D18E92FF6
:10096000F0E0EC57FF4FE491E093AD028091AA02D2
:100970000E946D18E82FF0E0EC57FF4FE491E093F0
:10098000AE028091AA020E946D18E92FF0E0EC57A8
:10099000FF4FE4912BC08091AA026AE00E946D187B
:1009A000E82FF0E0EC57FF4FE491E093AC02809128
:1009B000AA020E946D18E92FF0E0EC57FF4FE49176
:1009C000E093AD028091B9020E946D18E82FF0E02B
:1009D000EC57FF4FE491E093AE028091B9020E9480
:1009E0006D18E92FF0E0EC57FF4FE491E093AF0270
:1009F0008091A70264E60E946D1890E043966AE039
:100A000070E00E948D18FB01EC57FF4FE491E093DA
:100A1000B0028091A70264E60E946D1890E04396B0
:100A20006AE070E00E948D18FC01EC57FF4FE491E2
:100A3000E093B1028091A70264E60E946D18892FAD
:100A40006AE00E946D18E82FF0E0EC57FF4FE49148
:100A5000E093B2028091A70264E60E946D18892F8C
:100A60006AE00E946D18E92FF0E0EC57FF4FE49127
:100A7000E3C0813009F0E2C08091B902C82FD0E014
:100A80008091A702E82FF0E0E053F84F8091B9027F
:100A9000833010F42C9631972091AA021092B20262
:100AA0001092B30230E02F5F3F4F2E0F3F1FCE0159
:100AB000880F991F280F391FCF0196958795969516
:100AC0008795280F391FCF0160E971E00E947918DE
:100AD000260F371FCF0164E670E00E947918261BAD
:100AE000370BAE014F5F5F4FCA01880F991F840F0C
:100AF000951F880F991F6AE070E00E947918C9015C
:100B0000860F971F67E070E00E9479188330B9F074
:100B1000843028F4813069F0823070F407C0853069
:100B2000A1F0853078F08630B9F412C080E091E011
:100B300011C087E091E00EC08EE091E00BC086E12D
:100B400091E008C08FE191E005C088E291E002C029
:100B50008FE291E00E94F003789410929C02109230
:100B60009B0280919B0290919C02885E9340C8F307
:100B70001092AF021092B0021092B1028091B902AD
:100B8000863079F1873070F4833011F1843028F4A5
:100B90008130C1F08230D9F518C08430E1F0853061
:100BA000B1F51CC0893031F18A3028F48730E1F08A
:100BB000883069F51CC08B3019F18B30F0F08C3027
:100BC00031F521C088E391E020C08CE391E01DC0A5
:100BD00080E491E01AC086E491E017C08CE491E0D3
:100BE00014C080E591E011C085E591E00EC08AE572
:100BF00091E00BC080E691E008C085E691E005C079
:100C00008BE691E002C081E791E00E94F0038091C1
:100C1000AA026AE00E946D18E82FF0E0EC57FF4F3F
:100C2000E491E093B2028091AA020E946D18E92F2C
:100C3000F0E0EC57FF4FE491E093B302DF91CF91E6
:100C40000895CF93DF93EB011092AB02882309F054
:100C50003BC087E791E00E94F003CE0168E770E0B7
:100C60000E947918FB01EC57FF4FE491E093AC022E
:100C7000CE016CE070E00E947918CB016AE070E070
:100C80000E947918FC01EC57FF4FE491E093AD020C
:100C9000CE016CE070E00E9479189C016AE070E07F
:100CA0000E947918FB01EC57FF4FE491E093B202E8
:100CB000C9016AE070E00E947918FC01EC57FF4F0F
:100CC000E491E093B30229C080E891E00E94F00330
:100CD000CE0164E670E00E947918FB01EC57FF4FEB
:100CE000E491E093AC02CE0164E670E00E947918D2
:100CF0006AE070E00E947918FB01EC57FF4FE49125
:100D0000E093AD02CE016AE070E00E947918FC0128
:100D1000EC57FF4FE491E093AE02DF91CF9108953D
:100D2000CF93DF93EB011092AB02882319F489E88B
:100D300091E007C0813019F482E991E002C08BE9AB
:100D400091E00E94F003CE0164E670E00E94791801
:100D5000FB01EC57FF4FE491E093AC02CE0164E657
:100D600070E00E9479186AE070E00E947918FB0137
:100D7000EC57FF4FE491E093AD02CE016AE070E0E2
:100D80000E947918FC01EC57FF4FE491E093AE020A
:100D9000DF91CF91089581E58CBD08959B01AC0151
:100DA000F894CA01AA27BB278EBD0DB407FEFDCF5C
:100DB000BB27A52F942F832F8EBD0DB407FEFDCF2B
:100DC0002EBD0DB407FEFDCF409A4098789408954B
:100DD000AF92BF92CF92DF92EF92FF920F931F9349
:100DE000E82FF0E0E057FF4FE49181E090E002C08F
:100DF000880F991FEA95E2F77C010027F7FC009520
:100E0000102F2091A2023091A3024091A402509190
:100E1000A502A0E0B0E070E091E0A92EB12CC12CB9
:100E2000D12CCB010A2E02C0959587950A94E2F742
:100E300080FF11C0FD01E556FF4FE491A601950129
:100E400004C0220F331F441F551FEA95D2F7E22A30
:100E5000F32A042B152B1196A830B10511F7209316
:100E6000A2023093A3024093A4025093A502C801AA
:100E7000B7010E94CE061F910F91FF90EF90DF9077
:100E8000CF90BF90AF9008951F920F920FB60F9220
:100E900011242F933F934F935F936F937F938F937F
:100EA0009F93AF93BF93EF93FF937894A89580910E
:100EB00095029091960201969093960280939502E6
:100EC000819708F46CC0109296021092950280915E
:100ED0009B0290919C02019690939C0280939B02AE
:100EE00080919402893010F01092940280919402C3
:100EF000E82FF0E0E555FD4F60810E94E806809103
:100F000094028F5F809394028091B702882309F442
:100F100046C08091990290919A02892B09F03FC0B6
:100F200080919702909198020196909398028093F5
:100F300097028536910598F11092980210929702C7
:100F40008AEF90E0909387008093860080918600DE
:100F5000909187009695879590938B0080938A0057
:100F600080918A0090918B009093890080938800F3
:100F70008091B702807F49F08091B7028F70809393
:100F8000B702809181008D7F08C08091B702806F89
:100F90008093B70280918100826080938100FF91ED
:100FA000EF91BF91AF919F918F917F916F915F91E1
:100FB0004F913F912F910F900FBE0F901F9018955A
:100FC0008EBD0DB407FEFDCF08958AE090E00E942B
:100FD000DD188093A90285B1866085B982E380938C
:100FE00080008091A902882329F080918000806888
:100FF0008093800088E1809381008AEF90E0909355
:101000008700809386008091860090918700969556
:1010100087959093890080938800809188009091B3
:10102000890090938B0080938A00089584E090E07B
:101030000E94DD1868E10E946D189093A60285E079
:1010400090E00E94DD186CE30E946D189093B4024A
:1010500086E090E00E94DD186CE30E946D1890938A
:10106000BA0288E090E00E94DD186CE30E946D18DF
:101070009093A80287E090E00E94DD1868E10E944A
:101080006D189093B60281E090E00E94DD1864E64E
:101090000E946D189093A70282E090E00E94DD18F4
:1010A0006DE00E946D189093B90283E090E00E9479
:1010B000DD188F718093AA0291E090939302E6EB82
:1010C000F0E080818062808385E08093B10090931E
:1010D0007000789408954A9B34C08091B5028823AB
:1010E00009F04CC081E08093B50210929A021092F0
:1010F000990284EA91E00E94F00389E08093B802AB
:10110000789410929C0210929B0280919B02909185
:101110009C02885E9340C8F38091B6026091A80259
:101120000E947003789410929C0210929B0280910E
:101130009B0290919C02885E9340C8F31092B80283
:1011400008958091B5028823C9F01092B5021092DB
:101150009A02109299028091B702882379F085EA69
:1011600090E061E00E9493141092B7028091810098
:101170008D7F8093810085B1866085B908958091C7
:1011800091028823D1F180E8809361001092610080
:101190008EE291E061E00E9493141092910280E44B
:1011A0009CE90197F1F700B605FC27C00E941502E3
:1011B00089E090E00E94DD180E94B00281E58CBDBC
:1011C0005B9843988AE090E00E94DD188093A90222
:1011D0000E94E507A8950E946B0880E793E061E014
:1011E0000E94690280EE96E061E00E94690280EC54
:1011F0009DE061E00E946902A895089588E592E06B
:1012000090939A028093990286E591E061E00E94B2
:1012100093148DEA91E00E94F00389E08093B80274
:10122000789410929C0210929B0280919B02909164
:101230009C02885E9340C8F31092B80208951F92F2
:101240000F920FB60F9211242F933F934F935F93FA
:101250006F937F938F939F93AF93BF93EF93FF937E
:1012600010926800789418992AC080919D0281FD9F
:101270002BC0789410929C0210929B0280919B024A
:1012800090919C020A97D0F318991EC00E944102C7
:101290008091B702882319F00E94FE0815C0809142
:1012A0009D02826080939D0280919E028260809365
:1012B0009E028DE491E061E00E94931405C080914C
:1012C0009D028D7F80939D0285E080936800FF9151
:1012D000EF91BF91AF919F918F917F916F915F91AE
:1012E0004F913F912F910F900FBE0F901F90189527
:1012F0001F920F920FB60F9211242F933F934F938B
:101300005F936F937F938F939F93AF93BF93EF936D
:10131000FF931092680078944D9927C080919D02A8
:1013200080FD28C0789410929C0210929B028091BC
:101330009B0290919C020A97D0F34D9963C00E9442
:1013400041028091B7028823C9F580919D02816096
:1013500080939D0280919E02816080939E0283E52E
:1013600091E061E00E94931405C080919D028E7F00
:1013700080939D024C993FC080919D0282FD42C0A6
:10138000789410929C0210929B0280919B02909103
:101390009C020A97D0F34C9935C082E08093A0025A
:1013A0001BC04C9B19C00E94410280919D028B7F03
:1013B00080939D028091B702882319F00E94FE0855
:1013C00021C080E591E061E00E94931480919E022B
:1013D000846080939E0216C08091A002882309F742
:1013E00080919D02846080939D0280919F02846021
:1013F00080939F0207C010929F0280919D028B7F75
:1014000080939D0285E080936800FF91EF91BF91EA
:10141000AF919F918F917F916F915F914F913F918C
:101420002F910F900FBE0F901F9018950F931F9341
:101430008AE08093A1028BE090E00E94DD18809307
:10144000900210E00AE001C010E080919E02882323
:1014500021F480919F02882319F00093A10204C017
:101460008091A1028823C9F080919E0280FD38C03E
:1014700080919E0281FF14C010929E02112369F494
:1014800080919002882319F486EB91E002C08FEBE3
:1014900091E00E94F00311E003C01092B80220C056
:1014A00080919E0282FFD1CF10929E02113061F690
:1014B00090E080919002882309F491E0909390024B
:1014C000992319F486EB91E002C08FEB91E00E9422
:1014D000F0038BE090E0609190020E94EB18B5CF92
:1014E0001F910F910895EF92FF920F931F938AE03F
:1014F0008093A1028AE090E00E94DD18F82E00E0BF
:101500004AE0E42E01C000E080919E02882321F48D
:1015100080919F02882319F0E092A10204C080917B
:10152000A102882369F180919E0280FD66C08091AE
:101530009E0281FF28C010929E02002309F5FF2021
:1015400051F088EC91E00E94F0038091B00281603C
:101550008093B00204C081ED91E00E94F00380917D
:10156000B10281608093B1028091B2028160809368
:10157000B2028091B30281608093B30201E003C0A4
:101580001092B8023AC080919E0282FFBDCF1092A5
:101590009E02013009F0B7CF10E0FF2009F411E0FE
:1015A000F12E112351F088EC91E00E94F00380911C
:1015B000B00281608093B00204C081ED91E00E948E
:1015C000F0038091B10281608093B1028091B202F8
:1015D00081608093B2028091B30281608093B302F4
:1015E0008AE090E0612F0E94EB180E94E50780EAF4
:1015F0009FE061E00E94690287CF1F910F91FF90E9
:10160000EF9008953F924F925F926F927F928F92E8
:101610009F92AF92BF92CF92DF92EF92FF920F9381
:101620001F938AE08093A10289E090E00E94DD1878
:10163000182F20E06AE0362E0EE15AE5552E45E5DA
:10164000442E30E5732E9BE4692E86E4882EB1E4A7
:10165000AB2EACE39A2EF7E3BF2EE2E3DE2E7DE263
:10166000C72E68E2F62E53E2E52E01C020E08091FD
:101670009E02882321F480919F02882319F03092E2
:10168000A10204C08091A102882349F180919E02A9
:1016900080FD89C080919E0281FF29C010929E0228
:1016A0002223E9F48AED91E00E94F003812F6AE0A1
:1016B0000E946D18E82FF0E0EC57FF4FE491E160D5
:1016C000E093B202812F0E946D18E92FF0E0EC57F1
:1016D000FF4FE491E160E093B30221E008C0109273
:1016E000B80289E090E0612F0E94EB185CC0809105
:1016F0009E0282FD04C080919F0282FFB8CF1092AB
:101700009E02213009F0B2CF1B5F1C3508F01EE1AC
:10171000812F6AE00E946D18E82FF0E0EC57FF4F30
:10172000E491E160E093B202812F0E946D18E92FED
:10173000F0E0EC57FF4FE491E160E093B3021F311A
:1017400080F1143210F4E7BC92CF193210F4F7BCD8
:101750008ECF1E3210F4C7BC8ACF133310F4D7BC1F
:1017600086CF183310F4B7BC82CF1D3310F497BC6A
:101770007ECF123410F4A7BC7ACF173410F487BC94
:1017800076CF1C3410F467BC72CF113510F477BCDF
:101790006ECF163510F447BC6ACF1B3511F057BC1D
:1017A00066CF07BD64CF1F910F91FF90EF90DF9040
:1017B000CF90BF90AF909F908F907F906F905F90F1
:1017C0004F903F900895FF920F931F938AE080936C
:1017D000A10210E00AE0FF24F39480919E02882386
:1017E00021F480919F02882319F00093A10205C083
:1017F0008091A102882309F472C080919E0280FD2D
:1018000008C180919E0281FF6DC010929E0211233B
:10181000D1F480919002882311F411E006C087EB87
:1018200090E061E00E94931412E080E00E941704AF
:101830008091AC0281608093AC028091AD028160A6
:101840008093AD024FC0113029F48091900288231B
:1018500039F020C01230E1F4809190028130A9F477
:1018600080919002882311F011E001C012E080E025
:101870000E9417048091AF0281608093AF02809133
:10188000B00281608093B0022DC0882339F015C06A
:10189000113099F480919002813079F480E00E94B7
:1018A00017048091B20281608093B2028091B302EA
:1018B00081608093B30213E015C083E68093B80281
:1018C00080E00E941704789410929C0210929B0270
:1018D00080919B0290919C028C5D9540C8F3109280
:1018E000B80297C080919E0282FD04C080919F0241
:1018F00082FF73CF10929E02113061F58091B90280
:101900008F5F8093B9028091B9028D3010F01093EF
:10191000B90280E00E94170480919002882359F454
:101920008091AC0281608093AC028091AD028160B5
:101930008093AD020AC08091AF0281608093AF02B4
:101940008091B00281608093B0026091B90282E020
:1019500090E04DC0123061F58091AA028F5F8093B4
:10196000AA028091AA02803210F0F092AA0280E0CE
:101970000E94170480919002813059F48091AC024A
:1019800081608093AC028091AD0281608093AD0252
:101990000AC08091AF0281608093AF028091B00253
:1019A00081608093B0026091AA0283E090E01FC042
:1019B0001330F9F48091A7028F5F8093A702809182
:1019C000A70264E60E946D189093A70280E00E942F
:1019D00017048091B20281608093B2028091B302B9
:1019E00081608093B3026091A70281E090E00E9441
:1019F000EB1880919F0282FFF0CE789410929C02A7
:101A000010929B0280919B0290919C02CC97D0F304
:101A1000E4CE1F910F91FF900895DF92EF92FF9215
:101A20000F931F93E090A602F090B4020091BA02C7
:101A30008AE08093A10210E07AE0D72E80919E0286
:101A400080FDD7C080919E02882321F480919F025F
:101A5000882319F0D092A10205C08091A1028823A9
:101A600009F44BC080919E0281FF4AC010929E02F1
:101A70001123B9F4E090A602F090B4020091BA02EA
:101A80008E2D6F2D402F0E94F4028091AC02816058
:101A90008093AC028091AD0281608093AD0211E031
:101AA0002FC0113089F48E2D6F2D402F0E94F4022B
:101AB0008091AF0281608093AF028091B00281601B
:101AC0008093B00212E01CC0123089F48E2D6F2D6D
:101AD000402F0E94F4028091B20281608093B20292
:101AE0008091B30281608093B30213E009C0E09259
:101AF000A602F092B4020093BA021092B80279C022
:101B000080919E0282FD04C080919F0282FF96CF49
:101B100010929E021130F9F48E2D90E0019668E14A
:101B200070E00E948D18E82E6F2D402F0E94F40265
:101B30008091AC0281608093AC028091AD028160A3
:101B40008093AD02E092A6026091A60284E090E04C
:101B50000E94EB183DC0123001F58F2D90E00196E8
:101B60006CE370E00E948D18F82E8E2D6F2D402FA3
:101B70000E94F4028091AF0281608093AF02809155
:101B8000B00281608093B0026091B40285E090E081
:101B90000E94EB18F092B4021BC01330C9F4802FDE
:101BA00090E001966CE370E00E948D18082F8E2D56
:101BB0006F2D402F0E94F4028091B20281608093C9
:101BC000B2028091B30281608093B3020093BA02A3
:101BD00080919F0282FF32CF789410929C021092E3
:101BE0009B0280919B0290919C028B349105C8F3DB
:101BF00025CF1F910F91FF90EF90DF900895EF9206
:101C0000FF920F931F931091B6020091A8028AE0F1
:101C10008093A102FF24FAE0EF2E80919E0280FDC6
:101C2000AFC080919E02882321F480919F02882377
:101C300019F0E092A10217C08091A102882399F4C3
:101C40001092B8021093B6020093A8026091B602F7
:101C500087E090E00E94EB186091A80288E090E095
:101C60000E94EB188DC080919E0281FF3CC01092B3
:101C70009E02FF2089F4812F602F0E9470038091C3
:101C8000AC0281608093AC028091AD028160809350
:101C9000AD02FF24F39427C081E0F81689F4812F68
:101CA000602F0E9470038091AF0281608093AF0229
:101CB0008091B00281608093B002E2E0FE2E13C0FA
:101CC0001093B6020093A8026091B60287E090E0FC
:101CD0000E94EB186091A80288E090E00E94EB1847
:101CE0001092B8024DC080919E0282FD04C0809186
:101CF0009F0282FF92CF10929E0281E0F816B1F40B
:101D0000812F90E0019668E170E00E948D18182FF5
:101D1000602F0E9470038091AC0281608093AC02BE
:101D20008091AD0281608093AD0219C082E0F81607
:101D3000B1F4802F90E001966CE370E00E948D1862
:101D4000082F812F602F0E9470038091AF02816065
:101D50008093AF028091B00281608093B002809145
:101D60009F0282FF5ACF789410929C0210929B029D
:101D700080919B0290919C028B349105C8F34DCFCA
:101D80001F910F91FF90EF9008951F920F920FB641
:101D90000F9211242F933F934F935F936F937F93F1
:101DA0008F939F93AF93BF93EF93FF9300B605FE7E
:101DB00028C080919102882309F041C05B9A85B1C7
:101DC000877D85B95E988CB58F7B8CBD80919302A1
:101DD000882361F06091B40285E090E00E94EB18E6
:101DE0006091BA0286E090E00E94EB1881E491E0F5
:101DF00061E00E94931415BC1092A9021092680031
:101E000019C0809191028823D1F080919302882398
:101E100061F06091B40285E090E00E94EB1860915F
:101E2000BA0286E090E00E94EB1887E391E061E05F
:101E30000E949314E0918E02F0918F020995FF9118
:101E4000EF91BF91AF919F918F917F916F915F9132
:101E50004F913F912F910F900FBE0F901F901895AB
:101E60001F920F920FB60F9211242F933F934F930F
:101E70005F936F937F938F939F93AF93BF93EF93F2
:101E8000FF9380E880936100109261008091BA0214
:101E90008F5F8093BA028091BA028C3338F010922F
:101EA000BA028091B4028F5F8093B4028091B40231
:101EB0008C3398F01092B4028091A6028F5F8093C9
:101EC000A6026091A60284E090E00E94EB18609167
:101ED000B40285E090E00E94EB188091A602883160
:101EE00068F01092A6028091AA028F5F8093AA02E6
:101EF0006091AA0283E090E00E94EB188091AA0210
:101F0000803268F58091AA028F3181F48091B90204
:101F1000843029F18091B902863009F18091B902AB
:101F20008930E9F08091B9028B30C9F08091AA0222
:101F30008E3121F48091B902823089F08091AA0219
:101F40008D31D9F48091B9028230B9F48091A70221
:101F500090E08053984F0E942802882371F481E01A
:101F60008093AA028091B9028F5F8093B902609139
:101F7000B90282E090E00E94EB188091B9028D30A6
:101F800070F08091A7028F5F8093A70281E0809319
:101F9000B9026091A70281E090E00E94EB18809165
:101FA0009102882309F06EC08091B802882311F550
:101FB00080919202882349F08091BA0280FF05C087
:101FC00081EE91E00E94F00308C08091A60260912A
:101FD000B4024091BA020E94F4028091B5028823B3
:101FE00021F08091AB02826003C08091AB028D7FB3
:101FF0008093AB028091B5028823E1F09091B60204
:102000008091A6029817B1F49091A8028091B40231
:10201000981781F48091BA02882361F483E491E0F7
:1020200061E00E94931481E08093B70210929A02BB
:10203000109299028091A102882329F08091A10237
:1020400081508093A1028091A002882329F0809181
:10205000A00281508093A0028091990290919A02EF
:10206000009781F0019790939A028093990280FFE4
:1020700004C08091AB02826003C08091AB028D7F6F
:102080008093AB02FF91EF91BF91AF919F918F91A0
:102090007F916F915F914F913F912F910F900FBE64
:1020A0000F901F9018955F926F927F928F929F92E0
:1020B000AF92BF92CF92DF92EF92FF920F931F9356
:1020C000CF93DF938AE08093A1029090AA02709050
:1020D000B9028090A70284E190E00E94DD18A82E4A
:1020E00085E190E00E94DD18E82E8FE090E00E94EC
:1020F000DD188093AA028EE090E00E94DD188093A4
:10210000B90280E190E00E94DD188093A70286E189
:1021100090E00E94DD18F82E8BE190E00E94DD181F
:10212000B82E87E190E00E94E518EC0189E190E08B
:102130000E94E5186C0100E01AE0612E55245394CA
:1021400080919E02882321F480919F02882319F0B8
:102150006092A10205C08091A102882309F4D1C038
:1021600080919E0280FDCFC080919E0281FFE1C0E0
:1021700010929E020023D1F480919002882311F4E2
:1021800001E006C08FEA90E061E00E94931402E053
:1021900082E00E9417048091AC0281608093AC02BF
:1021A0008091AD0281608093AD02C3C0013029F4FB
:1021B00080919002882339F020C00230E1F48091B0
:1021C00090028130A9F480919002882311F001E0FF
:1021D00001C002E082E00E9417048091AE0281609B
:1021E0008093AE028091AF0281608093AF02A1C064
:1021F000882341F07AC00130F1F48091900281305F
:1022000009F073C082E00E9417048091B0028160DF
:102210008093B0028091B10281608093B10280917D
:10222000B20281608093B2028091B3028160809398
:10223000B30203E07EC0033059F4AA2019F08AEEFD
:1022400091E002C083EF91E00E94F00304E071C0CE
:102250000430C1F422E0E21661F083E0E81661F098
:1022600021E0E21619F08CEF91E008C085E092E0E1
:1022700005C08EE092E002C087E192E00E94F00388
:1022800005E057C0053089F4FF2019F480E292E0A0
:1022900008C081E0F81619F489E292E002C082E3F6
:1022A00092E00E94F00306E044C0063031F48F2D26
:1022B000BE010E94900607E03CC0073049F422E0CE
:1022C000F21641F08F2DB6010E94210608E031C0C0
:1022D000083059F4BB2031F08BE392E00E94F00308
:1022E00009E027C084E492E0F9CF789410929C0230
:1022F00010929B0280919B0290919C028C5D954074
:10230000C8F31092B8029092AA027092B902809219
:10231000A702DF91CF911F910F91FF90EF90DF9077
:10232000CF90BF90AF909F908F907F906F905F9075
:10233000089580919E0282FD04C080919F0282FFD9
:10234000FFCE10929E02013061F58091B9028F5F3D
:102350008093B9028091B9028D3010F00093B902D8
:1023600082E00E94170480919002882359F48091A2
:10237000AC0281608093AC028091AD028160809359
:10238000AD020AC08091AE0281608093AE0280915E
:10239000AF0281608093AF026091B9028EE090E05D
:1023A00001C1023061F58091AA028F5F8093AA0279
:1023B0008091AA02803210F05092AA0282E00E941C
:1023C000170480919002813059F48091AC028160B1
:1023D0008093AC028091AD0281608093AD020AC00F
:1023E0008091AE0281608093AE028091AF028160E5
:1023F0008093AF026091AA028FE090E0D3C00330D7
:1024000041F58091A7028F5F8093A7028091A70278
:1024100064E60E946D189093A70282E00E94170460
:102420008091B00281608093B0028091B10281609E
:102430008093B1028091B20281608093B202809158
:10244000B30281608093B3026091A70280E190E0C3
:10245000A9C0043089F410E0AA2009F411E0A12EEB
:10246000112319F08AEE91E002C083EF91E00E94FF
:10247000F00384E190E095C00530E1F4E39483E05B
:10248000E82222E0E21659F0E81661F081E0E81651
:1024900019F08CEF91E008C085E092E005C08EE075
:1024A00092E002C087E192E00E94F00385E190E0B3
:1024B0006E2D78C00630C9F4F39422E02F1510F485
:1024C000FF2402C0FF2019F480E292E008C081E0FE
:1024D000F81619F489E292E002C082E392E00E94C9
:1024E000F00386E190E06F2D5DC0073009F5FF2015
:1024F00041F4259622E0C539D20780F0C3E2D0E04E
:102500000DC081E0F81641F4239621E0CD32D207C8
:1025100028F0CFE0D0E002C02196D07087E190E0B3
:10252000BE010E94F9188F2DBE010E9490063CC08A
:10253000083029F5FF2059F40894C11CD11C89E703
:10254000C816D10490F0B4E2CB2ED12C0EC021E0FD
:10255000F21659F40894C11CD11C82E3C81681E01C
:10256000D80618F0ACE5CA2ED12C89E190E0B6016E
:102570000E94F9188F2DB6010E94210615C009305E
:1025800099F410E0BB2009F411E0B12E112319F0E9
:102590008BE392E002C084E492E00E94F0038BE1BE
:1025A00090E0612F0E94EB1880919F0282FFC8CDBE
:1025B000789410929C0210929B0280919B029091C1
:1025C0009C02CC97D0F3BCCDAF92BF92CF92DF925A
:1025D000EF92FF920F931F9315BC569A5E9884B7A3
:1025E00014BE90E00E94EA1488E10FB6F89480933C
:1025F0006000109260000FBE2FE088E190E00FB6FF
:10260000F894A895809360000FBE20936000A89571
:1026100011E010939202109293028AE190E00E94DE
:1026200071148CE291E061E00E94931488E480BF11
:1026300080ED97E00197F1F700B605FE0BC080B77B
:10264000806180BF81E291E061E00E9493140E946A
:10265000160845C00E9415025B988EE091E061E08B
:102660000E9493148BEF90E061E00E94931410930A
:1026700069001DBB1092B80282EF90E061E00E94F9
:10268000931481E58CBD87EE90E061E00E94931485
:1026900089E090E00E94DD180E94B00278948BE0FF
:1026A00090E00E94DD18809390028AED90E061E056
:1026B0000E9493140E94E50780EA9FE061E00E9477
:1026C00069028FEC90E061E00E9493140E9416086A
:1026D00084EC90E061E00E9493140E946B088FEB01
:1026E00090E061E00E94931413E646E0A42E38E0E7
:1026F000B32E27E0C22E9BE0D92E85E0E82E03E022
:10270000F02E04E0A89500B605FE03C00E94E90182
:10271000F9CF80919E0280FF58C010929E02809156
:10272000B802853071F1863038F4833009F1843095
:10273000A0F4882349F062C08730A9F1873050F1B6
:10274000883009F05BC038C00093B8028DE492E095
:102750000E94F0030E94FF0DD5CFF092B80287E5EA
:1027600092E00E94F0030E940D0D10929202CACFD7
:10277000E092B80280E692E00E94F0030E94E30B30
:10278000C1CFA092B80289E692E00E94F0030E94B5
:10279000020BB8CFC092B80282E792E00E94F00329
:1027A0000E94730AAFCFB092B8028BE792E00E940A
:1027B000F0030E94160AA6CFD092B80284E892E0F5
:1027C0000E94F0030E9453109DCF80919E0281FFD2
:1027D00018C010929E021093B80281E00E94170464
:1027E000A895789410929C0210929B0280919B0273
:1027F00090919C028C5D9540C8F3A8951092B80208
:1028000081CF80919E0282FF7DCF10929E02109315
:10281000B80281E00E941704A895789410929C0257
:1028200010929B0280919B0290919C028C5D95403E
:10283000C8F3A89567CF1F920F920FB60F9211247D
:102840002F933F934F935F936F937F938F939F93B8
:10285000AF93BF93EF93FF9389E60E947E1429B153
:102860007894789410929C0210929B0280919B0223
:1028700090919C020A97D0F389B1247030E090E0E7
:10288000847090702817390711F40E946B08FF912B
:10289000EF91BF91AF919F918F917F916F915F91D8
:1028A0004F913F912F910F900FBE0F901F90189551
:1028B00006C090E000009F5F9E31E1F781508823C1
:1028C000C1F7089548EC50E009C020E137E2FA0171
:1028D0003197F1F721503040D1F781508823A9F783
:1028E00008959093C5008093C40088E18093C1004F
:1028F0008EE08093C200519A50980895982F80914D
:10290000C00085FFFCCF9093C60080E090E0089562
:102910008091C00087FFFCCF8091C6000895809110
:10292000C00080780895AC0120E007C08091C0000D
:1029300085FFFCCF3093C6002F5FFA01E20FF11D37
:102940003491332399F7662371F08091C00085FF9D
:10295000FCCF8AE08093C6008091C00085FFFCCF49
:102960008DE08093C6000895FC0107C08091C000EF
:1029700085FFFCCF31969093C60090819923B1F7E3
:102980000895282F982F92959F709A3030F4809157
:10299000C00085FFFCCF905D05C08091C00085FF21
:1029A000FCCF995A9093C600822F90E08F70907060
:1029B0000A973CF48091C00085FFFCCF2F70205D0A
:1029C00006C08091C00085FFFCCF2F70295A20934C
:1029D000C60008951F93182F892F0E94C114812FBC
:1029E0000E94C1141F910895EF92FF920F931F93BD
:1029F0007B018C01C801AA27BB270E94EA14C701EA
:102A00000E94EA141F910F91FF90EF9008950F9389
:102A10001F93CF93DF938C01E0E1F7E240E0C0E049
:102A2000D0E0C801BF010E947918262F662329F43F
:102A3000442319F4E130F10549F48091C00085FF89
:102A4000FCCF205D2093C600205341E0CF016AE017
:102A500070E00E9479182196C530D10571F0822F5F
:102A600090E09C012E9FC0012F9F900D3E9F900DE6
:102A70001124081B190BFB01D4CFDF91CF911F91BB
:102A80000F9108954F925F926F927F928F929F92D3
:102A9000AF92BF92CF92DF92EF92FF920F931F936C
:102AA000CF93DF934B015C01E12C9AECF92E9AE96C
:102AB000092F9BE3192F4424C0E0D0E0C501B401E5
:102AC000A80197010E94A018D22E222341F444208D
:102AD00031F481E0E816F1040105110561F48091FB
:102AE000C00085FFFCCF80E3D80ED092C60080EDF9
:102AF000D80E44244394C801B7012AE030E040E0F6
:102B000050E00E94A018C22E732E642E552E2196DE
:102B1000CA30D105A9F06D2D70E080E090E0A801E9
:102B200097010E944E18861A970AA80AB90A2C2DF6
:102B3000372D462D552DC901DA017C018D01BECFFF
:102B4000DF91CF911F910F91FF90EF90DF90CF9089
:102B5000BF90AF909F908F907F906F905F904F90BD
:102B600008959C0160E971E00E947918892B11F4A5
:102B700081E00895C90164E670E00E947918892B0C
:102B800011F480E0089580E023703070232B09F465
:102B900081E008956F927F928F929F92AF92BF9241
:102BA000CF92DF92EF92FF920F931F93CF93DF9319
:102BB000982F362FB42E722E602EAE2CE41620F0F5
:102BC000E41679F4281768F4872D662D4A2D292FED
:102BD000032FEB2C0E94CA1566277727681B790BF9
:102BE000B6C0971541F4BA1409F043C0662D70E0E1
:102BF000631B7109ACC0BA1409F03BC0C92FD0E007
:102C0000FE01EA59FC4FE4910E2F10E0031B11095D
:102C1000923031F48B2D90E00E94B115080F111DF8
:102C200097E6C92E93E0D92ECC0EDD1EEE24FF24AC
:102C30004E010894811C911CC72DD0E013C0F601F1
:102C40008491080F111D2230310531F48B2D90E055
:102C50000E94B115080F111D0894E11CF11C089485
:102C6000C11CD11C94012E0D3F1D2C173D073CF3B8
:102C70006BC0C92FD0E0FE01EA59FC4FE4910E2F42
:102C800010E0031B1109923031F48B2D90E00E946B
:102C9000B115080F111D87E6C82E83E0D82ECC0E83
:102CA000DD1EEE24FF24219613C0F6018491080F47
:102CB000111D2230310531F48B2D90E00E94B115A9
:102CC000080F111D0894E11CF11C0894C11CD11CB3
:102CD0009E012E0D3F1D2D3031053CF38B2D90E0D4
:102CE0007C010894E11CF11CC0E0D0E04C01CA2C2E
:102CF000DD240BC0C7010E94B11590E083599E4F9F
:102D0000080F191F0894E11CF11C2196CE01880DB3
:102D1000991D8C159D0574F3C1E0D0E0E72CFF24CC
:102D200010C0FE01EA59FC4FE4910E0F111DC23094
:102D3000D10531F48A2D90E00E94B115080F111DC4
:102D40002196CE15DF056CF3B801660D711DCB0120
:102D5000DF91CF911F910F91FF90EF90DF90CF9077
:102D6000BF90AF909F908F907F906F9008959B0140
:102D7000882351F4229FB001239F700D329F700D64
:102D800011248FEB92E00BC08130D9F4229FB00167
:102D9000239F700D329F700D112480E197E29C01FA
:102DA000429FC001439F900D529F900D11240E949D
:102DB0007918CB016F3F710529F020F08FEF90E07B
:102DC0000895842F08958F92AF92CF92EF920F9330
:102DD0001F93DF93CF93CDB7DEB70E94CA15AC0126
:102DE000CC2019F02CE130E302C024E63DE18CE96F
:102DF0009FEF489F8001499F100D589F100D11248F
:102E0000020F131F882D90E08E3291051CF08DE289
:102E100090E005C08831910514F488E190E0BC0190
:102E20006851704043E0A41609F08EC0CC2009F030
:102E300041C001501F495B85513031F54FE453E0EB
:102E400020E030E0FA0185919491892BB1F0F901ED
:102E5000EE0FFF1FEE0FFF1FEF5AFC4F859194916D
:102E600024E630E0FC01E29FC001E39F900DF29F59
:102E7000900D1124081B190B07C02F5F3F4F4C5FAB
:102E80005F4F23303105F1F6E8E8F2E084918823C2
:102E900019F080E090E007C077968491882309F4C8
:102EA000E5C087E190E0680F791F67577D4FFB0110
:102EB000649139C008501B44FB85F13031F54BE576
:102EC00053E020E030E0FA0185919491892BB1F034
:102ED000F901EE0FFF1FEE0FFF1FE35AFC4F859124
:102EE000949124E630E0AC01429FC001439F900DD5
:102EF000529F900D1124081B190B07C02F5F3F4FE5
:102F00004C5F5F4F23303105F1F680E090E0FC012B
:102F1000EA54FD4FE491EE2391F0680F791F695454
:102F20007D4FFB01649170E080E090E023E531E7A4
:102F30004FEF5FEF0E944E18060F171F97C047967E
:102F40008534910521F792C0CC2009F03DC0FB8566
:102F5000F13031F54BEF52E020E030E0FA0185919D
:102F60009491892BB1F0F901EE0FFF1FEE0FFF1FB7
:102F7000E350FD4F8591949124E630E0AC01429FEF
:102F8000C001439F900D529F900D1124081B190BF7
:102F900007C02F5F3F4F4C5F5F4F2B303105F1F67D
:102FA00080E090E0FC01E35AFE4FE491EE2339F01B
:102FB000680F791F625A7E4FFB0164913CC04796AF
:102FC0008A38910579F747C0FB85F13031F547E242
:102FD00053E020E030E0FA0185919491892BB1F023
:102FE000F901EE0FFF1FEE0FFF1FE75DFC4F85910C
:102FF000949124E630E0AC01429FC001439F900DC4
:10300000529F900D1124081B190B07C02F5F3F4FD3
:103010004C5F5F4F2A303105F1F680E090E0FC0113
:10302000E951FE4FE491EE2391F0680F791F68514A
:103030007E4FFB01649170E080E090E023E531E792
:103040004FEF5FEF0E944E18060F171F04C0479600
:10305000813A910521F7F2E0AF1619F40E531D469F
:1030600005C041E0A41611F403521C4580E693E02C
:10307000089F9001099F300D189F300D112444279F
:1030800037FD4095542FB901CA01CF91DF911F91AF
:103090000F91EF90CF90AF908F900895629FD001E5
:1030A000739FF001829FE00DF11D649FE00DF11D03
:1030B000929FF00D839FF00D749FF00D659FF00DB2
:1030C0009927729FB00DE11DF91F639FB00DE11D9F
:1030D000F91FBD01CF0111240895991B79E004C0A7
:1030E000991F961708F0961B881F7A95C9F7809547
:1030F0000895AA1BBB1B51E107C0AA1FBB1FA6173F
:10310000B70710F0A61BB70B881F991F5A95A9F790
:1031100080959095BC01CD01089597FB092E072657
:103120000AD077FD04D0E5DF06D000201AF47095B0
:1031300061957F4F0895F6F7909581959F4F08957B
:10314000A1E21A2EAA1BBB1BFD010DC0AA1FBB1FAB
:10315000EE1FFF1FA217B307E407F50720F0A21B1D
:10316000B30BE40BF50B661F771F881F991F1A948A
:1031700069F760957095809590959B01AC01BD01B4
:10318000CF01089597FB092E05260ED057FD04D0D8
:10319000D7DF0AD0001C38F4509540953095219522
:1031A0003F4F4F4F5F4F0895F6F79095809570957C
:1031B00061957F4F8F4F9F4F0895F999FECF92BD34
:1031C00081BDF89A992780B50895A8E1B0E042E062
:1031D00050E00C940019262FF999FECF1FBA92BD2A
:1031E00081BD20BD0FB6F894FA9AF99A0FBE0196E8
:1031F00008950E94EB18272F0C94EC18DC01CB01EA
:10320000FC01F999FECF06C0F2BDE1BDF89A3196F6
:1032100000B40D9241505040B8F70895F894FFCF94
:1032200073756E646179006D6F6E64617900747599
:103230006573646179007765646E736461790074A5
:10324000687572736461790066726964617900738C
:1032500061747572646179006A616E00666562000E
:103260006D6172636800617072696C006D617900F4
:103270006A756E65006A756C7900617567737400B4
:1032800073657074006F63746F62006E6F76656D46
:1032900000646563656D0020202066742020200096
:1032A00020202020636D202000202020206C6273CD
:1032B0002000202020206B6720200020202020627A
:1032C0006D692000616C61726D206F6E00736E6FAE
:1032D0006F7A696E67007573612D313268720065AF
:1032E00075722D3234687200766F6C206869676879
:1032F00000766F6C20206C6F7700627269746520B5
:103300000020202020202020200066656D616C6553
:103310002020006D616C6520202020006E6F726D92
:10332000616C20200070657373696D6973006F7044
:1033300074696D697374007361646973746963009F
:10334000696D70657269616C006D65747269632086
:103350002000646972656374202000736D6F6B6573
:10336000722020006E6F6E20736D6B720073657437
:1033700020616C61726D007365742074696D650005
:10338000736574206461746500736574206272698A
:10339000740073657420766F6C20007365742072FE
:0E33A00065676E006465617468636C6B0000A5
:00000001FF
