:100000000C94B3020C9465100C94D0020C9428113B
:100010000C94D0020C9475110C94D0020C94D00264
:100020000C94D0020C9419170C94D0020C94D002AA
:100030000C94D0020C94D0020C94D0020C94D002F8
:100040000C947F120C94D0020C94D0020C94D00229
:100050000C94D0020C94D0020C94D0020C94C203E5
:100060000C94D0020C94D0020A0101000000080098
:100070003201000A010100000000230024000008F2
:10008000100A060A19F800C203070809060A050C37
:100090000488000B10120F0D0E1113930020202066
:1000A00020202020202020646561746874756265BA
:1000B0002E2020646562756767696E672E20206355
:1000C0006F6465206F7074696D697A6174696F6EB1
:1000D0002E20206279206361697473697468322EFE
:1000E0002020636F6465206A6564692E202077771D
:1000F000772E6361697473697468322E636F6D2043
:1001000020202020202020202069636574756265EE
:100110002E2020696365747562652068617264775A
:100120006172652E20206279206C6164796164615E
:100130002E202073696D706C79207468652062656B
:1001400073742E2020202020202020202067707310
:1001500020636F6465206279206465766C696E2027
:100160007468796E652E20202020202020202020F9
:10017000616461667275697420696E647573747206
:100180006965732E207777772E6164616672756971
:10019000742E636F6D20202020202020202020003E
:1001A0006A616E2020006665622020006D617263C6
:1001B0006800617072696C006D61792020006A7559
:1001C0006E6520006A756C79200061756773740034
:1001D0007365707420006F63746F62006E6F766574
:1001E0006D00646563656D0073756E6461792020D0
:1001F0006D6F6E6461792020747565736461792018
:100200007765646E7364617974687572736461791B
:1002100066726964617920207361747572646179B2
:1002200000616C61726D206F6E006575722D3234E5
:100230006872007573612D3132687200766F6C20C0
:10024000206C6F7700766F6C2068696768006E6F4E
:100250006E20736D6B7200736D6F6B657220200082
:100260006469726563742020006D6574726963202F
:100270002000696D70657269616C007361646973F7
:10028000746963006F7074696D697374007065736D
:1002900073696D7374006E6F726D616C2020006DF8
:1002A000616C65202020200066656D616C652020F2
:1002B0000020202020636D20200020202066742054
:1002C00020200020202020626D6920002020202096
:1002D0006B67202000202020206C62732000627257
:1002E00069746520006465617468636C6B006162A9
:1002F0006F757420202000736574207265676E002E
:1003000073657420766F6C20007365742062726967
:100310007400736574207A6F6E6500736574206471
:10032000617465007365742074696D65007365742C
:1003300020616C61726D0074696D65732075700069
:1003400020202020202020200074696D65732075F6
:100350007000736E6F6F7A696E67001400000000A2
:10036000000000000000000000000000000000008D
:100370000000280000000001010101020202030345
:10038000030404040505060608320000000000010D
:10039000010101020202020303040404050505072A
:1003A0003C00000000000001010101020202030301
:1003B00003040404050506460000000001010101D4
:1003C0000102020202030303040404040000C80043
:1003D000000000000000000000000000000000001D
:1003E00000000000051400000000000000000000F4
:1003F0000000000000000000000000001E000000DF
:1004000001010101020203030304040505060607B6
:1004100007080D2800000001010101020202030388
:100420000304040505060606070B32000000000061
:100430000101010202020303030404040505060688
:100440000A3C00000000000000010101010202025C
:100450000303030404040507460000000000000035
:10046000000101010102020202020303030305C8A5
:100470000000000000000000000000000101010178
:100480000101010102021400000000000000000050
:1004900000000000000000000000000000C8000094
:1004A000000000000000010101010101020202023E
:1004B000020303041400000000000000000000001C
:1004C00000000000000000000000001E000000000E
:1004D0000000000101010101020202020303030303
:1004E0000406C80000000000000001010101010134
:1004F000020202020303030305190000001E00B3F9
:100500000A23008F0A2800FD092D00D80932006A4D
:10051000093700D9083C00FE074100FE06460047A7
:1005200006C800B504190000001E003F092D001B7D
:10053000093200F6083700D1083C0090084100F667
:1005400006460022074B006505C800480419000054
:10055000001E00FE04C800DA04190000001E00900E
:1005600005C8006C050011241FBECFEFD4E0DEBF2C
:10057000CDBF11E0A0E0B1E0E8EFFDE302C00590DF
:100580000D92A837B107D9F712E0A8E7B1E001C092
:100590001D92A937B107E1F70E94CD150C94FA1E00
:1005A0000C94000078941092890110928801209197
:1005B00088013091890128173907C8F30895EF920F
:1005C000FF920F931F93CF93DF930DE212E0C8E5E4
:1005D000D2E08FEFE82E81E0F82EF801608188816B
:1005E000681731F0C7010E94EC1EF80180818883F2
:1005F0000F5F1F4F21960894E108F108FFEDEF16F9
:10060000F1E0FF0651F7DF91CF911F910F91FF901D
:10061000EF900895CF92DF92EF92FF920F931F9386
:10062000CF93DF930DE212E098E5E92E92E0F92EE8
:100630006801CFEFD1E0CE010E94E41ED6018D9378
:100640006D01F70181937F012197F1E0CF3DDF0735
:1006500091F780914C02823C79F080E090E0FC01BF
:10066000E859FF4FE491D801ED938D010196803256
:100670009105A9F70E94DF02DF91CF911F910F91A1
:10068000FF90EF90DF90CF900895A8950895EDE248
:10069000F2E0E80FF11D918180E0208130E0282B0D
:1006A000392BC9010895EDE2F2E0E80FF11D6083F6
:1006B000718308958F929F92AF92CF92DF92EF92C3
:1006C000FF920F931F93DF93CF930F92CDB7DEB7B7
:1006D00080913D0280937802F0903902E0903A02D6
:1006E00020913B022459D090440200914502109180
:1006F00046021459C0903C02A090780285E12983FB
:100700000E9447034C0183E10E944703AC018091A2
:100710003E02B4010E946A1A882E00D000D0EDB7C4
:10072000FEB7319680914302ADB7BEB711968C9358
:10073000809147028183809148028283809149029F
:1007400083838F2D6E2D2981422F2D2DE12E0E9426
:100750008B1B0F900F900F900F900F90CF91DF9108
:100760001F910F91FF90EF90DF90CF90AF909F90EF
:100770008F90089580917802833011F484E0089579
:1007800081E008951F920F920FB60F9211242F93BC
:100790003F934F935F936F937F938F939F93AF9309
:1007A000BF93EF93FF9300B605FE1EC080917C01BE
:1007B000882389F55B9A85B1877D85B95E988CB56C
:1007C0008F7B8CBD80917E01882341F0809128022F
:1007D00080933102809156028093320215BC1092B0
:1007E0001D021092680010C080917C01882399F04E
:1007F00080917E01882341F080912802809331020C
:1008000080915602809332020E94DF02E0917801CB
:10081000F09179010995FF91EF91BF91AF919F916F
:100820008F917F916F915F914F913F912F910F9099
:100830000FBE0F901F90189581E080937C015B9A0A
:100840008CB58F7B8CBD85B1877D85B95E9815BCD5
:1008500010921D021092680085B1897F85B98BB115
:100860008F7C8BB928988AB18F7C8AB920985A9846
:100870005298E1E6F0E090E8908388E08083449A23
:1008800083B7876083BF88959083108244980895CA
:100890008EE284B988E48AB989E187B984E38BB9A7
:1008A00081E085B995E09093680080936B0080E3C8
:1008B00080936D00089580918B0180FD1EC0809112
:1008C0008B01882321F480918C01882321F08AE018
:1008D000809392010AC080919201882331F4809123
:1008E0007B0180934F0282E0089580918B0181FF0C
:1008F00006C00E94DF0280E0089581E0089580E054
:100900000895EFE1F2E0E60FF11D6AE00E94431E58
:1009100028E431E0D901A80FB11D8C918083290F03
:10092000311DD9018C9181830895643008F047C04E
:1009300090917A01992319F4613081F404C09130C7
:1009400069F4623059F48091200281608093200222
:100950008091210281608093210208956330B9F46F
:10096000823051F48091240281608093240280912E
:100970002502816080932502809126028160809308
:1009800026028091270281608093270208958823A0
:1009900019F0E3E0F0E002C0E4E0F0E0E15EFD4FDA
:1009A000908191609083882319F4E5E0F0E002C023
:1009B000E4E0F0E0E15EFD4F808181608083089596
:1009C0008091300238E1632F0E94431E909398017A
:1009D000809131022CE3622F0E94431E90932802E3
:1009E000809132020E94431E9093560280913402FD
:1009F0000E94431E90931C0280913302632F0E9439
:100A0000431E90932C02EDE2F2E0808164E60E94A6
:100A1000431E892F90E090931B0280931A028181DC
:100A20006DE00E94431E9093510282818F718093EA
:100A30001E0291E090937E01E6EBF0E080818062FF
:100A4000808385E08093B10090937000789408953E
:100A50009C0183709070009739F4C90164E670E0DE
:100A60000E945C1E009771F4C90160E971E00E9468
:100A70005C1E9C0181E090E02115310529F080E0A9
:100A800090E0089581E090E00895DF92EF92FF9268
:100A90000F931F93809144028093550280914502E9
:100AA000809397018091460280934D020E945A03E1
:100AB0007B018C01DD24D39450C080E69AEFAFEF28
:100AC000BFEFE80EF91E0A1F1B1F809197018F5F71
:100AD0008093970180919701803268F5809197010A
:100AE0008F3181F480915502843029F18091550233
:100AF000863009F1809155028930E9F080915502E4
:100B00008B30C9F0809197018E3121F4809155028C
:100B1000823089F0809197018D31A1F48091550246
:100B2000823081F480914D0290E08459984F0E9468
:100B30002805882339F4D0929701809155028F5F60
:100B400080935502809155028D3038F0D092550235
:100B500080914D028F5F80934D0290EAE91695E0F7
:100B6000F90690E0090790E0190708F0A6CF1F9159
:100B70000F91FF90EF90DF9008959F92AF92BF92F8
:100B8000CF92DF92EF92FF920F931F930E945A032E
:100B90005B016C012091510200911E0280911A02AA
:100BA00090911B0240914602445930EDE32EE80E2D
:100BB00080914402609145020E947B197B018C0167
:100BC0000E94BA03982EC801B70120EA35E040E040
:100BD00050E00E94241E292D30E040E050E00E94A9
:100BE000241EA61AB70AC80AD90A109198010E94B1
:100BF000BA032CE3120290011124482F50E0249FE5
:100C0000C001259F900D349F900D1124AA2797FDB8
:100C1000A095BA2FA81AB90ACA0ADB0AE0902802DE
:100C20000E94BA03482F50E02E2D332727FD309520
:100C3000429FC001439F900D529F900D1124AA27FF
:100C400097FDA095BA2FA81AB90ACA0ADB0AA09282
:100C50008E01B0928F01C0929001D09291010E94BA
:100C6000450580911A0290911B0220914D028D59E9
:100C70009F4F30E082179307CCF520914D02809171
:100C80001A0290911B0230E08C599F4F28173907A8
:100C900059F4209155028091510230E0992787FD47
:100CA00090952817390714F120914D0280911A026E
:100CB00090911B0230E08C599F4F28173907F1F4AF
:100CC000209155028091510230E0992787FD90953F
:100CD0002817390799F42091970180911E0230E07E
:100CE000992787FD90952817390744F410928E01B3
:100CF00010928F0110929001109291011F910F910B
:100D0000FF90EF90DF90CF90BF90AF909F900895AD
:100D10008091360280931D0285B1866085B982E399
:100D20008093800080911D02882329F080918000AB
:100D300080688093800088E1809381008AEF90E052
:100D40009093870080938600809186009091870021
:100D5000969587959093890080938800809188006C
:100D60009091890090938B0080938A0008950F934F
:100D70001F93CF93DF9300E810E0F8011082C1E8E1
:100D8000D0E01882299A2A988AE090E00E94D20244
:100D90002A9A29988AE090E00E94D20285B1897F40
:100DA00085B982EBF801808388E18883DF91CF9158
:100DB0001F910F9108951F93162F9C0140E050E062
:100DC00060E472E48FE090E00E94A51E30938700FB
:100DD0002093860080918600909187009695879554
:100DE00090938B0080938A0080918A0090918B0071
:100DF000909389008093880016C080918100826062
:100E00008093810088EC90E00E945F1980918100BE
:100E10008D7F8093810085B1897F85B988EC90E0D2
:100E20000E945F191150112341F785B1897F85B95F
:100E30001F9108958B3518F48E3118F003C08AE5A0
:100E400001C08EE187BD83E084BD81E085BD84B5AE
:100E5000806884BD80916E00816080936E0078947C
:100E60000895EF92FF920F931F93082F162FF42EE1
:100E7000E22E10921F02882349F4822F64E60E941A
:100E8000431E8D5E65E00E94810405C082E0809370
:100E900022028093250280917A010D5F882331F42C
:100EA000812F61E00E9481048F2D05C08F2D61E0AC
:100EB0000E948104812F602F0E9481048E2D64E6A0
:100EC0000E94431E892F67E00E9481041F910F91A9
:100ED000FF90EF90089590917A019923D9F4909121
:100EE0001F028C3038F0916090931F029EEC90931B
:100EF000260206C02AEF209326029E7F90931F02AF
:100F00009AEA9093270290E00B966CE070E00E94C2
:100F1000701E8F5F61E00E94810408950F931F93FC
:100F2000DF93CF930F92CDB7DEB7182F862F022F06
:100F3000109222021092250210922602109227028D
:100F400064E049830E948104812F0E946B074981DC
:100F50004C3320F4842F67E00E9481040023A9F021
:100F6000202F30E021503040C901880F991F820F97
:100F7000931FFC01E05EFD4F208121602083FC0176
:100F8000EF5DFD4F8081816080830F90CF91DF9175
:100F90001F910F910895CF92DF92EF92FF920F93DE
:100FA0001F93CF93DF93E0909801F0902802009177
:100FB00056028AE08093920110E0CCE3D0E078E121
:100FC000C72ED12C69C080918B0181FF24C0109263
:100FD0008B01112341F4E0909801F09028020091D8
:100FE000560211E012C0113069F0123069F0E0923F
:100FF0009801F09228020093560280917B01809321
:101000004F024FC012E001C013E08E2D6F2D402F14
:10101000212F0E948E0780918B0182FD04C0809158
:101020008C0182FF39C010928B01113061F48E2D3A
:1010300090E00196B6010E94701EE82E8093980100
:101040008093300219C0123061F48F2D90E0019628
:10105000BE010E94701EF82E8093280280933102F8
:101060000BC0133049F4802F90E00196BE010E941E
:10107000701E082F809356020E94DF028E2D6F2D66
:10108000402F212F0E948E0780918C0182FF04C087
:101090008BE490E00E94D2020E945B04882309F452
:1010A00092CFDF91CF911F910F91FF90EF90DF9042
:1010B000CF900895CF92DF92FF920F931F93CF931B
:1010C000DF93F0902C0200911C028AE08093920141
:1010D00010E0CCE3D0E0E8E1CE2ED12C43C08091EB
:1010E0008B0181FF14C010928B01112339F0113054
:1010F00039F080917B0180934F0239C011E001C02B
:1011000012E08F2D602F4CE3212F0E948E078091DB
:101110008B0182FD04C080918C0182FF23C010925C
:101120008B01113041F48F2D90E00196B6010E94A1
:10113000701EF82E09C0123039F4802F90E001960D
:10114000BE010E94701E082F8F2D602F4CE3212FAF
:101150000E948E0780918C0182FF04C08BE490E096
:101160000E94D2020E945B04882309F4B8CF0E9437
:101170005B04813071F0F0922C0280912C028093FC
:10118000300200931C0280911C02809331020E9465
:10119000DF02DF91CF911F910F91FF90DF90CF90F1
:1011A00008951F93182F242FE82FFF27E7FDF095B0
:1011B000F7FF03C0F095E195FF4F8E2F4CE30E949F
:1011C0008E078AE1809327028EE18093260288E3CE
:1011D0008093250217FD04C080911F028D7F03C0FC
:1011E00080911F02826080931F021F910895DF92F9
:1011F000EF92FF920F931F93CF93DF93E0905201F2
:10120000D09080018AE080939201FF24CCE3D0E06B
:1012100009E110E052C080918B0181FF14C010924F
:101220008B01FF2031F08F2D813031F010924F0271
:1012300049C0FF24F39402C0A2E0FA2E8E2D6D2D3A
:101240004F2D0E94D10880918B0182FD04C08091B6
:101250008C0182FF32C010928B018F2D813081F47E
:101260008E2D992787FD90950D96B8010E94701ECE
:10127000F4EFEF2EE80EE0925201E0924A020EC027
:101280008F2D823059F48D2D90E00196BE010E9481
:10129000701ED82E8093800180934B020E94DF0243
:1012A0008E2D6D2D4F2D0E94D10880918C0182FFD3
:1012B00004C08BE490E00E94D2020E945B04882369
:1012C00009F4A9CFDF91CF911F910F91FF90EF907B
:1012D000DF90089510921F0250E041E0242F30E08B
:1012E000F901E50FF11D3197E80FF91FE491EE23A5
:1012F00061F16E2F61566A3130F4215E3D4FF0E0AE
:10130000E353FF4F09C06E2F60536A3048F4215EEB
:101310003D4FF0E0E85EFE4F6081F901608312C04E
:10132000EE3261F4423050F04150E42FF0E0E15EE3
:10133000FD4F2081216020835F5F04C0215E3D4F0F
:10134000F90110824F5F493048F20895CF92DF9241
:10135000EF92FF920F931F93CF93DF93882351F463
:101360006091510240911E0220911A0230911B029D
:1013700081E00BC0823061F46091510240911E0205
:1013800020911A0230911B0280E00E943107D1C0E7
:10139000813009F0CEC0E0901E02F0905102C09062
:1013A0001A02D0901B020E94450580917B018C306F
:1013B00079F48091970180931E0280915502809369
:1013C000510280914D0290E090931B0280931A028B
:1013D00080915102C82FDD27C7FDD09580917B01F8
:1013E0008C3039F4E0911A02F0911B02E459F84F65
:1013F00006C0E0911A02F0911B02E053F84F809171
:101400005102833014F42C96319720911E021092D1
:10141000260210922702332727FD30952F5F3F4F7A
:101420002E0F3F1FCE01880F991F280F391FCF01A4
:101430009695879596958795280F391FCF0160E976
:1014400071E00E945C1E260F371F04E610E0CF01FA
:10145000B8010E945C1E261B370B2196CE01880F17
:10146000991F8C0F9D1F880F991F6AE070E00E94E2
:101470005C1E260F371FC90167E070E00E945C1EEA
:1014800053E0880F991F5A95E1F788519E4F0E94AB
:101490006A0988EE93E00E94D20210922302109211
:1014A00024021092250220915102332727FD309506
:1014B00021503040C901880F991F820F931F880F58
:1014C000991F80569E4F0E946A0980911E0267E014
:1014D0000E94810480917B018C3059F588EE93E065
:1014E0000E94D20210922302109222021092210234
:1014F0001092200280911A0290911B02B8010E9462
:10150000701E862F8D5E65E00E94810480911A0214
:1015100090911B02B8010E94701E67E00E94810436
:10152000E0921E02F0925102DD24D0921B02C09282
:101530001A02DF91CF911F910F91FF90EF90DF90F2
:10154000CF9008951F93CF93DF938AE08093920109
:1015500010E0C4E6D0E0AAC080918B0181FF42C0B8
:1015600010928B01112329F480917A01882341F193
:1015700011C0113029F480917A01882339F00FC00D
:10158000123079F480917A01813031F480917A01BE
:101590008823B1F412E017C08823A1F002C0813083
:1015A00089F083E680934F0280E00E94A6098CEDCB
:1015B00095E00E94D20280917B0180934F027BC014
:1015C00011E001C013E06091510240911E02209190
:1015D0001A0230911B0281E00E94310780E0612FE6
:1015E0000E94950480918B0182FD04C080918C0142
:1015F00082FF5CC010928B01113081F48091510206
:101600008F5F80935102809151028D3014F01093BE
:1016100051028091510280932E022FC0123089F422
:1016200080911E028F5F80931E0280911E02803285
:101630001CF081E080931E0280911E0280932F0295
:101640001CC01330D1F480911A0290911B020196B4
:1016500090931B0280931A0280911A0290911B02B0
:10166000BE010E94701E90931B0280931A0280910B
:101670001A0290911B0280932D020E94DF0260915A
:10168000510240911E0220911A0230911B0281E00A
:101690000E94310780E0612F0E94950480918C01A7
:1016A00082FF04C08CE390E00E94D2020E945B049F
:1016B000882309F451CFDF91CF911F910895809134
:1016C0007A01882319F483E392E002C08AE292E06F
:1016D0000E946A0908951F938AE080939201809185
:1016E000370280937A0129C080918B0181FF0DC060
:1016F00010928B01112321F40E945F0B11E005C0B1
:1017000080917B0180934F021DC080918B0182FFED
:1017100015C010928B01113081F481E090917A0113
:10172000911180E080937A010E945F0B80917A0191
:10173000809337020E94DF0201C010E00E945B0428
:10174000882391F21F910895882351F085E492E057
:101750000E946A098091240281608093240204C05F
:101760008CE392E00E946A09809125028160809357
:1017700025028091260281608093260280912702B3
:1017800081608093270208950F931F938AE08093CE
:101790009201109136022CC080918B0181FF0EC006
:1017A00010928B01002329F4812F0E94A40B01E0E9
:1017B00005C080917B0180934F021FC080918B01F7
:1017C00082FF17C010928B01013091F481E011115A
:1017D00080E0182F0E94A40B109336020E94DF02B3
:1017E0000E94880680EA9FE061E00E94DB0601C05B
:1017F00000E00E945B04882379F21F910F91089505
:101800001F93CF93DF93EB0110921F02882389F47B
:101810008AEB92E00E946A09CE016CE070E00E94BF
:101820005C1E182F862F61E00E948104812F67E0E3
:1018300010C081EB92E00E946A09CE0164E670E07C
:101840000E945C1E685B7E4FFB019081909320029A
:1018500062E00E948104DF91CF911F910895CF93A0
:10186000DF93EB0110921F02882319F485ED92E0BB
:1018700007C0813019F48CEC92E002C083EC92E056
:101880000E946A09CE0164E670E00E945C1E685BFB
:101890007E4FFB0190819093200262E00E948104C0
:1018A000DF91CF910895843051F4809154028823C0
:1018B00019F088EA92E048C08FE992E045C085308F
:1018C000A1F480915702882319F486E992E03CC084
:1018D000813019F48DE892E037C0823019F484E841
:1018E00092E032C08BE792E02FC0863079F480918D
:1018F0005002882319F482E792E026C0813019F45F
:1019000089E692E021C080E692E01EC0873049F46B
:101910006091520270915302809150020E942F0CEC
:101920000895883049F46091290270912A028091CB
:1019300050020E94000C0895893069F48091990149
:10194000882329F087E592E00E946A0908958EE4D1
:1019500092E00E946A0908951F93182F8EED92E07D
:101960000E946A09812F67E00E948104809126020B
:1019700081608093260280912702816080932702F4
:101980001F9108950F931F938AE080939201109105
:10199000350227C080918B0181FF0EC010928B0110
:1019A000002329F4812F0E94AC0C01E005C0809136
:1019B0007B0180934F021AC080918B0182FD04C08D
:1019C00080918C0182FF0EC010928B01013049F48E
:1019D0001B5F1C3508F01EE1812F0E94AC0C17BD67
:1019E00001C000E00E945B048823A1F20E945B0416
:1019F000813021F0109335020E94DF021F910F9178
:101A00000895EF92FF920F931F93CF93DF931616D3
:101A1000170618061906BCF4C8E2D2E02AE0E22E46
:101A2000F12C012D112DA80197010E94A51E685BC4
:101A30007E4FFB0180818A93B901CA01F2E0C03276
:101A4000DF0789F704C089E493E00E946A09DF9107
:101A5000CF911F910F91FF90EF900895AF92BF9299
:101A6000CF92DF92EF92FF920F931F93DF93CF936A
:101A70000F92CDB7DEB790917B019C3009F08FC0FB
:101A800090914F02943009F48AC0E0908E01F0905A
:101A90008F01009190011091910190919801A82ED1
:101AA000BB24892F992787FD9095A816B90644F184
:101AB00080919801992787FD90958A159B0551F48F
:101AC00020912802332727FD3095862F90E082173A
:101AD0009307B4F080919801992787FD90958A1516
:101AE0009B0529F520912802332727FD3095862F65
:101AF00090E028173907D9F4809156021816BCF4E3
:101B0000C0909801D090280269830E94BA03482FA0
:101B100050E024EC8C2D8202900111248D2D992708
:101B200087FD9095281B390B20563A4F14C0C09062
:101B30009801D090280269830E94BA03482F50E090
:101B400024EC8C2D8202900111248D2D992787FD84
:101B50009095281B390BECE3F0E0AE9EC001AF9EE0
:101B6000900DBE9E900D1124280F391F6981260FFC
:101B7000311D429FC001439F900D529F900D112433
:101B8000AA2797FDA095BA2FA8019701281B390B0A
:101B90004A0B5B0BCA01B9010E94010D04C04CE362
:101BA00020E00E948E070F90CF91DF911F910F913F
:101BB000FF90EF90DF90CF90BF90AF9008953F924D
:101BC0004F925F926F927F928F929F92AF92BF924D
:101BD000CF92DF92EF92FF920F931F93DF93CF93F9
:101BE000CDB7DEB72A970FB6F894DEBF0FBECDBFD4
:101BF0008AE08093920180913C028093540280910C
:101C00003D0280935702B0903A02C0903902D090C2
:101C10003B0280913E028093500280914302809368
:101C2000990183E10E9447039093530280935202EB
:101C300085E10E94470390932A028093290230E0B5
:101C4000A3E0AA2E8E010F5F1F4FFCE5EF2EF12CB3
:101C5000E4E28E2E912C7FE0672E712C63E2462EFB
:101C6000512C58EC352ECBC180918B0181FF64C083
:101C700010928B01332331F480917A01882309F487
:101C800046C011C0313029F480917A01882339F09F
:101C90000FC0323079F480917A01813031F4809133
:101CA0007A018823A1F532E035C0882391F102C082
:101CB000813079F1832F8350843010F43F5F32C03C
:101CC000373031F480915002823009F0A0C1A1C1B7
:101CD000383009F49EC183E680934F028091570209
:101CE000809378020E94BD0560918E0170918F01F2
:101CF00080919001909191010E94010D8CED95E0F1
:101D00000E94D20280917B0180934F0286C131E014
:101D100001C033E080E06C2D4B2D2D2D3A870E94C1
:101D200031073A8582E0632F3A870E9495043A850D
:101D3000832F0E94530C3A8580918B0182FD04C051
:101D400080918C0182FF5BC110928B01313049F48C
:101D5000C3942C2D2D3010F0CC24C394C0923902A2
:101D60001BC0323049F4B3948B2D803210F0BB2469
:101D7000B394B0923A0210C0333081F48D2D8F5F4E
:101D8000DD24D394883C08F4DD24D39CD02C11248A
:101D90008D19D82E80933B0251E003C0343060F49B
:101DA00050E080E06C2D4B2D2D2D3A8759870E94F5
:101DB00031073A85598501C050E082E0632F3A87A8
:101DC00059870E9495043A855985343051F481E051
:101DD00090915402911180E08093540280933C02D0
:101DE0001AC1353049F4809157028F5F8370809318
:101DF000570280933D020FC1363091F58091500219
:101E00008F5F6A2D0E94431E90935002992349F4DC
:101E1000509253024092520290922A0280922902DA
:101E20000FC0913049F47092530260925202F092C6
:101E30002A02E092290204C0109253021092520228
:101E400090933E02609152027091530283E13A876F
:101E50000E9453036091290270912A0285E168C0B3
:101E60003730B1F520915002222391F48091520233
:101E7000909153020596909353028093520222E070
:101E800085399207F8F050925302409252021AC0DC
:101E90008091520290915302213071F403969093F5
:101EA00053028093520221E08D32920758F07092D3
:101EB00053026092520206C00196907090935302B2
:101EC00080935202609152027091530283E12FC0BD
:101ED000383099F580915002882389F48091290245
:101EE00090912A02019690932A02809329028937C1
:101EF0009105C0F090922A028092290213C081308D
:101F000089F48091290290912A02019690932A02E5
:101F10008093290221E08233920720F0F0922A0276
:101F2000E09229026091290270912A0285E13A87A4
:101F30000E94530351E03A850CC0393051F481E0DE
:101F400090919901911180E08093990180934302CF
:101F500051E080918C0182FF08C08CE390E03A87C9
:101F600059870E94D20259853A85552309F447C002
:101F700060911A0270911B02D801E3E5F1E088E05C
:101F800001900D928150E1F780911A0290911B020D
:101F900020915402E0915702F0E0EE0FFF1FE20F94
:101FA000F11DE00FF11F20818C599F4F8D19910970
:101FB000422F50E04817590714F06C5902C06D2D9C
:101FC000620F80911E02809345028091510280939E
:101FD0004402609346028091980180934702809169
:101FE00028028093480280915602809349023A87E2
:101FF0000E94DF023A85832F0E94530C3A853A876C
:102000000E945B043A85882309F42ECE06C038E08E
:1020100089CE39E087CE51E090CF2A960FB6F8945A
:10202000DEBF0FBECDBFCF91DF911F910F91FF900B
:10203000EF90DF90CF90BF90AF909F908F907F9068
:102040006F905F904F903F9008954A9B25C080917C
:102050002B028823C9F581E080932B02109287011F
:102060001092860181E292E00E946A0989E08093E1
:102070004F0288EE93E00E94D20280912C02609180
:102080001C020E942E0D80ED97E00E94D2028091EA
:102090007B0180934F02089580912B028823A1F049
:1020A00010922B02109287011092860180914E02AD
:1020B000882351F010924E02809181008D7F809391
:1020C000810085B1866085B908951F920F920FB681
:1020D0000F9211241F932F933F934F935F936F930E
:1020E0007F938F939F93AF93BF93EF93FF9389E673
:1020F0000E942E1819B178948AE090E00E94D202D2
:1021000089B11470212F30E090E08470907028170E
:10211000390711F40E942510FF91EF91BF91AF9103
:102120009F918F917F916F915F914F913F912F91EF
:102130001F910F900FBE0F901F90189580917C01FA
:10214000882389F180E880936100109261001092E9
:102150007C0184E190E00E945F1900B605FC23C079
:102160000E944804809135020E941A0781E58CBDC7
:102170005B9843988091360280931D020E948806E6
:10218000A8950E94251080E793E061E00E94DB069D
:1021900080EE96E061E00E94DB0680EC9DE061E06D
:1021A0000E94DB06A89508951F9380918B018D7F77
:1021B00080938B0183E680934F0210E010C0812F43
:1021C00090E083569F4FFC0124911F5F2E32B9F39C
:1021D0000E946A098DE491E00E94D202A895E12F45
:1021E000F0E0EB55FF4FE491EE2349F780917B013E
:1021F00080934F021F9108958AE0809392010DC051
:1022000080918B01867049F010928B010E94D4104E
:1022100080917B0180934F0208950E945B04882384
:1022200079F3089588E592E0909387018093860181
:1022300082E593E00E946A0989E080934F0288EE6C
:1022400093E00E94D20280917B0180934F02089517
:102250001F920F920FB60F9211242F933F934F931B
:102260005F936F937F938F939F93AF93BF93EF93FE
:10227000FF9310926800789418991EC080918A018B
:1022800081FD1FC08AE090E00E94D202189919C017
:102290000E94B70680914E02882319F00E94121105
:1022A00010C080918A01826080938A0180918B01A5
:1022B000826080938B0105C080918A018D7F80931D
:1022C0008A0185E080936800FF91EF91BF91AF9103
:1022D0009F918F917F916F915F914F913F912F913E
:1022E0000F900FBE0F901F9018951F920F920FB670
:1022F0000F9211242F933F934F935F936F937F938C
:102300008F939F93AF93BF93EF93FF9310926800C7
:1023100078944D991BC080918A0180FD1CC08AE091
:1023200090E00E94D2024D9952C00E94B70680915F
:102330004E02882369F580918A01816080938A0129
:1023400080918B01816080938B0105C080918A010F
:102350008E7F80938A014C9933C080918A0182FDDF
:1023600036C08AE090E00E94D2024C9930C082E0F0
:1023700080938D0116C04C9B14C00E94B7068091BB
:102380008A018B7F80938A0180914E02882319F005
:102390000E9412111CC080918B01846080938B017C
:1023A00016C080918D01882331F780918A01846065
:1023B00080938A0180918C01846080938C0107C096
:1023C00010928C0180918A018B7F80938A0185E035
:1023D00080936800FF91EF91BF91AF919F918F9192
:1023E0007F916F915F914F913F912F910F900FBE11
:1023F0000F901F90189581E58CBD08958EBD0DB48A
:1024000007FEFDCF0895DF93CF9300D0CDB7DEB7A1
:10241000F8946A8379830E94FE117981872F0E9444
:10242000FE116A81862F0E94FE11409A409878948E
:102430000F900F90CF91DF910895AF92BF92CF92FE
:10244000DF92EF92FF920F931F93CF93DF93E62ECD
:10245000E82FF0E0E857FF4FE49121E030E002C0C0
:10246000220F331FEA95E2F7B901882777FD80959F
:10247000982F2091930130919401409195015091B2
:102480009601A0E0B0E0CE2DD0E0E1E0EE2EF12C00
:10249000012D112DFE010A2E02C0F595E7950A9433
:1024A000E2F7E0FF13C0FD01ED56FF4F2491570105
:1024B000680104C0AA0CBB1CCC1CDD1C2A95D2F7F9
:1024C000A60195016A297B298C299D291196A8309E
:1024D000B10501F720939301309394014093950146
:1024E000509396010E940312DF91CF911F910F919B
:1024F000FF90EF90DF90CF90BF90AF9008951F9224
:102500000F920FB60F9211242F933F934F935F9327
:102510006F937F938F939F93AF93BF93EF93FF93AB
:102520007894A8958091820190918301019690936F
:102530008301809382018132910508F46CC010926E
:102540008301109282018091880190918901019606
:10255000909389018093880180918101893010F0E6
:102560001092810180918101E82FF0E0E15EFD4F42
:1025700060810E941D12809181018F5F8093810193
:1025800080914E02882309F446C080918601909183
:102590008701009709F03FC08091840190918501E7
:1025A000019690938501809384018536910598F179
:1025B00010928501109284018AEF90E09093870039
:1025C00080938600809186009091870096958795EC
:1025D00090938B0080938A0080918A0090918B0069
:1025E000909389008093880080914E02807F49F00B
:1025F00080914E028F7080934E02809181008D7F7A
:1026000008C080914E02806F80934E0280918100BD
:10261000826080938100FF91EF91BF91AF919F9174
:102620008F917F916F915F914F913F912F910F907B
:102630000FBE0F901F9018958091C000807808956C
:10264000FC01838180519281990F292F220F220F43
:10265000290F820F958190512481220F322F330F41
:10266000330F320F930F50915201252F205130819B
:10267000330F432F440F440F430F240F3181230F97
:10268000209398012091800157FF02C0821B01C056
:10269000820F80932802909356020895FC01808156
:1026A000880F982F990F990F980F8181980F90514B
:1026B000238120518281880F382F330F330F380F39
:1026C000230F858180513481330F432F440F440FF2
:1026D000430F840F10927D0110927E0190931E0291
:1026E0002093510290E090931B0280931A02089568
:1026F00090912B02992389F090912C02981769F4FC
:1027000080911C02861749F4442339F481E08093B8
:102710004E0210928701109286010895EF92FF9267
:102720000F931F93809156028C336CF18091560267
:102730008C5380935602809128028F5F80932802E9
:1027400080918E0190918F01A0919001B0919101A3
:10275000181619061A061B06B4F4E0908E01F090C4
:102760008F0100919001109191010E94BA03E81A23
:10277000F10801091109E0928E01F0928F01009396
:102780009001109391018091560287FF20C08091A3
:102790005602845C80935602809128028150809377
:1027A0002802E0908E01F0908F010091900110912D
:1027B00091010E94BA03E80EF11C011D111DE09267
:1027C0008E01F0928F0100939001109391018091FE
:1027D00028028C3394F0809128028C538093280235
:1027E000809198018F5F80939801809198018093E8
:1027F000300280912802809331028091280287FF65
:1028000012C080912802845C8093280280919801F4
:10281000815080939801809198018093300280913B
:1028200028028093310280919801883174F0809160
:10283000980188518093980180911E028F5F809348
:102840001E0280911E0280932F028091980187FFC3
:102850000EC080919801885E8093980180911E023D
:10286000815080931E0280911E0280932F028091DE
:102870001A0290911B028053984F0E9428058823CA
:1028800011F08DE101C08CE180935C0120911E026A
:10289000E0915102332727FD3095FF27E7FDF095A2
:1028A000E65AFE4F808190E08217930784F481E01E
:1028B00080931E02809151028F5F8093510280911C
:1028C000510280932E0280911E0280932F028091EC
:1028D0001E02181694F1809151028150809351028A
:1028E00080915102181674F080915102845F809398
:1028F000510280911A0290911B02019790931B0242
:1029000080931A02E091510280911E02FF27E7FD99
:10291000F095E65AFE4F9081890F80931E028091B8
:102920001E0280932F028091510280932E0280918B
:102930001A0290911B0280932D02809151028D30DA
:10294000B4F080911A0290911B02019690931B02A1
:1029500080931A0281E0809351028091510280930A
:102960002E0280911A0290911B0280932D020E94E8
:10297000DF021F910F91FF90EF900895AF92BF92E9
:10298000CF92DF92EF92FF920F931F93DF93CF933B
:10299000CDB7DEB760970FB6F894DEBF0FBECDBFE0
:1029A0008091C600898390917F01992349F48432F4
:1029B00009F0E2C081E080937F018AE991E0D5C00F
:1029C0000AE911E0F80101900020E9F73197E01BD6
:1029D000F10BE038F105C8F4E630F10589F4C801DF
:1029E00060E071E00E94CB1E009721F482E08093AA
:1029F0007F01BAC080E8F80111928A95E9F7B1C069
:102A00008A3209F0B1C0923019F080E8D801A6C02E
:102A100087E091E00E946718C8010E946718C8010A
:102A20006CE270E00E94C01EDE011296FC0131963D
:102A300026E001900D922150E1F7188608E010E0A1
:102A400001966CE270E00E94C01E01501040C1F778
:102A5000DE011996FC01319686E001900D928150BD
:102A6000E1F71F868E8590E0805192403D852AE0F7
:102A7000329F90011124820F931F8A3091050CF42C
:102A800069C0E09098010091280280915602CE0121
:102A900002960E942013CE0109960E944E130E94B6
:102AA0008E1390919801209128028CE39802C00126
:102AB0001124332727FD3095820F931FFF244CE309
:102AC00050E0E49E9001E59E300DF49E300D1124FF
:102AD000200F311D70919801B0902802FC01E21B7B
:102AE000F30BF7FF16C0DC01A056BA4FA217B307CD
:102AF00080F0AF0140565A4F57FF03C050954195A3
:102B00005F4FF095E195FF4F4E175F0714F4785E25
:102B1000CD0128173907F0F400E010E0C72EDD24BE
:102B2000C7FCD09411C08A2D6B2D40E0788B0E9499
:102B30007813BA94788902C0A72EA01AB7FEF3CFF3
:102B40000F5F1F4FABE3BA2EC601801B910B8E1592
:102B50009F0594F780E8EAE9F1E0DF011D928A958C
:102B6000E9F710927F0108C0C801BE016F5F7F4F77
:102B700041E050E00E94D41E60960FB6F894DEBF8C
:102B80000FBECDBFCF91DF911F910F91FF90EF90BE
:102B9000DF90CF90BF90AF9008957F928F929F92D9
:102BA000AF92BF92CF92DF92EF92FF920F931F935B
:102BB00015BC569A5E9884B714BE90E00E94961891
:102BC00088E10FB6F89480936000109260000FBE09
:102BD0002FE088E190E00FB6F894A895809360000C
:102BE0000FBE20936000A8950E940A0311E0109385
:102BF0007D0110927E0187E690E00E9421188AE014
:102C000091E00E9467188BE191E00E94671880E8CC
:102C100090E00E94B11887E091E00E94671888E474
:102C200080BF81E090E00E945F1900B605FE06C0FB
:102C300080B7806180BF0E94E0042FC00E944804DA
:102C40005B98109369001DBB10924F0281E58CBD0B
:102C5000809135020E941A07789480914A028093ED
:102C60005201845F893110F01092520180914B0221
:102C7000809380018D3310F0109280018091370293
:102C800080937A010E94880680EA9FE061E00E94BA
:102C9000DB060E94E0040E9425105CE0752E43E6EE
:102CA000842E37E0932E24E0A22E9BE0B92E86E0FE
:102CB000C82E08E0D02E1DE0E12EB5E0FB2E03E08B
:102CC0001EE0A89500B605FE03C00E941C04F9CFC3
:102CD00080918B0180FF7BC010928B0180914F020D
:102CE000863009F450C0873068F4833089F184302D
:102CF00018F48823C9F07CC08430F9F0853009F0DD
:102D000077C02FC08C3081F08D3038F4873009F4D3
:102D100043C0883009F06CC048C08D3009F44EC003
:102D20008E3009F065C026C0A0924F028DE293E07C
:102D30000E946A090E945A0875C000934F0284E2FB
:102D400093E00E946A090E94CB0710927D016AC03D
:102D5000F0924F028BE193E00E946A090E94A20A5E
:102D600061C010934F0282E193E00E946A090E94C1
:102D7000F70858C0C0924F0289E093E00E946A09A8
:102D80000E94C20C4FC090924F0280E093E00E94DC
:102D90006A090E94C40B46C0D0924F0287EF92E0AE
:102DA0000E946A090E946B0B3DC0E0924F028EEEBA
:102DB00092E00E946A090E94FC1034C0B0924F0257
:102DC00085EE92E00E946A090E94DF0D2BC080917F
:102DD0008B0181FF12C010928B0180924F0281E023
:102DE0000E94A609A8958CED95E00E94D202A895B4
:102DF00080917B0180934F0215C080918B0182FFEF
:102E000011C010928B0180917B01882319F470927C
:102E10007B0102C010927B0180917B0180934F0265
:102E20000E94BD058091C00087FF4BCF0E94BE1459
:102E300048CF1F920F920FB60F921124EF92FF927C
:102E40000F931F932F933F934F935F936F937F93B2
:102E50008F939F93AF93BF93EF93FF9380E88093FB
:102E6000610010926100809156028F5F809356023C
:102E70000E948E1380917C01882309F0C4C0809148
:102E80004F02882309F580917D01882349F08091C4
:102E9000560280FF05C080E493E00E946A0909C0E1
:102EA00080919801609128024091560220E00E9492
:102EB0008E0780912B0220911F02882311F022603F
:102EC00001C02D7F20931F0280914F028C3009F0AA
:102ED0006CC020918E0130918F01409190015091F2
:102EE000910180917802833059F4809156026FE00D
:102EF0000E944F1E992787FD9095A92FB92F04C0D6
:102F000080E090E0A0E0B0E0281B390B4A0B5B0B9F
:102F10001216130614061506CCF520918E01309179
:102F20008F014091900150919101809178028330FE
:102F300059F4809156026FE00E944F1E992787FD39
:102F40009095A92FB92F04C080E090E0A0E0B0E0F8
:102F500079018A01E81AF90A0A0B1B0BC801B701AB
:102F60000E94010D909156028BE3891B98E00BC0E3
:102F700080FF07C0E92FF0E0E15EFD4F2081216076
:102F8000208386959150882399F704C087E393E0C6
:102F90000E946A0980912B0220911F02882311F060
:102FA000226001C02D7F20931F02809198016091C3
:102FB0002802409156020E94781380919201882342
:102FC00029F08091920181508093920180918D012E
:102FD000882329F080918D01815080938D0180910B
:102FE000860190918701009771F001979093870176
:102FF0008093860120911F0280FF02C0226001C0E1
:103000002D7F20931F02FF91EF91BF91AF919F9170
:103010008F917F916F915F914F913F912F911F9170
:103020000F91FF90EF900F900FBE0F901F9018958B
:1030300005C081509EE100009150E9F78823C9F74F
:1030400008959093C5008093C40088E18093C100E7
:103050008EE08093C200519A509808959091C000DC
:1030600095FFFCCF8093C60080E090E008958091AA
:10307000C00087FFFCCF8091C60008958091C000FA
:1030800080780895EF92FF921F93DF93CF930F9272
:10309000CDB7DEB77C0110E005C069830E942E1811
:1030A0001F5F6981F701E10FF11D84918823A9F762
:1030B000662331F08AE00E942E188DE00E942E18BF
:1030C0000F90CF91DF911F91FF90EF900895EF92B5
:1030D000FF92CF93DF93E82EE7017E01F92EE701FF
:1030E00002C00E942E1889918823D9F7DF91CF91D1
:1030F000FF90EF9008951F93182F82958F708A305C
:1031000010F4805D01C0895A0E942E18212F30E0F2
:103110002F703070812F8F702A30310514F4805D4C
:1031200001C0895A0E942E181F9108951F93182FCD
:10313000892F0E947B18812F0E947B181F91089570
:10314000EF92FF920F931F937B018C01C8010E94A5
:103150009618C7010E9496181F910F91FF90EF904B
:103160000895AF92BF92CF92DF92EF92FF920F93AA
:103170001F93CF93DF938C0195E0E92EF12C20E093
:10318000C0E1D7E28AE0C82ED12CC801BE010E945E
:103190005C1EB62E662329F4222319F4C130D10512
:1031A00029F48B2D805D0E942E1821E0CE01B601FE
:1031B0000E945C1E0894E108F108E114F10489F012
:1031C0004B2D50E04C9FC0014D9F900D5C9F900D8A
:1031D0001124081B190BA62EE5015E01B72EE5018F
:1031E000D4CFDF91CF911F910F91FF90EF90DF909F
:1031F000CF90BF90AF9008954F925F926F927F9261
:103200008F929F92AF92BF92CF92DF92EF92FF92F6
:103210000F931F93CF93DF935B016C01CAE0D0E063
:103220004424E12C2AECF22E2AE9022F2BE3122F60
:10323000C601B501A80197010E94831E922E222388
:1032400041F4442031F481E0E816F1040105110550
:1032500031F4892D805D0E942E1844244394C801C6
:10326000B7012AE030E040E050E00E94831E822E49
:10327000732E642E552E219789F0692D70E080E021
:1032800090E0A80197010E94241EA61AB70AC80A56
:10329000D90AE82CF72C062D152DCACFDF91CF9136
:1032A0001F910F91FF90EF90DF90CF90BF90AF9064
:1032B0009F908F907F906F905F904F900895282FF0
:1032C000392FC90120E23EE407C0F9013197F1F737
:1032D0008A30910518F00A970097B9F708951F935F
:1032E000182F05C088EE93E00E945F19115011233A
:1032F000C9F71F9108956F927F928F929F92AF921C
:10330000BF92CF92DF92EF92FF920F931F93CF93D2
:10331000DF93982F362F142F722E802E9E2CE416BA
:1033200020F0E41691F4281780F4872D682D492D9C
:10333000292F032FE12E0E947B19CC24DD24760156
:10334000C61AD70AE80AF90AB4C0971561F4191524
:1033500009F042C0C82CDD24C31AD108EE24D7FCE2
:10336000E094FE2CA6C01915B9F5A92EBB24F501D1
:10337000E65AFE4FC080DD24C31AD108EE24D7FCE4
:10338000E094FE2C923041F4812F90E00E942805B9
:10339000C80ED11CE11CF11CE50121968BE591E0E2
:1033A000A80EB91E672C772413C0F50181915F0127
:1033B000C80ED11CE11CF11CC230D10541F4812F93
:1033C00090E00E942805C80ED11CE11CF11C21963A
:1033D000C615D70554F369C0A92EBB24F501E65ADA
:1033E000FE4FC080DD24C31AD108EE24D7FCE09440
:1033F000FE2C923041F4812F90E00E942805C80EE7
:10340000D11CE11CF11CE50121968BE591E0A80E91
:10341000B91E13C0F50181915F01C80ED11CE11CDA
:10342000F11CC230D10541F4812F90E00E942805A3
:10343000C80ED11CE11CF11C2196CD30D10554F3EE
:10344000C12FD0E02196092D10E00FC0CE010E94BF
:10345000280590E083599E4FAA2797FDA095BA2F83
:10346000C80ED91EEA1EFB1E2196C017D10774F3A1
:103470000BE511E0C1E0D0E0A72CBB2413C0F8019C
:1034800081918F01C80ED11CE11CF11CC230D10505
:1034900041F4892D90E00E942805C80ED11CE11C42
:1034A000F11C2196CA15DB0554F3C80CD11CE11C94
:1034B000F11CB601C701DF91CF911F910F91FF90D1
:1034C000EF90DF90CF90BF90AF909F908F907F90C4
:1034D0006F900895EF92FF920F931F93CF93DF9316
:1034E000EB01882341F4BA0180E090E02FEB32E059
:1034F00040E050E009C0813009F5BA0180E090E079
:1035000020E137E240E050E00E94241E7E0100E00E
:1035100010E0A80197010E94831ECA01B901A80109
:1035200097010E94831E2F3F31054105510539F057
:1035300030F02FEF30E040E050E001C0242F822F28
:10354000DF91CF911F910F91FF90EF9008952F92EF
:103550003F924F925F926F927F928F929F92AF9223
:10356000BF92CF92DF92EF92FF920F931F93DF9360
:10357000CF93CDB7DEB760970FB6F894DEBF0FBE1E
:10358000CDBFBC01DE011196E7E6F1E080E10190DC
:103590000D928150E1F7FB01608071808280938001
:1035A000248035804680578080E090E0A0E0B0E045
:1035B0009C01AD012370307040705070220F331F9A
:1035C000220F331F11E0A12EB12CAC0EBD1E2A0D0F
:1035D0003B1DF901A080B180C280D380A80EB91E26
:1035E000CA1EDB1EA2019101F5E05695479537955D
:1035F0002795FA95D1F782017101E4E0EE0CFF1CEA
:10360000001F111FEA95D1F72E253F25402751278E
:10361000220D331D441D551DA226B326C426D526D2
:103620006A0C7B1C8C1C9D1C87549648A84CB14688
:10363000A4019301F5E05695479537952795FA959E
:10364000D1F784017301E4E0EE0CFF1C001F111F91
:10365000EA95D1F72E253F2540275127260D371D06
:10366000481D591D7C018D01FBE016950795F794C7
:10367000E794FA95D1F7E3E0AE2EB12CC12CD12C12
:10368000EA20FB200C211D21F701EE0FFF1FEE0F9A
:10369000FF1F11E0C12ED12CCC0EDD1EEC0DFD1D47
:1036A000E080F18002811381E80EF91E0A1F1B1FC2
:1036B0002E253F2540275127220E331E441E551E1E
:1036C000803207E390070FEEA00706ECB00709F081
:1036D0006FCFFB0160827182828293822482358265
:1036E0004682578260960FB6F894DEBF0FBECDBFFC
:1036F000CF91DF911F910F91FF90EF90DF90CF90CE
:10370000BF90AF909F908F907F906F905F904F9001
:103710003F902F9008957F928F929F92AF92BF9289
:10372000CF92DF92EF92FF920F931F93DF93CF938D
:10373000CDB7DEB728970FB6F894DEBF0FBECDBF6A
:10374000962F342F9C2C7A2C4A2D4150423008F071
:1037500041C0422F50E060E070E05961A02EBB24D0
:10376000CC24DD24DA2CCC24BB24AA244A295B29CE
:103770006C297D29AE2CBB24CC24DD246501BB241F
:10378000AA244A295B296C297D2949835A836B83A2
:103790007C83498D50E060E070E0762F652F542FD8
:1037A0004427AA8CBB24CC24DD244A295B296C291C
:1037B0007D29626BAB8CBB24CC24DD24DA2CCC2499
:1037C000BB24AA244A295B296C297D294D835E8369
:1037D0006F837887692F432F0E947B192AE030E09E
:1037E00040E050E00E94241E7B018C0125E43EE075
:1037F00040E050E00E94831EC901992029F42AE884
:103800003CE144E050E004C026E33BE644E050E005
:103810002E193F09400B510B082D10E00E321105F7
:1038200024F40831110524F005C00DE210E002C0B7
:1038300008E110E008511040672D633009F0BEC068
:10384000992009F059C0275E3F4042405040A88D62
:10385000A13031F560E070E0FB01E35BFA4FA59128
:10386000B4918A179B07B8F4615B7A4FFB01A5916D
:10387000B491BD015D01AA0CBB1CA3E0660F771FCC
:10388000AA95E1F7A60EB71ECC24DD242A193B0920
:103890004C095D0905C06C5F7F4F6C307105E1F626
:1038A000E6E8F4E0649170E08617970754F07796A5
:1038B000E491F0E08E179F070CF09FC181E090E04B
:1038C00002C080E090E067E170E0869FF001879F92
:1038D000F00D969FF00D1124E00FF11FE957FB4FFB
:1038E000E491F0E065E47EE0E69FC001E79F900D83
:1038F000F69F900D11245BC0245B3A434240504038
:1039000060E070E0FB01E75AFA4FA591B4918A1785
:103910009B07B8F4655A7A4FFB01A591B491BD019C
:103920005D01AA0CBB1CE3E0660F771FEA95E1F787
:10393000A60EB71ECC24DD242A193B094C095D09CB
:1039400005C06C5F7F4F6C307105E1F664EB74E08D
:10395000FB01A491EA2FF0E08E179F079CF0FB017A
:103960007796E491F0E08E179F077CF0625D7F4FC1
:10397000FB01649170E0861797070CF03EC18EE260
:1039800090E005C080E090E002C087E190E0080F81
:10399000191F0B541B4FF801049110E065E47EE001
:1039A000069FC001079F900D169F900D1124A0E067
:1039B000B0E0281B390B4A0B5B0B1FC1992009F0A3
:1039C00040C0F88DF13031F560E070E0FB01E75068
:1039D000FB4FA591B4918A179B07B8F465507B4FB4
:1039E000FB01A591B491BD015D01AA0CBB1CA3E034
:1039F000660F771FAA95E1F7A60EB71ECC24DD242B
:103A00002A193B094C095D0905C06C5F7F4F6C3278
:103A10007105E1F660E070E0FB01E55AFC4FE491CE
:103A2000F0E08E179F073CF4060F171F045A1C4F37
:103A3000F80104913FC0695E7F4F6A38710561F7F4
:103A40004FC0F88DF13031F560E070E0FB01EB5DC7
:103A5000FA4FA591B4918A179B07B8F4695D7A4F24
:103A6000FB01A591B491BD015D01AA0CBB1CE3E073
:103A7000660F771FEA95E1F7A60EB71ECC24DD246A
:103A80002A193B094C095D0905C06C5F7F4F6832FC
:103A90007105E1F660E070E0FB01EB51FC4FE49151
:103AA000F0E08E179F07BCF4060F171F0A511C4F3A
:103AB000F801049110E0E5E4FEE00E9FC0010F9FC5
:103AC000900D1E9F900D1124A0E0B0E0281B390B33
:103AD0004A0B5B0B05C0695E7F4F613A7105E1F6E9
:103AE000F72DF23009F040C09DEAE92E9EE8F92E4C
:103AF000012D112DE20EF31E041F151F89819A81DD
:103B0000AB81BC818E259F25A027B12789839A830D
:103B1000AB83BC83CE0101960E94A71A69817A818A
:103B20008B819C817F778070907028EE33E040E03D
:103B300050E00E94241E2FEF3FE740E050E00E943B
:103B4000831ECA01B90126E036ED40E050E00E9434
:103B5000241E28EE33E040E050E00E94831E2E0D2C
:103B60003F1D401F511F49C0672D613009F045C0FE
:103B70008CEFE82E89E2F82E8FEF082F8FEF182FA9
:103B8000E20EF31E041F151F8D819E81AF81B88543
:103B90008E259F25A027B1278D839E83AF83B8876D
:103BA000CE0101960E94A71A6D817E818F81988532
:103BB0007F778070907028EE33E040E050E00E9404
:103BC000241E2FEF3FE740E050E00E94831ECA0111
:103BD000B90122EB3EE840E050E00E94241E28EEAE
:103BE00033E040E050E00E94831ED801C701821BF1
:103BF000930BA40BB50B9C01AD0157FD0BC0CA0183
:103C0000B90120E930E040E050E00E94241E9B0111
:103C1000AC0104C020E030E040E050E0B901CA014E
:103C200028960FB6F894DEBF0FBECDBFCF91DF91BF
:103C30001F910F91FF90EF90DF90CF90BF90AF90CA
:103C40009F908F907F900895629FD001739FF001A5
:103C5000829FE00DF11D649FE00DF11D929FF00D1C
:103C6000839FF00D749FF00D659FF00D9927729F53
:103C7000B00DE11DF91F639FB00DE11DF91FBD01DE
:103C8000CF0111240895991B79E004C0991F96175C
:103C900008F0961B881F7A95C9F78095089587FBD1
:103CA000082E062687FD819567FD6195ECDF0EF4F1
:103CB000919507FC81950895AA1BBB1B51E107C094
:103CC000AA1FBB1FA617B70710F0A61BB70B881FAC
:103CD000991F5A95A9F780959095BC01CD0108953B
:103CE00097FB092E07260AD077FD04D0E5DF06D022
:103CF00000201AF4709561957F4F0895F6F790951E
:103D000081959F4F0895A1E21A2EAA1BBB1BFD01AE
:103D10000DC0AA1FBB1FEE1FFF1FA217B307E407AA
:103D2000F50720F0A21BB30BE40BF50B661F771F02
:103D3000881F991F1A9469F76095709580959095E2
:103D40009B01AC01BD01CF01089597FB092E05260B
:103D50000ED057FD04D0D7DF0AD0001C38F45095A0
:103D60004095309521953F4F4F4F5F4F0895F6F79F
:103D700090958095709561957F4F8F4F9F4F0895D7
:103D8000FC018191861721F08823D9F7992708959E
:103D90003197CF010895FB01DC018D9101908019CD
:103DA0000110D9F3990B0895FB01DC010D9000205F
:103DB000E9F711974150504028F0019000200D92F2
:103DC000C9F708951C920895F999FECF92BD81BD5F
:103DD000F89A992780B50895262FF999FECF1FBA32
:103DE00092BD81BD20BD0FB6F894FA9AF99A0FBE24
:083DF00001960895F894FFCF3D
:103DF800244750524D43000A0D000A0D48656C6C6B
:103E08006F20576F726C64210A0D000A0D427566A7
:103E18006665722073697A652069733A0900FA3E0B
:103E28001A7ADE8EF62E6078AE1CAA2A3ACEF30AEB
:103E3800B61E3838B86E76DAFC60DAF266B6BEE0DE
:103E4800FEE6F8484E393F525823261F1C1F1E1FF6
:103E58001E1F1F1E1F1E1FC46C28A8CA916B709EB0
:083E6800639393D9E791FE007A
:00000001FF
