:100000000C9491020C94AB130C94AE020C94B407B4
:100010000C94AE020C9408080C94AE020C94AE0240
:100020000C94AE020C945E0B0C94AE020C94AE02D7
:100030000C94AE020C94AE020C94AE020C94AE0280
:100040000C9415090C94AE020C94AE020C94AE0202
:100050000C94AE020C94AE020C94AE020C94E00D23
:100060000C94AE020C94AE0203070809060A050CB4
:100070000468000B10120F0D0E11137300202020C6
:1000800020202020202020646561746874756265DA
:100090002E2020646562756767696E672E20206375
:1000A0006F6465206F7074696D697A6174696F6ED1
:1000B0002E20206279206361697473697468322E1E
:1000C0002020636F6465206A6564692E202077773D
:1000D000772E6361697473697468322E636F6D2063
:1000E000202020202020202020696365747562650F
:1000F0002E2020696365747562652068617264777B
:100100006172652E20206279206C6164796164617E
:100110002E202073696D706C79207468652062658B
:1001200073742E2020202020202020202061646154
:10013000667275697420696E64757374726965732B
:100140002E207777772E61646166727569742E63ED
:100150006F6D20202020202020202020006A616E4A
:100160002020006665622020006D61726368006176
:100170007072696C006D61792020006A756E65206F
:10018000006A756C7920006175677374007365701F
:100190007420006F63746F62006E6F76656D00642B
:1001A0006563656D0073756E64617920206D6F6E97
:1001B0006461792020747565736461792077656462
:1001C0006E7364617974687572736461796672695B
:1001D0006461792020736174757264617900616C67
:1001E00061726D206F6E006575722D323468720019
:1001F0007573612D3132687200766F6C20206C6FE0
:100200007700766F6C2068696768006E6F6E207388
:100210006D6B7200736D6F6B657220200064697284
:100220006563742020006D65747269632020006925
:100230006D70657269616C00736164697374696380
:10024000006F7074696D6973740070657373696DA4
:100250007374006E6F726D616C2020006D616C654F
:10026000202020200066656D616C65202000202024
:100270002020636D20200020202066742020200094
:1002800020202020626D692000202020206B672024
:100290002000202020206C62732000627269746547
:1002A00020006465617468636C6B0061626F7574D3
:1002B00020202000736574207265676E007365747A
:1002C00020766F6C2000736574206272697400730D
:1002D0006574207A6F6E650073657420646174655F
:1002E000007365742074696D650073657420616CBA
:1002F00061726D0074696D65732075700020202037
:1003000020202020200074696D65732075700073B3
:100310006E6F6F7A696E67001400000000000000C5
:1003200000000000000000000000000000000028A5
:1003300000000000010101010202020303030404A2
:100340000405050606083200000000000101010155
:10035000020202020303040404050505073C000031
:100360000000000001010101020202030303040472
:10037000040505064600000000010101010102021A
:100380000202030303040404040000C80000000088
:10039000000000000000000000000000000000005D
:1003A0000005140000000000000000000000000034
:1003B0000000000000000000001E0000000101011C
:1003C0000102020303030404050506060707080DDE
:1003D00028000000010101010202020303030404DA
:1003E0000505060606070B320000000000010101AA
:1003F000020202030303040404050506060A3C0086
:1004000000000000000001010101020202030303D9
:10041000040404050746000000000000000001017C
:10042000010102020202020303030305C8000000E7
:1004300000000000000000000001010101010101B5
:100440000102021400000000000000000000000093
:1004500000000000000000000000C80000000000D4
:100460000000000101010101010202020202030376
:100470000414000000000000000000000000000064
:1004800000000000000000001E000000000000004E
:10049000010101010102020202030303030406C871
:1004A0000000000000000001010101010102020240
:1004B000020303030305190000001E00B30A230012
:1004C0008F0A2800FD092D00D80932006A0937007B
:1004D000D9083C00FE074100FE0646004706C8005A
:1004E000B504190000001E003F092D001B09320051
:1004F000F6083700D1083C0090084100F606460097
:1005000022074B006505C8004804190000001E00C2
:10051000FE04C800DA04190000001E009005C8009F
:100520006C0511241FBECFEFD4E0DEBFCDBF11E0BC
:10053000A0E0B1E0E2E2FFE302C005900D92A8372F
:10054000B107D9F712E0A8E7B1E001C01D92A933C5
:10055000B107E1F70E9452170C948F1F0C94000012
:100560009C017894109289011092880180918801F1
:100570009091890182179307C8F30895A89508956B
:1005800080913802833011F081E0089584E008956D
:1005900081E080937C015B9A8CB58F7B8CBD85B1AB
:1005A000877D85B95E9815BC10921D021092680077
:1005B00085B1897F85B98BB18F7C8BB928988AB139
:1005C0008F7C8AB920985A985298E1E6F0E090E83A
:1005D000908388E08083449A83B7876083BF88953F
:1005E00090831082449808958EE284B988E48AB991
:1005F00089E187B984E38BB991E095B985E080936F
:10060000680090936B0080E380936D000895809163
:100610008B0180FF02C081E0089580918B018823C7
:1006200021F480918C01882321F08AE0809392014B
:1006300004C080919201882311F080E00895809198
:100640007B0180932F0282E00895482F2FE132E052
:10065000260F311D6AE00E94BD1EA8E4B1E0FD0135
:10066000E80FF11D8081F9018083842F0E94BD1E57
:10067000A90FB11D8C9181830895982F643008F0E3
:1006800053C080917A01882319F4613081F404C049
:10069000813069F4623059F4809120028160809346
:1006A00020028091210281608093210208956330AD
:1006B000B9F4923051F48091240281608093240235
:1006C00080912502816080932502809126028160BD
:1006D00080932602809127028160809327020895EB
:1006E000992329F0E3E0F0E0A3E0B0E004C0E4E007
:1006F000F0E0A4E0B0E0A15EBD4FE15EFD4F80817F
:1007000081608C93992329F4E5E0F0E0A5E0B0E066
:1007100004C0E4E0F0E0A4E0B0E0A15EBD4FE15E23
:10072000FD4F808181608C930895FC0183709070EF
:10073000892B39F4CF0164E670E00E94D61E892B24
:1007400049F420E030E0CF0160E971E00E94D61E5C
:10075000892B11F421E030E0822F0895109280005F
:1007600010928100299A2A98789410928901109207
:10077000880180918801909189010A97D0F32A9A83
:1007800029987894109289011092880180918801AB
:10079000909189010A97D0F385B1897F85B982EB61
:1007A0008093800088E18093810008951F93162F25
:1007B0009C0140E050E060E472E48FE090E00E9431
:1007C0001F1F3093870020938600809186009091B0
:1007D00087009695879590938B0080938A008091EF
:1007E0008A0090918B00909389008093880028EC78
:1007F00030E01CC08091810082608093810080ED98
:1008000097E0F9013197F1F70197D9F780918100CD
:100810008D7F8093810085B1897F85B980ED97E0D8
:10082000F9013197F1F70197D9F71150112311F719
:1008300085B1897F85B91F9108958B3510F08AE5C0
:1008400003C08E3108F48EE187BD83E084BD81E072
:1008500085BD84B5806884BD80916E008160809381
:100860006E0078940895EF92FF920F931F93182FC4
:10087000F62E042FE22E10921F02882349F4822FB5
:1008800064E60E94BD1E8D5E65E00E94250305C0E2
:1008900082E0809322028093250280917A011D5F7D
:1008A000882331F48F2D61E00E942503802F05C03D
:1008B000802F61E00E9425038F2D612F0E94250368
:1008C0008E2D64E60E94BD1E892F67E00E942503DD
:1008D0001F910F91FF90EF900895982F80917A01CA
:1008E0008823F9F49C3048F080911F028160809346
:1008F0001F028EEC8093260208C08AEF80932602A6
:1009000080911F028E7F80931F028AEA80932702C4
:10091000892F90E00B966CE070E00E94EA1E8F5FDA
:1009200001C0892F61E00E9425030895FF920F9373
:100930001F93182F862F042FF22E1092220210924E
:100940002502109226021092270264E00E942503DD
:10095000812F0E946D040C3320F4802F67E00E94E9
:100960002503FF2079F0E3E0FE9EF0011124DF0172
:10097000A35EBD4F8C9181608C93E25EFD4F8081C0
:10098000816080831F910F91FF9008951F93182F0E
:10099000242F992787FD909597FF03C09095819507
:1009A0009F4F4CE30E9496048AE1809327028EE1D8
:1009B0008093260288E38093250217FD04C080916E
:1009C0001F028D7F03C080911F02826080931F02EF
:1009D0001F910895AC0110921F0221E030E0A22F78
:1009E000B0E0FD01E30FF11D3197E40FF51FE49135
:1009F000EE2351F18E2F81568A3130F4A15EBD4F26
:100A0000F0E0E353FF4F09C08E2F80538A3040F44B
:100A1000A15EBD4FF0E0E85EFE4F80818C9311C077
:100A2000EE3261F4223050F02150E22FF0E0E15E2E
:100A3000FD4F8081816080833F5F03C0A15EBD4F19
:100A40001C922F5F293058F2089580917A018823F3
:100A500019F480EF91E002C087EE91E00E94EA0471
:100A60000895882351F082E092E00E94EA04809188
:100A7000240281608093240204C089EF91E00E94E7
:100A8000EA048091250281608093250280912602EC
:100A900081608093260280912702816080932702E3
:100AA0000895CF93DF93EB0110921F028823A1F4E6
:100AB00087E792E00E94EA04CE016CE070E00E94B9
:100AC000D61E862F61E00E942503CE016CE070E007
:100AD0000E94D61E67E015C08EE692E00E94EA04EE
:100AE000CE0164E670E00E94D61EFB01E85BFE4F7B
:100AF000808180932002CE0164E670E00E94D61EC1
:100B000062E00E942503DF91CF910895CF93DF9398
:100B1000EB0110921F02882319F482E992E007C0CA
:100B2000813019F489E892E002C080E892E00E94E6
:100B3000EA04CE0164E670E00E94D61EFB01E85B89
:100B4000FE4F808180932002CE0164E670E00E9417
:100B5000D61E62E00E942503DF91CF910895843074
:100B600051F480913402882319F085E692E048C060
:100B70008CE592E045C08530A1F48091370288234E
:100B800019F483E592E03CC0813019F48AE492E0E4
:100B900037C0823019F481E492E032C088E392E0F9
:100BA0002FC0863079F480913002882319F48FE2C7
:100BB00092E026C0813019F486E292E021C08DE1F6
:100BC00092E01EC0873049F4609132027091330286
:100BD000809130020E9486050895883049F4609122
:100BE000290270912A02809130020E9451050895D5
:100BF000893069F480919901882329F084E192E099
:100C00000E94EA0408958BE092E00E94EA040895AD
:100C10001F93182F8BE992E00E94EA04812F67E06E
:100C20000E94250380912602816080932602809194
:100C300027028160809327021F910895EF92FF920F
:100C40000F931F93CF93DF937B018C01161617062A
:100C5000180619061CF5C7E2D2E0C801B7012AE060
:100C600030E040E050E00E941F1FDC01CB01885BB8
:100C70009E4FFC0180818883C801B7012AE030E0E3
:100C800040E050E00E941F1FC901DA017C018D0184
:100C90002197F2E0CF31DF0701F704C086E093E04F
:100CA0000E94EA04DF91CF911F910F91FF90EF9086
:100CB0000895EF92FF920F931F93282F80917B014D
:100CC0008C3009F091C080912F02843009F48CC0DF
:100CD000E0908E01F0908F010091900110919101B0
:100CE00080919801E22FF0E0992787FD9095E81711
:100CF000F90744F180919801992787FD90958E1707
:100D00009F0751F480912802992787FD9095262FFF
:100D100030E028173907B4F080919801992787FDB2
:100D200090958E179F0731F580912802992787FDAE
:100D30009095262F30E082179307E1F480913602D8
:100D40001816C4F4909198012091280280913802DD
:100D5000833011F041E001C044E050E084EC98029F
:100D6000C0011124332727FD3095821B930B805639
:100D70009A4F15C0909198012091280280913802D5
:100D8000833011F041E001C044E050E084EC98026F
:100D9000C0011124332727FD3095821B930B2CE3D0
:100DA00030E0D901EA9F9001EB9F300DFA9F300DA2
:100DB0001124820F931F860F911D9C01429FC00139
:100DC000439F900D529F900D1124AA2797FDA09547
:100DD000BA2FA8019701281B390B4A0B5B0BCA01DC
:100DE000B9010E941E0605C0822F4CE320E00E943C
:100DF00096041F910F91FF90EF9008954A9B36C083
:100E000080912B02882309F049C081E080932B0256
:100E100010928701109286018EED91E00E94EA0403
:100E200089E080932F0278941092890110928801B2
:100E30008091880190918901885E9340C8F38091E8
:100E40002C0260911C020E9459067894109289012C
:100E5000109288018091880190918901805D97406E
:100E6000C8F380917B0180932F02089580912B021B
:100E70008823A1F010922B02109287011092860114
:100E800080912E02882351F010922E0280918100D1
:100E90008D7F8093810085B1866085B908951F9309
:100EA00080918B018D7F80938B0183E680932F024D
:100EB00010E019C01F5FE12FF0E0E358FF4F84916D
:100EC0008E32C1F3CF010E94EA0478941092890116
:100ED0001092880180918801909189018D549140F0
:100EE000C8F31F5FA895E12FF0E0EB57FF4FE491A7
:100EF000EE2309F780917B0180932F021F910895C3
:100F00008AE0809392010DC080918B01867049F038
:100F100010928B010E944F0780917B0180932F02DA
:100F200008950E940703882379F3089588E592E0E5
:100F300090938701809386018FE093E00E94EA04FA
:100F400089E080932F027894109289011092880191
:100F50008091880190918901885E9340C8F38091C7
:100F60007B0180932F0208951F920F920FB60F926C
:100F700011242F933F934F935F936F937F938F939E
:100F80009F93AF93BF93EF93FF9310926800789471
:100F9000189925C080918A0181FD26C0789410920D
:100FA00089011092880180918801909189010A97A6
:100FB000D0F3189919C00E94AE0380912E028823A5
:100FC00019F00E94960710C080918A018260809378
:100FD0008A0180918B01826080938B0105C0809192
:100FE0008A018D7F80938A0185E080936800FF915C
:100FF000EF91BF91AF919F918F917F916F915F9191
:101000004F913F912F910F900FBE0F901F90189509
:101010001F920F920FB60F9211242F933F934F936D
:101020005F936F937F938F939F93AF93BF93EF9350
:10103000FF931092680078944D9922C080918A01A4
:1010400080FD23C0789410928901109288018091CC
:101050008801909189010A97D0F34D9959C00E9457
:10106000AE0380912E028823A1F580918A018160D0
:1010700080938A0180918B01816080938B0105C0F0
:1010800080918A018E7F80938A014C993AC0809129
:101090008A0182FD3DC078941092890110928801E6
:1010A00080918801909189010A97D0F34C9930C0C2
:1010B00082E080938D0116C04C9B14C00E94AE0349
:1010C00080918A018B7F80938A0180912E028823F0
:1010D00019F00E9496071CC080918B018460809358
:1010E0008B0116C080918D01882331F780918A0190
:1010F000846080938A0180918C01846080938C014C
:1011000007C010928C0180918A018B7F80938A01A5
:1011100085E080936800FF91EF91BF91AF919F911F
:101120008F917F916F915F914F913F912F910F9090
:101130000FBE0F901F90189581E58CBD08959B01FF
:10114000AC01F894CA01AA27BB278EBD0DB407FED7
:10115000FDCFBB27A52F942F832F8EBD0DB407FE87
:10116000FDCF2EBD0DB407FEFDCF409A4098789478
:101170000895AF92BF92CF92DF92EF92FF920F93BA
:101180001F93E82FF0E0E859FF4FE49181E090E0F1
:1011900002C0880F991FEA95E2F77C010027F7FC4F
:1011A0000095102F20919301309194014091950169
:1011B00050919601A0E0B0E070E0E1E0AE2EB12CDD
:1011C000C12CD12CCB010A2E02C0959587950A948B
:1011D000E2F780FF11C0FD01ED58FF4FE491A60139
:1011E000950104C0220F331F441F551FEA95D2F703
:1011F000E22AF32A042B152B1196A830B10511F71A
:10120000209393013093940140939501509396015C
:10121000C801B7010E949F081F910F91FF90EF90A6
:10122000DF90CF90BF90AF9008951F920F920FB6AE
:101230000F9211242F933F934F935F936F937F935C
:101240008F939F93AF93BF93EF93FF937894A89559
:101250008091820190918301019690938301809304
:101260008201819708F46CC0109283011092820170
:1012700080918801909189010196909389018093D2
:10128000880180918101893010F010928101809154
:101290008101E82FF0E0E15EFD4F60810E94B90816
:1012A000809181018F5F8093810180912E0288233C
:1012B00009F446C08091860190918701892B09F03D
:1012C0003FC08091840190918501019690938501A2
:1012D000809384018536910598F1109285011092D2
:1012E00084018AEF90E0909387008093860080913C
:1012F0008600909187009695879590938B008093B8
:101300008A0080918A0090918B009093890080934D
:10131000880080912E02807F49F080912E028F708C
:1013200080932E02809181008D7F08C080912E02D3
:10133000806F80932E028091810082608093810073
:10134000FF91EF91BF91AF919F918F917F916F919D
:101350005F914F913F912F910F900FBE0F901F9073
:1013600018958EBD0DB407FEFDCF08958091C00085
:1013700080780895FC015381505182814AE0849F16
:10138000C0011124580F7481658130915201232FBF
:1013900020518181280F8081849FC0011124280F52
:1013A000209398018091800137FF02C0581B01C033
:1013B000580F5093280260518AE0789FC001112491
:1013C000680F609336020895FC016181605180814D
:1013D0005AE0859FC0011124680F438140518281EA
:1013E000859FC0011124480F258120518481859F4C
:1013F000C0011124280F10927D0110927E0160938C
:101400001E024093310230E030931B0220931A02F7
:101410000895982F80912B02882389F080912C02C7
:10142000891769F480911C02861749F4442339F422
:1014300081E080932E021092870110928601089518
:10144000809136028C3394F1809136028C538093D4
:101450003602809128028F5F8093280280918E014E
:1014600090918F01A0919001B091910118161906E9
:101470001A061B06DCF420918E0130918F014091F9
:1014800090015091910180913802833011F081E0F8
:1014900001C084E0281B31094109510920938E01C4
:1014A00030938F01409390015093910180913602C7
:1014B00087FF25C080913602845C8093360280913C
:1014C000280281508093280220918E0130918F0153
:1014D000409190015091910180913802833011F038
:1014E00081E001C084E0280F311D411D511D209372
:1014F0008E0130938F014093900150939101809120
:1015000028028C33B4F0809128028C5380932802F7
:10151000809198018F5F80939801609198018CEF82
:1015200091E00E946C1F609128028BEF91E00E9475
:101530006C1F8091280287FF16C080912802845C6E
:101540008093280280919801815080939801609146
:1015500098018CEF91E00E946C1F609128028BEF44
:1015600091E00E946C1F80919801883184F08091F5
:10157000980188518093980180911E028F5F80931B
:101580001E0260911E028DEF91E00E946C1F8091FF
:10159000980187FF10C080919801885E8093980120
:1015A00080911E02815080931E0260911E028DEF79
:1015B00091E00E946C1F80911A0290911B0280534F
:1015C000984F0E949503882311F48CE101C08DE1AE
:1015D00080935C0120911E02E0913102332727FDA8
:1015E0003095FF27E7FDF095E65AFE4F808190E0A9
:1015F0008217930774F481E080931E028091310278
:101600008F5F80933102609131028EEF91E00E94F2
:101610006C1F80911E021816C4F180913102815016
:1016200080933102809131021816E4F080913102EA
:10163000845F8093310280911A0290911B0201977E
:1016400090931B0280931A02609131028EEF91E019
:101650000E946C1F60911A0270911B028FEF91E043
:101660000E946C1FE091310290911E02FF27E7FD5E
:10167000F095E65AFE4F8081980F90931E0260917C
:1016800031028EEF91E00E946C1F809131028D300B
:10169000A4F080911A0290911B02019690931B0274
:1016A00080931A0281E08093310260911A02709156
:1016B0001B028FEF91E00E946C1F08951F920F9202
:1016C0000FB60F9211242F933F934F935F936F9315
:1016D0007F938F939F93AF93BF93EF93FF9380E894
:1016E0008093610010926100809136028F5F809339
:1016F00036020E94200A80917C01882309F0C8C02C
:1017000080912F02882319F580917D01882349F06B
:101710008091360280FF05C08DEF92E00E94EA04BE
:1017200009C080919801609128024091360220E022
:101730000E94960480912B02882321F080911F0241
:10174000826003C080911F028D7F80931F02809171
:101750002F028C3009F06CC020918E0130918F01E6
:10176000409190015091910180913802833029F08D
:1017700080E090E0A0E0B0E00AC0809136026FE027
:101780000E94C91E992787FD9095A92FB92F281B64
:10179000390B4A0B5B0B1216130614061506BCF523
:1017A00020918E0130918F014091900150919101D3
:1017B00080913802833029F080E090E0A0E0B0E032
:1017C0000AC0809136026FE00E94C91E992787FDEA
:1017D0009095A92FB92F281B390B4A0B5B0BCA0117
:1017E000B9010E941E06809136029BE3981B28E0F7
:1017F0000BC090FF07C0E22FF0E0E15EFD4F80815B
:101800008160808396952150992399F704C084EFD5
:1018100092E00E94EA0480912B02882321F08091BB
:101820001F02826003C080911F028D7F80931F0280
:101830008091980160912802409136020E94090A25
:1018400080919201882329F08091920181508093A8
:10185000920180918D01882329F080918D01815022
:1018600080938D018091860190918701009781F08E
:101870000197909387018093860180FF04C0809137
:101880001F02826003C080911F028D7F80931F0220
:10189000FF91EF91BF91AF919F918F917F916F9148
:1018A0005F914F913F912F910F900FBE0F901F901E
:1018B0001895FF920F931F93F090520100918001B1
:1018C0008AE08093920110E059C080918B0181FFE2
:1018D00011C010928B01112339F0113011F412E074
:1018E00004C010922F024FC011E08F2D602F412FA6
:1018F0000E94C60480918B0182FD04C080918C01FE
:1019000082FF3CC010928B01113091F48F2D9927EA
:1019100087FD90950D9669E170E00E94EA1EA4EFA4
:10192000FA2EF80EF092520182EE91E06F2D0FC068
:10193000123079F4802F90E001966CE370E00E9401
:10194000EA1E082F8093800181EE91E0602F0E94B3
:101950006C1F8F2D602F412F0E94C60480918C0137
:1019600082FF0CC0789410928901109288018091B6
:101970008801909189018B349105C8F30E94070377
:10198000882309F4A2CF1F910F91FF900895EF9241
:10199000FF920F931F93E0909801F090280200911E
:1019A00036028AE08093920110E07AC080918B0128
:1019B00081FF24C010928B01112341F4E090980123
:1019C000F09028020091360211E012C0113079F037
:1019D000123011F413E00CC0E0929801F09228024A
:1019E0000093360280917B0180932F025EC012E04B
:1019F0008E2D6F2D402F212F0E94960480918B01F8
:101A000082FD04C080918C0182FF4AC010928B013C
:101A1000113089F48E2D90E0019668E170E00E940B
:101A2000EA1EE82E80939801609198018CEF91E076
:101A30000E946C1F1FC0123089F48F2D90E0019618
:101A40006CE370E00E94EA1EF82E609128028BEF92
:101A500091E00E946C1FF09228020CC0133051F4E8
:101A6000802F90E001966CE370E00E94EA1E082F40
:101A7000809336028E2D6F2D402F212F0E949604C9
:101A800080918C0182FF0CC0789410928901109291
:101A9000880180918801909189018B349105C8F368
:101AA0000E940703882309F481CF1F910F91FF90B3
:101AB000EF900895FF920F931F9300912C02F090E6
:101AC0001C028AE08093920110E05DC080918B013E
:101AD00081FF24C010928B011123C9F0113011F441
:101AE00012E016C000932C02F0921C0260912C02AE
:101AF00089EF91E00E946C1F60911C0288EF91E0D9
:101B00000E946C1F80917B0180932F0255C011E0D1
:101B1000802F6F2D4CE3212F0E94960480918B0122
:101B200082FD04C080918C0182FF2DC010928B0138
:101B3000113049F4802F90E0019668E170E00E9436
:101B4000EA1E082F0AC0123041F48F2D90E0019652
:101B50006CE370E00E94EA1EF82E802F6F2D4CE39C
:101B6000212F0E94960480918C0182FF0CC07894F2
:101B700010928901109288018091880190918901C9
:101B80008B349105C8F30E940703882309F49ECF84
:101B90000E940703823081F400932C02F0921C0211
:101BA00060912C0289EF91E00E946C1F60911C02F1
:101BB00088EF91E00E946C1F1F910F91FF90089594
:101BC0001F920F920FB60F9211242F933F934F93B2
:101BD0005F936F937F938F939F93AF93BF93EF9395
:101BE000FF9300B605FE22C080917C018823B9F5E1
:101BF0005B9A85B1877D85B95E988CB58F7B8CBDEE
:101C000080917E01882361F0609128028BEF91E042
:101C10000E946C1F609136028AEF91E00E946C1F57
:101C200015BC10921D021092680014C080917C01B6
:101C30008823A9F080917E01882361F060912802B9
:101C40008BEF91E00E946C1F609136028AEF91E069
:101C50000E946C1FE0917801F09179010995FF9144
:101C6000EF91BF91AF919F918F917F916F915F9114
:101C70004F913F912F910F900FBE0F901F9018958D
:101C80008F929F92BF92CF92DF92EF92FF920F932B
:101C90001F93DF93CF93CDB7DEB72F970FB6F8948E
:101CA000DEBF0FBECDBF8091C600898390917F01BA
:101CB000992349F4843209F0E4C081E080937F01E4
:101CC0008AE991E0D7C00AE911E0F801019000200B
:101CD000E9F73197E01BF10BE038F105C0F43697D6
:101CE00089F4C80160E071E00E94451F009721F46B
:101CF00082E080937F01BDC080E8F80111928A954F
:101D0000E9F7B4C08A3209F0B4C0923019F080E823
:101D1000D801A9C087E091E00E940819C8010E947B
:101D20000819C8016CE270E00E943A1FDE011296A9
:101D3000FC01319626E001900D922150E1F71886C2
:101D400000E010E001966CE270E00E943A1F0F5F25
:101D50001F4F08301105B1F7DE011996FC013196CD
:101D600086E001900D928150E1F71F868E8590E00C
:101D7000805192402D854AE0249F90011124820FCA
:101D8000931F0A970CF46BC01091980100912802E0
:101D900080913602CE0102960E94BA09CE010996C0
:101DA0000E94E4090E94200A309198018091280243
:101DB0002CE33202D0011124992787FD9095A80FBA
:101DC000B91F812E99248CE390E0889EF001899EB2
:101DD000F00D989EF00D1124E00FF11DE090980198
:101DE000F0902802AD014E1B5F0B57FF18C0BD01DC
:101DF00060567A4F6E177F0790F09A0120563A4F3F
:101E000037FF03C0309521953F4F88279927841BC2
:101E1000950B281739071CF4B8E1EB0E01C0BD0182
:101E2000E617F707E0F400E010E0CE2CDD24C7FC55
:101E3000D0940FC08B2D6F2D40E00E94090AFA94B8
:101E400002C0BE2CB01AF7FEF5CF0F5F1F4FBBE3E9
:101E5000FB2EC601801B910B8815990594F780E82D
:101E6000EAE9F1E0DF011D928A95E9F710927F011E
:101E700008C0C801BE016F5F7F4F41E050E00E9483
:101E80004E1F2F960FB6F894DEBF0FBECDBFCF9179
:101E9000DF911F910F91FF90EF90DF90CF90BF9057
:101EA0009F908F90089586EF91E00E945E1F80932F
:101EB0001D0285B1866085B982E3809380008091A0
:101EC0001D02882329F08091800080688093800023
:101ED00088E1809381008AEF90E09093870080935F
:101EE00086008091860090918700969587959093C3
:101EF0008900809388008091880090918900909358
:101F00008B0080938A0008958CEF91E00E945E1F01
:101F100068E10E94BD1E909398018BEF91E00E94B2
:101F20005E1F6CE30E94BD1E909328028AEF91E031
:101F30000E945E1F6CE30E94BD1E9093360288EFE4
:101F400091E00E945E1F6CE30E94BD1E90931C02F4
:101F500089EF91E00E945E1F68E10E94BD1E909390
:101F60002C028FEF91E00E945E1F64E60E94BD1E6E
:101F7000892F90E090931B0280931A028EEF91E0DC
:101F80000E945E1F6DE00E94BD1E909331028DEF96
:101F900091E00E945E1F8F7180931E0291E09093EA
:101FA0007E01E6EBF0E080818062808385E08093B3
:101FB000B10090937000789408951F938AE0809305
:101FC000920185EF91E00E945E1F80937A0119C013
:101FD00080918B0181FF0DC010928B01112321F4A0
:101FE0000E94250511E005C080917B0180932F029E
:101FF0001EC080918B0182FF16C010928B011130A0
:1020000011F010E010C090E080917A01882309F46B
:1020100091E090937A010E94250585EF91E060910F
:102020007A010E946C1F0E940703882389F21F9186
:1020300008950F931F938AE08093920186EF91E0B9
:102040000E945E1F182F1AC080918B0181FF0EC065
:1020500010928B01002329F4812F0E94310501E0A9
:1020600005C080917B0180932F0221C080918B015C
:1020700082FF19C010928B01013011F000E013C0F3
:1020800080E0112309F481E0182F0E94310586EFCA
:1020900091E0612F0E946C1F0E94530F80EA9FE025
:1020A00061E00E94D6030E940703882369F21F9112
:1020B0000F9108950F931F938AE08093920187EF09
:1020C00091E00E945E1F182F1EC080918B0181FF3E
:1020D0000EC010928B01002329F4812F0E94080664
:1020E00001E005C080917B0180932F021EC080918A
:1020F0008B0182FD04C080918C0182FF0EC0109282
:102100008B01013011F000E008C01B5F1C3508F0A6
:102110001EE1812F0E94080617BD0E940703882335
:10212000A1F20E940703823029F487EF91E0612F2A
:102130000E946C1F1F910F91089580917C0188234C
:10214000A9F180E8809361001092610010927C01F7
:1021500080E49CE90197F1F700B605FC27C00E94D6
:10216000F40287EF91E00E945E1F0E941D0481E54A
:102170008CBD5B98439886EF91E00E945E1F809330
:102180001D020E94530FA8950E94FE0680E793E06F
:1021900061E00E94D60380EE96E061E00E94D603E3
:1021A00080EC9DE061E00E94D603A89508956F92AF
:1021B0007F928F929F92AF92BF92CF92DF92EF92D7
:1021C000FF920F931F938CEE91E00E945E1F80930D
:1021D000380283EF91E00E945E1F682E82EF91E04B
:1021E0000E945E1F782E81EF91E00E945E1FB82E44
:1021F00080EF91E00E945E1F982E8FEE91E00E948A
:102200005E1F082F8EEE91E00E945E1FD82E8DEE8D
:1022100091E00E945E1FC82EA09038028BEE91E0E4
:102220000E945E1F182F87EE91E00E94661F7C01BE
:1022300089EE91E00E94661FAC01812FB7010E94D8
:10224000051A882E86EE91E00E945E1FE82E85EE2C
:1022500091E00E945E1FF82E84EE91E00E945E1FC6
:10226000182F83EE91E00E945E1F00D000D0EDB7E2
:10227000FEB731969CE6B90ED90EADB7BEB7119632
:10228000EC92F18212838383862D672D4B2D292DAD
:10229000ED2C0E94131C0F900F900F900F901F9128
:1022A0000F91FF90EF90DF90CF90BF90AF909F90F5
:1022B0008F907F906F900895DF92EF92FF920F932F
:1022C0001F9380EF91E00E945E1F809335028FEE96
:1022D00091E00E945E1F809397018EEE91E00E9434
:1022E0005E1F80932D020E94D7107B018C01DD249C
:1022F000D39450C0809197018F5F80939701809114
:102300009701803268F5809197018F3181F4809137
:102310003502843029F180913502863009F18091AF
:1023200035028930E9F0809135028B30C9F0809117
:1023300097018E3121F480913502823089F08091AD
:1023400097018D31A1F480913502823081F4809122
:102350002D0290E08459984F0E949503882339F408
:10236000D0929701809135028F5F809335028091E2
:1023700035028D3038F0D092350280912D028F5F7A
:1023800080932D0280E69AEFAFEFBFEFE80EF91EC3
:102390000A1F1B1F90EAE91695E0F90690E009076D
:1023A00090E0190708F0A6CF1F910F91FF90EF90D2
:1023B000DF900895EF92FF920F931F93CF93DF93D7
:1023C000882351F46091310240911E0220911A023B
:1023D00030911B0281E00BC0823061F460913102C8
:1023E00040911E0220911A0230911B0280E00E944F
:1023F0003304DEC0813009F0DBC0E0901E02F090B3
:10240000310200911A0210911B020E945C1180910E
:102410007B018C3079F48091970180931E0280912A
:1024200035028093310280912D0290E090931B023F
:1024300080931A0280913102C82FDD27C7FDD09505
:1024400080917B018C3039F4E0911A02F0911B02EB
:10245000E459F84F06C0E0911A02F0911B02E053D4
:10246000F84F80913102833014F42C9631972091EB
:102470001E021092260210922702332727FD309564
:102480002F5F3F4F2E0F3F1FCE01880F991F280F40
:10249000391FCF019695879596958795280F391FF7
:1024A000CF0160E971E00E94D61E260F371FCF01D1
:1024B00064E670E00E94D61E261B370BAE014F5F0C
:1024C0005F4FCA01880F991F840F951F880F991FAE
:1024D0006AE070E00E94D61EC901860F971F67E070
:1024E00070E00E94D61E90E033E0880F991F3A9565
:1024F000E1F78B559E4F0E94EA047894109289016F
:10250000109288018091880190918901885E9340A2
:10251000C8F3109223021092240210922502809197
:10252000310226E08202C0011124895A9E4F0E9486
:10253000EA0480911E0267E00E94250380917B01DE
:102540008C30B1F5789410928901109288018091B5
:10255000880190918901885E9340C8F3109223020C
:1025600010922202109221021092200280911A02EF
:1025700090911B0264E670E00E94EA1E862F8D5E39
:1025800065E00E94250380911A0290911B0264E687
:1025900070E00E94EA1E67E00E942503E0921E029E
:1025A000F0923102802F90E090931B0280931A02E8
:1025B000DF91CF911F910F91FF90EF9008951F939E
:1025C0008AE08093920110E0BFC080918B0181FF6F
:1025D0004FC010928B01112329F480917A01882336
:1025E000A9F132C0113029F480917A01882339F0A1
:1025F00010C0123061F480917A01813029F4809109
:102600007A01882309F122C0882311F106C0113014
:1026100021F480917A018130D9F083E680932F02F2
:1026200080E00E94DA11789410928901109288015A
:1026300080918801909189018C5D9540C8F38091CB
:102640007B0180932F0285C012E003C011E001C01E
:1026500013E06091310240911E0220911A023091E4
:102660001B0281E00E94330480E0612F0E943D0341
:1026700080918B0182FD04C080918C0182FF64C037
:1026800010928B01113081F4809131028F5F809321
:102690003102809131028D3014F01093310260913B
:1026A00031028EEF91E030C0123089F480911E0229
:1026B0008F5F80931E0280911E0280321CF081E0A9
:1026C00080931E0260911E028DEF91E01DC01330B9
:1026D000E9F480911A0290911B02019690931B02DB
:1026E00080931A0280911A0290911B0264E670E0B6
:1026F0000E94EA1E90931B0280931A0260911A02B4
:1027000070911B028FEF91E00E946C1F609131026B
:1027100040911E0220911A0230911B0281E00E941A
:10272000330480E0612F0E943D0380918C0182FF81
:102730000BC07894109289011092880180918801D1
:1027400090918901CC97D0F30E940703882309F464
:102750003CCF1F9108951F920F920FB60F92112434
:102760002F933F934F935F936F937F938F939F9399
:10277000AF93BF93EF93FF9389E60E94D21829B1DC
:102780007894789410928901109288018091880140
:10279000909189010A97D0F389B1247030E090E0DC
:1027A000847090702817390711F40E94FE06FF917B
:1027B000EF91BF91AF919F918F917F916F915F91B9
:1027C0004F913F912F910F900FBE0F901F90189532
:1027D0009F92AF92BF92CF92DF92EF92FF920F93B0
:1027E0001F930E94D7105B016C0180EF91E00E9463
:1027F0005E1FF82E8FEE91E00E945E1F182F8EEE66
:1028000091E00E945E1F2091310200911E02E09132
:102810001A02F0911B02482F4459E0538F2D612F6B
:10282000EE2E0E94F81A9B01AC0180913802833091
:1028300011F001E001C004E090909801809138020D
:10284000833019F0FF24F39402C0B4E0FB2EE09033
:10285000280280913802833011F011E001C014E0A9
:10286000CA01B90120EA35E040E050E00E949E1E16
:10287000202F30E040E050E00E949E1EA61AB70ACA
:10288000C80AD90A8CE3292D2802C00111242F2D52
:1028900030E0AC01429FC001439F900D529F900DCC
:1028A0001124AA2797FDA095BA2FA81AB90ACA0A17
:1028B000DB0A212F30E08E2D992787FD9095AC0102
:1028C000249FC001259F900D349F900D1124AA27AD
:1028D00097FDA095BA2FA81AB90ACA0ADB0AA092D6
:1028E0008E01B0928F01C0929001D09291010E940E
:1028F0005C1120911A0230911B0280912D022D59FA
:102900003F4F90E028173907CCF520912D02809198
:102910001A0290911B0230E08C599F4F28173907FB
:1029200059F4209135028091310230E0992787FDDA
:1029300090952817390714F120912D0280911A02E1
:1029400090911B0230E08C599F4F28173907F1F402
:10295000209135028091310230E0992787FD9095D2
:102960002817390799F42091970180911E0230E0D1
:10297000992787FD90952817390744F410928E0106
:1029800010928F0110929001109291011F910F915E
:10299000FF90EF90DF90CF90BF90AF909F90089501
:1029A0004F925F926F927F928F929F92AF92BF925F
:1029B000CF92DF92EF92FF920F931F93DF93CF930B
:1029C000CDB7DEB728970FB6F894DEBF0FBECDBFE8
:1029D0008AE0809392018DEE91E00E945E1F8093C9
:1029E00034028CEE91E00E945E1F8093370282EFEA
:1029F00091E00E945E1FC82E83EF91E00E945E1F4F
:102A0000D82E81EF91E00E945E1FE82E8BEE91E0C0
:102A10000E945E1F8093300286EE91E00E945E1F4E
:102A20008093990189EE91E00E94661F9093330292
:102A30008093320287EE91E00E94661F90932A02F3
:102A40008093290210E03CE5432E512C24E2822E93
:102A5000912C9FE0692E712C83E2A82EB12CFBC132
:102A600080918B0181FFF2C010928B01112331F410
:102A700080917A01882309F4F8C1F5C1113029F455
:102A800080917A01882339F012C0123071F480915C
:102A90007A01813031F480917A01882309F4E3C10D
:102AA000E4C1882309F4DDC107C0113029F4809105
:102AB0007A01813009F4D5C1812F8350843028F404
:102AC0001F5F143008F0BBC0B4C0173031F48091E0
:102AD0003002823009F0CBC1CCC1183009F4C9C131
:102AE00060911A0270911B02DE011196E3E5F1E09C
:102AF00088E001900D928150E1F780911A02909147
:102B00001B02A0903702B0903402EA2DF0E0EE0FE5
:102B1000FF1FEB0DF11DEC0FFD1F41818C599F4FE5
:102B20008E199109242F30E02817390724F014E674
:102B3000F12EF60E02C0FE2CF40E83E680932F02D7
:102B40001091310200911E026091290270912A02B7
:102B50004091320250913302809130020E94051A56
:102B6000882E90919801209128023091360200D051
:102B700000D0EDB7FEB731968CE6E80E5F2D5459C4
:102B800080919901ADB7BEB711968C939183228342
:102B900033838D2D6C2D4E2D212FE52ECB2C0E94B5
:102BA000131C809137028093380260911E020F90AF
:102BB0000F900F900F908FEE91E00E946C1F60912C
:102BC000310280EF91E00E946C1F8EEE91E06F2D3C
:102BD0000E946C1F6091280284EE91E00E946C1F9D
:102BE0006091980185EE91E00E946C1F6091360221
:102BF00083EE91E00E946C1F0E94E81360918E01A9
:102C000070918F0180919001909191010E941E0618
:102C10007894109289011092880180918801909196
:102C200089018C5D9540C8F380917B0180932F02D0
:102C300022C180E06D2D4C2D2E2D0E94330482E0A8
:102C4000612F0E943D03812F0E94AF0580918B016F
:102C500082FD04C080918C0182FFFDC010928B0127
:102C6000113051F4D3942CE02D1510F4DD24D394BD
:102C700083EF91E06D2D17C0123051F4C3948FE1B2
:102C80008C1510F4CC24C39482EF91E06C2D0BC012
:102C9000133061F48E2D8F5F68EC0E94BD1EE92E0B
:102CA00081EF91E06E2D0E946C1F02C0143030F451
:102CB00080E06D2D4C2D2E2D0E94330482E0612F7B
:102CC0000E943D03143059F460E08091340288235F
:102CD00009F461E0609334028DEE91E0A8C01530F4
:102CE00049F4609137026F5F6370609337028CEE36
:102CF00091E09DC0163031F5809130028F5F63E026
:102D00000E94BD1E692F90933002992349F4B0921E
:102D10003302A092320290922A02809229020FC0BE
:102D2000913049F4709233026092320250922A023A
:102D30004092290204C010923302109232028BEEAC
:102D400091E075C01730A9F520913002222389F453
:102D500080913202909133020596909333028093D2
:102D6000320285599240F0F0B0923302A0923202C2
:102D700019C08091320290913302213069F4039698
:102D800090933302809332028D52914058F07092AA
:102D900033026092320206C0019690709093330223
:102DA00080933202609132027091330289EE91E099
:102DB0002FC0183081F580913002882389F48091EA
:102DC000290290912A02019690932A028093290267
:102DD00089379105B8F090922A028092290212C098
:102DE000813081F48091290290912A02019690937A
:102DF0002A02809329028253914020F050922A02A5
:102E0000409229026091290270912A0287EE91E096
:102E10000E947A1F0EC0193061F460E08091990120
:102E2000882309F461E06093990186EE91E00E94A5
:102E30006C1F812F0E94AF0580918C0182FF0BC017
:102E40007894109289011092880180918801909164
:102E50008901CC97D0F30E940703882309F400CEA0
:102E60000AC013E0E6CE12E0E4CE11E0E2CE18E0B4
:102E7000E6CE19E0E4CE28960FB6F894DEBF0FBE7A
:102E8000CDBFCF91DF911F910F91FF90EF90DF9019
:102E9000CF90BF90AF909F908F907F906F905F90FA
:102EA0004F9008957F928F929F92AF92BF92CF9250
:102EB000DF92EF92FF920F931F9315BC569A5E9884
:102EC00084B714BE90E00E943E1988E10FB6F894D2
:102ED00080936000109260000FBE2FE088E190E0C8
:102EE0000FB6F894A895809360000FBE2093600001
:102EF000A89511E010937D0110927E0187E690E085
:102F00000E94C5188AE091E00E9408198BE191E0C7
:102F10000E94081980E890E00E945B1987E091E028
:102F20000E94081988E480BF80ED97E00197F1F7CF
:102F300000B605FE06C080B7806180BF0E94840F86
:102F400037C00E94F4025B98109369001DBB109279
:102F50002F0281E58CBD87EF91E00E945E1F0E94E9
:102F60001D04789482EE91E00E945E1F80935201CE
:102F7000845F893110F01092520181EE91E00E943D
:102F80005E1F809380018D3310F01092800185EFD9
:102F900091E00E945E1F80937A010E94530F80EAA5
:102FA0009FE061E00E94D6030E94840F0E94FE060B
:102FB0001CE0812EB3E67B2EA7E09A2EF4E0BF2E14
:102FC000EBE0AE2E76E0C72E68E0E62E5DE0D52E73
:102FD00005E043E0F42E1EE0A89500B605FE03C010
:102FE0000E94C802F9CF80918B0180FF7BC01092B4
:102FF0008B0180912F02863009F450C0873068F42D
:10300000833089F1843018F48823C9F084C0843077
:10301000F9F0853009F07FC02FC08C3081F08D3001
:1030200038F4873009F443C0883009F074C048C0D0
:103030008D3009F44EC08E3009F06DC026C0B092BC
:103040002F028AEE92E00E94EA040E945A0D7DC08F
:10305000F0922F0281EE92E00E94EA040E94C70CD7
:1030600010927D0172C000932F0288ED92E00E94C1
:10307000EA040E94DF1269C010932F028FEC92E0E5
:103080000E94EA040E94590C60C0C0922F0286EC94
:1030900092E00E94EA040E945A1057C090922F02B8
:1030A0008DEB92E00E94EA040E9419104EC0E0925B
:1030B0002F0284EB92E00E94EA040E94DD0F45C0DB
:1030C000D0922F028BEA92E00E94EA040E948007CD
:1030D0003CC0A0922F0282EA92E00E94EA040E9481
:1030E000D01433C080918B0181FF1AC010928B01E4
:1030F00070922F0281E00E94DA11A89578941092C4
:1031000089011092880180918801909189018C5DDC
:103110009540C8F3A89580917B0180932F0215C03C
:1031200080918B0182FF11C010928B0180917B01F5
:10313000882319F480927B0102C010927B01809158
:103140007B0180932F020E94E8138091C00087FFCB
:1031500043CF0E94400E40CF06C090E000009F5F2A
:103160009E31E1F781508823C1F7089548EC50E083
:1031700009C020E137E2FA013197F1F721503040E0
:10318000D1F781508823A9F708959093C5008093C3
:10319000C40088E18093C1008EE08093C200519A00
:1031A00050980895982F8091C00085FFFCCF909390
:1031B000C60080E090E008958091C00087FFFCCFBA
:1031C0008091C60008958091C00080780895AC0178
:1031D00020E007C08091C00085FFFCCF3093C6007F
:1031E0002F5FFA01E20FF11D3491332399F7662323
:1031F00071F08091C00085FFFCCF8AE08093C6000B
:103200008091C00085FFFCCF8DE08093C6000895BB
:10321000FC0107C08091C00085FFFCCF31969093E0
:10322000C60090819923B1F70895282F982F929581
:103230009F709A3030F48091C00085FFFCCF905D84
:1032400005C08091C00085FFFCCF995A9093C600BD
:10325000822F90E08F7090700A973CF48091C000AC
:1032600085FFFCCF2F70205D06C08091C00085FFD8
:10327000FCCF2F70295A2093C60008951F93182F52
:10328000892F0E941519812F0E9415191F910895E9
:10329000EF92FF920F931F937B018C01C801AA2725
:1032A000BB270E943E19C7010E943E191F910F9132
:1032B000FF90EF9008950F931F93CF93DF938C01AE
:1032C000E0E1F7E240E0C0E0D0E0C801BF010E94C9
:1032D000D61E262F662329F4442319F4E130F10584
:1032E00049F48091C00085FFFCCF205D2093C6008B
:1032F000205341E0CF016AE070E00E94D61E219683
:10330000C530D10571F0822F90E09C012E9FC00145
:103310002F9F900D3E9F900D1124081B190BFB0150
:10332000D4CFDF91CF911F910F9108954F925F926B
:103330006F927F928F929F92AF92BF92CF92DF92C5
:10334000EF92FF920F931F93CF93DF934B015C019A
:10335000E12C9AECF92E9AE9092F9BE3192F4424CA
:10336000C0E0D0E0C501B401A80197010E94FD1E94
:10337000D22E222341F4442031F481E0E816F104F6
:103380000105110561F48091C00085FFFCCF80E349
:10339000D80ED092C60080EDD80E44244394C801C4
:1033A000B7012AE030E040E050E00E94FD1EC22E4E
:1033B000732E642E552E2196CA30D105A9F06D2D9D
:1033C00070E080E090E0A80197010E949E1E861A9E
:1033D000970AA80AB90A2C2D372D462D552DC9015B
:1033E000DA017C018D01BECFDF91CF911F910F914A
:1033F000FF90EF90DF90CF90BF90AF909F908F9015
:103400007F906F905F904F900895EF92FF920F938F
:103410001F937B01882341F4BA0180E090E02FEBF9
:1034200032E040E050E009C0813011F5BA0180E09F
:1034300090E020E137E240E050E00E949E1E00E074
:1034400010E0A80197010E94FD1ECA01B901A80160
:1034500097010E94FD1EC901DA018F3F9105A10568
:10346000B10539F030F08FEF90E0A0E0B0E001C09E
:10347000842F1F910F91FF90EF9008952F923F920C
:103480004F925F926F927F928F929F92AF92BF9274
:10349000CF92DF92EF92FF920F931F93CF93DF9320
:1034A000EC01288039804A805B806C807D808E8032
:1034B0009F80AA24BB246501F501E370F070EE0F34
:1034C000FF1FEE0FFF1FE959FE4FE080F1800281E0
:1034D0001381EA0CFB1C0C1D1D1DD401C30175E0FA
:1034E000B695A795979587957A95D1F7A4019301FD
:1034F00064E0220F331F441F551F6A95D1F78227BE
:103500009327A427B527860D971DA81DB91DE8266A
:10351000F9260A271B272E0C3F1C401E511E89EB43
:1035200099E7A7E3BEE9A80EB91ECA1EDB1EA201D9
:103530009101F5E05695479537952795FA95D1F77E
:10354000D201C101E4E0880F991FAA1FBB1FEA95B1
:10355000D1F7282739274A275B27220D331D441D21
:10356000551DD601C5017BE0B695A7959795879522
:103570007A95D1F783709070880F991F880F991FE3
:1035800089599E4FFC0180819181A281B3818A0D6E
:103590009B1DAC1DBD1D282739274A275B27620EBE
:1035A000731E841E951EF0E2AF16F7E3BF06FFEE12
:1035B000CF06F6ECDF0609F07FCF288239824A82F7
:1035C0005B826C827D828E829F82DF91CF911F9180
:1035D0000F91FF90EF90DF90CF90BF90AF909F90B2
:1035E0008F907F906F905F904F903F902F900895B5
:1035F0005F926F927F928F929F92AF92BF92CF9283
:10360000DF92EF92FF920F931F93CF93DF93982E49
:10361000362F842E622E502E7E2CE41620F0E416D7
:1036200091F4281780F4862D652D472D292D032F21
:10363000E82C0E94F81A22273327A901261B370BF2
:10364000480B590BDEC0961469F4871409F051C079
:10365000852D90E0831B91099C01442737FD4095FF
:10366000542FCFC0871409F044C0C92DD0E0FE010B
:10367000E65AFE4F808190E0831B91097C01002770
:10368000F7FC0095102F82E0981641F4882D90E009
:103690000E949503E80EF11C011D111D8BE5A82E5B
:1036A00081E0B82EAC0EBD1ECC24DD24C92DD0E0A7
:1036B0002196772417C0F5018081E80EF11C011DC9
:1036C000111D2230310541F4882D90E00E949503B0
:1036D000E80EF11C011D111D0894C11CD11C089499
:1036E000A11CB11C9E012C0D3D1D261537051CF398
:1036F00082C0C92DD0E0FE01E65AFE4F808190E0E5
:10370000831B91097C010027F7FC0095102FF2E044
:103710009F1641F4882D90E00E949503E80EF11C5D
:10372000011D111DBBE5AB2EB1E0BB2EAC0EBD1EC5
:10373000CC24DD24C92DD0E0219617C0F50180816D
:10374000E80EF11C011D111D2230310541F4882DB8
:1037500090E00E949503E80EF11C011D111D0894D4
:10376000C11CD11C0894A11CB11C9E012C0D3D1D37
:103770002D3031051CF3882D90E06C010894C11C9C
:10378000D11CC0E0D0E04C01A72CBB2411C0C60165
:103790000E94950390E083599E4FAA2797FDA0951C
:1037A000BA2FE80EF91E0A1F1B1F0894C11CD11C5A
:1037B0002196CE01880D991D8A159B0544F3C1E021
:1037C000D0E0C62CDD2414C0FE01E65AFE4F8081F5
:1037D000E80EF11C011D111DC230D10541F4872DE9
:1037E00090E00E949503E80EF11C011D111D219629
:1037F000CC15DD054CF3A8019701250D311D411DA8
:10380000511DB901CA01DF91CF911F910F91FF9016
:10381000EF90DF90CF90BF90AF909F908F907F9070
:103820006F905F9008958F92AF92BF92CF92DF9288
:10383000EF92FF920F931F93DF93CF93CDB7DEB735
:1038400028970FB6F894DEBF0FBECDBFE82FF42F38
:10385000722FBC2C8A2D8150823008F040C030E09D
:1038600040E050E03961802F90E0A0E0B0E0B82F58
:10387000AA2799278827282B392B4A2B5B2B8E2D9B
:1038800090E0A0E0B0E0DC0199278827282B392BB5
:103890004A2B5B2B29833A834B835C832F8930E04F
:1038A00040E050E0542F432F322F2227888D90E0A4
:1038B000A0E0B0E0282B392B4A2B5B2B426B898D83
:1038C00090E0A0E0B0E0B82FAA2799278827282BFE
:1038D000392B4A2B5B2B2D833E834F8358878E2FAA
:1038E0004F2F272F0E94F81A2AE030E040E050E0E6
:1038F0000E949E1E7B018C0125E43EE040E050E0EA
:103900000E94FD1E6901BB2029F026E33BE644E04E
:1039100050E004C02AE83CE144E050E0BA01A901CB
:103920004E195F09600B710B882D90E08E32910566
:103930001CF08DE290E005C08831910514F488E117
:1039400090E08C010851104083E0A81609F0A5C052
:10395000BB2009F04BC0475E5F40624070409E89CB
:10396000913051F5AAE0B5E020E030E0FD0185910D
:103970009491C816D906D0F4F901EE0FFF1FEE0F8F
:10398000FF1FE45FFA4F25913491C901E3E0880FEE
:10399000991FEA95E1F7220F331F820F931FA0E0D2
:1039A000B0E0481B590B6A0B7B0B06C02F5F3F4FE3
:1039B000149623303105D1F6E3E4F4E0849190E0ED
:1039C000C816D9061CF480E090E009C0779684916F
:1039D00090E0C816D9060CF08CC187E190E0080F82
:1039E000191F0C5B1B4FF80184913FC0445B5A4385
:1039F00062407040A6E1B5E020E030E0FD01859135
:103A00009491C816D906D0F4F901EE0FFF1FEE0FFE
:103A1000FF1FE85EFA4F25913491C901E3E0880F5A
:103A2000991FEA95E1F7220F331F820F931FA0E041
:103A3000B0E0481B590B6A0B7B0B06C02F5F3F4F52
:103A4000149623303105D1F620E030E0F901EF582B
:103A5000FB4FE4918E2F90E0C816D906C4F4020FF4
:103A6000131F0E581B4FF801849190E025E43EE0AF
:103A7000DC01A29FC001A39F900DB29F900D112465
:103A8000A0E0B0E0481B590B6A0B7B0B32C1295EEA
:103A90003F4F25343105D1F62CC1BB2009F045C07C
:103AA000BE89B13051F5A6EBB4E020E030E0FD0175
:103AB00085919491C816D906D0F4F901EE0FFF1F35
:103AC000EE0FFF1FE854FB4F25913491C901E3E04D
:103AD000880F991FEA95E1F7220F331F820F931F7A
:103AE000A0E0B0E0481B590B6A0B7B0B06C02F5FB0
:103AF0003F4F14962B303105D1F620E030E0F9012C
:103B0000E85EFC4FE4918E2F90E0C816D9063CF495
:103B1000020F131F075E1C4FF801849144C0295EF9
:103B20003F4F2A38310559F755C0BE89B13051F59C
:103B3000A2EEB4E020E030E0FD0185919491C8163A
:103B4000D906D0F4F901EE0FFF1FEE0FFF1FEC5165
:103B5000FB4F25913491C901F3E0880F991FFA9525
:103B6000E1F7220F331F820F931FA0E0B0E0481B44
:103B7000590B6A0B7B0B06C02F5F3F4F14962A3000
:103B80003105D1F620E030E0F901EE55FC4FE4912B
:103B90008E2F90E0C816D906C4F4020F131F0D55DE
:103BA0001C4FF801849190E025E43EE0DC01A29FE7
:103BB000C001A39F900DB29F900D1124A0E0B0E032
:103BC000481B590B6A0B7B0B05C0295E3F4F213AFE
:103BD0003105D1F6B2E0AB1609F042C02DEAE22E73
:103BE0002EE8F22E012D112DE40EF51E061F171FD3
:103BF00089819A81AB81BC818E259F25A027B12721
:103C000089839A83AB83BC83CE0101960E943E1ABE
:103C100069817A818B819C817F778070907028EE9A
:103C200033E040E050E00E949E1E2FEF3FE740E06F
:103C300050E00E94FD1ECA01B90126E036ED40E0C9
:103C400050E00E949E1E28EE33E040E050E00E94CB
:103C5000FD1EBA01A9014E0D5F1D601F711F49C0F5
:103C6000E1E0AE1609F045C09CEFE92E99E2F92E8D
:103C70009FEF092F9FEF192FE40EF51E061F171F48
:103C80008D819E81AF81B8858E259F25A027B12784
:103C90008D839E83AF83B887CE0101960E943E1A22
:103CA0006D817E818F8198857F778070907028EEFE
:103CB00033E040E050E00E949E1E2FEF3FE740E0DF
:103CC00050E00E94FD1ECA01B90122EB3EE840E02F
:103CD00050E00E949E1E28EE33E040E050E00E943B
:103CE000FD1ED801C701821B930BA40BB50BAC01C1
:103CF000BD0177FF05C020E030E040E050E00AC0A1
:103D0000CB01BA0120E930E040E050E00E949E1E65
:103D10009B01AC01B901CA0128960FB6F894DEBF29
:103D20000FBECDBFCF91DF911F910F91FF90EF900C
:103D3000DF90CF90BF90AF908F900895629FD00199
:103D4000739FF001829FE00DF11D649FE00DF11D56
:103D5000929FF00D839FF00D749FF00D659FF00D05
:103D60009927729FB00DE11DF91F639FB00DE11DF2
:103D7000F91FBD01CF0111240895991B79E004C0FA
:103D8000991F961708F0961B881F7A95C9F780959A
:103D9000089587FB082E062687FD819567FD6195AE
:103DA000ECDF0EF4919507FC81950895AA1BBB1BCF
:103DB00051E107C0AA1FBB1FA617B70710F0A61B2B
:103DC000B70B881F991F5A95A9F780959095BC014C
:103DD000CD01089597FB092E07260AD077FD04D060
:103DE000E5DF06D000201AF4709561957F4F0895A5
:103DF000F6F7909581959F4F0895A1E21A2EAA1B80
:103E0000BB1BFD010DC0AA1FBB1FEE1FFF1FA2178A
:103E1000B307E407F50720F0A21BB30BE40BF50B87
:103E2000661F771F881F991F1A9469F76095709510
:103E3000809590959B01AC01BD01CF01089597FB42
:103E4000092E05260ED057FD04D0D7DF0AD0001C5E
:103E500038F450954095309521953F4F4F4F5F4F27
:103E60000895F6F790958095709561957F4F8F4FE7
:103E70009F4F0895FC018191861721F08823D9F77F
:103E8000992708953197CF010895FB01DC018D91A9
:103E9000019080190110D9F3990B0895FB01DC0101
:103EA0000D900020E9F711974150504028F0019003
:103EB00000200D92C9F708951C920895F999FECF3C
:103EC00092BD81BDF89A992780B50895A8E1B0E028
:103ED00042E050E00C94811F262FF999FECF1FBAC3
:103EE00092BD81BD20BD0FB6F894FA9AF99A0FBE23
:103EF000019608950E946C1F272F0C946D1FDC0102
:103F0000CB01FC01F999FECF06C0F2BDE1BDF89AE4
:103F1000319600B40D9241505040B8F70895F8948E
:023F2000FFCFD1
:103F2200244750524D43000A0D000A0D48656C6C3F
:103F32006F20576F726C64210A0D000A0D4275667C
:103F42006665722073697A652069733A0900FA3EE0
:103F52001A7ADE8EF62E6078AE1CAA2A3ACEF30AC0
:103F6200B61E3838B86E76DAFC60DAF266B6BEE0B3
:103F7200FEE6F8484E393F525823261F1C1F1E1FCB
:103F82001E1F1F1E1F1E1FC46C28A8CA916B709E85
:083F9200639393D9E791FE004F
:00000001FF
