:100000000C945E010C946F160C947B010C943C06CE
:100010000C947B010C9490060C947B010C947B0156
:100020000C947B010C94EF0C0C947B010C947B01E1
:100030000C947B010C947B010C947B010C947B0150
:100040000C949D070C947B010C947B010C947B0118
:100050000C947B010C947B010C947B010C948F0C11
:100060000C947B010C947B01FA3E1A7ADE8EF62EFC
:100070006078AE1CAA2A3ACEF30AB61E3838B86E9B
:1000800076DA6800FC60DAF266B6BEE0FEE684006E
:1000900003070809060A050C0490000B10120F0D47
:1000A0000E11139B0014000000000000000000006F
:1000B0000000000000000000000000002800000018
:1000C0000001010101020202030303040404050507
:1000D00006060832000000000001010101020202D0
:1000E000020303040404050505073C0000000000AA
:1000F00000010101010202020303030404040505D7
:100100000646000000000101010101020202020393
:100110000303040404040000C80000000000000001
:1001200000000000000000000000000000000514B6
:1001300000000000000000000000000000000000BF
:100140000000000000001E00000001010101020289
:100150000303030404050506060707080D2800002D
:100160000001010101020202030303040405050664
:100170000606070B32000000000001010102020226
:10018000030303040404050506060A3C00000000FE
:100190000000000101010102020203030304040440
:1001A00005074600000000000000000101010102F7
:1001B000020202020303030305C80000000000005E
:1001C0000000000000000101010101010101020223
:1001D000140000000000000000000000000000000B
:1001E00000000000000000C8000000000000000047
:1001F00001010101010102020202020303041400D1
:1002000000000000000000000000000000000000EE
:1002100000000000001E00000000000000010101BD
:10022000010102020202030303030406C8000000E6
:1002300000000000010101010101020202020303AA
:10024000030305190000001E00B30A23008F0A28CB
:1002500000FD092D00D80932006A093700D9083C91
:1002600000FE074100FE0646004706C800B5041917
:100270000000001E003F092D001B093200F6083760
:1002800000D1083C0090084100F606460022074BCA
:10029000006505C8004804190000001E00FE04C8DF
:1002A00000DA04190000001E009005C8006C051F4C
:1002B0001C1F1E1F1E1F1F1E1F1E1F0011241FBEDE
:1002C000CFEFD4E0DEBFCDBF12E0A0E0B1E0ECE4C0
:1002D000FEE302C005900D92A63AB107D9F712E0ED
:1002E000A6EAB2E001C01D92AC3DB107E1F70E9461
:1002F00050170C94241F0C9400009C0178941092C9
:10030000B5021092B4028091B4029091B5028217A6
:100310009307C8F30895A895089581E08093AA02F1
:100320005B9A8CB58F7B8CBD85B1877D85B95E98D6
:1003300015BC1092C7021092680085B1897F85B9FB
:100340008BB18F7C8BB928988AB18F7C8AB9209821
:100350005A985298E1E6F0E090E8908388E0808334
:10036000449A83B7876083BF8895908310824498AE
:1003700008958EE284B988E48AB989E187B984E373
:100380008BB991E095B985E08093680090936B00FC
:1003900080E380936D000895FC0183709070892B39
:1003A00039F4CF0164E670E00E948F1E892B49F476
:1003B00020E030E0CF0160E971E00E948F1E892BC0
:1003C00011F421E030E0822F089510928000109205
:1003D0008100299A2A9878941092B5021092B4025A
:1003E0008091B4029091B5020A97D0F32A9A299885
:1003F00078941092B5021092B4028091B402909158
:10040000B5020A97D0F385B1897F85B982EB8093D5
:10041000800088E18093810008951F93162F9C012E
:1004200040E050E060E472E48FE090E00E94D81E6B
:1004300030938700209386008091860090918700FA
:100440009695879590938B0080938A0080918A007F
:1004500090918B00909389008093880028EC30E085
:100460001CC08091810082608093810080ED97E0C4
:10047000F9013197F1F70197D9F7809181008D7FCC
:100480008093810085B1897F85B980ED97E0F9017E
:100490003197F1F70197D9F71150112311F785B171
:1004A000897F85B91F9108958B3590F58E3110F0B5
:1004B0008E3111F48EE12DC0843210F483E229C014
:1004C000893210F488E225C08E3210F48DE221C00A
:1004D000833310F482E31DC0883310F487E319C01E
:1004E0008D3310F48CE315C0823410F481E411C014
:1004F000873410F486E40DC08C3410F48BE409C00A
:10050000813510F480E505C0863510F485E501C01D
:100510008AE587BD83E084BD81E085BD84B58068C0
:1005200084BD80916E00816080936E007894089500
:100530001F93182F262F842F6AE00E94831EE92F15
:10054000F0E0EC57FF4FE491E093D102842F0E943A
:10055000831EE82FF0E0EC57FF4FE491E093D002C8
:100560001092CF02822F0E94831EE92FF0E0EC57F9
:10057000FF4FE491E093CE02822F0E94831EE82F6A
:10058000F0E0EC57FF4FE491E093CD021092CC02E3
:100590008091A802882361F5812F90E00B966CE092
:1005A00070E00E94A31E9C012F5F3F4FC9016AE0CB
:1005B00070E00E94A31EFC01EC57FF4FE491E09312
:1005C000CB02C9016AE070E00E94A31EFB01EC5758
:1005D000FF4FE491E093CA021C3020F08091C902E1
:1005E000816003C08091C9028E7F8093C9021AC0C6
:1005F000812F68E10E94831E292F892F6AE00E94C3
:10060000831EE92FF0E0EC57FF4FE491E093CB021B
:10061000822F0E94831EE82FF0E0EC57FF4FE491F9
:10062000E093CA021F910895CF93DF931092C902FD
:10063000EC01AAECB2E0E881EE23D1F08E2F8156D6
:100640008A3128F4F0E0E95FFF4FE49108C08E2F73
:1006500080538A3030F4F0E0EC5AFF4FE491EC9391
:1006600001C01C922196119682E0A23DB80719F7AD
:10067000DF91CF910895CF93DF93EB011092C902E0
:10068000882309F03BC080E091E00E941403CE0172
:1006900068E770E00E948F1EFB01EC57FF4FE4916A
:1006A000E093CA02CE016CE070E00E948F1ECB0185
:1006B0006AE070E00E948F1EFC01EC57FF4FE4914E
:1006C000E093CB02CE016CE070E00E948F1E9C0193
:1006D0006AE070E00E948F1EFB01EC57FF4FE4912F
:1006E000E093D002C9016AE070E00E948F1EFC0115
:1006F000EC57FF4FE491E093D10229C089E091E0EB
:100700000E941403CE0164E670E00E948F1EFB017C
:10071000EC57FF4FE491E093CA02CE0164E670E02B
:100720000E948F1E6AE070E00E948F1EFB01EC5752
:10073000FF4FE491E093CB02CE016AE070E00E94AB
:100740008F1EFC01EC57FF4FE491E093CC02DF9148
:10075000CF910895CF93DF93EB011092C9028823C4
:1007600019F482E191E007C0813019F48BE191E046
:1007700002C084E291E00E941403CE0164E670E0BE
:100780000E948F1EFB01EC57FF4FE491E093CA02D9
:10079000CE0164E670E00E948F1E6AE070E00E9465
:1007A0008F1EFB01EC57FF4FE491E093CB02CE018B
:1007B0006AE070E00E948F1EFC01EC57FF4FE4914D
:1007C000E093CC02DF91CF910895EF92FF920F93C7
:1007D0001F937B018C0116161706180619060CF0DC
:1007E000D7C02AE030E040E050E00E94D81EFB0174
:1007F000EC57FF4F64916093D102C801B7012AE022
:1008000030E040E050E00E94D81E122F032FF42E5B
:10081000E52E622F732F842F952F2AE030E040E0E1
:1008200050E00E94D81EFB01EC57FF4F649160938B
:10083000D002612F702F8F2D9E2D2AE030E040E0F6
:1008400050E00E94D81E122F032FF42EE52E622FA7
:10085000732F842F952F2AE030E040E050E00E9473
:10086000D81EFB01EC57FF4F64916093CF02612FBC
:10087000702F8F2D9E2D2AE030E040E050E00E9446
:10088000D81E122F032FF42EE52E622F732F842FE4
:10089000952F2AE030E040E050E00E94D81EFB0196
:1008A000EC57FF4F64916093CE02612F702F8F2D14
:1008B0009E2D2AE030E040E050E00E94D81E122F2A
:1008C000032FF42EE52E622F732F842F952F2AE00D
:1008D00030E040E050E00E94D81EFB01EC57FF4F93
:1008E00064916093CD02612F702F8F2D9E2D2AE091
:1008F00030E040E050E00E94D81E122F032FF42E6B
:10090000E52E622F732F842F952F2AE030E040E0F0
:1009100050E00E94D81EFB01EC57FF4F649160939A
:10092000CC02612F702F8F2D9E2D2AE030E040E009
:1009300050E00E94D81E122F032FF42EE52E622FB6
:10094000732F842F952F2AE030E040E050E00E9482
:10095000D81EFB01EC57FF4F64916093CB02612FCF
:10096000702F8F2D9E2D2AE030E040E050E00E9455
:10097000D81ECA01B9012AE030E040E050E00E94F0
:10098000D81EFB01EC57FF4F64916093CA0204C06C
:100990008DE291E00E9414031F910F91FF90EF9060
:1009A0000895EF92FF920F931F93A82FB62F809177
:1009B000A9028C3009F06FC08091D702843009F40D
:1009C0006AC0E090BA02F090BB020091BC021091A4
:1009D000BD028091C402A81740F08091C4028A171A
:1009E00009F58091D2026817E8F42091C402609161
:1009F000D2028091DB02833019F041E050E002C066
:100A000044E050E030E084EC9FEFFC012E9FC001F9
:100A10002F9F900D3E9F900D1124861B91098056AB
:100A20009A4F1AC02091C4026091D2028091DB02D9
:100A3000833019F041E050E002C044E050E030E083
:100A400084EC9FEFFC012E9FC0012F9F900D3E9FD5
:100A5000900D1124861B91092CE3A29F9001112473
:100A6000820F931F8B0F911D9C01429FC001439FDA
:100A7000900D529F900D1124AA2797FDA095BA2F93
:100A8000A8019701281B390B4A0B5B0BCA01B9015E
:100A90000E94E5037DC01092D1021092D002109204
:100AA000CF028B2F6AE00E94831EE92FF0E0EC5703
:100AB000FF4FE491E093CE028B2F0E94831EE82F1C
:100AC000F0E0EC57FF4FE491E093CD021092CC029E
:100AD0008091A802882309F03BC0AC3058F0809187
:100AE000C90281608093C902E7E7F0E0E491E093F6
:100AF000D0020AC0E8E6F0E0E491E093D0028091F1
:100B0000C9028E7F8093C902E4E7F0E0E491E093AC
:100B1000D1028A2F90E00B966CE070E00E94A31E39
:100B20009C012F5F3F4FC9016AE070E00E94A31E45
:100B3000FC01EC57FF4FE491E093CB02C9016AE05E
:100B400070E00E94A31EFB01EC57FF4FE4911EC012
:100B50008A2F90E0479668E170E00E94A31E9C01F6
:100B60002F5F3F4FC9016AE070E00E94A31EFC01A5
:100B7000EC57FF4FE491E093CB02C9016AE070E0CB
:100B80000E94A31EFB01EC57FF4FE491E093CA02C1
:100B90001F910F91FF90EF9008954A9B36C080916E
:100BA000D302882309F049C081E08093D3021092D8
:100BB000B3021092B20286E391E00E94140389E02E
:100BC0008093D70278941092B5021092B40280916B
:100BD000B4029091B502885E9340C8F38091D4022C
:100BE0006091C6020E94D10478941092B5021092CE
:100BF000B4028091B4029091B502805D9740C8F331
:100C00008091A9028093D70208958091D30288230E
:100C1000A1F01092D3021092B3021092B20280910E
:100C2000D602882351F01092D602809181008D7FE8
:100C30008093810085B1866085B9089588E592E04A
:100C40009093B3028093B2028FE391E00E94140369
:100C500089E08093D70278941092B5021092B40282
:100C60008091B4029091B502885E9340C8F3809160
:100C7000A9028093D70208951F920F920FB60F9288
:100C800011242F933F934F935F936F937F938F9391
:100C90009F93AF93BF93EF93FF9310926800789464
:100CA000189925C08091B60281FD26C078941092D3
:100CB000B5021092B4028091B4029091B5020A97E5
:100CC000D0F3189919C00E94E5018091D6028823BB
:100CD00019F00E941E0610C08091B60282608093B7
:100CE000B6028091B70282608093B70205C08091FE
:100CF000B6028D7F8093B60285E080936800FF91F5
:100D0000EF91BF91AF919F918F917F916F915F9183
:100D10004F913F912F910F900FBE0F901F901895FC
:100D20001F920F920FB60F9211242F933F934F9360
:100D30005F936F937F938F939F93AF93BF93EF9343
:100D4000FF931092680078944D9922C08091B6026A
:100D500080FD23C078941092B5021092B402809165
:100D6000B4029091B5020A97D0F34D9959C00E94F0
:100D7000E5018091D6028823A1F58091B6028160B9
:100D80008093B6028091B70281608093B70205C05C
:100D90008091B6028E7F8093B6024C993AC08091C2
:100DA000B60282FD3DC078941092B5021092B40252
:100DB0008091B4029091B5020A97D0F34C9930C05B
:100DC00082E08093B90216C04C9B14C00E94E501DA
:100DD0008091B6028B7F8093B6028091D6028823E1
:100DE00019F00E941E061CC08091B7028460809397
:100DF000B70216C08091B902882331F78091B602FC
:100E000084608093B6028091B80284608093B802B7
:100E100007C01092B8028091B6028B7F8093B60211
:100E200085E080936800FF91EF91BF91AF919F9112
:100E30008F917F916F915F914F913F912F910F9083
:100E40000FBE0F901F90189581E58CBD08959B01F2
:100E5000AC01F894CA01AA27BB278EBD0DB407FECA
:100E6000FDCFBB27A52F942F832F8EBD0DB407FE7A
:100E7000FDCF2EBD0DB407FEFDCF409A409878946B
:100E80000895AF92BF92CF92DF92EF92FF920F93AD
:100E90001F93E82FF0E0E057FF4FE49181E090E0EE
:100EA00002C0880F991FEA95E2F77C010027F7FC42
:100EB0000095102F2091BF023091C0024091C102D5
:100EC0005091C202A0E0B0E070E0E1E0AE2EB12CA3
:100ED000C12CD12CCB010A2E02C0959587950A947E
:100EE000E2F780FF11C0FD01E556FF4FE491A60136
:100EF000950104C0220F331F441F551FEA95D2F7F6
:100F0000E22AF32A042B152B1196A830B10511F70C
:100F10002093BF023093C0024093C1025093C2029B
:100F2000C801B7010E9427071F910F91FF90EF9012
:100F3000DF90CF90BF90AF9008951F920F920FB6A1
:100F40000F9211242F933F934F935F936F937F934F
:100F50008F939F93AF93BF93EF93FF937894A8954C
:100F60008091AE029091AF0201969093AF02809370
:100F7000AE02819708F46CC01092AF021092AE02DC
:100F80008091B4029091B50201969093B50280933E
:100F9000B4028091AD02893010F01092AD028091C0
:100FA000AD02E82FF0E0E753FD4F60810E9441075A
:100FB0008091AD028F5F8093AD028091D60288232D
:100FC00009F446C08091B2029091B302892B09F0D6
:100FD0003FC08091B0029091B10201969093B1020E
:100FE0008093B0028536910598F11092B10210926B
:100FF000B0028AEF90E09093870080938600809102
:101000008600909187009695879590938B008093AA
:101010008A0080918A0090918B0090938900809340
:1010200088008091D602807F49F08091D6028F702F
:101030008093D602809181008D7F08C08091D60276
:10104000806F8093D60280918100826080938100BE
:10105000FF91EF91BF91AF919F918F917F916F9190
:101060005F914F913F912F910F900FBE0F901F9066
:1010700018958EBD0DB407FEFDCF08958AE090E06F
:101080000E94F31E8093C70285B1866085B982E312
:10109000809380008091C702882329F0809180008E
:1010A00080688093800088E1809381008AEF90E0DF
:1010B00090938700809386008091860090918700AE
:1010C00096958795909389008093880080918800F9
:1010D0009091890090938B0080938A00089584E01A
:1010E00090E00E94F31E68E10E94831E9093C40268
:1010F00085E090E00E94F31E6CE30E94831E9093B3
:10110000D20286E090E00E94F31E6CE30E94831EF0
:101110009093DA0288E090E00E94F31E6CE30E9454
:10112000831E9093C60287E090E00E94F31E68E160
:101130000E94831E9093D40281E090E00E94F31EEF
:1011400064E60E94831E9093C50282E090E00E94B4
:10115000F31E6DE00E94831E9093D80283E090E01E
:101160000E94F31E8F718093C80291E09093AC02AD
:10117000E6EBF0E080818062808385E08093B100BF
:1011800090937000789408958091AA028823A9F121
:1011900080E880936100109261001092AA0280E4BE
:1011A0009CE90197F1F700B605FC27C00E94B90140
:1011B00089E090E00E94F31E0E94540281E58CBDFC
:1011C0005B9843988AE090E00E94F31E8093C702E8
:1011D0000E943E08A8950E94CD0580E793E061E05B
:1011E0000E940D0280EE96E061E00E940D0280EC0C
:1011F0009DE061E00E940D02A89508950F931F9352
:101200008AE08093BE028BE090E00E94F31E809300
:10121000A80210E00AE001C010E08091B702882324
:1012200021F48091B802882319F00093BE0204C013
:101230008091BE028823C9F08091B70280FD3AC038
:101240008091B70281FF16C01092B702112369F492
:101250008091A802882319F488E491E002C081E516
:1012600091E00E94140311E005C08091A9028093CF
:10127000D70220C08091B70282FFCFCF1092B70271
:10128000113051F690E08091A802882309F491E092
:101290009093A802992319F488E491E002C081E5B3
:1012A00091E00E9414038BE090E06091A8020E94FC
:1012B000011FB3CF1F910F910895EF92FF920F93EB
:1012C0001F938AE08093BE028AE090E00E94F31EA2
:1012D000F82E00E0BAE0EB2E01C000E08091B702EA
:1012E000882321F48091B802882319F0E092BE028D
:1012F00004C08091BE02882369F18091B70280FD0D
:1013000068C08091B70281FF2AC01092B702002303
:1013100009F5FF2051F08AE591E00E9414038091C5
:10132000CE0281608093CE0204C083E691E00E94E9
:1013300014038091CF0281608093CF028091D0020C
:1013400081608093D0028091D10281608093D1022C
:1013500001E005C08091A9028093D7023AC0809134
:10136000B70282FFBBCF1092B702013009F0B5CFB0
:1013700010E0FF2009F411E0F12E112351F08AE56D
:1013800091E00E9414038091CE0281608093CE028E
:1013900004C083E691E00E9414038091CF02816033
:1013A0008093CF028091D00281608093D00280919F
:1013B000D10281608093D1028AE090E0612F0E9487
:1013C000011F0E943E0880EA9FE061E00E940D023A
:1013D00085CF1F910F91FF90EF9008953F924F920C
:1013E0005F926F927F928F929F92AF92BF92CF92B5
:1013F000DF92EF92FF920F931F938AE08093BE02D9
:1014000089E090E00E94F31E182F20E09AE0392E28
:101410000EE18AE5582EB5E54B2EA0E57A2EFBE4C9
:101420006F2EE6E48E2E71E4A72E6CE3962E57E322
:10143000B52E42E3D42E3DE2C32E98E2F92E83E28C
:10144000E82E01C020E08091B702882321F480912A
:10145000B802882319F03092BE0204C08091BE0207
:10146000882349F18091B70280FD8BC08091B7023B
:1014700081FF2BC01092B7022223E9F48CE691E0A1
:101480000E941403812F6AE00E94831EE82FF0E07F
:10149000EC57FF4FE491E160E093D002812F0E946E
:1014A000831EE92FF0E0EC57FF4FE491E160E093F9
:1014B000D10221E00AC08091A9028093D70289E07D
:1014C00090E0612F0E94011F5CC08091B70282FDF5
:1014D00004C08091B80282FFB6CF1092B7022130CB
:1014E00009F0B0CF1B5F1C3508F01EE1812F6AE0C8
:1014F0000E94831EE82FF0E0EC57FF4FE491E1607B
:10150000E093D002812F0E94831EE92FF0E0EC5778
:10151000FF4FE491E160E093D1021F3180F114327A
:1015200010F4E7BC90CF193210F4F7BC8CCF1E3208
:1015300010F4C7BC88CF133310F4D7BC84CF183352
:1015400010F4B7BC80CF1D3310F497BC7CCF12349D
:1015500010F4A7BC78CF173410F487BC74CF1C34B8
:1015600010F467BC70CF113510F477BC6CCF163512
:1015700010F447BC68CF1B3511F057BC64CF07BDD2
:1015800062CF1F910F91FF90EF90DF90CF90BF90AF
:10159000AF909F908F907F906F905F904F903F9013
:1015A0000895DF92EF92FF920F931F93E090C40291
:1015B000F090D2020091DA028AE08093BE0210E03D
:1015C0002AE0D22E8091B70280FDD9C08091B70267
:1015D000882321F48091B802882319F0D092BE02AA
:1015E00005C08091BE02882309F44BC08091B702E8
:1015F00081FF4CC01092B7021123B9F4E090C402ED
:10160000F090D2020091DA028E2D6F2D402F0E94B1
:1016100098028091CA0281608093CA028091CB02B5
:1016200081608093CB0211E031C0113089F48E2D9E
:101630006F2D402F0E9498028091CD02816080938F
:10164000CD028091CE0281608093CE0212E01EC056
:10165000123089F48E2D6F2D402F0E9498028091B8
:10166000D00281608093D0028091D102816080930A
:10167000D10213E00BC0E092C402F092D2020093B8
:10168000DA028091A9028093D70279C08091B702D3
:1016900082FD04C08091B80282FF94CF1092B702FD
:1016A0001130F9F48E2D90E0019668E170E00E940F
:1016B000A31EE82E6F2D402F0E9498028091CA022F
:1016C00081608093CA028091CB0281608093CB02BB
:1016D000E092C4026091C40284E090E00E94011F85
:1016E0003DC0123001F58F2D90E001966CE370E063
:1016F0000E94A31EF82E8E2D6F2D402F0E9498025F
:101700008091CD0281608093CD028091CE02816074
:101710008093CE026091D20285E090E00E94011F8A
:10172000F092D2021BC01330C9F4802F90E00196D2
:101730006CE370E00E94A31E082F8E2D6F2D402FAA
:101740000E9498028091D00281608093D0028091A3
:10175000D10281608093D1020093DA028091B802B5
:1017600082FF30CF78941092B5021092B40280912B
:10177000B4029091B5028B349105C8F323CF1F9129
:101780000F91FF90EF90DF900895EF92FF920F93EB
:101790001F931091D4020091C6028AE08093BE028A
:1017A000FF244AE0E42E8091B70280FDB3C080910F
:1017B000B702882321F48091B802882319F0E092BF
:1017C000BE0219C08091BE028823A9F48091A902AB
:1017D0008093D7021093D4020093C6026091D40282
:1017E00087E090E00E94011F6091C60288E090E0CF
:1017F0000E94011F8FC08091B70281FF3EC01092EE
:10180000B702FF2089F4812F602F0E94D1048091BC
:10181000CA0281608093CA028091CB02816080936A
:10182000CB02FF24F39429C081E0F81689F4812FBC
:10183000602F0E94D1048091CD0281608093CD02FF
:101840008091CE0281608093CE0232E0F32E15C0EB
:101850001093D4020093C6026091D40287E090E016
:101860000E94011F6091C60288E090E00E94011F63
:101870008091A9028093D7024DC08091B70282FD6A
:1018800004C08091B80282FF8ECF1092B70281E02F
:10189000F816B1F4812F90E0019668E170E00E94A3
:1018A000A31E182F602F0E94D1048091CA0281606C
:1018B0008093CA028091CB0281608093CB0219C0D1
:1018C00082E0F816B1F4802F90E001966CE370E0AE
:1018D0000E94A31E082F812F602F0E94D1048091A7
:1018E000CD0281608093CD028091CE028160809391
:1018F000CE028091B80282FF56CF78941092B50242
:101900001092B4028091B4029091B5028B3491058B
:10191000C8F349CF1F910F91FF90EF9008951F9248
:101920000F920FB60F9211242F933F934F935F9313
:101930006F937F938F939F93AF93BF93EF93FF9397
:1019400000B605FE22C08091AA028823B9F55B9AF1
:1019500085B1877D85B95E988CB58F7B8CBD809174
:10196000AC02882361F06091D20285E090E00E9491
:10197000011F6091DA0286E090E00E94011F15BC11
:101980001092C7021092680014C08091AA028823A6
:10199000A9F08091AC02882361F06091D20285E0C9
:1019A00090E00E94011F6091DA0286E090E00E94C0
:1019B000011FE091A602F091A7020995FF91EF9116
:1019C000BF91AF919F918F917F916F915F914F9157
:1019D0003F912F910F900FBE0F901F9018951F925F
:1019E0000F920FB60F9211242F933F934F935F9353
:1019F0006F937F938F939F93AF93BF93EF93FF93D7
:101A000080E880936100109261008091DA028F5F1C
:101A10008093DA028091DA028C33A8F11092DA0214
:101A20008091D2028F5F8093D2028091BA0290910E
:101A3000BB02A091BC02B091BD02181619061A068D
:101A40001B060CF52091BA023091BB024091BC02FA
:101A50005091BD028091DB02833029F081E090E05B
:101A6000A0E0B0E004C084E090E0A0E0B0E0281B7B
:101A7000390B4A0B5B0B2093BA023093BB024093A5
:101A8000BC025093BD028091D2028C3398F0109228
:101A9000D2028091C4028F5F8093C4026091C4021D
:101AA00084E090E00E94011F6091D20285E090E006
:101AB0000E94011F8091C402883168F01092C40214
:101AC0008091C8028F5F8093C8026091C80283E052
:101AD00090E00E94011F8091C802803268F58091D9
:101AE000C8028F3181F48091D802843029F180912D
:101AF000D802863009F18091D8028930E9F08091CE
:101B0000D8028B30C9F08091C8028E3121F48091C7
:101B1000D802823089F08091C8028D31D9F4809149
:101B2000D8028230B9F48091C50290E08053984F7A
:101B30000E94CC01882371F481E08093C8028091D7
:101B4000D8028F5F8093D8026091D80282E090E043
:101B50000E94011F8091D8028D3070F08091C502E3
:101B60008F5F8093C50281E08093D8026091C502A7
:101B700081E090E00E94011F8091AA02882309F071
:101B8000F9C08091D702882311F58091AB02882398
:101B900049F08091DA0280FF05C083E791E00E945E
:101BA000140308C08091C4026091D2024091DA020D
:101BB0000E9498028091D302882321F08091C9026B
:101BC000826003C08091C9028D7F8093C902809199
:101BD000D7028C3009F08BC02091BA023091BB0241
:101BE0004091BC025091BD028091DB02833029F00C
:101BF00080E090E0A0E0B0E008C08091DA026FE001
:101C00000E94831E90E0A0E0B0E0281B390B4A0B35
:101C10005B0B12161306140615060CF057C0209124
:101C2000BA023091BB024091BC025091BD0280913A
:101C3000DB02833029F080E090E0A0E0B0E008C053
:101C40008091DA026FE00E94831E90E0A0E0B0E095
:101C5000281B390B4A0B5B0BCA01B9010E94E50333
:101C60008091DA026BE370E0681B71099B014427E5
:101C700037FD4095542F25FF05C08091CC0281602F
:101C80008093CC0224FF05C08091CD0281608093B7
:101C9000CD0223FF05C08091CE0281608093CE02E9
:101CA00022FF05C08091CF0281608093CF0221FF87
:101CB00005C08091D00281608093D00260FF0AC08D
:101CC0008091D10281608093D10204C08DE291E0C5
:101CD0000E9414038091D302882321F08091C902CD
:101CE000826003C08091C9028D7F8093C902809178
:101CF000D3028823B9F09091D4028091C40298173E
:101D000089F49091C6028091D202981759F480917B
:101D1000DA02882339F481E08093D6021092B3026C
:101D20001092B2028091BE02882329F08091BE02F7
:101D300081508093BE028091B902882329F080915E
:101D4000B90281508093B9028091B2029091B3029E
:101D5000009781F001979093B3028093B20280FFC5
:101D600004C08091C902826003C08091C9028D7F46
:101D70008093C902FF91EF91BF91AF919F918F9195
:101D80007F916F915F914F913F912F910F900FBE77
:101D90000F901F9018956F927F928F929F92AF92A3
:101DA000BF92CF92DF92EF92FF920F931F9385E144
:101DB00090E00E94F31E8093DB028EE090E00E9490
:101DC000F31E682E8FE090E00E94F31E782E80E1D3
:101DD00090E00E94F31EB82E81E190E00E94F31E75
:101DE000982E82E190E00E94F31E082F83E190E09C
:101DF0000E94F31ED82E84E190E00E94F31EC82EAC
:101E0000A090DB0286E190E00E94F31E182F89E18A
:101E100090E00E94FB1E7C0187E190E00E94FB1E87
:101E2000AC01812FB7010E94E61A882E8BE190E069
:101E30000E94F31EE82E8CE190E00E94F31EF82E23
:101E40008DE190E00E94F31E182F8EE190E00E9439
:101E5000F31E00D000D0EDB7FEB731969CE6B90E68
:101E6000A0EDDA0EADB7BEB71196EC92F1821283F7
:101E70008383862D672D4B2D292DED2C0E94D91B98
:101E80000F900F900F900F901F910F91FF90EF9078
:101E9000DF90CF90BF90AF909F908F907F906F908A
:101EA0000895DF92EF92FF920F931F9381E190E0EC
:101EB0000E94F31E8093D90282E190E00E94F31EFB
:101EC0008093C30283E190E00E94F31E8093D502C9
:101ED0000E94CB0E7B018C01DD24D39450C08091F5
:101EE000C3028F5F8093C3028091C302803268F582
:101EF0008091C3028F3181F48091D902843029F11D
:101F00008091D902863009F18091D9028930E9F0B7
:101F10008091D9028B30C9F08091C3028E3121F4B7
:101F20008091D902823089F08091C3028D31A1F471
:101F30008091D902823081F48091D50290E0805363
:101F4000984F0E94CC01882339F4D092C30280912B
:101F5000D9028F5F8093D9028091D9028D3038F0F9
:101F6000D092D9028091D5028F5F8093D50280E60E
:101F70009AEFAFEFBFEFE80EF91E0A1F1B1F90EAA2
:101F8000E91695E0F90690E0090790E0190708F0D6
:101F9000A6CF1F910F91FF90EF90DF900895FF92D1
:101FA0000F931F93CF93DF93882309F07AC0109289
:101FB000C90282E08093CC028093CF028091A80274
:101FC000882361F58091D8026AE00E94831EE82F81
:101FD000F0E0EC57FF4FE491E093CA028091D80201
:101FE0000E94831EE92FF0E0EC57FF4FE491E0934D
:101FF000CB028091C8020E94831EE82FF0E0EC57CC
:10200000FF4FE491E093CD028091C8020E94831EAD
:10201000E92FF0E0EC57FF4FE4912BC08091C8020C
:102020006AE00E94831EE82FF0E0EC57FF4FE49136
:10203000E093CA028091C8020E94831EE92FF0E05B
:10204000EC57FF4FE491E093CB028091D8020E94BD
:10205000831EE82FF0E0EC57FF4FE491E093CD02B0
:102060008091D8020E94831EE92FF0E0EC57FF4FC9
:10207000E491E093CE028091C5026AE00E94831E43
:10208000E82FF0E0EC57FF4FE491E093D00280910D
:10209000C5020E94831EE92FF0E0EC57FF4FE49148
:1020A000A2C0823009F0A2C01092C9028091A80299
:1020B000882361F58091D8026AE00E94831EE82F90
:1020C000F0E0EC57FF4FE491E093CA028091D80210
:1020D0000E94831EE92FF0E0EC57FF4FE491E0935C
:1020E000CB028091C8020E94831EE82FF0E0EC57DB
:1020F000FF4FE491E093CC028091C8020E94831EBE
:10210000E92FF0E0EC57FF4FE4912BC08091C8021B
:102110006AE00E94831EE82FF0E0EC57FF4FE49145
:10212000E093CA028091C8020E94831EE92FF0E06A
:10213000EC57FF4FE491E093CB028091D8020E94CC
:10214000831EE82FF0E0EC57FF4FE491E093CC02C0
:102150008091D8020E94831EE92FF0E0EC57FF4FD8
:10216000E491E093CD028091C50264E60E94831E53
:1021700090E043966AE070E00E94A31EFB01EC57DA
:10218000FF4FE491E093CE028091C50264E60E9485
:10219000831E90E043966AE070E00E94A31EFC015B
:1021A000EC57FF4FE491E093CF028091C50264E6C3
:1021B0000E94831E892F6AE00E94831EE82FF0E0B0
:1021C000EC57FF4FE491E093D0028091C50264E6A2
:1021D0000E94831E892F6AE00E94831EE92FF0E08F
:1021E000EC57FF4FE491E093D10239C1813009F0FF
:1021F00036C1F090C8020091D8021091C5020E9429
:10220000510F8091A9028C3061F48091C3028093B8
:10221000C8028091D9028093D8028091D502809320
:10222000C5028091D802C82FD0E08091C502E82F66
:10223000F0E0E053F84F8091D802833010F42C96F0
:1022400031972091C8021092D0021092D10230E052
:102250002F5F3F4F2E0F3F1FCE01880F991F280F72
:10226000391FCF019695879596958795280F391F29
:10227000CF0160E971E00E948F1E260F371FCF014A
:1022800064E670E00E948F1E261B370BAE014F5F85
:102290005F4FCA01880F991F840F951F880F991FE0
:1022A0006AE070E00E948F1EC901860F971F67E0E9
:1022B00070E00E948F1E8330B9F0843028F48130A2
:1022C00069F0823070F407C08530A1F0853078F075
:1022D0008630B9F412C08CE791E011C083E891E038
:1022E0000EC08AE891E00BC082E991E008C08BE95A
:1022F00091E005C084EA91E002C08BEA91E00E947F
:10230000140378941092B5021092B4028091B40232
:102310009091B502885E9340C8F31092CD0210925E
:10232000CE021092CF028091D802863079F18730A8
:1023300070F4833011F1843028F48130C1F08230A0
:10234000D9F518C08430E1F08530B1F51CC0893072
:1023500031F18A3028F48730E1F0883069F51CC00B
:102360008B3019F18B30F0F08C3031F521C084EBDB
:1023700091E020C088EB91E01DC08CEB91E01AC089
:1023800082EC91E017C088EC91E014C08CEC91E0F5
:1023900011C081ED91E00EC086ED91E00BC08CED97
:1023A00091E008C081EE91E005C087EE91E002C0A7
:1023B0008DEE91E00E9414038091C8026AE00E94B1
:1023C000831EE82FF0E0EC57FF4FE491E093D0023A
:1023D0008091C8020E94831EE92FF0E0EC57FF4F66
:1023E000E491E093D1028091A9028C3009F037C0CA
:1023F00078941092B5021092B4028091B402909138
:10240000B502885E9340C8F31092CD021092CC02C0
:102410001092CB021092CA028AED8093CE028CEF0A
:102420008093CF028091C5026AE00E94831EE82F4C
:10243000F0E0EC57FF4FE491E093D0028091C502A9
:102440000E94831EE92FF0E0EC57FF4FE491E093E8
:10245000D102F092C8020093D8021093C502DF9116
:10246000CF911F910F91FF900895FF920F931F93AB
:102470008AE08093BE0210E00AE0FF24F39480918A
:10248000B702882321F48091B802882319F00093C1
:10249000BE0205C08091BE02882309F46DC0809100
:1024A000B70280FD05C18091B70281FF6AC010921A
:1024B000B7021123A9F48091A802882311F012E039
:1024C00001C011E080E00E94CF0F8091CA028160BC
:1024D0008093CA028091CB0281608093CB0251C06D
:1024E000113029F48091A802882339F020C01230DD
:1024F000E1F48091A8028130A9F48091A802882398
:1025000011F011E001C012E080E00E94CF0F809135
:10251000CD0281608093CD028091CE028160809354
:10252000CE022FC0882339F015C0113099F4809164
:10253000A802813079F480E00E94CF0F8091D00210
:1025400081608093D0028091D10281608093D1021A
:1025500013E017C083E68093D70280E00E94CF0F7C
:1025600078941092B5021092B4028091B4029091C6
:10257000B5028C5D9540C8F38091A9028093D70283
:1025800097C08091B70282FD04C08091B80282FF9B
:1025900076CF1092B702113061F58091D8028F5F2B
:1025A0008093D8028091D8028D3010F01093D80219
:1025B00080E00E94CF0F8091A802882359F4809177
:1025C000CA0281608093CA028091CB0281608093AD
:1025D000CB020AC08091CD0281608093CD028091B0
:1025E000CE0281608093CE026091D80282E090E0BA
:1025F0004DC0123061F58091C8028F5F8093C80290
:102600008091C802803210F0F092C80280E00E94EF
:10261000CF0F8091A802813059F48091CA02816065
:102620008093CA028091CB0281608093CB020AC062
:102630008091CD0281608093CD028091CE02816035
:102640008093CE026091C80283E090E01FC01330F7
:10265000F9F48091C5028F5F8093C5028091C50215
:1026600064E60E94831E9093C50280E00E94CF0F13
:102670008091D00281608093D0028091D1028160EC
:102680008093D1026091C50281E090E00E94011F19
:102690008091B80282FFF3CE78941092B502109226
:1026A000B4028091B4029091B502CC97D0F3E7CEFA
:1026B0001F910F91FF9008955F926F927F928F927A
:1026C0009F92AF92BF92CF92DF92EF92FF920F93C1
:1026D0001F93CF93DF938AE08093BE029090C8024D
:1026E0006090D8027090C50284E190E00E94F31ED1
:1026F000582E85E190E00E94F31EB82E8FE090E006
:102700000E94F31E8093C8028EE090E00E94F31EA8
:102710008093D80280E190E00E94F31E8093C5026E
:1027200086E190E00E94F31EE82E8BE190E00E948B
:10273000F31EA82E87E190E00E94FB1EEC0189E1C8
:1027400090E00E94FB1E6C0100E02AE0822EFF2434
:10275000F3948091B702882321F48091B8028823F2
:1027600019F08092BE0205C08091BE02882309F450
:1027700042C18091B70280FD42C18091B70281FFC2
:1027800054C11092B7020023A9F48091A8028823B3
:1027900011F002E001C001E082E00E94CF0F8091C1
:1027A000CA0281608093CA028091CB0281608093CB
:1027B000CB023BC1013029F48091A802882339F073
:1027C00020C00230E1F48091A8028130A9F4809108
:1027D000A802882311F001E001C002E082E00E941B
:1027E000CF0F8091CC0281608093CC028091CD028A
:1027F00081608093CD0219C1882341F079C00130F6
:10280000F1F48091A802813009F072C082E00E9448
:10281000CF0F8091CE0281608093CE028091CF0253
:1028200081608093CF028091D00281608093D0023A
:102830008091D10281608093D10203E0F6C0033021
:1028400059F4552019F083EF91E002C08CEF91E02C
:102850000E94140304E0E9C00430B9F4BB2019F469
:1028600085E092E00EC021E0B21619F48EE092E00D
:1028700008C082E0B81619F487E192E002C080E255
:1028800092E00E94140305E0D0C0053089F4EE20E8
:1028900019F489E292E008C0A1E0EA1619F482E393
:1028A00092E002C08BE392E00E94140306E0BDC0F8
:1028B000063031F48E2DBE010E94AA0307E0B5C098
:1028C000073049F4B2E0EB1641F08E2DB6010E94BC
:1028D0003B0308E0AAC0083059F4AA2031F084E490
:1028E00092E00E94140309E0A0C08DE492E0F9CFC9
:1028F00083E68093D7020091D802F090C80210912D
:10290000C5028E2DB601AE010E94E61A882E809176
:10291000C4029091D2022091DA0200D000D0EDB72B
:10292000FEB731961459372D3053ADB7BEB7119657
:10293000AC92818392832383802F6F2D412F262D8C
:10294000092DE32EC52CAB2C0E94D91B7B018C01D9
:10295000B092DB020F900F900F900F9082E190E009
:10296000692D0E94011F81E190E0662D0E94011FE8
:1029700083E190E0672D0E94011F6091D2028DE1FA
:1029800090E00E94011F6091C4028CE190E00E94DF
:10299000011F6091DA028EE190E00E94011F809198
:1029A000C4022CE3829FC0011124AA2797FDA095A1
:1029B000BA2FE81AF90A0A0B1B0B8091D202E81A07
:1029C000F10801091109E092BA02F092BB020093EA
:1029D000BC021093BD02C801B7010E94E5037894C0
:1029E0001092B5021092B4028091B4029091B50297
:1029F0008C5D9540C8F38091A9028093D702909294
:102A0000C8026092D8027092C502DF91CF911F91E7
:102A10000F91FF90EF90DF90CF90BF90AF909F907D
:102A20008F907F906F905F9008958091B70282FDA4
:102A300004C08091B80282FF8CCE1092B7020130A0
:102A400061F58091D8028F5F8093D8028091D8027F
:102A50008D3010F00093D80282E00E94CF0F809159
:102A6000A802882359F48091CA0281608093CA0227
:102A70008091CB0281608093CB020AC08091CC020E
:102A800081608093CC028091CD0281608093CD02E1
:102A90006091D8028EE090E010C1023061F5809123
:102AA000C8028F5F8093C8028091C802803210F004
:102AB000F092C80282E00E94CF0F8091A80281307C
:102AC00059F48091CA0281608093CA028091CB023E
:102AD00081608093CB020AC08091CC028160809398
:102AE000CC028091CD0281608093CD026091C802BA
:102AF0008FE090E0E2C0033041F58091C5028F5F26
:102B00008093C5028091C50268EC0E94831E909359
:102B1000C50282E00E94CF0F8091CE028160809337
:102B2000CE028091CF0281608093CF028091D0024B
:102B300081608093D0028091D10281608093D10224
:102B40006091C50280E190E0B8C0043089F410E0E3
:102B5000552009F411E0512E112319F083EF91E073
:102B600002C08CEF91E00E94140384E190E0A4C0C5
:102B70000530D9F4B39423E0B22219F485E092E051
:102B80000EC081E0B81619F48EE092E008C0A2E011
:102B9000BA1619F487E192E002C080E292E00E9446
:102BA000140385E190E06B2D88C0063049F58E2D29
:102BB0008F5F63E00E94831EE92E992351F489E21E
:102BC00092E00E941403C3E2D0E094E2C92ED12C1B
:102BD00013C0B1E09B1751F482E392E00E9414030A
:102BE000CFE0D0E08CE5C82ED12C06C08BE392E07C
:102BF0000E941403C0E0D0E086E190E06E2D5DC03D
:102C0000073009F5EE2041F4259622E0C539D207B8
:102C100080F0C3E2D0E00DC081E0E81641F42396D5
:102C2000A1E0CD32DA0728F0CFE0D0E002C0219653
:102C3000D07087E190E0BE010E940F1F8E2DBE0173
:102C40000E94AA033CC0083029F5EE2059F40894EC
:102C5000C11CD11CB9E7CB16D10490F014E2C12EEF
:102C6000D12C0EC021E0E21659F40894C11CD11CED
:102C700082E3C81681E0D80618F0BCE5CB2ED12C33
:102C800089E190E0B6010E940F1F8E2DB6010E94CF
:102C90003B0315C0093099F410E0AA2009F411E0B3
:102CA000A12E112319F084E492E002C08DE492E099
:102CB0000E9414038BE190E0612F0E94011F80911C
:102CC000B80282FF46CD78941092B5021092B402F9
:102CD0008091B4029091B502CC97D0F33ACD1F9277
:102CE0000F920FB60F9211242F933F934F935F9340
:102CF0006F937F938F939F93AF93BF93EF93FF93C4
:102D000089E60E947D1829B1789478941092B502D2
:102D10001092B4028091B4029091B5020A97D0F358
:102D200089B1247030E090E08470907028173907E2
:102D300011F40E94CD05FF91EF91BF91AF919F914A
:102D40008F917F916F915F914F913F912F910F9054
:102D50000FBE0F901F9018956F927F928F929F9247
:102D6000AF92BF92CF92DF92EF92FF920F931F9399
:102D7000CF93DF930E94CB0E5B016C0181E190E069
:102D80000E94F31EF82E82E190E00E94F31E182F9D
:102D900083E190E00E94F31E2091D8020091C802C6
:102DA0009091C502482F405390538F2D612FE92EEB
:102DB0000E94C9199B01AC018091DB02833031F084
:102DC000F1E0EF2EF12C012D112D05C0E4E0EE2EE7
:102DD000F12C012D112D6090C4028091DB02833013
:102DE00021F071E0872E912C03C064E0862E912C97
:102DF0007090D2028091DB02833019F0C1E0D0E004
:102E000002C0C4E0D0E0CA01B90120EA35E040E0E8
:102E100050E00E94641EA80197010E94641EA61A39
:102E2000B70AC80AD90A8CE3689EC00111249C0124
:102E3000289DC001299D900D389D900D1124AA2731
:102E400097FDA095BA2FA81AB90ACA0ADB0A872DDE
:102E500090E09C01C29FC001C39F900DD29F900D36
:102E60001124AA2797FDA095BA2FA81AB90ACA0A51
:102E7000DB0AA092BA02B092BB02C092BC02D0920E
:102E8000BD02DF91CF911F910F91FF90EF90DF90E6
:102E9000CF90BF90AF909F908F907F906F9008954C
:102EA0009F92AF92BF92CF92DF92EF92FF920F93D9
:102EB0001F9315BC569A5E9884B714BE90E00E948A
:102EC000E91888E10FB6F8948093600010926000D2
:102ED0000FBE2FE088E190E00FB6F894A89580939C
:102EE00060000FBE20936000A89511E01093AB0224
:102EF0001092AC028AE190E00E94701888E480BFD2
:102F000080ED97E00197F1F700B605FE06C080B7A7
:102F1000806180BF0E946F0822C00E94B9015B9847
:102F2000109369001DBB1092D70281E58CBD89E02A
:102F300090E00E94F31E0E94540278948BE090E08F
:102F40000E94F31E8093A8020E943E0880EA9FE040
:102F500061E00E940D020E946F080E94CD052CE0E6
:102F6000922E93E6A92E86E0B82E04E0C02E18E03B
:102F7000D12EB7E0EB2EABE0FA2E05E013E0A895DA
:102F800000B605FE03C00E948D01F9CF8091B70203
:102F900080FF59C01092B7028091D702853079F135
:102FA000863038F4833011F18430A8F4882351F04E
:102FB00063C08730B1F1873058F18830D9F18C3057
:102FC00009F05AC0C092D70286E592E00E9414032D
:102FD0000E94C50BD4CF1093D70280E692E00E94E6
:102FE00014030E94D10A1092AB02C9CF0093D702FA
:102FF00089E692E00E9414030E943512C0CFB0927D
:10300000D70282E792E00E9414030E94EE09B7CF34
:10301000E092D7028BE792E00E9414030E945D09C0
:10302000AECFD092D70284E892E00E9414030E94AF
:10303000FE08A5CFF092D7028DE892E00E9414031B
:103040000E945C139CCF8091B70281FF1AC010923E
:10305000B702A092D70281E00E94CF0FA895789482
:103060001092B5021092B4028091B4029091B50210
:103070008C5D9540C8F3A8958091A9028093D702F2
:103080007ECF8091B70282FF7ACF1092B7028091F3
:10309000A902882319F49092A90202C01092A902F1
:1030A0008091A9028093D7020E94AC1668CF06C017
:1030B00090E000009F5F9E31E1F781508823C1F7C7
:1030C000089548EC50E009C020E137E2FA01319759
:1030D000F1F721503040D1F781508823A9F70895A6
:1030E0009093C5008093C40088E18093C1008EE076
:1030F0008093C200519A50980895982F8091C000F3
:1031000085FFFCCF9093C60080E090E00895809109
:10311000C00087FFFCCF8091C60008958091C00059
:1031200080780895AC0120E007C08091C00085FF41
:10313000FCCF3093C6002F5FFA01E20FF11D3491EE
:10314000332399F7662371F08091C00085FFFCCF8F
:103150008AE08093C6008091C00085FFFCCF8DE09F
:103160008093C6000895FC0107C08091C00085FFD0
:10317000FCCF31969093C60090819923B1F70895C2
:10318000282F982F92959F709A3030F48091C0002C
:1031900085FFFCCF905D05C08091C00085FFFCCF0E
:1031A000995A9093C600822F90E08F7090700A9782
:1031B0003CF48091C00085FFFCCF2F70205D06C0DD
:1031C0008091C00085FFFCCF2F70295A2093C60044
:1031D00008951F93182F892F0E94C018812F0E94D5
:1031E000C0181F910895EF92FF920F931F937B01D8
:1031F0008C01C801AA27BB270E94E918C7010E94B9
:10320000E9181F910F91FF90EF9008950F931F936E
:10321000CF93DF938C01E0E1F7E240E0C0E0D0E043
:10322000C801BF010E948F1E262F662329F4442364
:1032300019F4E130F10549F48091C00085FFFCCF1D
:10324000205D2093C600205341E0CF016AE070E08A
:103250000E948F1E2196C530D10571F0822F90E01B
:103260009C012E9FC0012F9F900D3E9F900D112419
:10327000081B190BFB01D4CFDF91CF911F910F9148
:1032800008954F925F926F927F928F929F92AF922A
:10329000BF92CF92DF92EF92FF920F931F93CF9343
:1032A000DF934B015C01E12C9AECF92E9AE9092F8E
:1032B0009BE3192F4424C0E0D0E0C501B401A8016C
:1032C00097010E94B61ED22E222341F4442031F4ED
:1032D00081E0E816F1040105110561F48091C00058
:1032E00085FFFCCF80E3D80ED092C60080EDD80ECB
:1032F00044244394C801B7012AE030E040E050E0A4
:103300000E94B61EC22E732E642E552E2196CA30F0
:10331000D105A9F06D2D70E080E090E0A801970143
:103320000E94641E861A970AA80AB90A2C2D372D06
:10333000462D552DC901DA017C018D01BECFDF91EB
:10334000CF911F910F91FF90EF90DF90CF90BF90A2
:10335000AF909F908F907F906F905F904F90089567
:103360009C0160E971E00E948F1E892B11F481E0BD
:103370000895C90164E670E00E948F1E892B11F444
:1033800080E0089580E023703070232B09F481E001
:1033900008954F925F926F927F928F929F92AF9219
:1033A000BF92CF92DF92EF92FF920F931F93CF9332
:1033B000DF93382F562F942E522E402E8E2CE4164B
:1033C00020F0E41691F4281780F4852D642D482D03
:1033D000232F052FE92C0E94C91922273327A90181
:1033E000261B370B480B590BDEC0351569F49814B2
:1033F00009F053C0842D90E0851B91099C0144275E
:1034000037FD4095542FCFC0981409F046C0C32F04
:10341000D0E0FE01E255FD4FE4918E2F90E0851B38
:1034200091097C010027F7FC0095102F323041F400
:10343000892D90E00E94B019E80EF11C011D111DAC
:103440009FEAA92E92E0B92EAC0EBD1ECC24DD243D
:103450003E010894611C711CC52DD0E017C0F50118
:103460008491E80EF11C011D111D2230310541F43B
:10347000892D90E00E94B019E80EF11C011D111D6C
:103480000894C11CD11C0894A11CB11C93012C0DE3
:103490003D1D2C173D071CF380C0C32FD0E0FE015B
:1034A000E255FD4FE4918E2F90E0851B91097C0140
:1034B0000027F7FC0095102F323041F4892D90E061
:1034C0000E94B019E80EF11C011D111D8FEAA82EF3
:1034D00082E0B82EAC0EBD1ECC24DD24219617C090
:1034E000F5018491E80EF11C011D111D22303105FA
:1034F00041F4892D90E00E94B019E80EF11C011DE5
:10350000111D0894C11CD11C0894A11CB11C9E0162
:103510002C0D3D1D2D3031051CF3892D90E06C01E3
:103520000894C11CD11CC0E0D0E03C01A82CBB24F5
:1035300011C0C6010E94B01990E083599E4FAA277E
:1035400097FDA095BA2FE80EF91E0A1F1B1F0894BD
:10355000C11CD11C2196CE01860D971D8A159B0595
:1035600044F3C1E0D0E0C52CDD2414C0FE01E255D7
:10357000FD4FE491EE0EF11C011D111DC230D1056D
:1035800041F4882D90E00E94B019E80EF11C011D55
:10359000111D2196CC15DD054CF3A8019701240DD2
:1035A000311D411D511DB901CA01DF91CF911F91FC
:1035B0000F91FF90EF90DF90CF90BF90AF909F90D2
:1035C0008F907F906F905F904F900895EF92FF9251
:1035D0000F931F937B01882341F4BA0180E090E0B0
:1035E0002FEB32E040E050E009C0813011F5BA0124
:1035F00080E090E020E137E240E050E00E94641E6D
:1036000000E010E0A80197010E94B61ECA01B901AE
:10361000A80197010E94B61EC901DA018F3F9105EA
:10362000A105B10539F030F08FEF90E0A0E0B0E0F7
:1036300001C0842F1F910F91FF90EF9008952F925A
:103640003F924F925F926F927F928F929F92AF9232
:10365000BF92CF92DF92EF92FF920F931F93CF937F
:10366000DF93EC01288039804A805B806C807D800C
:103670008E809F80AA24BB246501F501E370F07061
:10368000EE0FFF1FEE0FFF1FEA56FD4FE080F180A7
:1036900002811381EA0CFB1C0C1D1D1DD401C3010A
:1036A00075E0B695A795979587957A95D1F7A4017A
:1036B000930164E0220F331F441F551F6A95D1F711
:1036C00082279327A427B527860D971DA81DB91D0E
:1036D000E826F9260A271B272E0C3F1C401E511EE8
:1036E00089EB99E7A7E3BEE9A80EB91ECA1EDB1E47
:1036F000A2019101F5E05695479537952795FA95E2
:10370000D1F7D201C101E4E0880F991FAA1FBB1FA6
:10371000EA95D1F7282739274A275B27220D331D41
:10372000441D551DD601C5017BE0B695A79597951B
:1037300087957A95D1F783709070880F991F880FBD
:10374000991F8A569D4FFC0180819181A281B3818E
:103750008A0D9B1DAC1DBD1D282739274A275B27D5
:10376000620E731E841E951EF0E2AF16F7E3BF06CD
:10377000FFEECF06F6ECDF0609F07FCF2882398214
:103780004A825B826C827D828E829F82DF91CF91A2
:103790001F910F91FF90EF90DF90CF90BF90AF906F
:1037A0009F908F907F906F905F904F903F902F9061
:1037B00008958F92AF92BF92CF92DF92EF92FF92D5
:1037C0000F931F93DF93CF93CDB7DEB728970FB634
:1037D000F894DEBF0FBECDBFE82FF42F722FBC2CA4
:1037E0008A2D8150823008F040C030E040E050E047
:1037F0003961802F90E0A0E0B0E0B82FAA27992788
:103800008827282B392B4A2B5B2B8E2D90E0A0E0AC
:10381000B0E0DC0199278827282B392B4A2B5B2B1A
:1038200029833A834B835C832F8930E040E050E06A
:10383000542F432F322F2227888D90E0A0E0B0E054
:10384000282B392B4A2B5B2B426B898D90E0A0E013
:10385000B0E0B82FAA2799278827282B392B4A2B85
:103860005B2B2D833E834F8358878E2F4F2F272F1F
:103870000E94C9192AE030E040E050E00E94641E36
:103880007B018C0125E43EE040E050E00E94B61E42
:103890006901BB2029F026E33BE644E050E004C088
:1038A0002AE83CE144E050E0BA01A9014E195F0961
:1038B000600B710B882D90E08E3291051CF08DE22B
:1038C00090E005C08831910514F488E190E08C0106
:1038D0000851104083E0A81609F0A5C0BB2009F0EC
:1038E0004BC0475E5F40624070409E89913051F509
:1038F000A7E9B2E020E030E0FD0185919491C8167F
:10390000D906D0F4F901EE0FFF1FEE0FFF1FE756A7
:10391000FD4F25913491C901E3E0880F991FEA9585
:10392000E1F7220F331F820F931FA0E0B0E0481B86
:10393000590B6A0B7B0B06C02F5F3F4F1496233049
:103940003105D1F6E0EDF1E0849190E0C816D9069A
:103950001CF480E090E009C07796849190E0C8164E
:10396000D9060CF08CC187E190E0080F191F0F52A7
:103970001E4FF80184913FC0445B5A43624070403F
:10398000A3EAB2E020E030E0FD0185919491C816F1
:10399000D906D0F4F901EE0FFF1FEE0FFF1FEB5514
:1039A000FD4F25913491C901E3E0880F991FEA95F5
:1039B000E1F7220F331F820F931FA0E0B0E0481BF6
:1039C000590B6A0B7B0B06C02F5F3F4F14962330B9
:1039D0003105D1F620E030E0F901E250FE4FE491EC
:1039E0008E2F90E0C816D906C4F4020F131F0150A1
:1039F0001E4FF801849190E025E43EE0DC01A29F97
:103A0000C001A39F900DB29F900D1124A0E0B0E0E3
:103A1000481B590B6A0B7B0B32C1295E3F4F253483
:103A20003105D1F62CC1BB2009F045C0BE89B130AB
:103A300051F5A3E4B2E020E030E0FD0185919491DE
:103A4000C816D906D0F4F901EE0FFF1FEE0FFF1FC5
:103A5000EB5BFD4F25913491C901E3E0880F991F7D
:103A6000EA95E1F7220F331F820F931FA0E0B0E029
:103A7000481B590B6A0B7B0B06C02F5F3F4F1496F8
:103A80002B303105D1F620E030E0F901EB55FF4F46
:103A9000E4918E2F90E0C816D9063CF4020F131F54
:103AA0000A551F4FF801849144C0295E3F4F2A38C0
:103AB000310559F755C0BE89B13051F5AFE6B2E0D6
:103AC00020E030E0FD0185919491C816D906D0F42C
:103AD000F901EE0FFF1FEE0FFF1FEF58FD4F25916D
:103AE0003491C901F3E0880F991FFA95E1F7220F8D
:103AF000331F820F931FA0E0B0E0481B590B6A0BE5
:103B00007B0B06C02F5F3F4F14962A303105D1F64C
:103B100020E030E0F901E15DFE4FE4918E2F90E06E
:103B2000C816D906C4F4020F131F005D1E4FF8011A
:103B3000849190E025E43EE0DC01A29FC001A39FB8
:103B4000900DB29F900D1124A0E0B0E0481B590BDE
:103B50006A0B7B0B05C0295E3F4F213A3105D1F638
:103B6000B2E0AB1609F042C08DEAE82E8EE8F82EDE
:103B7000012D112DE40EF51E061F171F89819A8154
:103B8000AB81BC818E259F25A027B12789839A838D
:103B9000AB83BC83CE0101960E941F1B69817A8191
:103BA0008B819C817F778070907028EE33E040E0BD
:103BB00050E00E94641E2FEF3FE740E050E00E947B
:103BC000B61ECA01B90126E036ED40E050E00E9481
:103BD000641E28EE33E040E050E00E94B61EBA01B9
:103BE000A9014E0D5F1D601F711F49C0E1E0AE16B7
:103BF00009F045C0BCEFEB2EB9E2FB2EBFEF0B2F57
:103C0000BFEF1B2FE40EF51E061F171F8D819E812F
:103C1000AF81B8858E259F25A027B1278D839E83F0
:103C2000AF83B887CE0101960E941F1B6D817E81F4
:103C30008F8198857F778070907028EE33E040E028
:103C400050E00E94641E2FEF3FE740E050E00E94EA
:103C5000B61ECA01B90122EB3EE840E050E00E94E6
:103C6000641E28EE33E040E050E00E94B61ED8010A
:103C7000C701821B930BA40BB50BAC01BD0177FFF1
:103C800005C020E030E040E050E00AC0CB01BA01BE
:103C900020E930E040E050E00E94641E9B01AC014E
:103CA000B901CA0128960FB6F894DEBF0FBECDBF8A
:103CB000CF91DF911F910F91FF90EF90DF90CF9008
:103CC000BF90AF908F900895629FD001739FF001D5
:103CD000829FE00DF11D649FE00DF11D929FF00D9C
:103CE000839FF00D749FF00D659FF00D9927729FD3
:103CF000B00DE11DF91F639FB00DE11DF91FBD015E
:103D0000CF0111240895991B79E004C0991F9617DB
:103D100008F0961B881F7A95C9F780950895AA1B0D
:103D2000BB1B51E107C0AA1FBB1FA617B70710F0A6
:103D3000A61BB70B881F991F5A95A9F780959095D8
:103D4000BC01CD01089597FB092E07260AD077FD07
:103D500004D0E5DF06D000201AF4709561957F4FFE
:103D60000895F6F7909581959F4F0895A1E21A2E38
:103D7000AA1BBB1BFD010DC0AA1FBB1FEE1FFF1F0F
:103D8000A217B307E407F50720F0A21BB30BE40B5F
:103D9000F50B661F771F881F991F1A9469F76095A6
:103DA0007095809590959B01AC01BD01CF01089560
:103DB00097FB092E05260ED057FD04D0D7DF0AD079
:103DC000001C38F450954095309521953F4F4F4F4A
:103DD0005F4F0895F6F790958095709561957F4FA8
:103DE0008F4F9F4F0895F999FECF92BD81BDF89AEC
:103DF000992780B50895A8E1B0E042E050E00C9426
:103E0000161F262FF999FECF1FBA92BD81BD20BD86
:103E10000FB6F894FA9AF99A0FBE019608950E9487
:103E2000011F272F0C94021FDC01CB01FC01F99923
:103E3000FECF06C0F2BDE1BDF89A319600B40D92F6
:0C3E400041505040B8F70895F894FFCFAF
:103E4C0020202066742020200020202020636D205C
:103E5C002000202020206C62732000202020206B6A
:103E6C006720200020202020626D69200074696D7D
:103E7C00657320757000616C61726D206F6E0073DC
:103E8C006E6F6F7A696E67007573612D313268726F
:103E9C00006575722D3234687200766F6C2068691B
:103EAC00676800766F6C20206C6F770062726974A3
:103EBC0065200020202020202020200073756E64B7
:103ECC006179006D6F6E64617900747565736461FE
:103EDC0079007765646E73646179007468757273C8
:103EEC0064617900667269646179007361747572DA
:103EFC00646179006A616E00666562006D6172636F
:103F0C006800617072696C006D6179006A756E652C
:103F1C00006A756C790061756773740073657074F1
:103F2C00006F63746F62006E6F76656D006465631D
:103F3C00656D0066656D616C652020006D616C655A
:103F4C0020202020006E6F726D616C202000706547
:103F5C007373696D7374006F7074696D6973740039
:103F6C00736164697374696300696D70657269610A
:103F7C006C006D65747269632020006469726563FE
:103F8C0074202000736D6F6B65722020006E6F6E55
:103F9C0020736D6B720073657420616C61726D00BF
:103FAC007365742074696D65007365742064617445
:103FBC006500736574206272697400736574207691
:103FCC006F6C2000736574207265676E00646561A8
:103FDC007468636C6B00C46C28A8CA916B709E6388
:063FEC009393D9E791FE5A
:00000001FF
