:100000000C94B3020C94CD0A0C94D0020C946108A9
:100010000C94D0020C94B5080C94D0020C94D0022D
:100020000C94D0020C9431100C94D0020C94D00299
:100030000C94D0020C94D0020C94D0020C94D002F8
:100040000C94C2090C94D0020C94D0020C94D002EF
:100050000C94D0020C94D0020C94D0020C949816FC
:100060000C94D0020C94D0020A0101000000080098
:100070003201000A010100000000230024000008F2
:10008000100A060A19F800C203070809060A050C37
:100090000488000B10120F0D0E1113930020202066
:1000A00020202020202020646561746874756265BA
:1000B0002E2020646562756767696E672E20206355
:1000C0006F6465206F7074696D697A6174696F6EB1
:1000D0002E20206279206361697473697468322EFE
:1000E0002020636F6465206A6564692E202077771D
:1000F000772E6361697473697468322E636F6D2043
:1001000020202020202020202069636574756265EE
:100110002E2020696365747562652068617264775A
:100120006172652E20206279206C6164796164615E
:100130002E202073696D706C79207468652062656B
:1001400073742E2020202020202020202067707310
:1001500020636F6465206279206465766C696E2027
:100160007468796E652E20202020202020202020F9
:10017000616461667275697420696E647573747206
:100180006965732E207777772E6164616672756971
:10019000742E636F6D20202020202020202020003E
:1001A0006A616E2020006665622020006D617263C6
:1001B0006800617072696C006D61792020006A7559
:1001C0006E6520006A756C79200061756773740034
:1001D0007365707420006F63746F62006E6F766574
:1001E0006D00646563656D0073756E6461792020D0
:1001F0006D6F6E6461792020747565736461792018
:100200007765646E7364617974687572736461791B
:1002100066726964617920207361747572646179B2
:1002200000616C61726D206F6E006575722D3234E5
:100230006872007573612D3132687200766F6C20C0
:10024000206C6F7700766F6C2068696768006E6F4E
:100250006E20736D6B7200736D6F6B657220200082
:100260006469726563742020006D6574726963202F
:100270002000696D70657269616C007361646973F7
:10028000746963006F7074696D697374007065736D
:1002900073696D7374006E6F726D616C2020006DF8
:1002A000616C65202020200066656D616C652020F2
:1002B0000020202020636D20200020202066742054
:1002C00020200020202020626D6920002020202096
:1002D0006B67202000202020206C62732000627257
:1002E00069746520006465617468636C6B006162A9
:1002F0006F757420202000736574207265676E002E
:1003000073657420766F6C20007365742062726967
:100310007400736574207A6F6E6500736574206471
:10032000617465007365742074696D65007365742C
:1003300020616C61726D0074696D65732075700069
:1003400020202020202020200074696D65732075F6
:100350007000736E6F6F7A696E67001400000000A2
:10036000000000000000000000000000000000008D
:100370000000280000000001010101020202030345
:10038000030404040505060608320000000000010D
:10039000010101020202020303040404050505072A
:1003A0003C00000000000001010101020202030301
:1003B00003040404050506460000000001010101D4
:1003C0000102020202030303040404040000C80043
:1003D000000000000000000000000000000000001D
:1003E00000000000051400000000000000000000F4
:1003F0000000000000000000000000001E000000DF
:1004000001010101020203030304040505060607B6
:1004100007080D2800000001010101020202030388
:100420000304040505060606070B32000000000061
:100430000101010202020303030404040505060688
:100440000A3C00000000000000010101010202025C
:100450000303030404040507460000000000000035
:10046000000101010102020202020303030305C8A5
:100470000000000000000000000000000101010178
:100480000101010102021400000000000000000050
:1004900000000000000000000000000000C8000094
:1004A000000000000000010101010101020202023E
:1004B000020303041400000000000000000000001C
:1004C00000000000000000000000001E000000000E
:1004D0000000000101010101020202020303030303
:1004E0000406C80000000000000001010101010134
:1004F000020202020303030305190000001E00B3F9
:100500000A23008F0A2800FD092D00D80932006A4D
:10051000093700D9083C00FE074100FE06460047A7
:1005200006C800B504190000001E003F092D001B7D
:10053000093200F6083700D1083C0090084100F667
:1005400006460022074B006505C800480419000054
:10055000001E00FE04C800DA04190000001E00900E
:1005600005C8006C050011241FBECFEFD4E0DEBF2C
:10057000CDBF11E0A0E0B1E0E4E8FEE302C00590E9
:100580000D92A837B107D9F712E0A8E7B1E001C092
:100590001D92A937B107E1F70E9424170C94401F60
:1005A0000C9400009C0178941092890110928801AB
:1005B000809188019091890182179307C8F308956B
:1005C000A8950895EDE2F2E0E80FF11D918180E039
:1005D000208130E0282B392BC9010895EDE2F2E0AB
:1005E000E80FF11D60837183089580917802833054
:1005F00011F081E0089584E0089581E080937C010A
:100600005B9A8CB58F7B8CBD85B1877D85B95E98F3
:1006100015BC10921D021092680085B1897F85B9C2
:100620008BB18F7C8BB928988AB18F7C8AB920983E
:100630005A985298E1E6F0E090E8908388E0808351
:10064000449A83B7876083BF8895908310824498CB
:1006500008958EE284B988E48AB989E187B984E390
:100660008BB991E095B985E08093680090936B0019
:1006700080E380936D000895482F2FE132E0260F2C
:10068000311D6AE00E94891EA8E4B1E0FD01E80F77
:10069000F11D8081F9018083842F0E94891EA90F9A
:1006A000B11D8C9181830895982F643008F053C058
:1006B00080917A01882319F4613081F404C081307B
:1006C00069F4623059F480912002816080932002A5
:1006D0008091210281608093210208956330B9F4F2
:1006E000923051F4809124028160809324028091A1
:1006F000250281608093250280912602816080938B
:100700002602809127028160809327020895992311
:1007100029F0E3E0F0E0A3E0B0E004C0E4E0F0E0C2
:10072000A4E0B0E0A15EBD4FE15EFD4F808181603D
:100730008C93992329F4E5E0F0E0A5E0B0E004C053
:10074000E4E0F0E0A4E0B0E0A15EBD4FE15EFD4F6B
:10075000808181608C9308958091300268E10E94CD
:10076000891E90939801809131026CE30E94891E4A
:1007700090932802809132020E94891E9093560223
:10078000809134020E94891E90931C028091330252
:1007900068E10E94891E90932C0280912D0264E6EC
:1007A0000E94891E892F90E090931B0280931A0269
:1007B00080912E026DE00E94891E909351028091DB
:1007C0002F028F7180931E0291E090937E01E6EBE1
:1007D000F0E080818062808385E08093B100909317
:1007E000700078940895FC0183709070892B39F41F
:1007F000CF0164E670E00E94A21E892B49F420E03C
:1008000030E0CF0160E971E00E94A21E892B11F453
:1008100021E030E0822F08958091360280931D02FE
:1008200085B1866085B982E38093800080911D0246
:10083000882329F08091800080688093800088E17F
:10084000809381008AEF90E09093870080938600E8
:100850008091860090918700969587959093890066
:1008600080938800809188009091890090938B00FC
:1008700080938A0008951092800010928100299A36
:100880002A987894109289011092880180918801A9
:10089000909189010A97D0F32A9A29987894109216
:1008A00089011092880180918801909189010A97AD
:1008B000D0F385B1897F85B982EB8093800088E190
:1008C0008093810008951F93162F9C0140E050E013
:1008D00060E472E48FE090E00E94EB1E30938700AA
:1008E0002093860080918600909187009695879549
:1008F00090938B0080938A0080918A0090918B0066
:10090000909389008093880028EC30E01CC080918F
:10091000810082608093810080ED97E0F90131973A
:10092000F1F70197D9F7809181008D7F8093810045
:1009300085B1897F85B980ED97E0F9013197F1F7AD
:100940000197D9F71150112311F785B1897F85B926
:100950001F9108958B3510F08AE503C08E3108F49D
:100960008EE187BD83E084BD81E085BD84B580686C
:1009700084BD80916E00816080936E0078940895AC
:10098000EF92FF920F931F93182FF62E042FE22E53
:1009900010921F02882349F4822F64E60E94891E68
:1009A0008D5E65E00E943C0305C082E080932202D8
:1009B0008093250280917A011D5F882331F48F2D69
:1009C00061E00E943C03802F05C0802F61E00E94FF
:1009D0003C038F2D612F0E943C038E2D64E60E9404
:1009E000891E892F67E00E943C031F910F91FF90A1
:1009F000EF900895982F80917A018823F9F49C3024
:100A000048F080911F02816080931F028EEC8093DA
:100A1000260208C08AEF8093260280911F028E7FF3
:100A200080931F028AEA80932702892F90E00B9619
:100A30006CE070E00E94B61E8F5F01C0892F61E0FC
:100A40000E943C030895FF920F931F93182F862F47
:100A5000042FF22E109222021092250210922602EA
:100A60001092270264E00E943C03812F0E94FA0446
:100A70000C3320F4802F67E00E943C03FF2079F0C4
:100A8000E3E0FE9EF0011124DF01A35EBD4F8C91D7
:100A900081608C93E25EFD4F8081816080831F9135
:100AA0000F91FF9008951F93182F242F992787FDEA
:100AB000909597FF03C0909581959F4F4CE30E94BE
:100AC00023058AE1809327028EE18093260288E342
:100AD0008093250217FD04C080911F028D7F03C003
:100AE00080911F02826080931F021F910895AC01C4
:100AF00010921F0221E030E0A22FB0E0FD01E30FD1
:100B0000F11D3197E40FF51FE491EE2351F18E2F83
:100B100081568A3130F4A15EBD4FF0E0E353FF4FC0
:100B200009C08E2F80538A3040F4A15EBD4FF0E0A3
:100B3000E85EFE4F80818C9311C0EE3261F422306A
:100B400050F02150E22FF0E0E15EFD4F80818160A6
:100B500080833F5F03C0A15EBD4F1C922F5F293091
:100B600058F2089580917A01882319F483E392E082
:100B700002C08AE292E00E9477050895882351F02E
:100B800085E492E00E947705809124028160809341
:100B9000240204C08CE392E00E9477058091250234
:100BA00081608093250280912602816080932602D5
:100BB000809127028160809327020895CF93DF936D
:100BC000EB0110921F028823A1F48AEB92E00E94AD
:100BD0007705CE016CE070E00E94A21E862F61E0D6
:100BE0000E943C03CE016CE070E00E94A21E67E010
:100BF00015C081EB92E00E947705CE0164E670E0BB
:100C00000E94A21EFB01E85BFE4F808180932002C0
:100C1000CE0164E670E00E94A21E62E00E943C03E6
:100C2000DF91CF910895CF93DF93EB0110921F02D4
:100C3000882319F485ED92E007C0813019F48CEC1B
:100C400092E002C083EC92E00E947705CE0164E658
:100C500070E00E94A21EFB01E85BFE4F8081809342
:100C60002002CE0164E670E00E94A21E62E00E94B3
:100C70003C03DF91CF910895843051F48091540268
:100C8000882319F088EA92E048C08FE992E045C0D5
:100C90008530A1F480915702882319F486E992E007
:100CA0003CC0813019F48DE892E037C0823019F4ED
:100CB00084E892E032C08BE792E02FC0863079F46E
:100CC00080915002882319F482E792E026C0813097
:100CD00019F489E692E021C080E692E01EC08730D8
:100CE00049F46091520270915302809150020E9427
:100CF00013060895883049F46091290270912A0200
:100D0000809150020E94DE050895893069F4809137
:100D10009901882329F087E592E00E9477050895DC
:100D20008EE492E00E94770508951F93182F8EEDB0
:100D300092E00E947705812F67E00E943C0380913A
:100D40002602816080932602809127028160809331
:100D500027021F910895EF92FF920F931F93CF9355
:100D6000DF937B018C0116161706180619061CF571
:100D7000C7E2D2E0C801B7012AE030E040E050E02D
:100D80000E94EB1EDC01CB01885B9E4FFC01808141
:100D90008883C801B7012AE030E040E050E00E94BB
:100DA000EB1EC901DA017C018D012197F2E0CF3100
:100DB000DF0701F704C089E493E00E947705DF9123
:100DC000CF911F910F91FF90EF900895EF92FF92B6
:100DD0000F931F93282F80917B018C3009F091C0D5
:100DE00080914F02843009F48CC0E0908E01F09025
:100DF0008F01009190011091910180919801E22F53
:100E0000F0E0992787FD9095E817F90744F1809164
:100E10009801992787FD90958E179F0751F480912F
:100E20002802992787FD9095262F30E0281739074B
:100E3000B4F080919801992787FD90958E179F07B0
:100E400031F580912802992787FD9095262F30E073
:100E500082179307E1F4809156021816C4F490911A
:100E600098012091280280917802833011F041E0AE
:100E700001C044E050E084EC9802C0011124332703
:100E800027FD3095821B930B80569A4F15C0909189
:100E900098012091280280917802833011F041E07E
:100EA00001C044E050E084EC9802C00111243327D3
:100EB00027FD3095821B930B2CE330E0D901EA9F8C
:100EC0009001EB9F300DFA9F300D1124820F931F7C
:100ED000860F911D9C01429FC001439F900D529F20
:100EE000900D1124AA2797FDA095BA2FA80197016C
:100EF000281B390B4A0B5B0BCA01B9010E94AB06D8
:100F000005C0822F4CE320E00E9423051F910F9122
:100F1000FF90EF9008954A9B36C080912B02882362
:100F200009F049C081E080932B0210928701109252
:100F3000860181E292E00E94770589E080934F026A
:100F40007894109289011092880180918801909183
:100F50008901885E9340C8F380912C0260911C0245
:100F60000E94E6067894109289011092880180917F
:100F7000880190918901805D9740C8F380917B0141
:100F800080934F02089580912B028823A1F0109244
:100F90002B02109287011092860180914E028823C5
:100FA00051F010924E02809181008D7F80938100DC
:100FB00085B1866085B9089580917C01882389F187
:100FC00080E8809361001092610010927C0180E4BF
:100FD0009CE90197F1F700B605FC23C00E942903A4
:100FE000809135020E94AA0481E58CBD5B984398EC
:100FF0008091360280931D020E940C04A8950E94E5
:101000008B0780E793E061E00E94630480EE96E046
:1010100061E00E94630480EC9DE061E00E94630453
:10102000A89508951F9380918B018D7F80938B01EC
:1010300083E680934F0210E019C01F5FE12FF0E0BC
:10104000E356FF4F84918E32C1F3CF010E947705A2
:101050007894109289011092880180918801909172
:1010600089018D549140C8F31F5FA895E12FF0E0EE
:10107000EB55FF4FE491EE2309F780917B018093BC
:101080004F021F91089588E592E090938701809325
:10109000860182E593E00E94770589E080934F0204
:1010A0007894109289011092880180918801909122
:1010B0008901885E9340C8F380917B0180934F0241
:1010C00008951F920F920FB60F9211242F933F9302
:1010D0004F935F936F937F938F939F93AF93BF9340
:1010E000EF93FF93109268007894189925C080912F
:1010F0008A0181FD26C0789410928901109288019E
:1011000080918801909189010A97D0F3189919C0AC
:101110000E943B0480914E02882319F00E944308EC
:1011200010C080918A01826080938A0180918B0136
:10113000826080938B0105C080918A018D7F8093AE
:101140008A0185E080936800FF91EF91BF91AF9194
:101150009F918F917F916F915F914F913F912F91CF
:101160000F900FBE0F901F9018951F920F920FB601
:101170000F9211242F933F934F935F936F937F931D
:101180008F939F93AF93BF93EF93FF931092680059
:1011900078944D9922C080918A0180FD23C0789473
:1011A00010928901109288018091880190918901A3
:1011B0000A97D0F34D9959C00E943B0480914E028A
:1011C0008823A1F580918A01816080938A018091B2
:1011D0008B01816080938B0105C080918A018E7F95
:1011E00080938A014C993AC080918A0182FD3DC06A
:1011F00078941092890110928801809188019091D1
:1012000089010A97D0F34C9930C082E080938D0118
:1012100016C04C9B14C00E943B0480918A018B7FB6
:1012200080938A0180914E02882319F00E9443081E
:101230001CC080918B01846080938B0116C08091CB
:101240008D01882331F780918A01846080938A011F
:1012500080918C01846080938C0107C010928C0176
:1012600080918A018B7F80938A0185E0809368005A
:10127000FF91EF91BF91AF919F918F917F916F916E
:101280005F914F913F912F910F900FBE0F901F9044
:10129000189581E58CBD08959B01AC01F894CA01B5
:1012A000AA27BB278EBD0DB407FEFDCFBB27A52FF8
:1012B000942F832F8EBD0DB407FEFDCF2EBD0DB430
:1012C00007FEFDCF409A409878940895AF92BF9260
:1012D000CF92DF92EF92FF920F931F93E82FF0E0EF
:1012E000E857FF4FE49181E090E002C0880F991F1A
:1012F000EA95E2F77C010027F7FC0095102F20917A
:101300009301309194014091950150919601A0E094
:10131000B0E070E0E1E0AE2EB12CC12CD12CCB01BD
:101320000A2E02C0959587950A94E2F780FF11C0B6
:10133000FD01ED56FF4FE491A601950104C0220F77
:10134000331F441F551FEA95D2F7E22AF32A042BD4
:10135000152B1196A830B10511F720939301309306
:1013600094014093950150939601C801B7010E94E2
:101370004C091F910F91FF90EF90DF90CF90BF909D
:10138000AF9008951F920F920FB60F9211242F93D2
:101390003F934F935F936F937F938F939F93AF93FD
:1013A000BF93EF93FF937894A895809182019091D9
:1013B000830101969093830180938201819708F4C1
:1013C0006CC01092830110928201809188019091EB
:1013D0008901019690938901809388018091810110
:1013E000893010F01092810180918101E82FF0E0A6
:1013F000E15EFD4F60810E946609809181018F5FEF
:101400008093810180914E02882309F446C0809127
:10141000860190918701892B09F03FC0809184015A
:101420009091850101969093850180938401853682
:10143000910598F110928501109284018AEF90E055
:10144000909387008093860080918600909187001A
:101450009695879590938B0080938A0080918A005F
:1014600090918B00909389008093880080914E0228
:10147000807F49F080914E028F7080934E02809160
:1014800081008D7F08C080914E02806F80934E0254
:1014900080918100826080938100FF91EF91BF91E4
:1014A000AF919F918F917F916F915F914F913F91FC
:1014B0002F910F900FBE0F901F9018958EBD0DB4F9
:1014C00007FEFDCF08958091C00080780895FC014B
:1014D0005381505182814AE0849FC0011124580FEA
:1014E0007481658130915201232F20518181280F11
:1014F0008081849FC0011124280F2093980180913E
:10150000800137FF02C0581B01C0580F50932802BA
:1015100060518AE0789FC0011124680F60935602E1
:101520000895FC016181605180815AE0859FC0016E
:101530001124680F438140518281859FC00111248D
:10154000480F258120518481859FC0011124280FD7
:1015500010927D0110927E0160931E024093510211
:1015600030E030931B0220931A020895982F809147
:101570002B02882389F080912C02891769F48091CD
:101580001C02861749F4442339F481E080934E020B
:10159000109287011092860108951F920F920FB644
:1015A0000F9211242F933F934F935F936F937F93E9
:1015B0008F939F93AF93BF93EF93FF9389E60E941E
:1015C0009E1829B17894789410928901109288011C
:1015D00080918801909189010A97D0F389B1247094
:1015E00030E090E0847090702817390711F40E9461
:1015F0008B07FF91EF91BF91AF919F918F917F9159
:101600006F915F914F913F912F910F900FBE0F906F
:101610001F9018958F92AF92BF92CF92DF92EF9268
:10162000FF920F931F9380913D0280937802D09098
:101630003902B0903A02F0903B028CE6F80EE0904E
:10164000440200914502109146021459C0903C0298
:10165000A09078027091430260E08091420290E095
:10166000682B792B5091410240E08091400290E03C
:10167000482B592B80913E020E94D119882E00D010
:1016800000D0EDB7FEB7319680914302ADB7BEB73B
:1016900011968C93809147028183809148028283C6
:1016A0008091490283838D2D6B2D4F2D2E2DE12EA0
:1016B0000E94DF1B0F900F900F900F901F910F91C2
:1016C000FF90EF90DF90CF90BF90AF908F900895F4
:1016D000DF92EF92FF920F931F93809144028093C9
:1016E0005502809145028093970180914602809334
:1016F0004D020E940A0B7B018C01DD24D39450C063
:10170000809197018F5F809397018091970180323C
:1017100068F5809197018F3181F480915502843072
:1017200029F180915502863009F180915502893066
:10173000E9F0809155028B30C9F0809197018E318C
:1017400021F480915502823089F0809197018D318A
:10175000A1F480915502823081F480914D0290E095
:101760008459984F0E94F303882339F4D09297014B
:10177000809155028F5F80935502809155028D3084
:1017800038F0D092550280914D028F5F80934D02C8
:1017900080E69AEFAFEFBFEFE80EF91E0A1F1B1F9E
:1017A00090EAE91695E0F90690E0090790E019073C
:1017B00008F0A6CF1F910F91FF90EF90DF90089552
:1017C000EF92FF920F931F93CF93DF93882351F4EF
:1017D0006091510240911E0220911A0230911B0229
:1017E00081E00BC0823061F46091510240911E0291
:1017F00020911A0230911B0280E00E94C004DEC0DA
:10180000813009F0DBC0E0901E02F090510200919F
:101810001A0210911B020E94680B80917B018C3090
:1018200079F48091970180931E02809155028093F4
:10183000510280914D0290E090931B0280931A0216
:1018400080915102C82FDD27C7FDD09580917B0183
:101850008C3039F4E0911A02F0911B02E459F84FF0
:1018600006C0E0911A02F0911B02E053F84F8091FC
:101870005102833014F42C96319720911E0210925D
:10188000260210922702332727FD30952F5F3F4F06
:101890002E0F3F1FCE01880F991F280F391FCF0130
:1018A0009695879596958795280F391FCF0160E902
:1018B00071E00E94A21E260F371FCF0164E670E080
:1018C0000E94A21E261B370BAE014F5F5F4FCA015D
:1018D000880F991F840F951F880F991F6AE070E089
:1018E0000E94A21EC901860F971F67E070E00E9448
:1018F000A21E90E0A3E0880F991FAA95E1F78851F6
:101900009E4F0E9477057894109289011092880169
:101910008091880190918901885E9340C8F310926C
:10192000230210922402109225028091510226E097
:101930008202C001112486569E4F0E947705809135
:101940001E0267E00E943C0380917B018C30B1F560
:101950007894109289011092880180918801909169
:101960008901885E9340C8F31092230210922202EC
:10197000109221021092200280911A0290911B0273
:1019800064E670E00E94B61E862F8D5E65E00E94C0
:101990003C0380911A0290911B0264E670E00E9461
:1019A000B61E67E00E943C03E0921E02F0925102D4
:1019B000802F90E090931B0280931A02DF91CF91C9
:1019C0001F910F91FF90EF9008959F92AF92BF9259
:1019D000CF92DF92EF92FF920F931F930E940A0B18
:1019E0005B016C012091510200911E02E0911A02EC
:1019F000F0911B02409146024459E0538091440209
:101A000060914502EE2E0E94C41A9B01AC018091A8
:101A10007802833011F011E001C014E09090980139
:101A200080917802833019F0EE24E39402C064E0E0
:101A3000E62EF090280280917802833011F001E0C8
:101A400001C004E0CA01B90120EA35E040E050E0FD
:101A50000E946A1E212F30E040E050E00E946A1E82
:101A6000A61AB70AC80AD90A8CE3292D2802C00190
:101A700011242E2D30E0AC01429FC001439F900DF8
:101A8000529F900D1124AA2797FDA095BA2FA81A4E
:101A9000B90ACA0ADB0A202F30E08F2D992787FD6B
:101AA0009095AC01249FC001259F900D349F900D0F
:101AB0001124AA2797FDA095BA2FA81AB90ACA0A15
:101AC000DB0AA0928E01B0928F01C0929001D09259
:101AD00091010E94680B20911A0230911B028091A3
:101AE0004D022D593F4F90E028173907CCF5209132
:101AF0004D0280911A0290911B0230E08C599F4F49
:101B00002817390759F4209155028091510230E08D
:101B1000992787FD90952817390714F120914D02D8
:101B200080911A0290911B0230E08C599F4F281728
:101B30003907F1F4209155028091510230E0992744
:101B400087FD90952817390799F420919701809186
:101B50001E0230E0992787FD90952817390744F435
:101B600010928E0110928F011092900110929101AB
:101B70001F910F91FF90EF90DF90CF90BF90AF90AB
:101B80009F900895EF92FF920F931F93CF93DF934F
:101B9000CDE2D2E008E512E07FEFE72E71E0F72E0C
:101BA0006881F8018081681731F0C7010E94321FF7
:101BB0008881F801808321960F5F1F4F0894E10808
:101BC000F108F2E0CD34DF0759F7DF91CF911F9193
:101BD0000F91FF90EF900895809156028C3394F10D
:101BE000809156028C5380935602809128028F5F19
:101BF0008093280280918E0190918F01A091900195
:101C0000B0919101181619061A061B06DCF42091F2
:101C10008E0130918F0140919001509191018091FE
:101C20007802833011F081E001C084E0281B310983
:101C30004109510920938E0130938F014093900107
:101C4000509391018091560287FF25C080915602E2
:101C5000845C8093560280912802815080932802F0
:101C600020918E0130918F0140919001509191010E
:101C700080917802833011F081E001C084E0280F68
:101C8000311D411D511D20938E0130938F014093D2
:101C9000900150939101809128028C3394F08091AF
:101CA00028028C5380932802809198018F5F809343
:101CB000980180919801809330028091280280934E
:101CC00031028091280287FF12C080912802845C33
:101CD000809328028091980181508093980180918F
:101CE0009801809330028091280280933102809184
:101CF0009801883174F080919801885180939801FF
:101D000080911E028F5F80931E0280911E0280933D
:101D10002F028091980187FF0EC080919801885E04
:101D20008093980180911E02815080931E028091C1
:101D30001E0280932F0280911A0290911B02805301
:101D4000984F0E94F303882311F48CE101C08DE1C8
:101D500080935C0120911E02E0915102332727FD00
:101D60003095FF27E7FDF095E65AFE4F808190E021
:101D70008217930784F481E080931E0280915102C0
:101D80008F5F809351028091510280932E02809147
:101D90001E0280932F0280911E02181694F18091EA
:101DA000510281508093510280915102181674F0B3
:101DB00080915102845F8093510280911A02909128
:101DC0001B02019790931B0280931A02E09151022B
:101DD00090911E02FF27E7FDF095E65AFE4F8081A5
:101DE000980F90931E0280911E0280932F02809183
:101DF000510280932E0280911A0290911B028093CF
:101E00002D02809151028D30B4F080911A02909190
:101E10001B02019690931B0280931A0281E080932B
:101E200051028091510280932E0280911A0290916A
:101E30001B0280932D020E94C20D08958F929F92E3
:101E4000BF92CF92DF92EF92FF920F931F93DF9397
:101E5000CF93CDB7DEB72F970FB6F894DEBF0FBE86
:101E6000CDBF8091C600898390917F01992349F469
:101E7000843209F0E4C081E080937F018AE991E037
:101E8000D7C00AE911E0F80101900020E9F7319785
:101E9000E01BF10BE038F105C0F4369789F4C80176
:101EA00060E071E00E94111F009721F482E08093AE
:101EB0007F01BDC080E8F80111928A95E9F7B4C0AE
:101EC0008A3209F0B4C0923019F080E8D801A9C074
:101ED00087E091E00E94D418C8010E94D418C8017C
:101EE0006CE270E00E94061FDE011296FC01319642
:101EF00026E001900D922150E1F7188600E010E0F5
:101F000001966CE270E00E94061F0F5F1F4F0830C1
:101F10001105B1F7DE011996FC01319686E00190BA
:101F20000D928150E1F71F868E8590E0805192409E
:101F30002D854AE0249F90011124820F931F0A9758
:101F40000CF46BC010919801009128028091560208
:101F5000CE0102960E94670ACE0109960E94910A5C
:101F60000E94EC0D30919801809128022CE33202FE
:101F7000D0011124992787FD9095A80FB91F812EB4
:101F800099248CE390E0889EF001899EF00D989E44
:101F9000F00D1124E00FF11DE0909801F09028025F
:101FA000AD014E1B5F0B57FF18C0BD0160567A4F45
:101FB0006E177F0790F09A0120563A4F37FF03C003
:101FC000309521953F4F88279927841B950B28171B
:101FD00039071CF4B8E1EB0E01C0BD01E617F707A5
:101FE000E0F400E010E0CE2CDD24C7FCD0940FC05C
:101FF0008B2D6F2D40E00E94B60AFA9402C0BE2CD1
:10200000B01AF7FEF5CF0F5F1F4FEBE3FE2EC601B0
:10201000801B910B8815990594F780E8EAE9F1E0B7
:10202000DF011D928A95E9F710927F0108C0C8016F
:10203000BE016F5F7F4F41E050E00E941A1F2F9654
:102040000FB6F894DEBF0FBECDBFCF91DF911F91C9
:102050000F91FF90EF90DF90CF90BF909F908F9067
:1020600008951F920F920FB60F9211242F933F9352
:102070004F935F936F937F938F939F93AF93BF9390
:10208000EF93FF9380E8809361001092610080914C
:1020900056028F5F809356020E94EC0D80917C0166
:1020A000882309F0C8C080914F02882319F58091D8
:1020B0007D01882349F08091560280FF05C080E4AD
:1020C00093E00E94770509C08091980160912802F1
:1020D0004091560220E00E94230580912B02882324
:1020E00021F080911F02826003C080911F028D7FCA
:1020F00080931F0280914F028C3009F06CC02091B8
:102100008E0130918F014091900150919101809109
:102110007802833029F080E090E0A0E0B0E00AC0CF
:10212000809156026FE00E94951E992787FD909539
:10213000A92FB92F281B390B4A0B5B0B121613065C
:1021400014061506BCF520918E0130918F01409147
:1021500090015091910180917802833029F080E0C4
:1021600090E0A0E0B0E00AC0809156026FE00E94CB
:10217000951E992787FD9095A92FB92F281B390BFC
:102180004A0B5B0BCA01B9010E94AB068091560253
:102190009BE3981B28E00BC090FF07C0E22FF0E004
:1021A000E15EFD4F80818160808396952150992367
:1021B00099F704C087E393E00E94770580912B0292
:1021C000882321F080911F02826003C080911F024A
:1021D0008D7F80931F028091980160912802409129
:1021E00056020E94B60A80919201882329F08091BC
:1021F000920181508093920180918D01882329F072
:1022000080918D01815080938D0180918601909104
:102210008701009781F00197909387018093860151
:1022200080FF04C080911F02826003C080911F0262
:102230008D7F80931F02FF91EF91BF91AF919F918E
:102240008F917F916F915F914F913F912F910F905F
:102250000FBE0F901F90189580918B0180FF02C0D8
:1022600081E0089580918B01882321F480918C0175
:10227000882321F08AE0809392010AC08091920124
:10228000882331F480917B0180934F0282E008958E
:1022900080918B0181FD02C080E008950E94C20DF3
:1022A00080E008958AE0809392010DC080918B01B7
:1022B000867049F010928B010E94120880917B0178
:1022C00080934F0208950E942C11882379F308957A
:1022D0001F938AE0809392018091370280937A0164
:1022E00019C080918B0181FF0DC010928B011123C9
:1022F00021F40E94B20511E005C080917B0180931A
:102300004F021EC080918B0182FF16C010928B017C
:10231000113011F010E010C090E080917A01882314
:1023200009F491E090937A010E94B20580917A01BC
:10233000809337020E94C20D0E942C11882389F2DB
:102340001F9108950F931F938AE08093920110913B
:1023500036021AC080918B0181FF0EC010928B0152
:10236000002329F4812F0E94BE0501E005C0809161
:102370007B0180934F0220C080918B0182FF18C0A7
:1023800010928B01013011F000E012C080E01123A7
:1023900009F481E0182F0E94BE05109336020E94B6
:1023A000C20D0E940C0480EA9FE061E00E94630479
:1023B0000E942C11882371F21F910F9108952F9282
:1023C0003F924F925F926F927F928F929F92AF92C5
:1023D000BF92DF92EF92FF920F931F93DF93CF9301
:1023E000CDB7DEB728970FB6F894DEBF0FBECDBFCE
:1023F0008AE08093920180913C0280935402809104
:102400003D0280935702D0903A02E0903902F0905A
:102410003B0280913E0280935002409143024093E0
:1024200099019091410280E02091400230E0822B9E
:10243000932B9093530280935202942F80E020912B
:10244000420230E0822B932B90932A028093290240
:1024500000E02E010894411C511C9CE5292E312CD2
:1024600084E2A82EB12C1FE0812E912CB3E26B2EBA
:10247000712CBEC180918B0181FF6CC010928B01C9
:10248000002331F480917A01882309F4BFC1BCC1D3
:10249000013029F480917A01882339F012C002308A
:1024A00071F480917A01813031F480917A0188232E
:1024B00009F4AAC1ABC1882309F4A4C107C0013043
:1024C00029F480917A01813009F49CC1802F8350D6
:1024D000843020F40F5F0430B0F52FC0073031F4A2
:1024E00080915002823009F089C18AC1083009F414
:1024F00087C183E680934F028091570280937802D0
:102500000E94E50C60918E0170918F018091900185
:10251000909191010E94AB067894109289011092DB
:10252000880180918801909189018C5D9540C8F364
:1025300080917B0180934F026BC180E06E2D4D2D09
:102540002F2D0E94C00482E0602F0E945403802F30
:102550000E943C0680918B0182FD04C080918C0119
:1025600082FF46C110928B01013049F4E3948CE064
:102570008E1510F4EE24E394E092390215C0023077
:1025800049F4D3942FE12D1510F4DD24D394D09287
:102590003A020AC0033051F48F2D8F5F68EC0E941D
:1025A000891EF92E90933B0211E005C0043010F013
:1025B00010E007C010E080E06E2D4D2D2F2D0E9401
:1025C000C00482E0602F0E945403043059F490E06C
:1025D00080915402882309F491E0909354029093DF
:1025E0003C02AFC0053049F4809157028F5F837081
:1025F0008093570280933D02A4C0063069F5809114
:1026000050028F5F63E00E94891E909350029923CD
:1026100049F47092530260925202B0922A02A09240
:1026200029020FC0913049F49092530280925202D5
:1026300030922A022092290204C010925302109272
:10264000520290933E0280915202909153028093E5
:1026500040029093410262C00730B9F520915002C8
:10266000222389F48091520290915302059690930F
:1026700053028093520285599240F0F070925302B7
:102680006092520219C080915202909153022130FF
:1026900069F4039690935302809352028D529140B5
:1026A00058F0909253028092520206C001969070A8
:1026B0009093530280935202809152029091530260
:1026C00080934002909341023CC0083071F58091A4
:1026D0005002882389F48091290290912A02019660
:1026E00090932A028093290289379105B8F0B0921D
:1026F0002A02A092290212C0813081F4809129021D
:1027000090912A02019690932A0280932902825383
:10271000914020F030922A022092290280912902D1
:1027200090912A02809342020AC0093059F490E045
:1027300080919901882309F491E0909399019093F5
:10274000430211E080918C0182FF0BC078941092BB
:102750008901109288018091880190918901CC971C
:10276000D0F3112309F444C040911A0250911B0286
:10277000D201E3E5F1E088E001900D928150E1F7AC
:1027800020911A0230911B0280915402E09157026D
:10279000F0E0EE0FFF1FE80FF11DE40DF51DE081E5
:1027A0002C593F4F2F1931098E2F90E08217930734
:1027B0001CF0E42FEC5901C0EF0D80911E028093B4
:1027C00045028091510280934402E0934602809139
:1027D000980180934702809128028093480280915B
:1027E0005602809349020E94C20D802F0E943C062F
:1027F0000E942C11882309F43DCE0AC008E0A3CE24
:1028000009E0A1CE03E099CE02E097CE01E095CE9B
:1028100028960FB6F894DEBF0FBECDBFCF91DF91E3
:102820001F910F91FF90EF90DF90BF90AF909F901E
:102830008F907F906F905F904F903F902F90089572
:102840000F931F938AE080939201109135021EC06E
:1028500080918B0181FF0EC010928B01002329F41F
:10286000812F0E94950601E005C080917B01809335
:102870004F021AC080918B0182FD04C080918C01AF
:1028800082FF0EC010928B01013011F000E008C0F1
:102890001B5F1C3508F01EE1812F0E94950617BDB5
:1028A0000E942C118823A1F20E942C11813021F06A
:1028B000109335020E94C20D1F910F910895FF924F
:1028C0000F931F93F0905201009180018AE0809352
:1028D000920110E057C080918B0181FF11C01092CE
:1028E0008B01112339F0113011F412E004C0109261
:1028F0004F024DC011E08F2D602F412F0E945305D4
:1029000080918B0182FD04C080918C0182FF3AC0CE
:1029100010928B01113089F48F2D992787FD9095A6
:102920000D9669E170E00E94B61E24EFF22EF80EBB
:10293000F0925201F0924A020EC0123061F4802FE0
:1029400090E001966CE370E00E94B61E082F809321
:10295000800180934B020E94C20D8F2D602F412F6A
:102960000E94530580918C0182FF0CC078941092D4
:1029700089011092880180918801909189018B349E
:102980009105C8F30E942C11882309F4A4CF1F914C
:102990000F91FF9008951F938AE08093920110E0B9
:1029A000BFC080918B0181FF4FC010928B0111231A
:1029B00029F480917A018823A9F132C0113029F4D9
:1029C00080917A01882339F010C0123061F480912F
:1029D0007A01813029F480917A01882309F122C09B
:1029E000882311F106C0113021F480917A018130E1
:1029F000D9F083E680934F0280E00E94E00B789448
:102A0000109289011092880180918801909189012A
:102A10008C5D9540C8F380917B0180934F0285C007
:102A200012E003C011E001C013E060915102409137
:102A30001E0220911A0230911B0281E00E94C00404
:102A400080E0612F0E94540380918B0182FD04C0BD
:102A500080918C0182FF64C010928B01113081F44F
:102A6000809151028F5F80935102809151028D308D
:102A700014F0109351028091510280932E0230C0C5
:102A8000123089F480911E028F5F80931E02809124
:102A90001E0280321CF081E080931E0280911E0293
:102AA00080932F021DC01330D9F480911A029091A7
:102AB0001B02019690931B0280931A0280911A02C6
:102AC00090911B0264E670E00E94B61E90931B0278
:102AD00080931A0280911A0290911B0280932D021A
:102AE0000E94C20D6091510240911E0220911A0273
:102AF00030911B0281E00E94C00480E0612F0E949F
:102B0000540380918C0182FF0BC07894109289014C
:102B1000109288018091880190918901CC97D0F31F
:102B20000E942C11882309F43CCF1F910895EF9245
:102B3000FF920F931F93F090980100912802E0906C
:102B400056028AE08093920110E074C080918B015C
:102B500081FF24C010928B01112341F4F090980161
:102B600000912802E090560211E012C0113079F075
:102B7000123011F413E00CC0F09298010093280277
:102B8000E092560280917B0180934F0258C012E080
:102B90008F2D602F4E2D212F0E94230580918B01B8
:102BA00082FD04C080918C0182FF44C010928B0191
:102BB000113069F48F2D90E0019668E170E00E9479
:102BC000B61EF82E80939801809330021BC01230FD
:102BD00069F4802F90E001966CE370E00E94B61ECD
:102BE000082F80932802809331020CC0133051F4D7
:102BF0008E2D90E001966CE370E00E94B61EE82EE8
:102C0000809356020E94C20D8F2D602F4E2D212FD2
:102C10000E94230580918C0182FF0CC07894109251
:102C200089011092880180918801909189018B34EB
:102C30009105C8F30E942C11882309F487CF1F91B6
:102C40000F91FF90EF900895FF920F931F930091C3
:102C50002C02F0901C028AE08093920110E04DC09B
:102C600080918B0181FF14C010928B01112349F0D8
:102C7000113011F412E006C080917B0180934F0265
:102C800041C011E0802F6F2D4CE3212F0E942305BE
:102C900080918B0182FD04C080918C0182FF2DC048
:102CA00010928B01113049F4802F90E0019668E179
:102CB00070E00E94B61E082F0AC0123041F48F2D1A
:102CC00090E001966CE370E00E94B61EF82E802F13
:102CD0006F2D4CE3212F0E94230580918C0182FFF0
:102CE0000CC078941092890110928801809188011B
:102CF000909189018B349105C8F30E942C1188238F
:102D000009F4AECF0E942C11813071F000932C0297
:102D100080912C0280933002F0921C0280911C0260
:102D2000809331020E94C20D1F910F91FF90089570
:102D30001F920F920FB60F9211242F933F934F9330
:102D40005F936F937F938F939F93AF93BF93EF9313
:102D5000FF9300B605FE1EC080917C01882389F593
:102D60005B9A85B1877D85B95E988CB58F7B8CBD6C
:102D700080917E01882341F0809128028093310266
:102D8000809156028093320215BC10921D0210925F
:102D9000680010C080917C01882399F080917E01A9
:102DA000882341F08091280280933102809156025D
:102DB000809332020E94C20DE0917801F091790176
:102DC0000995FF91EF91BF91AF919F918F917F9165
:102DD0006F915F914F913F912F910F900FBE0F9088
:102DE0001F9018950F931F93CF93DF93C0E0D0E00F
:102DF0000FEF11E0C8018C1B9D0B0E942A1FFE01E2
:102E0000E35DFD4F8083FE01E85AFD4F80832196EC
:102E1000C032D10579F780914C02823C81F080E08C
:102E200090E0FC01E859FF4FE491DC01A35DBD4F48
:102E3000EC93019680329105A1F70E94C20DDF91BB
:102E4000CF911F910F9108957F928F929F92AF9291
:102E5000BF92CF92DF92EF92FF920F931F9315BC18
:102E6000569A5E9884B714BE90E00E940A1988E1D1
:102E70000FB6F89480936000109260000FBE2FE0B0
:102E800088E190E00FB6F894A895809360000FBE9B
:102E900020936000A8950E94F21611E010937D0126
:102EA00010927E0187E690E00E9491188AE091E0FE
:102EB0000E94D4188BE191E00E94D41880E890E041
:102EC0000E94271987E091E00E94D41888E480BF0F
:102ED00080ED97E00197F1F700B605FE06C080B7D8
:102EE000806180BF0E94AC032FC00E9429035B98C1
:102EF000109369001DBB10924F0281E58CBD80913B
:102F000035020E94AA04789480914A02809352016B
:102F1000845F893110F01092520180914B028093AE
:102F200080018D3310F010928001809137028093E0
:102F30007A010E940C0480EA9FE061E00E94630431
:102F40000E94AC030E948B07BCE08B2EA3E67A2E76
:102F5000F7E09F2EE4E0BE2E7BE0A72E66E0C62EB3
:102F600058E0E52E4DE0D42E05E033E0F32E1EE0D0
:102F7000A89500B605FE03C00E94FD02F9CF80911E
:102F80008B0180FF7BC010928B0180914F028630B5
:102F900009F450C0873068F4833089F1843018F424
:102FA0008823C9F084C08430F9F0853009F07FC0EF
:102FB0002FC08C3081F08D3038F4873009F443C055
:102FC000883009F074C048C08D3009F44EC08E308E
:102FD00009F06DC026C0B0924F028DE293E00E94CE
:102FE00077050E9424167DC0F0924F0284E293E0A0
:102FF0000E9477050E94971510927D0172C0009380
:103000004F028BE193E00E9477050E94CB1469C0C8
:1030100010934F0282E193E00E9477050E945F14B3
:1030200060C0C0924F0289E093E00E9477050E9441
:10303000201457C090924F0280E093E00E947705E1
:103040000E94A2114EC0E0924F0287EF92E00E94D0
:1030500077050E94681145C0D0924F028EEE92E033
:103060000E9477050E9452113CC0A0924F0285EE4B
:1030700092E00E9477050E94DF1133C080918B019E
:1030800081FF1AC010928B0170924F0281E00E9462
:10309000E00BA89578941092890110928801809194
:1030A0008801909189018C5D9540C8F3A895809125
:1030B0007B0180934F0215C080918B0182FF11C06C
:1030C00010928B0180917B01882319F480927B01FF
:1030D00002C010927B0180917B0180934F020E947D
:1030E000E50C8091C00087FF43CF0E941E0F40CFA8
:1030F00006C090E000009F5F9E31E1F78150882379
:10310000C1F7089548EC50E009C020E137E2FA0128
:103110003197F1F721503040D1F781508823A9F73A
:1031200008959093C5008093C40088E18093C10006
:103130008EE08093C200519A50980895982F809104
:10314000C00085FFFCCF9093C60080E090E008951A
:103150008091C00087FFFCCF8091C60008958091C8
:10316000C00080780895AC0120E007C08091C000C5
:1031700085FFFCCF3093C6002F5FFA01E20FF11DEF
:103180003491332399F7662371F08091C00085FF55
:10319000FCCF8AE08093C6008091C00085FFFCCF01
:1031A0008DE08093C6000895FC0107C08091C000A7
:1031B00085FFFCCF31969093C60090819923B1F79B
:1031C0000895282F982F92959F709A3030F480910F
:1031D000C00085FFFCCF905D05C08091C00085FFD9
:1031E000FCCF995A9093C600822F90E08F70907018
:1031F0000A973CF48091C00085FFFCCF2F70205DC2
:1032000006C08091C00085FFFCCF2F70295A209303
:10321000C60008951F93182F892F0E94E118812F4F
:103220000E94E1181F910895EF92FF920F931F9350
:103230007B018C01C801AA27BB270E940A19C7017C
:103240000E940A191F910F91FF90EF9008950F931C
:103250001F93CF93DF938C01E0E1F7E240E0C0E001
:10326000D0E0C801BF010E94A21E262F662329F4C8
:10327000442319F4E130F10549F48091C00085FF41
:10328000FCCF205D2093C600205341E0CF016AE0CF
:1032900070E00E94A21E2196C530D10571F0822FE8
:1032A00090E09C012E9FC0012F9F900D3E9F900D9E
:1032B0001124081B190BFB01D4CFDF91CF911F9173
:1032C0000F9108954F925F926F927F928F929F928B
:1032D000AF92BF92CF92DF92EF92FF920F931F9324
:1032E000CF93DF934B015C01E12C9AECF92E9AE924
:1032F000092F9BE3192F4424C0E0D0E0C501B4019D
:10330000A80197010E94C91ED22E222341F4442015
:1033100031F481E0E816F1040105110561F48091B2
:10332000C00085FFFCCF80E3D80ED092C60080EDB0
:10333000D80E44244394C801B7012AE030E040E0AD
:1033400050E00E94C91EC22E732E642E552E219667
:10335000CA30D105A9F06D2D70E080E090E0A801A1
:1033600097010E946A1E861A970AA80AB90A2C2D8C
:10337000372D462D552DC901DA017C018D01BECFB7
:10338000DF91CF911F910F91FF90EF90DF90CF9041
:10339000BF90AF909F908F907F906F905F904F9075
:1033A0000895EF92FF920F931F937B01882341F4BE
:1033B000BA0180E090E02FEB32E040E050E009C03D
:1033C000813011F5BA0180E090E020E137E240E081
:1033D00050E00E946A1E00E010E0A80197010E94E0
:1033E000C91ECA01B901A80197010E94C91EC901DD
:1033F000DA018F3F9105A105B10539F030F08FEF6B
:1034000090E0A0E0B0E001C0842F1F910F91FF90E9
:10341000EF9008952F923F924F925F926F927F921A
:103420008F929F92AF92BF92CF92DF92EF92FF92D4
:103430000F931F93CF93DF93EC01288039804A804C
:103440005B806C807D808E809F80AA24BB24650178
:10345000F501E370F070EE0FFF1FEE0FFF1FE9594B
:10346000FE4FE080F18002811381EA0CFB1C0C1DF1
:103470001D1DD401C30175E0B695A7959795879555
:103480007A95D1F7A401930164E0220F331F441F02
:10349000551F6A95D1F782279327A427B527860D54
:1034A000971DA81DB91DE826F9260A271B272E0CF3
:1034B0003F1C401E511E89EB99E7A7E3BEE9A80E09
:1034C000B91ECA1EDB1EA2019101F5E05695479573
:1034D00037952795FA95D1F7D201C101E4E0880F1D
:1034E000991FAA1FBB1FEA95D1F7282739274A271A
:1034F0005B27220D331D441D551DD601C5017BE000
:10350000B695A795979587957A95D1F78370907022
:10351000880F991F880F991F89599E4FFC01808140
:103520009181A281B3818A0D9B1DAC1DBD1D2827F1
:1035300039274A275B27620E731E841E951EF0E210
:10354000AF16F7E3BF06FFEECF06F6ECDF0609F095
:103550007FCF288239824A825B826C827D828E8212
:103560009F82DF91CF911F910F91FF90EF90DF909D
:10357000CF90BF90AF909F908F907F906F905F9013
:103580004F903F902F9008955F926F927F928F920D
:103590009F92AF92BF92CF92DF92EF92FF920F93E2
:1035A0001F93CF93DF93982E362F842E622E502EAA
:1035B0007E2CE41620F0E41691F4281780F4862D72
:1035C000652D472D292D032FE82C0E94C41A222790
:1035D0003327A901261B370B480B590BDEC0961465
:1035E00069F4871409F051C0852D90E0831B91097F
:1035F0009C01442737FD4095542FCFC0871409F014
:1036000044C0C92DD0E0FE01E65AFE4F808190E013
:10361000831B91097C010027F7FC0095102F82E0A5
:10362000981641F4882D90E00E94F303E80EF11CF7
:10363000011D111D8BE5A82E81E0B82EAC0EBD1E1C
:10364000CC24DD24C92DD0E02196772417C0F501C4
:103650008081E80EF11C011D111D2230310541F45D
:10366000882D90E00E94F303E80EF11C011D111D4E
:103670000894C11CD11C0894A11CB11C9E012C0DE6
:103680003D1D261537051CF382C0C92DD0E0FE0173
:10369000E65AFE4F808190E0831B91097C01002750
:1036A000F7FC0095102FF2E09F1641F4882D90E072
:1036B0000E94F303E80EF11C011D111DBBE5AB2EAA
:1036C000B1E0BB2EAC0EBD1ECC24DD24C92DD0E054
:1036D000219617C0F5018081E80EF11C011D111D16
:1036E0002230310541F4882D90E00E94F303E80E6A
:1036F000F11C011D111D0894C11CD11C0894A11CB2
:10370000B11C9E012C0D3D1D2D3031051CF3882D63
:1037100090E06C010894C11CD11CC0E0D0E04C01C9
:10372000A72CBB2411C0C6010E94F30390E083596B
:103730009E4FAA2797FDA095BA2FE80EF91E0A1FE3
:103740001B1F0894C11CD11C2196CE01880D991D08
:103750008A159B0544F3C1E0D0E0C62CDD2414C0DB
:10376000FE01E65AFE4F8081E80EF11C011D111D7D
:10377000C230D10541F4872D90E00E94F303E80E9A
:10378000F11C011D111D2196CC15DD054CF3A8017E
:103790009701250D311D411D511DB901CA01DF9150
:1037A000CF911F910F91FF90EF90DF90CF90BF903E
:1037B000AF909F908F907F906F905F9008958F92C1
:1037C000AF92BF92CF92DF92EF92FF920F931F932F
:1037D000DF93CF93CDB7DEB728970FB6F894DEBF4F
:1037E0000FBECDBFE82FF42F722FBC2C8A2D815035
:1037F000823008F040C030E040E050E03961802F76
:1038000090E0A0E0B0E0B82FAA2799278827282BBE
:10381000392B4A2B5B2B8E2D90E0A0E0B0E0DC0131
:1038200099278827282B392B4A2B5B2B29833A830E
:103830004B835C832F8930E040E050E0542F432FCE
:10384000322F2227888D90E0A0E0B0E0282B392B82
:103850004A2B5B2B426B898D90E0A0E0B0E0B82F43
:10386000AA2799278827282B392B4A2B5B2B2D83B6
:103870003E834F8358878E2F4F2F272F0E94C41AC5
:103880002AE030E040E050E00E946A1E7B018C019B
:1038900025E43EE040E050E00E94C91E6901BB20E3
:1038A00029F026E33BE644E050E004C02AE83CE18E
:1038B00044E050E0BA01A9014E195F09600B710B99
:1038C000882D90E08E3291051CF08DE290E005C0CD
:1038D0008831910514F488E190E08C010851104082
:1038E00083E0A81609F0A5C0BB2009F04BC0475ED5
:1038F0005F40624070409E89913051F5ADE4B5E083
:1039000020E030E0FD0185919491C816D906D0F4ED
:10391000F901EE0FFF1FEE0FFF1FE15BFA4F25913C
:103920003491C901E3E0880F991FEA95E1F7220F6E
:10393000331F820F931FA0E0B0E0481B590B6A0BA6
:103940007B0B06C02F5F3F4F149623303105D1F615
:10395000E6E8F4E0849190E0C816D9061CF480E013
:1039600090E009C07796849190E0C816D9060CF0D3
:103970008CC187E190E0080F191F09571B4FF80110
:1039800084913FC0445B5A4362407040A9E5B5E072
:1039900020E030E0FD0185919491C816D906D0F45D
:1039A000F901EE0FFF1FEE0FFF1FE55AFA4F2591A9
:1039B0003491C901E3E0880F991FEA95E1F7220FDE
:1039C000331F820F931FA0E0B0E0481B590B6A0B16
:1039D0007B0B06C02F5F3F4F149623303105D1F685
:1039E00020E030E0F901EC54FB4FE4918E2F90E0A1
:1039F000C816D906C4F4020F131F0B541B4FF8014D
:103A0000849190E025E43EE0DC01A29FC001A39FE9
:103A1000900DB29F900D1124A0E0B0E0481B590B0F
:103A20006A0B7B0B32C1295E3F4F25343105D1F63D
:103A30002CC1BB2009F045C0BE89B13051F5A9EFBA
:103A4000B4E020E030E0FD0185919491C816D906DC
:103A5000D0F4F901EE0FFF1FEE0FFF1FE550FB4FF3
:103A600025913491C901E3E0880F991FEA95E1F7A8
:103A7000220F331F820F931FA0E0B0E0481B590BA9
:103A80006A0B7B0B06C02F5F3F4F14962B3031051E
:103A9000D1F620E030E0F901E55AFC4FE4918E2F99
:103AA00090E0C816D9063CF4020F131F045A1C4FAD
:103AB000F801849144C0295E3F4F2A38310559F7F7
:103AC00055C0BE89B13051F5A5E2B5E020E030E047
:103AD000FD0185919491C816D906D0F4F901EE0F35
:103AE000FF1FEE0FFF1FE95DFA4F25913491C901C9
:103AF000F3E0880F991FFA95E1F7220F331F820F29
:103B0000931FA0E0B0E0481B590B6A0B7B0B06C06B
:103B10002F5F3F4F14962A303105D1F620E030E078
:103B2000F901EB51FC4FE4918E2F90E0C816D906B5
:103B3000C4F4020F131F0A511C4FF801849190E046
:103B400025E43EE0DC01A29FC001A39F900DB29F3F
:103B5000900D1124A0E0B0E0481B590B6A0B7B0BC1
:103B600005C0295E3F4F213A3105D1F6B2E0AB16D0
:103B700009F042C02DEAE22E2EE8F22E012D112D81
:103B8000E40EF51E061F171F89819A81AB81BC8147
:103B90008E259F25A027B12789839A83AB83BC8379
:103BA000CE0101960E940A1A69817A818B819C81DB
:103BB0007F778070907028EE33E040E050E00E9404
:103BC0006A1E2FEF3FE740E050E00E94C91ECA0185
:103BD000B90126E036ED40E050E00E946A1E28EE72
:103BE00033E040E050E00E94C91EBA01A9014E0D29
:103BF0005F1D601F711F49C0E1E0AE1609F045C0AE
:103C00009CEFE92E99E2F92E9FEF092F9FEF192FD4
:103C1000E40EF51E061F171F8D819E81AF81B885AA
:103C20008E259F25A027B1278D839E83AF83B887DC
:103C3000CE0101960E940A1A6D817E818F8198853E
:103C40007F778070907028EE33E040E050E00E9473
:103C50006A1E2FEF3FE740E050E00E94C91ECA01F4
:103C6000B90122EB3EE840E050E00E946A1E28EED7
:103C700033E040E050E00E94C91ED801C701821B1A
:103C8000930BA40BB50BAC01BD0177FF05C020E081
:103C900030E040E050E00AC0CB01BA0120E930E05A
:103CA00040E050E00E946A1E9B01AC01B901CA01CC
:103CB00028960FB6F894DEBF0FBECDBFCF91DF912F
:103CC0001F910F91FF90EF90DF90CF90BF90AF903A
:103CD0008F900895629FD001739FF001829FE00D45
:103CE000F11D649FE00DF11D929FF00D839FF00D7B
:103CF000749FF00D659FF00D9927729FB00DE11D27
:103D0000F91F639FB00DE11DF91FBD01CF01112403
:103D10000895991B79E004C0991F961708F0961B27
:103D2000881F7A95C9F78095089587FB082E062687
:103D300087FD819567FD6195ECDF0EF4919507FC99
:103D400081950895AA1BBB1B51E107C0AA1FBB1F89
:103D5000A617B70710F0A61BB70B881F991F5A9517
:103D6000A9F780959095BC01CD01089597FB092E88
:103D700007260AD077FD04D0E5DF06D000201AF42C
:103D8000709561957F4F0895F6F7909581959F4FB7
:103D90000895A1E21A2EAA1BBB1BFD010DC0AA1F8C
:103DA000BB1FEE1FFF1FA217B307E407F50720F0A4
:103DB000A21BB30BE40BF50B661F771F881F991F1F
:103DC0001A9469F760957095809590959B01AC0168
:103DD000BD01CF01089597FB092E05260ED057FD92
:103DE00004D0D7DF0AD0001C38F4509540953095A8
:103DF00021953F4F4F4F5F4F0895F6F7909580956F
:103E0000709561957F4F8F4F9F4F0895FC01819171
:103E1000861721F08823D9F7992708953197CF0184
:103E20000895FB01DC018D91019080190110D9F3F7
:103E3000990B0895FB01DC010D900020E9F7119723
:103E40004150504028F0019000200D92C9F708958C
:103E50001C920895F999FECF92BD81BDF89A9927D9
:103E600080B50895262FF999FECF1FBA92BD81BD66
:103E700020BD0FB6F894FA9AF99A0FBE01960895EC
:043E8000F894FFCFE4
:103E8400244750524D43000A0D000A0D48656C6CDE
:103E94006F20576F726C64210A0D000A0D4275661B
:103EA4006665722073697A652069733A0900FA3E7F
:103EB4001A7ADE8EF62E6078AE1CAA2A3ACEF30A5F
:103EC400B61E3838B86E76DAFC60DAF266B6BEE052
:103ED400FEE6F8484E393F525823261F1C1F1E1F6A
:103EE4001E1F1F1E1F1E1FC46C28A8CA916B709E24
:083EF400639393D9E791FE00EE
:00000001FF
