:100000000C94BA010C940A150C94D7010C946C0A48
:100010000C94D7010C94C50A0C94D7010C94D70109
:100020000C94D7010C948B100C94D7010C94D7012D
:100030000C94D7010C94D7010C94D7010C94D701E0
:100040000C948D080C94D7010C94D7010C94D70113
:100050000C94D7010C94D7010C94D7010C94201068
:100060000C94D7010C94D701FA3E1A7ADE8EF62E44
:100070006078AE1CAA2A3ACEF30AB61E3838B86E9B
:1000800076DA6800FC60DAF266B6BEE0FEE684006E
:1000900003070809060A050C0490000B10120F0D47
:1000A0000E11139B00616C61726D206F66660053C8
:1000B000657420646179005365742064617900641B
:1000C0006F6E6500616C61726D20696E69740063AA
:1000D0006C6F636B20696E697400737065616B652A
:1000E0007220696E697400626F6F737420696E6943
:1000F000740076666420696E6974007475726E6946
:100100006E67206F6E20616C61726D73770074751D
:10011000726E696E67206F6E20627574746F6E7395
:1001200000636C6F636B20696E69740021007761F6
:100130006B6574696D650057414B45524553455495
:10014000007A00616C61726D206F6E210062320076
:10015000623300623100736E6F6F7A6500140000C5
:10016000000000000000000000000000000000008F
:10017000000000002800000000010101010202024D
:10018000030303040404050506060832000000000A
:100190000001010101020202020303040404050537
:1001A00005073C00000000000001010101020202FD
:1001B00003030304040405050646000000000101D2
:1001C000010101020202020303030404040400000B
:1001D00050000000000000000000000000000000CF
:1001E00000000000000005140000000000000000F6
:1001F00000000000000000000000000000001E00E1
:1002000000000101010102020303030404050506C5
:10021000060707080D280000000101010102020283
:1002200003030304040505060606070B320000005D
:100230000000010101020202030303040404050596
:1002400006060A3C00000000000000010101010256
:100250000202030303040404050746000000000033
:100260000000000101010102020202020303030374
:100270000550000000000000000000000000010127
:100280000101010101010202140000000000000050
:100290000000000000000000000000000000002836
:1002A0000000000000000000010101010101020244
:1002B000020202030304140000000000000000001A
:1002C000000000000000000000000000001E000010
:1002D000000000000001010101010202020203030B
:1002E00003030406280000000000000001010101D2
:1002F0000101020202020303030305190000001EAC
:1003000000B30A23008F0A2800FD092D00D8093206
:10031000006A093700D9083C00FE074100FE064686
:100320000047065000B504190000001E003F092DCB
:10033000001B093200F6083700D1083C0090084144
:1003400000F606460022074B0065055000480419D8
:100350000000001E00FE042800DA04190000001E40
:1003600000900528006C051F1C1F1E1F1E1F1F1E4E
:100370001F1E1F0011241FBECFEFD4E0DEBFCDBF74
:1003800012E0A0E0B1E0E4E9F8E302C005900D92CC
:10039000AE38B107D9F712E0AEE8B2E001C01D9265
:1003A000A03CB107E1F70E94FA150C94481C0C948C
:1003B00000009C01789410929D0210929C02809102
:1003C0009C0290919D0282179307C8F30895A89507
:1003D0000895EF92FF920F931F93CF93DF937B01CA
:1003E0008C012AE030E040E050E00E94DA1BC4E8D3
:1003F000D0E0FE01E60FF71FE491E093B802C801D8
:10040000B7012AE030E040E050E00E94DA1B122FF2
:10041000032FF42EE52E622F732F842F952F2AE0C1
:1004200030E040E050E00E94DA1BFE01E60FF71FCB
:10043000E491E093B702612F702F8F2D9E2D2AE05B
:1004400030E040E050E00E94DA1B122F032FF42E20
:10045000E52E622F732F842F952F2AE030E040E0A5
:1004600050E00E94DA1BFE01E60FF71FE491E093D3
:10047000B602612F702F8F2D9E2D2AE030E040E0D4
:1004800050E00E94DA1B122F032FF42EE52E622F6C
:10049000732F842F952F2AE030E040E050E00E9437
:1004A000DA1BFE01E60FF71FE491E093B502612F1E
:1004B000702F8F2D9E2D2AE030E040E050E00E940A
:1004C000DA1B122F032FF42EE52E622F732F842FA9
:1004D000952F2AE030E040E050E00E94DA1BFE0158
:1004E000E60FF71FE491E093B402612F702F8F2D78
:1004F0009E2D2AE030E040E050E00E94DA1B122FEF
:10050000032FF42EE52E622F732F842F952F2AE0D0
:1005100030E040E050E00E94DA1BFE01E60FF71FDA
:10052000E491E093B302612F702F8F2D9E2D2AE06E
:1005300030E040E050E00E94DA1B122F032FF42E2F
:10054000E52E622F732F842F952F2AE030E040E0B4
:1005500050E00E94DA1BFE01E60FF71FE491E093E2
:10056000B202612F702F8F2D9E2D2AE030E040E0E7
:1005700050E00E94DA1BCA01B9012AE030E040E0F5
:1005800050E00E94DA1BC60FD71FFE0184918093B2
:10059000B102DF91CF911F910F91FF90EF900895DD
:1005A00081E0809392025B9A8CB58F7B8CBD85B184
:1005B000877D85B95E9815BC1092AE0210926800D6
:1005C00085B1897F85B98BB18F7C8BB928988AB129
:1005D0008F7C8AB920985A985298E1E6F0E090E82A
:1005E000908388E08083449A83B7876083BF88952F
:1005F00090831082449808958EE284B988E48AB981
:1006000089E187B984E38BB991E095B985E080935E
:10061000680090936B0080E380936D000895FC0167
:1006200083709070892B39F4CF0164E670E00E94EA
:10063000B31B892B49F420E030E0CF0160E971E081
:100640000E94B31B892B11F421E030E0822F089522
:100650001092800010928100299A2A987894109222
:100660009D0210929C0280919C0290919D020A979B
:10067000D0F32A9A2998789410929D0210929C02A5
:1006800080919C0290919D020A97D0F385B1897F59
:1006900085B982EB8093800088E180938100089582
:1006A0001F93162F9C0140E050E060E472E48FE05D
:1006B00090E00E94FC1B309387002093860080917D
:1006C0008600909187009695879590938B008093F4
:1006D0008A0080918A0090918B009093890080938A
:1006E000880028EC30E01CC08091810082608093FB
:1006F000810080ED97E0F9013197F1F70197D9F783
:10070000809181008D7F8093810085B1897F85B93B
:1007100080ED97E0F9013197F1F70197D9F7115082
:10072000112311F785B1897F85B91F9108958B3504
:1007300090F58E3110F08E3111F48EE12DC084329F
:1007400010F483E229C0893210F488E225C08E3289
:1007500010F48DE221C0833310F482E31DC088338E
:1007600010F487E319C08D3310F48CE315C0823484
:1007700010F481E411C0873410F486E40DC08C3489
:1007800010F48BE409C0813510F480E505C086358E
:1007900010F485E501C08AE587BD83E084BD81E072
:1007A00085BD84B5806884BD80916E008160809332
:1007B0006E00789408951F93182F262F842F6AE0D7
:1007C0000E94A71BE92FF0E0EC57FF4FE491E09364
:1007D000B802842F0E94A71BE82FF0E0EC57FF4FD0
:1007E000E491E093B7021092B602822F0E94A71BF9
:1007F000E92FF0E0EC57FF4FE491E093B502822F30
:100800000E94A71BE82FF0E0EC57FF4FE491E09324
:10081000B4021092B30280919002882361F5812F77
:1008200090E00B966CE070E00E94C71B9C012F5F6C
:100830003F4FC9016AE070E00E94C71BFC01EC5702
:10084000FF4FE491E093B202C9016AE070E00E94B8
:10085000C71BFB01EC57FF4FE491E093B1021C3042
:1008600020F08091B002816003C08091B0028E7F41
:100870008093B0021AC0812F68E10E94A71B292F24
:10088000892F6AE00E94A71BE92FF0E0EC57FF4F89
:10089000E491E093B202822F0E94A71BE82FF0E0C0
:1008A000EC57FF4FE491E093B1021F910895EF924E
:1008B000FF920F931F93582FA62F809191028C3097
:1008C00009F055C08091BD02843009F450C0E09019
:1008D000A202F090A3020091A4021091A5028091BF
:1008E000AB02581740F08091AB028517C1F480919C
:1008F000B9026817A0F48091AB024091B90290E070
:1009000024EC3FEFBC01629FC001639F900D729F7A
:10091000900D1124841B910980569A4F11C080912B
:10092000AB024091B90290E024EC3FEFBC01629F22
:10093000C001639F900D729F900D1124841B91093B
:100940002CE3529F90011124820F931F8A0F911D57
:10095000AA2797FDA095BA2FA8019701281B390B4C
:100960004A0B5B0BCA01B9010E94E9017DC01092DC
:10097000B8021092B7021092B6028A2F6AE00E9463
:10098000A71BE92FF0E0EC57FF4FE491E093B5028D
:100990008A2F0E94A71BE82FF0E0EC57FF4FE4914D
:1009A000E093B4021092B30280919002882309F080
:1009B0003BC05C3058F08091B00281608093B002FF
:1009C000E7E7F0E0E491E093B7020AC0E8E6F0E080
:1009D000E491E093B7028091B0028E7F8093B002E1
:1009E000E4E7F0E0E491E093B802852F90E00B9605
:1009F0006CE070E00E94C71B9C012F5F3F4FC90154
:100A00006AE070E00E94C71BFC01EC57FF4FE491C5
:100A1000E093B202C9016AE070E00E94C71BFB01CB
:100A2000EC57FF4FE4911EC0852F90E0479668E198
:100A300070E00E94C71B9C012F5F3F4FC9016AE015
:100A400070E00E94C71BFC01EC57FF4FE491E0935C
:100A5000B202C9016AE070E00E94C71BFB01EC57BB
:100A6000FF4FE491E093B1021F910F91FF90EF903F
:100A70000895CF93DF931092B002EC01A1EBB2E0A6
:100A8000E881EE23D1F08E2F81568A3128F4F0E0F0
:100A9000E95FFF4FE49108C08E2F80538A3030F415
:100AA000F0E0EC5AFF4FE491EC9301C01C922196C8
:100AB000119682E0A93BB80719F7DF91CF9108950D
:100AC000CF93DF93882309F07AC01092B00282E0BE
:100AD0008093B3028093B60280919002882361F5DF
:100AE0008091BE026AE00E94A71BE82FF0E0EC575D
:100AF000FF4FE491E093B1028091BE020E94A71BD8
:100B0000E92FF0E0EC57FF4FE491E093B2028091BF
:100B1000AF020E94A71BE82FF0E0EC57FF4FE491D3
:100B2000E093B4028091AF020E94A71BE92FF0E08E
:100B3000EC57FF4FE4912BC08091AF026AE00E9416
:100B4000A71BE82FF0E0EC57FF4FE491E093B102D0
:100B50008091AF020E94A71BE92FF0E0EC57FF4FF6
:100B6000E491E093B2028091BE020E94A71BE82F9D
:100B7000F0E0EC57FF4FE491E093B4028091BE02A5
:100B80000E94A71BE92FF0E0EC57FF4FE491E093A0
:100B9000B5028091AC026AE00E94A71BE82FF0E04A
:100BA000EC57FF4FE491E093B7028091AC020E94B2
:100BB000A71BE92FF0E0EC57FF4FE49186C182308C
:100BC00009F0A0C01092B00280919002882361F5D4
:100BD0008091BE026AE00E94A71BE82FF0E0EC576C
:100BE000FF4FE491E093B1028091BE020E94A71BE7
:100BF000E92FF0E0EC57FF4FE491E093B2028091CF
:100C0000AF020E94A71BE82FF0E0EC57FF4FE491E2
:100C1000E093B3028091AF020E94A71BE92FF0E09E
:100C2000EC57FF4FE4912BC08091AF026AE00E9425
:100C3000A71BE82FF0E0EC57FF4FE491E093B102DF
:100C40008091AF020E94A71BE92FF0E0EC57FF4F05
:100C5000E491E093B2028091BE020E94A71BE82FAC
:100C6000F0E0EC57FF4FE491E093B3028091BE02B5
:100C70000E94A71BE92FF0E0EC57FF4FE491E093AF
:100C8000B4028091AC0264E60E94A71B90E04396F8
:100C90006AE070E00E94C71BFB01EC57FF4FE49134
:100CA000E093B5028091AC0264E60E94A71B90E03D
:100CB00043966AE070E00E94C71BFC01EC57FF4FAF
:100CC000E491E093B6028091AC0264E60E94A71B17
:100CD000892F6AE00E94A71BE82FF0E0EC57FF4F36
:100CE000E491E093B7028091AC0264E60E94A71BF6
:100CF000892F6AE00E94A71BE92FF0E0EC57FF4F15
:100D0000E491E3C0813009F0E2C08091BE02C82FB7
:100D1000D0E08091AC02E82FF0E0E053F84F8091F2
:100D2000BE02833010F42C9631972091AF021092BE
:100D3000B7021092B80230E02F5F3F4F2E0F3F1FD7
:100D4000CE01880F991F280F391FCF0196958795DF
:100D500096958795280F391FCF0160E971E00E94B1
:100D6000B31B260F371FCF0164E670E00E94B31B50
:100D7000261B370BAE014F5F5F4FCA01880F991FCB
:100D8000840F951F880F991F6AE070E00E94B31BC3
:100D9000C901860F971F67E070E00E94B31B833084
:100DA000B9F0843028F4813069F0823070F407C0E3
:100DB0008530A1F0853078F08630B9F412C080E03B
:100DC00091E011C087E091E00EC08EE091E00BC091
:100DD00086E191E008C08FE191E005C088E291E0F2
:100DE00002C08FE291E00E943905789410929D0232
:100DF00010929C0280919C0290919D02885E93408B
:100E0000C8F31092B4021092B5021092B60280910B
:100E1000BE02863079F1873070F4833011F184306E
:100E200028F48130C1F08230D9F518C08430E1F067
:100E30008530B1F51CC0893031F18A3028F4873013
:100E4000E1F0883069F51CC08B3019F18B30F0F07F
:100E50008C3031F521C088E391E020C08CE391E033
:100E60001DC080E491E01AC086E491E017C08CE4D4
:100E700091E014C080E591E011C085E591E00EC0DD
:100E80008AE591E00BC080E691E008C085E691E03C
:100E900005C08BE691E002C081E791E00E94390530
:100EA0008091AF026AE00E94A71BE82FF0E0EC57A8
:100EB000FF4FE491E093B7028091AF020E94A71B1D
:100EC000E92FF0E0EC57FF4FE491E093B802DF9197
:100ED000CF910895CF93DF93EB011092B002882356
:100EE00009F03BC087E791E00E943905CE0168E731
:100EF00070E00E94B31BFB01EC57FF4FE491E093BD
:100F0000B102CE016CE070E00E94B31BCB016AE03D
:100F100070E00E94B31BFC01EC57FF4FE491E0939B
:100F2000B202CE016CE070E00E94B31B9C016AE04B
:100F300070E00E94B31BFB01EC57FF4FE491E0937C
:100F4000B702C9016AE070E00E94B31BFC01EC57D4
:100F5000FF4FE491E093B80229C080E891E00E943D
:100F60003905CE0164E670E00E94B31BFB01EC572B
:100F7000FF4FE491E093B102CE0164E670E00E947D
:100F8000B31B6AE070E00E94B31BFB01EC57FF4FFC
:100F9000E491E093B202CE016AE070E00E94B31BDC
:100FA000FC01EC57FF4FE491E093B302DF91CF9146
:100FB0000895CF93DF93EB011092B002882319F4C8
:100FC00089E891E007C0813019F482E991E002C01C
:100FD0008BE991E00E943905CE0164E670E00E9441
:100FE000B31BFB01EC57FF4FE491E093B102CE013C
:100FF00064E670E00E94B31B6AE070E00E94B31BDD
:10100000FB01EC57FF4FE491E093B202CE016AE09E
:1010100070E00E94B31BFC01EC57FF4FE491E0939A
:10102000B302DF91CF91089581E58CBD08959B01B6
:10103000AC01F894CA01AA27BB278EBD0DB407FEE8
:10104000FDCFBB27A52F942F832F8EBD0DB407FE98
:10105000FDCF2EBD0DB407FEFDCF409A4098789489
:101060000895AF92BF92CF92DF92EF92FF920F93CB
:101070001F93E82FF0E0E057FF4FE49181E090E00C
:1010800002C0880F991FEA95E2F77C010027F7FC60
:101090000095102F2091A7023091A8024091A9023B
:1010A0005091AA02A0E0B0E070E091E0A92EB12C2E
:1010B000C12CD12CCB010A2E02C0959587950A949C
:1010C000E2F780FF11C0FD01E556FF4FE491A60154
:1010D000950104C0220F331F441F551FEA95D2F714
:1010E000E22AF32A042B152B1196A830B10511F72B
:1010F0002093A7023093A8024093A9025093AA021A
:10110000C801B7010E9417081F910F91FF90EF903F
:10111000DF90CF90BF90AF9008951F920F920FB6BF
:101120000F9211242F933F934F935F936F937F936D
:101130008F939F93AF93BF93EF93FF937894A8956A
:1011400080919602909197020196909397028093D6
:101150009602819708F46CC0109297021092960242
:1011600080919C0290919D02019690939D028093A4
:101170009C0280919502893010F010929502809126
:101180009502E82FF0E0E055FD4F60810E943108A4
:10119000809195028F5F809395028091BC02882395
:1011A00009F446C080919A0290919B02892B09F024
:1011B0003FC0809198029091990201969093990274
:1011C000809398028536910598F1109299021092B9
:1011D00098028AEF90E09093870080938600809138
:1011E0008600909187009695879590938B008093C9
:1011F0008A0080918A0090918B009093890080935F
:1012000088008091BC02807F49F08091BC028F7081
:101210008093BC02809181008D7F08C08091BC02C8
:10122000806F8093BC0280918100826080938100F6
:10123000FF91EF91BF91AF919F918F917F916F91AE
:101240005F914F913F912F910F900FBE0F901F9084
:1012500018958EBD0DB407FEFDCF08958AE090E08D
:101260000E94171C8093AE0285B1866085B982E327
:10127000809380008091AE02882329F080918000C5
:1012800080688093800088E1809381008AEF90E0FD
:1012900090938700809386008091860090918700CC
:1012A0009695879590938900809388008091880017
:1012B0009091890090938B0080938A00089584E038
:1012C00090E00E94171C68E10E94A71B9093AB025C
:1012D00085E090E00E94171C6CE30E94A71B90938E
:1012E000B90286E090E00E94171C6CE30E94A71BE5
:1012F0009093BF0288E090E00E94171C6CE30E946C
:10130000A71B9093AD0287E090E00E94171C68E154
:101310000E94A71B9093BB0281E090E00E94171CE3
:1013200064E60E94A71B9093AC0282E090E00E94CA
:10133000171C6DE00E94A71B9093BE0283E090E013
:101340000E94171C8F718093AF0291E090939402DA
:10135000E6EBF0E080818062808385E08093B100DD
:1013600090937000789408954A9B36C08091BA0299
:10137000882309F04EC081E08093BA0210929B024C
:1013800010929A0284EA91E00E94390589E08093E4
:10139000BD02789410929D0210929C0280919C0252
:1013A00090919D02885E9340C8F38091BB0260914A
:1013B000AD020E945704789410929D0210929C02F4
:1013C00080919C0290919D02885E9340C8F3809129
:1013D00091028093BD0208958091BA028823C9F0DA
:1013E0001092BA0210929B0210929A028091BC0253
:1013F000882379F085EA90E061E00E946E171092F0
:10140000BC02809181008D7F8093810085B18660D0
:1014100085B90895809192028823D1F180E8809364
:101420006100109261008EE291E061E00E946E170F
:101430001092920280E49CE90197F1F700B605FC56
:1014400027C00E94FC0289E090E00E94171C0E94C5
:10145000970381E58CBD5B9843988AE090E00E94F9
:10146000171C8093AE020E942E09A8950E94B40911
:1014700080E793E061E00E94500380EE96E061E037
:101480000E94500380EC9DE061E00E945003A8950B
:10149000089588E592E090939B0280939A0286E5F6
:1014A00091E061E00E946E178DEA91E00E9439059B
:1014B00089E08093BD02789410929D0210929C0264
:1014C00080919C0290919D02885E9340C8F3809128
:1014D00091028093BD0208951F920F920FB60F9252
:1014E00011242F933F934F935F936F937F938F9329
:1014F0009F93AF93BF93EF93FF93109268007894FC
:1015000018992AC080919E0281FD2BC07894109278
:101510009D0210929C0280919C0290919D020A97DC
:10152000D0F318991EC00E9428038091BC02882322
:1015300019F00E94490A15C080919E028260809332
:101540009E0280919F02826080939F028DE491E0D1
:1015500061E00E946E1705C080919E028D7F80938E
:101560009E0285E080936800FF91EF91BF91AF915B
:101570009F918F917F916F915F914F913F912F91AB
:101580000F900FBE0F901F9018951F920F920FB6DD
:101590000F9211242F933F934F935F936F937F93F9
:1015A0008F939F93AF93BF93EF93FF931092680035
:1015B00078944D9927C080919E0280FD28C0789430
:1015C00010929D0210929C0280919C0290919D022B
:1015D0000A97D0F34D9963C00E9428038091BC0202
:1015E0008823C9F580919E02816080939E0280913C
:1015F0009F02816080939F0283E591E061E00E94F9
:101600006E1705C080919E028E7F80939E024C993A
:101610003FC080919E0282FD42C0789410929D024C
:1016200010929C0280919C0290919D020A97D0F3A7
:101630004C9935C082E08093A1021BC04C9B19C01D
:101640000E94280380919E028B7F80939E0280914E
:10165000BC02882319F00E94490A21C080E591E06C
:1016600061E00E946E1780919F02846080939F02C8
:1016700016C08091A102882309F780919E028460A0
:1016800080939E028091A00284608093A00207C094
:101690001092A00280919E028B7F80939E0285E033
:1016A00080936800FF91EF91BF91AF919F918F91CF
:1016B0007F916F915F914F913F912F910F900FBE4E
:1016C0000F901F9018950F931F938AE08093A602A6
:1016D0008BE090E00E94171C8093900210E00AE0DB
:1016E00001C010E080919F02882321F48091A00224
:1016F000882319F00093A60204C08091A6028823D3
:10170000C9F080919F0280FD3AC080919F0281FFC5
:1017100016C010929F02112369F4809190028823D1
:1017200019F486EB91E002C08FEB91E00E9439053D
:1017300011E005C0809191028093BD0220C080918C
:101740009F0282FFCFCF10929F02113051F690E09E
:1017500080919002882309F491E09093900299235C
:1017600019F486EB91E002C08FEB91E00E943905FD
:101770008BE090E0609190020E94251CB3CF1F91F6
:101780000F910895EF92FF920F931F938AE0809339
:10179000A6028AE090E00E94171CF82E00E04AE0C2
:1017A000E42E01C000E080919F02882321F4809103
:1017B000A002882319F0E092A60204C08091A6023C
:1017C000882369F180919F0280FD68C080919F020B
:1017D00081FF2AC010929F02002309F5FF2051F0DB
:1017E00088EC91E00E9439058091B5028160809378
:1017F000B50204C081ED91E00E9439058091B602E6
:1018000081608093B6028091B70281608093B702B5
:101810008091B80281608093B80201E005C0809198
:1018200091028093BD023AC080919F0282FFBBCF9C
:1018300010929F02013009F0B5CF10E0FF2009F4AB
:1018400011E0F12E112351F088EC91E00E9439054E
:101850008091B50281608093B50204C081ED91E072
:101860000E9439058091B60281608093B602809112
:10187000B70281608093B7028091B8028160809343
:10188000B8028AE090E0612F0E94251C0E942E0978
:1018900080EA9FE061E00E94500385CF1F910F9185
:1018A000FF90EF9008953F924F925F926F927F92D8
:1018B0008F929F92AF92BF92CF92DF92EF92FF9260
:1018C0000F931F938AE08093A60289E090E00E9424
:1018D000171C182F20E06AE0362E0EE15AE5552E2F
:1018E00045E5442E30E5732E9BE4692E86E4882E70
:1018F000B1E4AB2EACE39A2EF7E3BF2EE2E3DE2E8B
:101900007DE2C72E68E2F62E53E2E52E01C020E00C
:1019100080919F02882321F48091A002882319F0EE
:101920003092A60204C08091A602882349F18091DA
:101930009F0280FD8BC080919F0281FF2BC010927F
:101940009F022223E9F48AED91E00E943905812F5C
:101950006AE00E94A71BE82FF0E0EC57FF4FE491EC
:10196000E160E093B702812F0E94A71BE92FF0E00E
:10197000EC57FF4FE491E160E093B80221E00AC028
:10198000809191028093BD0289E090E0612F0E94D6
:10199000251C5CC080919F0282FD04C08091A00242
:1019A00082FFB6CF10929F02213009F0B0CF1B5FAB
:1019B0001C3508F01EE1812F6AE00E94A71BE82F6A
:1019C000F0E0EC57FF4FE491E160E093B702812F24
:1019D0000E94A71BE92FF0E0EC57FF4FE491E16074
:1019E000E093B8021F3180F1143210F4E7BC90CFBD
:1019F000193210F4F7BC8CCF1E3210F4C7BC88CF5C
:101A0000133310F4D7BC84CF183310F4B7BC80CF95
:101A10001D3310F497BC7CCF123410F4A7BC78CFE0
:101A2000173410F487BC74CF1C3410F467BC70CF2B
:101A3000113510F477BC6CCF163510F447BC68CF65
:101A40001B3511F057BC64CF07BD62CF1F910F91BA
:101A5000FF90EF90DF90CF90BF90AF909F908F90CE
:101A60007F906F905F904F903F900895FF920F93FB
:101A70001F938AE08093A60210E00AE0FF24F3940B
:101A800080919F02882321F48091A002882319F07D
:101A90000093A60205C08091A602882309F472C0B3
:101AA00080919F0280FD0AC180919F0281FF6FC0DB
:101AB00010929F021123D1F480919002882311F497
:101AC00011E006C087EB90E061E00E946E1712E023
:101AD00080E00E9460058091B10281608093B10234
:101AE0008091B20281608093B20251C0113029F41A
:101AF00080919002882339F020C01230E1F4809167
:101B000090028130A9F480919002882311F011E0B5
:101B100001C012E080E00E9460058091B402816003
:101B20008093B4028091B50281608093B5022FC08A
:101B3000882339F015C0113099F4809190028130DA
:101B400079F480E00E9460058091B7028160809303
:101B5000B7028091B80281608093B80213E017C089
:101B600083E68093BD0280E00E9460057894109225
:101B70009D0210929C0280919C0290919D028C5D2E
:101B80009540C8F3809191028093BD0297C08091E7
:101B90009F0282FD04C08091A00282FF71CF10924B
:101BA0009F02113061F58091BE028F5F8093BE026B
:101BB0008091BE028D3010F01093BE0280E00E9432
:101BC000600580919002882359F48091B102816070
:101BD0008093B1028091B20281608093B2020AC008
:101BE0008091B40281608093B4028091B5028160DB
:101BF0008093B5026091BE0282E090E04DC0123049
:101C000061F58091AF028F5F8093AF028091AF0248
:101C1000803210F0F092AF0280E00E946005809167
:101C20009002813059F48091B10281608093B102B9
:101C30008091B20281608093B2020AC08091B402A6
:101C400081608093B4028091B50281608093B50277
:101C50006091AF0283E090E01FC01330F9F48091EF
:101C6000AC028F5F8093AC028091AC0264E60E946C
:101C7000A71B9093AC0280E00E9460058091B702A0
:101C800081608093B7028091B80281608093B8022E
:101C90006091AC0281E090E00E94251C8091A0023E
:101CA00082FFEECE789410929D0210929C02809159
:101CB0009C0290919D02CC97D0F3E2CE1F910F91A0
:101CC000FF900895DF92EF92FF920F931F93E090A1
:101CD000AB02F090B9020091BF028AE08093A602A5
:101CE00010E07AE0D72E80919F0280FDD9C08091CC
:101CF0009F02882321F48091A002882319F0D092BA
:101D0000A60205C08091A602882309F44BC08091E9
:101D10009F0281FF4CC010929F021123B9F4E09002
:101D2000AB02F090B9020091BF028E2D6F2D402FB3
:101D30000E94DB038091B10281608093B1028091A7
:101D4000B20281608093B20211E031C0113089F497
:101D50008E2D6F2D402F0E94DB038091B402816095
:101D60008093B4028091B50281608093B50212E045
:101D70001EC0123089F48E2D6F2D402F0E94DB0380
:101D80008091B70281608093B7028091B802816030
:101D90008093B80213E00BC0E092AB02F092B9025C
:101DA0000093BF02809191028093BD0279C080911F
:101DB0009F0282FD04C08091A00282FF94CF109206
:101DC0009F021130F9F48E2D90E0019668E170E0E9
:101DD0000E94C71BE82E6F2D402F0E94DB038091CD
:101DE000B10281608093B1028091B20281608093E0
:101DF000B202E092AB026091AB0284E090E00E94FC
:101E0000251C3DC0123001F58F2D90E001966CE34A
:101E100070E00E94C71BF82E8E2D6F2D402F0E9460
:101E2000DB038091B40281608093B4028091B5029B
:101E300081608093B5026091B90285E090E00E94D4
:101E4000251CF092B9021BC01330C9F4802F90E01A
:101E500001966CE370E00E94C71B082F8E2D6F2D3A
:101E6000402F0E94DB038091B70281608093B7020C
:101E70008091B80281608093B8020093BF02809184
:101E8000A00282FF30CF789410929D0210929C02A3
:101E900080919C0290919D028B349105C8F323CFD1
:101EA0001F910F91FF90EF90DF900895EF92FF92B6
:101EB0000F931F931091BB020091AD028AE08093B3
:101EC000A602FF24FAE0EF2E80919F0280FDB3C0AE
:101ED00080919F02882321F48091A002882319F029
:101EE000E092A60219C08091A6028823A9F48091ED
:101EF00091028093BD021093BB020093AD026091EA
:101F0000BB0287E090E00E94251C6091AD0288E052
:101F100090E00E94251C8FC080919F0281FF3EC0EF
:101F200010929F02FF2089F4812F602F0E94570496
:101F30008091B10281608093B1028091B202816090
:101F40008093B202FF24F39429C081E0F81689F44B
:101F5000812F602F0E9457048091B402816080938A
:101F6000B4028091B50281608093B502E2E0FE2E5A
:101F700015C01093BB020093AD026091BB0287E0D5
:101F800090E00E94251C6091AD0288E090E00E94E4
:101F9000251C809191028093BD024DC080919F02CB
:101FA00082FD04C08091A00282FF8ECF10929F021A
:101FB00081E0F816B1F4812F90E0019668E170E0BD
:101FC0000E94C71B182F602F0E9457048091B102F6
:101FD00081608093B1028091B20281608093B202ED
:101FE00019C082E0F816B1F4802F90E001966CE3FE
:101FF00070E00E94C71B082F812F602F0E9457049A
:102000008091B40281608093B4028091B5028160B6
:102010008093B5028091A00282FF56CF78941092EF
:102020009D0210929C0280919C0290919D028B34A3
:102030009105C8F349CF1F910F91FF90EF9008953C
:102040001F920F920FB60F9211242F933F934F932D
:102050005F936F937F938F939F93AF93BF93EF9310
:10206000FF9300B605FE28C080919202882309F0F4
:1020700041C05B9A85B1877D85B95E988CB58F7BB1
:102080008CBD80919402882361F06091B90285E053
:1020900090E00E94251C6091BF0286E090E00E94C3
:1020A000251C81E491E061E00E946E1715BC10923E
:1020B000AE021092680019C0809192028823D1F07C
:1020C00080919402882361F06091B90285E090E0EC
:1020D0000E94251C6091BF0286E090E00E94251CB2
:1020E00087E391E061E00E946E17E0918E02F0912B
:1020F0008F020995FF91EF91BF91AF919F918F91C1
:102100007F916F915F914F913F912F910F900FBEF3
:102110000F901F9018951F920F920FB60F921124D7
:102120002F933F934F935F936F937F938F939F93DF
:10213000AF93BF93EF93FF9380E880936100109279
:1021400061008091BF028F5F8093BF028091BF02C8
:102150008C3330F11092BF028091B9028F5F80936F
:10216000B9028091A2029091A302A091A402B09121
:10217000A5020097A105B10599F08091A202909166
:10218000A302A091A402B091A5020197A109B109EF
:102190008093A2029093A302A093A402B093A502FD
:1021A0008091B9028C3398F01092B9028091AB0201
:1021B0008F5F8093AB026091AB0284E090E00E945D
:1021C000251C6091B90285E090E00E94251C809159
:1021D000AB02883168F01092AB028091AF028F5F42
:1021E0008093AF026091AF0283E090E00E94251CD3
:1021F0008091AF02803268F58091AF028F3181F417
:102200008091BE02843029F18091BE02863009F1AE
:102210008091BE028930E9F08091BE028B30C9F016
:102220008091AF028E3121F48091BE02823089F01C
:102230008091AF028D31D9F48091BE028230B9F421
:102240008091AC0290E08053984F0E940F03882346
:1022500071F481E08093AF028091BE028F5F809322
:10226000BE026091BE0282E090E00E94251C809137
:10227000BE028D3070F08091AC028F5F8093AC0213
:1022800081E08093BE026091AC0281E090E00E9408
:10229000251C80919202882309F0BFC08091BD0265
:1022A000882311F580919302882349F08091BF0221
:1022B00080FF05C081EE91E00E94390508C0809141
:1022C000AB026091B9024091BF020E94DB03809192
:1022D000BA02882321F08091B002826003C080910D
:1022E000B0028D7F8093B0028091BD028C3009F0E6
:1022F0004CC06091A2027091A3028091A4029091BF
:10230000A5020E94E9018091BF026BE370E0681BA7
:1023100071099B01442737FD4095542F25FF05C0C7
:102320008091B30281608093B30224FF05C0809145
:10233000B40281608093B40223FF05C08091B5028E
:1023400081608093B50222FF05C08091B602816052
:102350008093B60221FF05C08091B702816080930F
:10236000B70260FF05C08091B80281608093B80217
:102370008091BA02882321F08091B002826003C06C
:102380008091B0028D7F8093B0028091BA02882341
:10239000E1F09091BB028091AB029817B1F490915B
:1023A000AD028091B902981781F48091BF02882311
:1023B00061F483E491E061E00E946E1781E0809314
:1023C000BC0210929B0210929A028091A60288236E
:1023D00029F08091A60281508093A6028091A102EB
:1023E000882329F08091A10281508093A1028091DD
:1023F0009A0290919B02009781F0019790939B0223
:1024000080939A0280FF04C08091B002826003C072
:102410008091B0028D7F8093B002FF91EF91BF91C8
:10242000AF919F918F917F916F915F914F913F916C
:102430002F910F900FBE0F901F9018955F926F9283
:102440007F928F929F92AF92BF92CF92DF92EF9244
:10245000FF920F931F93CF93DF938AE08093A6029E
:102460009090AF026090BE027090AC0284E190E068
:102470000E94171C582E85E190E00E94171CA82E80
:102480008FE090E00E94171C8093AF028EE090E0F6
:102490000E94171C8093BE0280E190E00E94171CEE
:1024A0008093AC0286E190E00E94171CE82E8BE13D
:1024B00090E00E94171CB82E87E190E00E941F1C3C
:1024C000EC0189E190E00E941F1C6C0100E01AE021
:1024D000F12E8824839480919F02882321F4809197
:1024E000A002882319F0F092A60205C08091A602EE
:1024F000882309F42AC180919F0280FD2AC180911E
:102500009F0281FF3CC110929F020023D1F4809171
:102510009002882311F401E006C08FEA90E061E0A8
:102520000E946E1702E082E00E9460058091B10275
:1025300081608093B1028091B20281608093B20287
:102540001EC1013029F480919002882339F020C007
:102550000230E1F4809190028130A9F480919002E0
:10256000882311F001E001C002E082E00E946005D2
:102570008091B30281608093B3028091B402816044
:102580008093B402FCC0882341F07AC00130F1F49A
:1025900080919002813009F073C082E00E94600552
:1025A0008091B50281608093B5028091B60281600E
:1025B0008093B6028091B70281608093B7028091C8
:1025C000B80281608093B80203E0D9C0033059F4A7
:1025D000552019F08AEE91E002C083EF91E00E944D
:1025E000390504E0CCC00430C1F422E0A21661F049
:1025F00083E0A81661F0E1E0AE1619F08CEF91E0EF
:1026000008C085E092E005C08EE092E002C087E15C
:1026100092E00E94390505E0B2C0053089F4EE2051
:1026200019F480E292E008C0F1E0EF1619F489E2B3
:1026300092E002C082E392E00E94390506E09FC06A
:10264000063031F48E2DBE010E94D90707E097C0F5
:10265000073049F422E0E21641F08E2DB6010E94C7
:102660006A0708E08CC0083059F4BB2031F08BE3D6
:1026700092E00E94390509E082C084E492E0F9CF3B
:1026800083E68093BD020091BE02F090AF021091EC
:10269000AC028E2DB601AE010E94A219882E0F92B7
:1026A0001459972D9053EDB7FEB7B182802F6F2D3F
:1026B000412F262D092DE92EC52C0E94CE197B0114
:1026C0008C010F9082E190E0692D0E94251C81E130
:1026D00090E0662D0E94251C83E190E0672D0E940A
:1026E000251CC801B7012CE330E040E050E00E9417
:1026F000DA1BB901CA012091AB02ECE32E9F9001D5
:102700001124442737FD4095542F621B730B840B13
:10271000950B2091B902621B71098109910960939F
:10272000A2027093A3028093A4029093A5020E9438
:10273000E901789410929D0210929C0280919C0273
:1027400090919D028C5D9540C8F380919102809399
:10275000BD029092AF026092BE027092AC02DF9115
:10276000CF911F910F91FF90EF90DF90CF90BF908E
:10277000AF909F908F907F906F905F900895809121
:102780009F0282FD04C08091A00282FFA4CE10921D
:102790009F02013061F58091BE028F5F8093BE027F
:1027A0008091BE028D3010F00093BE0282E00E9444
:1027B000600580919002882359F48091B102816074
:1027C0008093B1028091B20281608093B2020AC00C
:1027D0008091B30281608093B3028091B4028160E2
:1027E0008093B4026091BE028EE090E001C102309D
:1027F00061F58091AF028F5F8093AF028091AF024D
:10280000803210F08092AF0282E00E9460058091D9
:102810009002813059F48091B10281608093B102BD
:102820008091B20281608093B2020AC08091B302AB
:1028300081608093B3028091B40281608093B4027E
:102840006091AF028FE090E0D3C0033041F58091FA
:10285000AC028F5F8093AC028091AC0264E60E9470
:10286000A71B9093AC0282E00E9460058091B502A4
:1028700081608093B5028091B60281608093B60238
:102880008091B70281608093B7028091B802816025
:102890008093B8026091AC0280E190E0A9C004305E
:1028A00089F410E0552009F411E0512E112319F09C
:1028B0008AEE91E002C083EF91E00E94390584E145
:1028C00090E095C00530E1F4A39423E0A22282E0D9
:1028D000A81659F0A21661F0E1E0AE1619F08CEFDF
:1028E00091E008C085E092E005C08EE092E002C071
:1028F00087E192E00E94390585E190E06A2D78C079
:102900000630C9F4E394F2E0FE1510F4EE2402C0A0
:10291000EE2019F480E292E008C021E0E21619F4FA
:1029200089E292E002C082E392E00E94390586E1EA
:1029300090E06E2D5DC0073009F5EE2041F425963C
:1029400082E0C539D80780F0C3E2D0E00DC0E1E0F5
:10295000EE1641F42396F1E0CD32DF0728F0CFE008
:10296000D0E002C02196D07087E190E0BE010E94C5
:10297000331C8E2DBE010E94D9073CC0083029F5BA
:10298000EE2059F40894C11CD11C29E7C216D104C9
:1029900090F0B4E2CB2ED12C0EC081E0E81659F4B1
:1029A0000894C11CD11CE2E3CE16E1E0DE0618F06B
:1029B000ACE5CA2ED12C89E190E0B6010E94331C0F
:1029C0008E2DB6010E946A0715C0093099F410E0F7
:1029D000BB2009F411E0B12E112319F08BE392E032
:1029E00002C084E492E00E9439058BE190E0612FFF
:1029F0000E94251C8091A00282FF6DCD78941092D8
:102A00009D0210929C0280919C0290919D02CC9715
:102A1000D0F361CD1F920F920FB60F9211242F9316
:102A20003F934F935F936F937F938F939F93AF9356
:102A3000BF93EF93FF9389E60E94591729B17894C9
:102A4000789410929D0210929C0280919C02909129
:102A50009D020A97D0F389B1247030E090E0847031
:102A600090702817390711F40E94B409FF91EF9173
:102A7000BF91AF919F918F917F916F915F914F9196
:102A80003F912F910F900FBE0F901F9018956F924E
:102A90007F928F929F92AF92BF92CF92DF92EF92EE
:102AA000FF920F931F938EE090E00E94171C682EF8
:102AB0008FE090E00E94171C782E80E190E00E9449
:102AC000171CB82E81E190E00E94171C982E82E11D
:102AD00090E00E94171C082F83E190E00E94171CD1
:102AE000D82E84E190E00E94171CC82E85E190E06A
:102AF0000E94171CA82E86E190E00E94171C182F38
:102B000089E190E00E941F1C7C0187E190E00E9417
:102B10001F1CAC01812FB7010E94A219882E8BE1E6
:102B200090E00E94171C0F929CE6B90EE0EDDE0EBD
:102B3000EDB7FEB78183862D672D4B2D292DED2C0A
:102B40000E94CE192CE330E040E050E00E94DA1BF6
:102B500059016A010F9081E190E00E94171CF82E44
:102B600082E190E00E94171C182F83E190E00E9400
:102B7000171C2091BE020091AF029091AC02482F29
:102B8000405390538F2D612FE92E0E94A51820EA03
:102B900035E040E050E00E94881BA61AB70AC80A38
:102BA000D90A8091AB022CE3829FC0011124AA278D
:102BB00097FDA095BA2FA81AB90ACA0ADB0A809114
:102BC000B902A81AB108C108D108A092A202B09215
:102BD000A302C092A402D092A5021F910F91FF9070
:102BE000EF90DF90CF90BF90AF909F908F907F90AD
:102BF0006F9008959F92AF92BF92CF92DF92EF9223
:102C0000FF920F931F9315BC569A5E9884B714BE1B
:102C100090E00E94C51788E10FB6F8948093600099
:102C2000109260000FBE2FE088E190E00FB6F8949C
:102C3000A895809360000FBE20936000A89511E0D6
:102C400010939302109294028AE190E00E944C1734
:102C50008CE291E061E00E946E1788E480BF80ED15
:102C600097E00197F1F700B605FE0BC080B78061D1
:102C700080BF81E291E061E00E946E170E945F09CF
:102C800045C00E94FC025B988EE091E061E00E94EA
:102C90006E178BEF90E061E00E946E171093690051
:102CA0001DBB1092BD0282EF90E061E00E946E17A2
:102CB00081E58CBD87EE90E061E00E946E1789E0AF
:102CC00090E00E94171C0E94970378948BE090E09C
:102CD0000E94171C809390028AED90E061E00E94B0
:102CE0006E170E942E0980EA9FE061E00E94500367
:102CF0008FEC90E061E00E946E170E945F0984EC07
:102D000090E061E00E946E170E94B4098FEB90E0A2
:102D100061E00E946E175CE0952E43E6A42E36E03B
:102D2000B32E24E0C22E98E0D92E87E0E82E0BE0E7
:102D3000F02E05E013E0A89500B605FE03C00E9442
:102D4000D002F9CF80919F0280FF59C010929F025C
:102D50008091BD02853079F1863038F4833011F1ED
:102D60008430A8F4882351F063C08730B1F18730F4
:102D700058F18830D9F18C3009F05AC0C092BD02A8
:102D80008DE492E00E9439050E94560FD4CF109333
:102D9000BD0287E592E00E9439050E94620E109202
:102DA0009302C9CF0093BD0280E692E00E943905EC
:102DB0000E94360DC0CFB092BD0289E692E00E941B
:102DC00039050E94530CB7CFE092BD0282E792E032
:102DD0000E9439050E94C20BAECFD092BD028BE794
:102DE00092E00E9439050E94630BA5CFF092BD02CC
:102DF00084E892E00E9439050E941E129CCF8091C7
:102E00009F0281FF1AC010929F02A092BD0281E032
:102E10000E946005A895789410929D0210929C02E1
:102E200080919C0290919D028C5D9540C8F3A8957D
:102E3000809191028093BD027ECF80919F0282FF9C
:102E40007ACF10929F0280919102882319F4909278
:102E5000910202C010929102809191028093BD0272
:102E60000E94471568CF06C090E000009F5F9E312A
:102E7000E1F781508823C1F7089548EC50E009C07C
:102E800020E137E2FA013197F1F721503040D1F7D4
:102E900081508823A9F708959093C5008093C400BA
:102EA00088E18093C1008EE08093C200519A5098CF
:102EB0000895982F8091C00085FFFCCF9093C600A5
:102EC00080E090E008958091C00087FFFCCF809162
:102ED000C60008958091C00080780895AC0120E07C
:102EE00007C08091C00085FFFCCF3093C6002F5FE4
:102EF000FA01E20FF11D3491332399F7662371F043
:102F00008091C00085FFFCCF8AE08093C60080914D
:102F1000C00085FFFCCF8DE08093C6000895FC01C2
:102F200007C08091C00085FFFCCF31969093C6000A
:102F300090819923B1F70895282F982F92959F702B
:102F40009A3030F48091C00085FFFCCF905D05C0C1
:102F50008091C00085FFFCCF995A9093C600822FC4
:102F600090E08F7090700A973CF48091C00085FFCC
:102F7000FCCF2F70205D06C08091C00085FFFCCF84
:102F80002F70295A2093C60008951F93182F892F58
:102F90000E949C17812F0E949C171F910895EF9209
:102FA000FF920F931F937B018C01C801AA27BB27B7
:102FB0000E94C517C7010E94C5171F910F91FF906E
:102FC000EF9008950F931F93CF93DF938C01E0E16F
:102FD000F7E240E0C0E0D0E0C801BF010E94B31BAF
:102FE000262F662329F4442319F4E130F10549F42E
:102FF0008091C00085FFFCCF205D2093C600205348
:1030000041E0CF016AE070E00E94B31B2196C53019
:10301000D10571F0822F90E09C012E9FC0012F9F5F
:10302000900D3E9F900D1124081B190BFB01D4CF6E
:10303000DF91CF911F910F9108954F925F926F9200
:103040007F928F929F92AF92BF92CF92DF92EF9238
:10305000FF920F931F93CF93DF934B015C01E12C01
:103060009AECF92E9AE9092F9BE3192F4424C0E02A
:10307000D0E0C501B401A80197010E94DA1BD22E4D
:10308000222341F4442031F481E0E816F1040105E3
:10309000110561F48091C00085FFFCCF80E3D80E5C
:1030A000D092C60080EDD80E44244394C801B701E5
:1030B0002AE030E040E050E00E94DA1BC22E732E7E
:1030C000642E552E2196CA30D105A9F06D2D70E0E1
:1030D00080E090E0A80197010E94881B861A970A59
:1030E000A80AB90A2C2D372D462D552DC901DA0114
:1030F0007C018D01BECFDF91CF911F910F91FF9089
:10310000EF90DF90CF90BF90AF909F908F907F9087
:103110006F905F904F9008959C0160E971E00E946C
:10312000B31B892B11F481E00895C90164E670E0B6
:103130000E94B31B892B11F480E0089580E0237076
:103140003070232B09F481E008956F927F928F9263
:103150009F92AF92BF92CF92DF92EF92FF920F9326
:103160001F93CF93DF93982F362FB42E722E602E9D
:10317000AE2CE41620F0E41691F4281780F4872D85
:10318000662D4A2D292F032FEB2C0E94A5182227EC
:103190003327A901261B370B480B590BC2C09715C3
:1031A00069F4BA1409F046C0862D90E0831B91099A
:1031B0009C01442737FD4095542FB3C0BA1409F041
:1031C00039C0092F10E0F801EA59FC4FE491CE2FE5
:1031D000D0E0C31BD109923031F48B2D90E00E94D6
:1031E0008C18C80FD11D97E6C92E93E0D92EC00EBA
:1031F000D11EEE24FF240F5F1F4F872C992413C08C
:10320000F6018491C80FD11D2230310531F48B2D88
:1032100090E00E948C18C80FD11D0894E11CF11C8D
:103220000894C11CD11C98012E0D3F1D281539058D
:103230003CF370C0092F10E0F801EA59FC4FE4910B
:10324000CE2FD0E0C31BD109923031F48B2D90E00A
:103250000E948C18C80FD11D87E6C82E83E0D82E97
:10326000C00ED11EEE24FF2448010894811C911C3D
:1032700013C0F6018491C80FD11D2230310531F4FD
:103280008B2D90E00E948C18C80FD11D0894E11C72
:10329000F11C0894C11CD11C94012E0D3F1D2D3032
:1032A00031053CF38B2D90E07C010894E11CF11C6E
:1032B00000E010E04C01CA2CDD240BC0C7010E94C5
:1032C0008C1890E083599E4FC80FD91F0894E11CB9
:1032D000F11C0F5F1F4FC801880D991D8C159D05AE
:1032E0006CF301E010E0E72CFF2411C0F801EA596B
:1032F000FC4FE491CE0FD11D0230110531F48A2D1F
:1033000090E00E948C18C80FD11D0F5F1F4F0E1543
:103310001F0564F3C60DD11D9E01442737FD40955E
:10332000542FB901CA01DF91CF911F910F91FF90E6
:10333000EF90DF90CF90BF90AF909F908F907F9055
:103340006F9008959B01882351F4229FB001239F21
:10335000700D329F700D11248FEB92E00BC0813005
:10336000D9F4229FB001239F700D329F700D11245C
:1033700080E197E29C01429FC001439F900D529FC4
:10338000900D11240E94B31BCB016F3F710529F0F2
:1033900020F08FEF90E00895842F08958F92AF92E0
:1033A000BF92CF92DF92EF92FF920F931F93DF9322
:1033B000CF93CDB7DEB7BC2C0E94A51824E630E031
:1033C00040E050E00E94881B7B018C012DEA3EE822
:1033D00040E050E00E94DA1B6901BB2029F06CE15B
:1033E00070E38CE290E004C064E67DE189E290E065
:1033F0009B01AC012E193F09400B510B79018A0149
:10340000882D90E08E3291051CF08DE290E005C091
:103410008831910514F488E190E0AC0148515040A6
:1034200033E0A31609F0AEC0BB2009F050C06FEF27
:1034300070E68BEE9FEFE60EF71E081F191F7E85C4
:10344000713059F56FE473E020E030E0FB018591C5
:103450009491C816D906D0F4F901EE0FFF1FEE0FB4
:10346000FF1FEF5AFC4F2591349184E690E0DC0178
:103470002A9FC0012B9F900D3A9F900D1124A0E030
:10348000B0E0E81AF90A0A0B1B0B07C02F5F3F4F89
:103490006C5F7F4F23303105C9F6E8E8F2E0849194
:1034A00090E0C816D9061CF480E090E009C0779639
:1034B000849190E0C816D9060CF016C187E190E01F
:1034C000480F591F47575D4FFA01649147C068EF95
:1034D00074EB89EE9FEFE60EF71E081F191F7E851D
:1034E000713059F56BE573E020E030E0FB01859128
:1034F0009491C816D906D0F4F901EE0FFF1FEE0F14
:10350000FF1FE35AFC4F2591349184E690E0DC01E3
:103510002A9FC0012B9F900D3A9F900D1124A0E08F
:10352000B0E0E81AF90A0A0B1B0B07C02F5F3F4FE8
:103530006C5F7F4F23303105C9F620E030E0F901A0
:10354000EA54FD4FE4918E2F90E0C816D906A4F4FA
:10355000420F531F49545D4FFA01649170E080E0BF
:1035600090E023E531E74FEF5FEF0E94881BE60E06
:10357000F71E081F191FB8C0295E3F4F25343105BB
:10358000F1F6B2C0BB2009F046C0FE85F13059F516
:103590006BEF72E020E030E0FB0185919491C8165A
:1035A000D906D0F4F901EE0FFF1FEE0FFF1FE35015
:1035B000FD4F2591349184E690E0BC01269FC00127
:1035C000279F900D369F900D1124A0E0B0E0E81ADF
:1035D000F90A0A0B1B0B07C02F5F3F4F6C5F7F4F31
:1035E0002B303105C9F620E030E0F901E35AFE4FF7
:1035F000E4918E2F90E0C816D9063CF4420F531F79
:10360000425A5E4FFA01649145C0295E3F4F2A3805
:10361000310559F752C0FE85F13059F567E273E084
:1036200020E030E0FB0185919491C816D906D0F4D2
:10363000F901EE0FFF1FEE0FFF1FE75DFC4F259115
:10364000349184E690E0BC01269FC001279F900D35
:10365000369F900D1124A0E0B0E0E81AF90A0A0B99
:103660001B0B07C02F5F3F4F6C5F7F4F2A30310528
:10367000C9F620E030E0F901E951FE4FE4918E2FC8
:1036800090E0C816D906A4F4420F531F48515E4F6C
:10369000FA01649170E080E090E023E531E74FEFBC
:1036A0005FEF0E94881BE60EF71E081F191F05C05A
:1036B000295E3F4F213A3105F1F6F2E0AF1649F4A9
:1036C00022EC32E945E050E0E20EF31E041F151F24
:1036D0000BC031E0A31641F44DED53EA67EF7FEFE5
:1036E000E40EF51E061F171FC801B70120E633E0E0
:1036F00040E050E00E94881BCF91DF911F910F9115
:10370000FF90EF90DF90CF90BF90AF908F90089593
:10371000629FD001739FF001829FE00DF11D649FB5
:10372000E00DF11D929FF00D839FF00D749FF00D41
:10373000659FF00D9927729FB00DE11DF91F639FE2
:10374000B00DE11DF91FBD01CF0111240895991B92
:1037500079E004C0991F961708F0961B881F7A9588
:10376000C9F780950895AA1BBB1B51E107C0AA1F8A
:10377000BB1FA617B70710F0A61BB70B881F991F12
:103780005A95A9F780959095BC01CD01089597FBB6
:10379000092E07260AD077FD04D0E5DF06D00020E9
:1037A0001AF4709561957F4F0895F6F7909581957D
:1037B0009F4F0895A1E21A2EAA1BBB1BFD010DC04D
:1037C000AA1FBB1FEE1FFF1FA217B307E407F507D1
:1037D00020F0A21BB30BE40BF50B661F771F881FAD
:1037E000991F1A9469F760957095809590959B0143
:1037F000AC01BD01CF01089597FB092E05260ED01F
:1038000057FD04D0D7DF0AD0001C38F450954095FE
:10381000309521953F4F4F4F5F4F0895F6F79095A4
:103820008095709561957F4F8F4F9F4F0895F999BF
:10383000FECF92BD81BDF89A992780B50895A8E181
:10384000B0E042E050E00C943A1C262FF999FECFEC
:103850001FBA92BD81BD20BD0FB6F894FA9AF99AAD
:103860000FBE019608950E94251C272F0C94261C3C
:10387000DC01CB01FC01F999FECF06C0F2BDE1BD30
:10388000F89A319600B40D9241505040B8F708951F
:04389000F894FFCFDA
:1038940073756E646179006D6F6E6461790074751F
:1038A4006573646179007765646E7364617900742B
:1038B4006875727364617900667269646179007312
:1038C40061747572646179006A616E006665620094
:1038D4006D6172636800617072696C006D6179007A
:1038E4006A756E65006A756C79006175677374003A
:1038F40073657074006F63746F62006E6F76656DCC
:1039040000646563656D002020206674202020001B
:1039140020202020636D202000202020206C627352
:103924002000202020206B672020002020202062FF
:103934006D692000616C61726D206F6E00736E6F33
:103944006F7A696E67007573612D31326872006534
:1039540075722D3234687200766F6C2068696768FE
:1039640000766F6C20206C6F77006272697465203A
:103974000020202020202020200066656D616C65D9
:103984002020006D616C6520202020006E6F726D18
:10399400616C20200070657373696D7374006F70BF
:1039A40074696D6973740073616469737469630025
:1039B400696D70657269616C006D6574726963200C
:1039C4002000646972656374202000736D6F6B65F9
:1039D400722020006E6F6E20736D6B7200736574BD
:1039E40020616C61726D007365742074696D65008B
:1039F4007365742064617465007365742062726910
:103A0400740073657420766F6C2000736574207283
:0E3A140065676E006465617468636C6B00002A
:00000001FF
