:100000000C94A2010C9405130C94BF010C94B4063B
:100010000C94BF010C9408070C94BF010C94BF0111
:100020000C94BF010C945C0A0C94BF010C94BF01AA
:100030000C94BF010C94BF010C94BF010C94BF0140
:100040000C9415080C94BF010C94BF010C94BF01D3
:100050000C94BF010C94BF010C94BF010C94150DBE
:100060000C94BF010C94BF0103070809060A050C94
:100070000468000B10120F0D0E11137300202020C6
:1000800020202020202020646561746874756265DA
:100090002E2020646562756767696E672E20206375
:1000A0006F6465206F7074696D697A6174696F6ED1
:1000B0002E20206279206361697473697468322E1E
:1000C0002020636F6465206A6564692E202077773D
:1000D000772E6361697473697468322E636F6D2063
:1000E000202020202020202020696365747562650F
:1000F0002E2020696365747562652068617264777B
:100100006172652E20206279206C6164796164617E
:100110002E202073696D706C79207468652062658B
:1001200073742E2020202020202020202061646154
:10013000667275697420696E64757374726965732B
:100140002E207777772E61646166727569742E63ED
:100150006F6D20202020202020202020006A616E4A
:100160002020006665622020006D61726368006176
:100170007072696C006D61792020006A756E65206F
:10018000006A756C7920006175677374007365701F
:100190007420006F63746F62006E6F76656D00642B
:1001A0006563656D0073756E64617920206D6F6E97
:1001B0006461792020747565736461792077656462
:1001C0006E7364617974687572736461796672695B
:1001D0006461792020736174757264617900616C67
:1001E00061726D206F6E006575722D323468720019
:1001F0007573612D3132687200766F6C20206C6FE0
:100200007700766F6C2068696768006E6F6E207388
:100210006D6B7200736D6F6B657220200064697284
:100220006563742020006D65747269632020006925
:100230006D70657269616C00736164697374696380
:10024000006F7074696D6973740070657373696DA4
:100250007374006E6F726D616C2020006D616C654F
:10026000202020200066656D616C65202000202024
:100270002020636D20200020202066742020200094
:1002800020202020626D692000202020206B672024
:100290002000202020206C62732000627269746547
:1002A00020006465617468636C6B0061626F7574D3
:1002B00020202000736574207265676E007365747A
:1002C00020766F6C2000736574206272697400730D
:1002D0006574207A6F6E650073657420646174655F
:1002E000007365742074696D650073657420616CBA
:1002F00061726D0074696D65732075700020202037
:1003000020202020200074696D65732075700073B3
:100310006E6F6F7A696E6700190000001E00B30AE5
:1003200023008F0A2800FD092D00D80932006A0930
:100330003700D9083C00FE074100FE06460047068C
:10034000C800B50411241FBECFEFD4E0DEBFCDBF7F
:1003500011E0A0E0B1E0E0E8FEE302C005900D92FC
:10036000A837B107D9F712E0A8E7B1E001C01D92A4
:10037000A833B107E1F70E94CB160C943E1F0C94F2
:1003800000009C017894109289011092880180915C
:1003900088019091890182179307C8F30895A89561
:1003A000089581E080937C015B9A8CB58F7B8CBD36
:1003B00085B1877D85B95E9815BC10921C0210929C
:1003C000680085B1897F85B98BB18F7C8BB92898FE
:1003D0008AB18F7C8AB920985A985298E1E6F0E069
:1003E00090E8908388E08083449A83B7876083BFD6
:1003F000889590831082449808958EE284B988E4A9
:100400008AB989E187B984E38BB991E095B985E030
:100410008093680090936B0080E380936D00089553
:10042000482F2EE132E0260F311D6AE00E946C1E3B
:10043000A8E4B1E0FD01E80FF11D8081F90180839E
:10044000842F0E946C1EA90FB11D8C918183089589
:10045000982F643008F053C080917A01882319F4F2
:10046000613081F404C0813069F4623059F48091C4
:100470001F02816080931F0280912002816080931F
:10048000200208956330B9F4923051F48091230230
:1004900081608093230280912402816080932402F2
:1004A00080912502816080932502809126028160DF
:1004B000809326020895992329F0E3E0F0E0A3E079
:1004C000B0E004C0E4E0F0E0A4E0B0E0A25EBD4F24
:1004D000E25EFD4F808181608C93992329F4E5E0F1
:1004E000F0E0A5E0B0E004C0E4E0F0E0A4E0B0E0BB
:1004F000A25EBD4FE25EFD4F808181608C930895C6
:10050000FC0183709070892B39F4CF0164E670E0B0
:100510000E94851E892B49F420E030E0CF0160E97C
:1005200071E00E94851E892B11F421E030E0822FBA
:1005300008951092800010928100299A2A98789448
:10054000109289011092880180918801909189010F
:100550000A97D0F32A9A29987894109289011092D8
:10056000880180918801909189010A97D0F385B123
:10057000897F85B982EB8093800088E18093810038
:1005800008951F93162F9C0140E050E060E472E450
:100590008FE090E00E94CE1E30938700209386006B
:1005A00080918600909187009695879590938B0017
:1005B00080938A0080918A0090918B0090938900AB
:1005C0008093880028EC30E01CC08091810082601C
:1005D0008093810080ED97E0F9013197F1F7019761
:1005E000D9F7809181008D7F8093810085B1897FCB
:1005F00085B980ED97E0F9013197F1F70197D9F7C7
:100600001150112311F785B1897F85B91F91089584
:100610008B3510F08AE503C08E3108F48EE187BD7A
:1006200083E084BD81E085BD84B5806884BD809110
:100630006E00816080936E0078940895EF92FF922F
:100640000F931F93182FF62E042FE22E10921E02E6
:10065000882349F4822F64E60E946C1E8D5E65E05B
:100660000E94100205C082E0809321028093240240
:1006700080917A011D5F882331F48F2D61E00E9403
:100680001002802F05C0802F61E00E9410028F2D84
:10069000612F0E9410028E2D64E60E946C1E892F2D
:1006A00067E00E9410021F910F91FF90EF90089554
:1006B000982F80917A018823F9F49C3048F080913A
:1006C0001E02816080931E028EEC8093250208C07A
:1006D0008AEF8093250280911E028E7F80931E02F6
:1006E0008AEA80932602892F90E00B966CE070E0F6
:1006F0000E94991E8F5F01C0892F61E00E94100245
:100700000895FF920F931F93182F862F042FF22E18
:1007100010922102109224021092250210922602B9
:1007200064E00E941002812F0E9458030C3320F4D1
:10073000802F67E00E941002FF2079F0E3E0FE9E28
:10074000F0011124DF01A45EBD4F8C9181608C9378
:10075000E35EFD4F8081816080831F910F91FF9048
:1007600008951F93182F242F992787FD909597FFA1
:1007700003C0909581959F4F4CE30E9481038AE1CD
:10078000809326028EE18093250288E380932402E1
:1007900017FD04C080911E028D7F03C080911E0250
:1007A000826080931E021F910895AC0110921E0278
:1007B00021E030E0A22FB0E0FD01E30FF11D319701
:1007C000E40FF51FE491EE2351F18E2F81568A310B
:1007D00030F4A25EBD4FF0E0E353FF4F09C08E2F0F
:1007E00080538A3040F4A25EBD4FF0E0E85EFE4FD9
:1007F00080818C9311C0EE3261F4223050F0215090
:10080000E22FF0E0E25EFD4F8081816080833F5FF8
:1008100003C0A25EBD4F1C922F5F293058F208958D
:1008200080917A01882319F480EF91E002C087EE6D
:1008300091E00E94D5030895882351F082E092E070
:100840000E94D5038091230281608093230204C01B
:1008500089EF91E00E94D50380912402816080930A
:1008600024028091250281608093250280912602D6
:100870008160809326020895CF93DF93EB0110925D
:100880001E028823A1F487E792E00E94D503CE01DF
:100890006CE070E00E94851E862F61E00E941002CD
:1008A000CE016CE070E00E94851E67E015C08EE608
:1008B00092E00E94D503CE0164E670E00E94851E9E
:1008C000FB01E85BFE4F808180931F02CE0164E64E
:1008D00070E00E94851E62E00E941002DF91CF91BD
:1008E0000895CF93DF93EB0110921E02882319F431
:1008F00082E992E007C0813019F489E892E002C0F1
:1009000080E892E00E94D503CE0164E670E00E9488
:10091000851EFB01E85BFE4F808180931F02CE01A4
:1009200064E670E00E94851E62E00E941002DF9182
:10093000CF910895843051F480913302882319F0C7
:1009400085E692E048C08CE592E045C08530A1F490
:1009500080913602882319F483E592E03CC081300F
:1009600019F48AE492E037C0823019F481E492E00D
:1009700032C088E392E02FC0863079F480912F0254
:10098000882319F48FE292E026C0813019F486E2C0
:1009900092E021C08DE192E01EC0873049F4609161
:1009A00031027091320280912F020E9471040895E9
:1009B000883049F4609128027091290280912F02B9
:1009C0000E943C040895893069F48091990188233C
:1009D00029F084E192E00E94D50308958BE092E033
:1009E0000E94D50308951F93182F8BE992E00E946F
:1009F000D503812F67E00E9410028091250281605B
:100A000080932502809126028160809326021F91A7
:100A10000895EF92FF920F931F93CF93DF937B0183
:100A20008C0116161706180619061CF5C6E2D2E048
:100A3000C801B7012AE030E040E050E00E94CE1E3D
:100A4000DC01CB01885B9E4FFC0180818883C8015B
:100A5000B7012AE030E040E050E00E94CE1EC9011C
:100A6000DA017C018D012197F2E0CE31DF0701F739
:100A700004C086E093E00E94D503DF91CF911F91DF
:100A80000F91FF90EF900895EF92FF920F931F93B5
:100A9000282F80917B018C3009F093C080912E0229
:100AA000843009F48EC0E0908E01F0908F010091A7
:100AB00090011091910180919801E22FF0E0992727
:100AC00087FD9095E817F90744F1809198019927DF
:100AD00087FD90958E179F0751F4809127029927E3
:100AE00087FD9095262F30E028173907B4F08091C4
:100AF0009801992787FD90958E179F0739F580916A
:100B00002702992787FD9095262F30E082179307BB
:100B1000E9F4809135021816CCF490919801209157
:100B2000270280913702833019F041E050E002C083
:100B300044E050E084EC9802C0011124332727FDE3
:100B40003095821B930B80569A4F16C09091980156
:100B50002091270280913702833019F041E050E064
:100B600002C044E050E084EC9802C0011124332715
:100B700027FD3095821B930B2CE330E0D901EA9FCF
:100B80009001EB9F300DFA9F300D1124820F931FBF
:100B9000860F911D9C01429FC001439F900D529F63
:100BA000900D1124AA2797FDA095BA2FA8019701AF
:100BB000281B390B4A0B5B0BCA01B9010E940905BE
:100BC00005C0822F4CE320E00E9481031F910F910A
:100BD000FF90EF9008954A9B36C080912A028823A7
:100BE00009F049C081E080932A0210928701109297
:100BF00086018EED91E00E94D50389E080932E025C
:100C000078941092890110928801809188019091C6
:100C10008901885E9340C8F380912B0260911B028A
:100C20000E94440578941092890110928801809165
:100C3000880190918901805D9740C8F380917B0184
:100C400080932E02089580912A028823A1F01092A9
:100C50002A02109287011092860180912D0288232A
:100C600051F010922D02809181008D7F8093810040
:100C700085B1866085B908951F9380918B018D7F22
:100C800080938B0183E680932E0210E019C01F5FD2
:100C9000E12FF0E0E358FF4F84918E32C1F3CF0192
:100CA0000E94D50378941092890110928801809156
:100CB0008801909189018D549140C8F31F5FA895D8
:100CC000E12FF0E0EB57FF4FE491EE2309F780911D
:100CD0007B0180932E021F9108958AE080939201F8
:100CE0009AE080918B0180FD20C080918B01882348
:100CF00021F480918C01882319F09093920109C00E
:100D000080919201882329F480917B0180932E02A7
:100D1000089580918B01867021F310928B010E94BF
:100D20003C0680917B0180932E02089588E592E035
:100D300090938701809386018FE093E00E94D50312
:100D400089E080932E027894109289011092880194
:100D50008091880190918901885E9340C8F38091C9
:100D60007B0180932E0208951F920F920FB60F926F
:100D700011242F933F934F935F936F937F938F93A0
:100D80009F93AF93BF93EF93FF9310926800789473
:100D9000189925C080918A0181FD26C0789410920F
:100DA00089011092880180918801909189010A97A8
:100DB000D0F3189919C00E94990280912D028823BE
:100DC00019F00E94960610C080918A01826080937B
:100DD0008A0180918B01826080938B0105C0809194
:100DE0008A018D7F80938A0185E080936800FF915E
:100DF000EF91BF91AF919F918F917F916F915F9193
:100E00004F913F912F910F900FBE0F901F9018950B
:100E10001F920F920FB60F9211242F933F934F936F
:100E20005F936F937F938F939F93AF93BF93EF9352
:100E3000FF931092680078944D9922C080918A01A6
:100E400080FD23C0789410928901109288018091CE
:100E50008801909189010A97D0F34D9959C00E9459
:100E6000990280912D028823A1F580918A018160E9
:100E700080938A0180918B01816080938B0105C0F2
:100E800080918A018E7F80938A014C993AC080912B
:100E90008A0182FD3DC078941092890110928801E8
:100EA00080918801909189010A97D0F34C9930C0C4
:100EB00082E080938D0116C04C9B14C00E94990261
:100EC00080918A018B7F80938A0180912D028823F3
:100ED00019F00E9496061CC080918B01846080935B
:100EE0008B0116C080918D01882331F780918A0192
:100EF000846080938A0180918C01846080938C014E
:100F000007C010928C0180918A018B7F80938A01A7
:100F100085E080936800FF91EF91BF91AF919F9121
:100F20008F917F916F915F914F913F912F910F9092
:100F30000FBE0F901F90189581E58CBD08959B0101
:100F4000AC01F894CA01AA27BB278EBD0DB407FED9
:100F5000FDCFBB27A52F942F832F8EBD0DB407FE89
:100F6000FDCF2EBD0DB407FEFDCF409A409878947A
:100F70000895AF92BF92CF92DF92EF92FF920F93BC
:100F80001F93E82FF0E0E859FF4FE49181E090E0F3
:100F900002C0880F991FEA95E2F77C010027F7FC51
:100FA0000095102F2091930130919401409195016B
:100FB00050919601A0E0B0E070E0E1E0AE2EB12CDF
:100FC000C12CD12CCB010A2E02C0959587950A948D
:100FD000E2F780FF11C0FD01ED58FF4FE491A6013B
:100FE000950104C0220F331F441F551FEA95D2F705
:100FF000E22AF32A042B152B1196A830B10511F71C
:10100000209393013093940140939501509396015E
:10101000C801B7010E949F071F910F91FF90EF90A9
:10102000DF90CF90BF90AF9008951F920F920FB6B0
:101030000F9211242F933F934F935F936F937F935E
:101040008F939F93AF93BF93EF93FF937894A8955B
:101050008091820190918301019690938301809306
:101060008201819708F46CC0109283011092820172
:1010700080918801909189010196909389018093D4
:10108000880180918101893010F010928101809156
:101090008101E82FF0E0E25EFD4F60810E94B90718
:1010A000809181018F5F8093810180912D0288233F
:1010B00009F446C08091860190918701892B09F03F
:1010C0003FC08091840190918501019690938501A4
:1010D000809384018536910598F1109285011092D4
:1010E00084018AEF90E0909387008093860080913E
:1010F0008600909187009695879590938B008093BA
:101100008A0080918A0090918B009093890080934F
:10111000880080912D02807F49F080912D028F7090
:1011200080932D02809181008D7F08C080912D02D7
:10113000806F80932D028091810082608093810076
:10114000FF91EF91BF91AF919F918F917F916F919F
:101150005F914F913F912F910F900FBE0F901F9075
:1011600018958EBD0DB407FEFDCF08958091C00087
:1011700080780895FC015381505182814AE0849F18
:10118000C0011124580F7481658130915201232FC1
:1011900020518181280F8081849FC0011124280F54
:1011A000209398018091800137FF02C0581B01C035
:1011B000580F5093270260518AE0789FC001112494
:1011C000680F609335020895FC0151815051808170
:1011D0004AE0849FC0011124580F3381305182812D
:1011E000849FC0011124380F258120518481849F60
:1011F000C0011124280F10927D0110927E0150939E
:101200001D023093300220931A020895982F809186
:101210002A02882389F080912B02891769F4809132
:101220001B02861749F4442339F481E080932D0290
:1012300010928701109286010895809135028C33B7
:10124000C4F1809135028C5380933502809127023E
:101250008F5F8093270280918E0190918F01A091E2
:101260009001B0919101181619061A061B060CF58B
:1012700020918E0130918F01409190015091910108
:1012800080913702833029F081E090E0A0E0B0E067
:1012900004C084E090E0A0E0B0E0281B390B4A0BCA
:1012A0005B0B20938E0130938F01409390015093FC
:1012B00091018091350287FF2BC080913502845CBB
:1012C00080933502809127028150809327022091DC
:1012D0008E0130918F014091900150919101809148
:1012E0003702833029F081E090E0A0E0B0E004C054
:1012F00084E090E0A0E0B0E0820F931FA41FB51F30
:1013000080938E0190938F01A0939001B0939101EF
:10131000809127028C33B4F0809127028C53809304
:101320002702809198018F5F8093980160919801C6
:101330008CEF91E00E941B1F609127028BEF91E0E0
:101340000E941B1F8091270287FF16C080912702F1
:10135000845C80932702809198018150809398014A
:10136000609198018CEF91E00E941B1F6091270211
:101370008BEF91E00E941B1F80919801883184F0CF
:101380008091980188518093980180911D028F5F10
:1013900080931D0260911D028DEF91E00E941B1F42
:1013A0008091980187FF10C080919801885E80939A
:1013B000980180911D02815080931D0260911D0251
:1013C0008DEF91E00E941B1F80911A02992787FDE3
:1013D00090958053984F0E948002882311F48CE1ED
:1013E00001C08DE180935C0120911D02E0913002EB
:1013F000332727FD3095FF27E7FDF095E65AFE4F8E
:10140000808190E08217930774F481E080931D023D
:10141000809130028F5F80933002609130028EEFB6
:1014200091E00E941B1F80911D02181694F180917B
:101430003002815080933002809130021816B4F04F
:1014400080913002845F8093300280911A02815033
:1014500080931A02609130028EEF91E00E941B1F70
:1014600060911A028FEF91E00E941B1FE091300201
:1014700090911D02FF27E7FDF095E65AFE4F80810F
:10148000980F90931D02609130028EEF91E00E94C0
:101490001B1F809130028D3074F080911A028F5F93
:1014A00080931A0281E08093300260911A028FEFDC
:1014B00091E00E941B1F08951F920F920FB60F928A
:1014C00011242F933F934F935F936F937F938F9349
:1014D0009F93AF93BF93EF93FF9380E88093610056
:1014E00010926100809135028F5F809335020E94D7
:1014F0001D0980917C01882309F0C8C080912E02CB
:10150000882319F580917D01882349F08091350267
:1015100080FF05C08DEF92E00E94D50309C0809145
:101520009801609127024091350220E00E948103DA
:1015300080912A02882321F080911E02826003C0DC
:1015400080911E028D7F80931E0280912E028C302E
:1015500009F06CC020918E0130918F014091900173
:101560005091910180913702833029F080E090E022
:10157000A0E0B0E00AC0809135026FE00E94781EC2
:10158000992787FD9095A92FB92F281B390B4A0B56
:101590005B0B1216130614061506BCF520918E017E
:1015A00030918F01409190015091910180913702CB
:1015B000833029F080E090E0A0E0B0E00AC08091A4
:1015C00035026FE00E94781E992787FD9095A92F1C
:1015D000B92F281B390B4A0B5B0BCA01B9010E94BA
:1015E0000905809135029BE3981B28E00BC090FF12
:1015F00007C0E22FF0E0E25EFD4F808181608083D2
:1016000096952150992399F704C084EF92E00E94A7
:10161000D50380912A02882321F080911E028260E6
:1016200003C080911E028D7F80931E0280919801DD
:1016300060912702409135020E9406098091920133
:10164000882329F0809192018150809392018091AA
:101650008D01882329F080918D01815080938D0127
:101660008091860190918701009781F00197909376
:1016700087018093860180FF04C080911E028260F2
:1016800003C080911E028D7F80931E02FF91EF9117
:10169000BF91AF919F918F917F916F915F914F918A
:1016A0003F912F910F900FBE0F901F901895EF92C2
:1016B000FF920F931F93F0905201009180018AE0F6
:1016C0008093920110E0BAE0EB2E80918B0180FDB7
:1016D00069C080918B01882321F480918C0188233B
:1016E00019F0E092920104C080919201882361F088
:1016F00080918B0181FF11C010928B01112339F071
:10170000113011F412E004C010922E024BC011E00F
:101710008F2D602F412F0E94B10380918B0182FD9C
:1017200004C080918C0182FFD0CF10928B011130C8
:1017300091F48F2D992787FD90950D9669E170E0C2
:101740000E94991EA4EFFA2EF80EF092520182EE3A
:1017500091E06F2D0FC0123079F4802F90E0019648
:101760006CE370E00E94991E082F8093800181EE47
:1017700091E0602F0E941B1F8F2D602F412F0E9430
:10178000B10380918C0182FFA0CF789410928901DF
:101790001092880180918801909189018B34910584
:1017A000C8F393CF1F910F91FF90EF900895DF92B0
:1017B000EF92FF920F931F93E0909801F090270211
:1017C000009135028AE08093920110E08AE0D82EE1
:1017D00080918B0180FD8AC080918B01882321F448
:1017E00080918C01882319F0D092920104C08091DD
:1017F00092018823E1F080918B0181FF24C0109237
:101800008B01112341F4E0909801F09027020091A0
:10181000350211E012C0113079F0123011F413E0EA
:101820000CC0E0929801F09227020093350280915B
:101830007B0180932E025AC012E08E2D6F2D402F17
:10184000212F0E94810380918B0182FD04C0809131
:101850008C0182FFBDCF10928B01113089F48E2D47
:1018600090E0019668E170E00E94991EE82E809356
:101870009801609198018CEF91E00E941B1F1FC09E
:10188000123089F48F2D90E001966CE370E00E9495
:10189000991EF82E609127028BEF91E00E941B1F8A
:1018A000F09227020CC0133051F4802F90E0019683
:1018B0006CE370E00E94991E082F809335028E2DF4
:1018C0006F2D402F212F0E94810380918C0182FF78
:1018D0007FCF7894109289011092880180918801BD
:1018E000909189018B349105C8F372CF1F910F91AC
:1018F000FF90EF90DF900895EF92FF920F931F9368
:1019000000912B02F0901B028AE08093920110E07C
:101910009AE0E92E80918B0180FD82C080918B013D
:10192000882321F480918C01882319F0E0929201A0
:1019300019C0809192018823A9F480917B01809342
:101940002E0200932B02F0921B0260912B0289EF72
:1019500091E00E941B1F60911B0288EF91E00E94A2
:101960001B1F5EC080918B0181FF24C010928B01F0
:101970001123C9F0113011F412E016C000932B02AC
:10198000F0921B0260912B0289EF91E00E941B1FD5
:1019900060911B0288EF91E00E941B1F80917B01E8
:1019A00080932E023DC011E0802F6F2D4CE3212F3C
:1019B0000E94810380918B0182FD04C080918C0183
:1019C00082FFA8CF10928B01113049F4802F90E054
:1019D000019668E170E00E94991E082F0AC012303B
:1019E00041F48F2D90E001966CE370E00E94991E07
:1019F000F82E802F6F2D4CE3212F0E9481038091C0
:101A00008C0182FF87CF789410928901109288010F
:101A100080918801909189018B349105C8F37ACF28
:101A20001F910F91FF90EF9008951F920F920FB6A4
:101A30000F9211242F933F934F935F936F937F9354
:101A40008F939F93AF93BF93EF93FF9300B605FEE1
:101A500022C080917C018823B9F55B9A85B1877D8E
:101A600085B95E988CB58F7B8CBD80917E01882373
:101A700061F0609127028BEF91E00E941B1F609143
:101A800035028AEF91E00E941B1F15BC10921C02C8
:101A90001092680014C080917C018823A9F0809185
:101AA0007E01882361F0609127028BEF91E00E9414
:101AB0001B1F609135028AEF91E00E941B1FE0918D
:101AC0007801F09179010995FF91EF91BF91AF9164
:101AD0009F918F917F916F915F914F913F912F9146
:101AE0000F900FBE0F901F9018958F929F92BF92EC
:101AF000CF92DF92EF92FF920F931F93DF93CF93DA
:101B0000CDB7DEB72F970FB6F894DEBF0FBECDBFAF
:101B10008091C600898390917F01992349F4843292
:101B200009F0E4C081E080937F018AE991E0D7C0A9
:101B30000AE911E0F80101900020E9F73197E01B74
:101B4000F10BE038F105C0F4369789F4C80160E084
:101B500071E00E94F41E009721F482E080937F01DF
:101B6000BDC080E8F80111928A95E9F7B4C08A32C5
:101B700009F0B4C0923019F080E8D801A9C087E01C
:101B800091E00E948118C8010E948118C8016CE28E
:101B900070E00E94E91EDE011296FC01319626E0FB
:101BA00001900D922150E1F7188600E010E00196B7
:101BB0006CE270E00E94E91E0F5F1F4F08301105B4
:101BC000B1F7DE011996FC01319686E001900D9285
:101BD0008150E1F71F868E8590E0805192402D85DF
:101BE0004AE0249F90011124820F931F0A970CF45E
:101BF0006BC0109198010091270280913502CE01AF
:101C000002960E94BA08CE0109960E94E4080E943A
:101C10001D0930919801809127022CE33202D001F6
:101C20001124992787FD9095A80FB91F812E99241B
:101C30008CE390E0889EF001899EF00D989EF00D57
:101C40001124E00FF11DE0909801F0902702AD0102
:101C50004E1B5F0B57FF18C0BD0160567A4F6E17C1
:101C60007F0790F09A0120563A4F37FF03C0309516
:101C700021953F4F88279927841B950B28173907F3
:101C80001CF4B8E1EB0E01C0BD01E617F707E0F464
:101C900000E010E0CE2CDD24C7FCD0940FC08B2DCB
:101CA0006F2D40E00E940609FA9402C0BE2CB01AC3
:101CB000F7FEF5CF0F5F1F4F2BE3F22EC601801BFF
:101CC000910B8815990594F780E8EAE9F1E0DF01C6
:101CD0001D928A95E9F710927F0108C0C801BE01E4
:101CE0006F5F7F4F41E050E00E94FD1E2F960FB6C0
:101CF000F894DEBF0FBECDBFCF91DF911F910F9142
:101D0000FF90EF90DF90CF90BF909F908F900895BD
:101D100086EF91E00E940D1F80931C0285B18660C2
:101D200085B982E38093800080911C02882329F08A
:101D30008091800080688093800088E1809381009A
:101D40008AEF90E0909387008093860080918600D0
:101D5000909187009695879590938900809388004D
:101D6000809188009091890090938B0080938A00E5
:101D700008958CEF91E00E940D1F68E10E946C1E97
:101D8000909398018BEF91E00E940D1F6CE30E94ED
:101D90006C1E909327028AEF91E00E940D1F6CE366
:101DA0000E946C1E9093350288EF91E00E940D1FF7
:101DB0006CE30E946C1E90931B0289EF91E00E94DD
:101DC0000D1F68E10E946C1E90932B028FEF91E033
:101DD0000E940D1F64E60E946C1E90931A028EEF03
:101DE00091E00E940D1F6DE00E946C1E90933002E6
:101DF0008DEF91E00E940D1F8F7180931D0291E085
:101E000090937E01E6EBF0E080818062808385E044
:101E10008093B10090937000789408950F931F936E
:101E20008AE08093920185EF91E00E940D1F8093DC
:101E30007A0110E00AE001C010E080918B01882354
:101E400021F480918C01882319F00093920104C041
:101E500080919201882381F080918B0180FD2AC0BE
:101E600080918B0181FF0DC010928B01112321F411
:101E70000E94100411E005C080917B0180932E0226
:101E800019C080918B0182FFD8CF10928B01113045
:101E900099F690E080917A01882309F491E090937B
:101EA0007A010E94100485EF91E060917A010E940E
:101EB0001B1FC3CF1F910F910895FF920F931F9384
:101EC0008AE08093920186EF91E00E940D1F182F07
:101ED00000E04AE0F42E01C000E080918B018823ED
:101EE00021F480918C01882319F0F092920104C0B2
:101EF00080919201882389F080918B0180FD2EC012
:101F000080918B0181FF0EC010928B01002329F478
:101F1000812F0E941C0401E005C080917B01809309
:101F20002E021CC080918B0182FFD7CF10928B01B3
:101F3000013091F680E0112309F481E0182F0E940E
:101F40001C0486EF91E0612F0E941B1F0E94880EE7
:101F500080EA9FE061E00E94C102BFCF1F910F9114
:101F6000FF900895FF920F931F938AE08093920150
:101F700087EF91E00E940D1F182F00E05AE0F52E28
:101F800001C000E080918B01882321F480918C01B5
:101F9000882319F0F092920104C080919201882365
:101FA00089F080918B0180FD2CC080918B0181FF95
:101FB00013C010928B01002329F4812F0E94F30497
:101FC00001E00AC080917B0180932E0287EF91E0AF
:101FD000612F0E941B1F15C080918B0182FD04C0E0
:101FE00080918C0182FFCECF10928B01013049F697
:101FF0001B5F1C3508F01EE1812F0E94F30417BD02
:10200000C1CF1F910F91FF90089580917C0188238B
:10201000A9F180E8809361001092610010927C0128
:1020200080E49CE90197F1F700B605FC27C00E9407
:10203000FD0187EF91E00E940D1F0E94080381E5DA
:102040008CBD5B98439886EF91E00E940D1F8093B2
:102050001C020E94880EA8950E94EB0580E793E081
:1020600061E00E94C10280EE96E061E00E94C10240
:1020700080EC9DE061E00E94C102A89508956F92F6
:102080007F928F929F92AF92BF92CF92DF92EF9208
:10209000FF920F931F938CEE91E00E940D1F80938F
:1020A000370283EF91E00E940D1F682E82EF91E0CE
:1020B0000E940D1F782E81EF91E00E940D1FB82E17
:1020C00080EF91E00E940D1F982E8FEE91E00E940C
:1020D0000D1F082F8EEE91E00E940D1FD82E8DEE61
:1020E00091E00E940D1FC82EA09037028BEE91E068
:1020F0000E940D1F182F87EE91E00E94151F7C0192
:1021000089EE91E00E94151FAC01812FB7010E945A
:102110007E19882E86EE91E00E940D1FE82E85EE36
:1021200091E00E940D1FF82E84EE91E00E940D1F99
:10213000182F83EE91E00E940D1F00D000D0EDB764
:10214000FEB731969CE6B90ED90EADB7BEB7119663
:10215000EC92F18212838383862D672D4B2D292DDE
:10216000ED2C0E948C1B0F900F900F900F901F91E1
:102170000F91FF90EF90DF90CF90BF90AF909F9026
:102180008F907F906F900895DF92EF92FF920F9360
:102190001F9380EF91E00E940D1F809334028FEE19
:1021A00091E00E940D1F809397018EEE91E00E94B6
:1021B0000D1F80932C020E943F107B018C01DD24B7
:1021C000D39450C0809197018F5F80939701809145
:1021D0009701803268F5809197018F3181F4809169
:1021E0003402843029F180913402863009F18091E3
:1021F00034028930E9F0809134028B30C9F080914B
:1022000097018E3121F480913402823089F08091DF
:1022100097018D31A1F480913402823081F4809154
:102220002C0290E08459984F0E948002882339F450
:10223000D0929701809134028F5F80933402809115
:1022400034028D3038F0D092340280912C028F5FAE
:1022500080932C0280E69AEFAFEFBFEFE80EF91EF5
:102260000A1F1B1F90EAE91695E0F90690E009079E
:1022700090E0190708F0A6CF1F910F91FF90EF9003
:10228000DF900895FF920F931F93CF93DF938823DE
:1022900041F46091300240911D0220911A0281E0C8
:1022A00009C0823051F46091300240911D022091AA
:1022B0001A0280E00E941E03D3C0813009F0D0C012
:1022C000F0901D020091300210911A020E94C41079
:1022D00080917B018C3061F48091970180931D0285
:1022E000809134028093300280912C0280931A02F4
:1022F00080913002C82FDD27C7FDD09580917B01EA
:102300008C3049F480911A02E82FFF27E7FDF09501
:10231000E459F84F08C080911A02E82FFF27E7FD23
:10232000F095E053F84F80913002833014F42C96EE
:10233000319720911D021092250210922602332718
:1023400027FD30952F5F3F4F2E0F3F1FCE01880F87
:10235000991F280F391FCF019695879596958795D8
:10236000280F391FCF0160E971E00E94851E260FFA
:10237000371FCF0164E670E00E94851E261B370BD5
:10238000AE014F5F5F4FCA01880F991F840F951FE1
:10239000880F991F6AE070E00E94851EC901860FB0
:1023A000971F67E070E00E94851E90E063E0880F51
:1023B000991F6A95E1F78B559E4F0E94D50378943B
:1023C0001092890110928801809188019091890171
:1023D000885E9340C8F3109222021092230210925A
:1023E00024028091300226E08202C0011124895A21
:1023F0009E4F0E94D50380911D0267E00E9410024B
:1024000080917B018C3061F5789410928901109253
:1024100088018091880190918901885E9340C8F37A
:1024200010922202109221021092200210921F029A
:1024300080911A0264E60E94781E8D5E65E00E941B
:10244000100280911A0264E60E94781E892F67E0CC
:102450000E941002F0921D020093300210931A02A3
:10246000DF91CF911F910F91FF9008950F931F93CC
:102470008AE08093920110E00AE080918B0188232A
:1024800021F480918C01882319F00093920105C0FA
:1024900080919201882309F43EC080918B0180FDD8
:1024A000B1C080918B0181FF4DC010928B0111232F
:1024B00029F480917A018823A9F132C0113029F4DE
:1024C00080917A01882339F010C0123061F4809134
:1024D0007A01813029F480917A01882309F122C0A0
:1024E000882311F106C0113021F480917A018130E6
:1024F000D9F083E680932E0280E00E944211789406
:10250000109289011092880180918801909189012F
:102510008C5D9540C8F380917B0180932E0272C040
:1025200012E003C011E001C013E06091300240915D
:102530001D0220911A0281E00E941E0380E0612F9B
:102540000E94280280918B0182FD04C080918C0141
:1025500082FF93CF10928B01113081F48091300271
:102560008F5F80933002809130028D3014F0109391
:102570003002609130028EEF91E025C0123089F474
:1025800080911D028F5F80931D0280911D02803219
:102590001CF081E080931D0260911D028DEF91E09F
:1025A00012C0133091F480911A028F5F80931A0247
:1025B00080911A0264E60E94781E90931A0260913C
:1025C0001A028FEF91E00E941B1F60913002409130
:1025D0001D0220911A0281E00E941E0380E0612FFB
:1025E0000E94280280918C0182FF47CF789410923C
:1025F0008901109288018091880190918901CC977E
:10260000D0F33BCF1F910F9108951F920F920FB6F9
:102610000F9211242F933F934F935F936F937F9368
:102620008F939F93AF93BF93EF93FF9389E60E949D
:102630004B1829B1789478941092890110928801EE
:1026400080918801909189010A97D0F389B1247013
:1026500030E090E0847090702817390711F40E94E0
:10266000EB05FF91EF91BF91AF919F918F917F917A
:102670006F915F914F913F912F910F900FBE0F90EF
:102680001F9018956F927F928F929F92AF92BF92F8
:10269000CF92DF92EF92FF920F931F93CF93DF932E
:1026A0000E943F105B016C0180EF91E00E940D1FC2
:1026B000F82E8FEE91E00E940D1F182F8EEE91E004
:1026C0000E940D1F2091300200911D0290911A026C
:1026D000482F445990538F2D612FE92E0E94711A73
:1026E0009B01AC0180913702833031F071E0E72E1D
:1026F000F12C012D112D05C064E0E62EF12C012DE9
:10270000112D6090980180913702833021F091E083
:10271000892E912C03C084E0882E912C7090270282
:1027200080913702833019F0C1E0D0E002C0C4E0EC
:10273000D0E0CA01B90120EA35E040E050E00E9453
:102740004D1EA80197010E944D1EA61AB70AC80A7D
:10275000D90A8CE3262D2802C00111249C01289D52
:10276000C001299D900D389D900D1124AA2797FD39
:10277000A095BA2FA81AB90ACA0ADB0A872D992789
:1027800087FD90959C01C29FC001C39F900DD29F71
:10279000900D1124AA2797FDA095BA2FA81AB90A5F
:1027A000CA0ADB0AA0928E01B0928F01C0929001FA
:1027B000D09291010E94C41080911A0220912C02A3
:1027C000992787FD90958D599F4F30E08217930789
:1027D000DCF520912C0280911A0230E0992787FDC8
:1027E00090958C599F4F2817390759F4209134023E
:1027F0008091300230E0992787FD9095281739079E
:102800001CF120912C0280911A0230E0992787FD5B
:1028100090958C599F4F28173907F1F42091340275
:102820008091300230E0992787FD9095281739076D
:1028300099F42091970180911D0230E0992787FD3E
:1028400090952817390744F410928E0110928F0149
:102850001092900110929101DF91CF911F910F91F1
:10286000FF90EF90DF90CF90BF90AF909F908F90B0
:102870007F906F9008954F925F926F927F928F92A8
:102880009F92AF92BF92CF92DF92EF92FF920F93FF
:102890001F93DF93CF93CDB7DEB728970FB6F89489
:1028A000DEBF0FBECDBF8AE0809392018DEE91E036
:1028B0000E940D1F809333028CEE91E00E940D1F49
:1028C0008093360282EF91E00E940D1FC82E83EFA5
:1028D00091E00E940D1FD82E81EF91E00E940D1F04
:1028E000E82E8BEE91E00E940D1F80932F0286EE62
:1028F00091E00E940D1F8093990189EE91E00E9462
:10290000151F909332028093310287EE91E00E946E
:10291000151F909329028093280210E00AE02CE50D
:10292000622E712C94E2492E512C8FE0A82EB12CEE
:10293000B3E28B2E912C80918B01882321F480911E
:102940008C01882319F00093920105C080919201B7
:10295000882309F4E7C080918B0180FD05C2809136
:102960008B0181FFF1C010928B01112331F4809112
:102970007A01882309F4F2C1EFC1113029F4809162
:102980007A01882339F012C0123071F480917A01F3
:10299000813031F480917A01882309F4DDC1DEC1F0
:1029A000882309F4D7C107C0113029F480917A0136
:1029B000813009F4CFC1812F8350843028F41F5F08
:1029C000143008F0BAC0B3C0173031F480912F0230
:1029D000823009F0C5C1C6C1183009F4C3C1609185
:1029E0001A02DE011196E3E5F1E088E001900D9214
:1029F0008150E1F780911A02A0903602B090330224
:102A0000EA2DF0E0EE0FFF1FEB0DF11DEC0FFD1FA7
:102A10005181992787FD90958C599F4F8E19910967
:102A2000252F30E02817390724F0E4E6FE2EF60EB5
:102A300002C0FE2CF50E83E680932E021091300228
:102A400000911D026091280270912902409131028B
:102A50005091320280912F020E947E19882E90910F
:102A60009801209127023091350200D000D0EDB7B7
:102A7000FEB731968CE6E80E5F2D5459809199018E
:102A8000ADB7BEB711968C939183228333838D2D7E
:102A90006C2D4E2D212FE52ECB2C0E948C1B80916E
:102AA00036028093370260911D020F900F900F90B5
:102AB0000F908FEE91E00E941B1F6091300280EF1B
:102AC00091E00E941B1F8EEE91E06F2D0E941B1F54
:102AD0006091270284EE91E00E941B1F6091980193
:102AE00085EE91E00E941B1F6091350283EE91E01C
:102AF0000E941B1F0E94421360918E0170918F01F2
:102B000080919001909191010E9409057894109212
:102B100089011092880180918801909189018C5DD2
:102B20009540C8F380917B0180932E021DC180E007
:102B30006D2D4C2D2E2D0E941E0382E0612F0E94D0
:102B40002802812F0E949A0480918B0182FD04C08B
:102B500080918C0182FFEFCE10928B01113051F4E5
:102B6000D3942CE02D1510F4DD24D39483EF91E061
:102B70006D2D17C0123051F4C3948FE18C1510F4F1
:102B8000CC24C39482EF91E06C2D0BC0133061F420
:102B90008E2D8F5F68EC0E946C1EE92E81EF91E014
:102BA0006E2D0E941B1F02C0143030F480E06D2D8A
:102BB0004C2D2E2D0E941E0382E0612F0E942802C0
:102BC000143059F460E080913302882309F461E005
:102BD000609333028DEE91E0A8C0153049F4609106
:102BE00036026F5F6370609336028CEE91E09DC099
:102BF000163031F580912F028F5F63E00E946C1ECA
:102C0000692F90932F02992349F490923202809277
:102C1000310250922902409228020FC0913049F4AB
:102C2000B0923202A0923102709229026092280280
:102C300004C010923202109231028BEE91E075C006
:102C40001730A9F520912F02222389F480913102B7
:102C50009091320205969093320280933102855909
:102C60009240F0F0909232028092310219C080912D
:102C7000310290913202213069F40396909332022E
:102C8000809331028D52914058F0B0923202A0925E
:102C9000310206C001969070909332028093310207
:102CA000609131027091320289EE91E02FC01830AC
:102CB00081F580912F02882389F4809128029091D8
:102CC0002902019690932902809328028937910561
:102CD000B8F0509229024092280212C0813081F44B
:102CE0008091280290912902019690932902809365
:102CF00028028253914020F07092290260922802AB
:102D0000609128027091290287EE91E00E94291FAC
:102D10000EC0193061F460E080919901882309F4B4
:102D200061E06093990186EE91E00E941B1F812F64
:102D30000E949A0480918C0182FFFDCD78941092BC
:102D40008901109288018091880190918901CC9726
:102D5000D0F3F1CD13E0EBCE12E0E9CE11E0E7CEF7
:102D600018E0EBCE19E0E9CE28960FB6F894DEBF56
:102D70000FBECDBFCF91DF911F910F91FF90EF90CC
:102D8000DF90CF90BF90AF909F908F907F906F908B
:102D90005F904F9008957F928F929F92AF92BF92D3
:102DA000CF92DF92EF92FF920F931F9315BC569A2A
:102DB0005E9884B714BE90E00E94B71888E10FB601
:102DC000F89480936000109260000FBE2FE088E1BD
:102DD00090E00FB6F894A895809360000FBE209302
:102DE0006000A89511E010937D0110927E0187E6A6
:102DF00090E00E943E188AE091E00E9481188BE1E9
:102E000091E00E94811880E890E00E94D41887E049
:102E100091E00E94811888E480BF80ED97E00197DF
:102E2000F1F700B605FE06C080B7806180BF0E9442
:102E3000B90E37C00E94FD015B98109369001DBB5D
:102E400010922E0281E58CBD87EF91E00E940D1F4C
:102E50000E940803789482EE91E00E940D1F8093F7
:102E60005201845F893110F01092520181EE91E09D
:102E70000E940D1F809380018D3310F0109280010D
:102E800085EF91E00E940D1F80937A010E94880EC9
:102E900080EA9FE061E00E94C1020E94B90E0E9498
:102EA000EB05BCE08B2EA3E67A2EF7E09F2EE4E044
:102EB000BE2E7BE0A72E66E0C62E58E0E52E4DE044
:102EC000D42E05E033E0F32E1EE0A89500B605FEF3
:102ED00003C00E94D101F9CF80918B0180FF7BC09C
:102EE00010928B0180912E02863009F450C08730F9
:102EF00068F4833089F1843018F48823C9F084C0E1
:102F00008430F9F0853009F07FC02FC08C3081F01B
:102F10008D3038F4873009F443C0883009F074C02C
:102F200048C08D3009F44EC08E3009F06DC026C007
:102F3000B0922E028AEE92E00E94D5030E947C0C91
:102F40007DC0F0922E0281EE92E00E94D5030E9495
:102F5000D70B10927D0172C000932E0288ED92E093
:102F60000E94D5030E94361269C010932E028FEC86
:102F700092E00E94D5030E94570B60C0C0922E02BF
:102F800086EC92E00E94D5030E94B20F57C0909247
:102F90002E028DEB92E00E94D5030E945D0F4EC081
:102FA000E0922E0284EB92E00E94D5030E940E0F65
:102FB00045C0D0922E028BEA92E00E94D5030E9477
:102FC0006D063CC0A0922E0282EA92E00E94D503D8
:102FD0000E943B1433C080918B0181FF1AC0109274
:102FE0008B0170922E0281E00E944211A895789484
:102FF0001092890110928801809188019091890135
:103000008C5D9540C8F3A89580917B0180932E023A
:1030100015C080918B0182FF11C010928B018091AD
:103020007B01882319F480927B0102C010927B01FE
:1030300080917B0180932E020E9442138091C000F8
:1030400087FF43CF0E94750D40CF06C090E000007F
:103050009F5F9E31E1F781508823C1F7089548ECC6
:1030600050E009C020E137E2FA013197F1F7215031
:103070003040D1F781508823A9F708959093C50077
:103080008093C40088E18093C1008EE08093C200E9
:10309000519A50980895982F8091C00085FFFCCFD9
:1030A0009093C60080E090E008958091C00087FF73
:1030B000FCCF8091C60008958091C000807808956B
:1030C000AC0120E007C08091C00085FFFCCF3093A9
:1030D000C6002F5FFA01E20FF11D3491332399F7F7
:1030E000662371F08091C00085FFFCCF8AE0809359
:1030F000C6008091C00085FFFCCF8DE08093C600A4
:103100000895FC0107C08091C00085FFFCCF319677
:103110009093C60090819923B1F70895282F982F96
:1031200092959F709A3030F48091C00085FFFCCF5B
:10313000905D05C08091C00085FFFCCF995A9093A7
:10314000C600822F90E08F7090700A973CF48091B7
:10315000C00085FFFCCF2F70205D06C08091C000AD
:1031600085FFFCCF2F70295A2093C60008951F9326
:10317000182F892F0E948E18812F0E948E181F9160
:103180000895EF92FF920F931F937B018C01C8016A
:10319000AA27BB270E94B718C7010E94B7181F9122
:1031A0000F91FF90EF9008950F931F93CF93DF93AC
:1031B0008C01E0E1F7E240E0C0E0D0E0C801BF01EF
:1031C0000E94851E262F662329F4442319F4E1303A
:1031D000F10549F48091C00085FFFCCF205D20936C
:1031E000C600205341E0CF016AE070E00E94851ED6
:1031F0002196C530D10571F0822F90E09C012E9F61
:10320000C0012F9F900D3E9F900D1124081B190B9C
:10321000FB01D4CFDF91CF911F910F9108954F9271
:103220005F926F927F928F929F92AF92BF92CF9256
:10323000DF92EF92FF920F931F93CF93DF934B0197
:103240005C01E12C9AECF92E9AE9092F9BE3192FE6
:103250004424C0E0D0E0C501B401A80197010E9458
:10326000AC1ED22E222341F4442031F481E0E81632
:10327000F1040105110561F48091C00085FFFCCFC8
:1032800080E3D80ED092C60080EDD80E442443943B
:10329000C801B7012AE030E040E050E00E94AC1ED7
:1032A000C22E732E642E552E2196CA30D105A9F058
:1032B0006D2D70E080E090E0A80197010E944D1E06
:1032C000861A970AA80AB90A2C2D372D462D552D96
:1032D000C901DA017C018D01BECFDF91CF911F9131
:1032E0000F91FF90EF90DF90CF90BF90AF909F90A5
:1032F0008F907F906F905F904F900895EF92FF9224
:103300000F931F937B01882341F4BA0180E090E082
:103310002FEB32E040E050E009C0813011F5BA01F6
:1033200080E090E020E137E240E050E00E944D1E56
:1033300000E010E0A80197010E94AC1ECA01B9018B
:10334000A80197010E94AC1EC901DA018F3F9105C7
:10335000A105B10539F030F08FEF90E0A0E0B0E0CA
:1033600001C0842F1F910F91FF90EF9008952F922D
:103370003F924F925F926F927F928F929F92AF9205
:10338000BF92CF92DF92EF92FF920F931F93CF9352
:10339000DF93EC01288039804A805B806C807D80DF
:1033A0008E809F80AA24BB246501F501E370F07034
:1033B000EE0FFF1FEE0FFF1FE959FE4FE080F18077
:1033C00002811381EA0CFB1C0C1D1D1DD401C301DD
:1033D00075E0B695A795979587957A95D1F7A4014D
:1033E000930164E0220F331F441F551F6A95D1F7E4
:1033F00082279327A427B527860D971DA81DB91DE1
:10340000E826F9260A271B272E0C3F1C401E511EBA
:1034100089EB99E7A7E3BEE9A80EB91ECA1EDB1E19
:10342000A2019101F5E05695479537952795FA95B4
:10343000D1F7D201C101E4E0880F991FAA1FBB1F79
:10344000EA95D1F7282739274A275B27220D331D14
:10345000441D551DD601C5017BE0B695A7959795EE
:1034600087957A95D1F783709070880F991F880F90
:10347000991F89599E4FFC0180819181A281B3815E
:103480008A0D9B1DAC1DBD1D282739274A275B27A8
:10349000620E731E841E951EF0E2AF16F7E3BF06A0
:1034A000FFEECF06F6ECDF0609F07FCF28823982E7
:1034B0004A825B826C827D828E829F82DF91CF9175
:1034C0001F910F91FF90EF90DF90CF90BF90AF9042
:1034D0009F908F907F906F905F904F903F902F9034
:1034E00008955F926F927F928F929F92AF92BF9258
:1034F000CF92DF92EF92FF920F931F93CF93DF93C0
:10350000982E362F842E622E502E7E2CE41620F01C
:10351000E41691F4281780F4862D652D472D292D6A
:10352000032FE82C0E94711A22273327A901261B9A
:10353000370B480B590BDEC0961469F4871409F059
:1035400051C0852D90E0831B91099C01442737FDD4
:103550004095542FCFC0871409F044C0C92DD0E046
:10356000FE01E65AFE4F808190E0831B91097C01A9
:103570000027F7FC0095102F82E0981641F4882D63
:1035800090E00E948002E80EF11C011D111D8BE5E8
:10359000A82E81E0B82EAC0EBD1ECC24DD24C92D92
:1035A000D0E02196772417C0F5018081E80EF11C48
:1035B000011D111D2230310541F4882D90E00E943B
:1035C0008002E80EF11C011D111D0894C11CD11CC4
:1035D0000894A11CB11C9E012C0D3D1D261537051C
:1035E0001CF382C0C92DD0E0FE01E65AFE4F808157
:1035F00090E0831B91097C010027F7FC0095102FB8
:10360000F2E09F1641F4882D90E00E948002E80EBF
:10361000F11C011D111DBBE5AB2EB1E0BB2EAC0EA4
:10362000BD1ECC24DD24C92DD0E0219617C0F501A4
:103630008081E80EF11C011D111D2230310541F47D
:10364000882D90E00E948002E80EF11C011D111DE2
:103650000894C11CD11C0894A11CB11C9E012C0D06
:103660003D1D2D3031051CF3882D90E06C01089430
:10367000C11CD11CC0E0D0E04C01A72CBB2411C060
:10368000C6010E94800290E083599E4FAA2797FDB1
:10369000A095BA2FE80EF91E0A1F1B1F0894C11C23
:1036A000D11C2196CE01880D991D8A159B0544F3E6
:1036B000C1E0D0E0C62CDD2414C0FE01E65AFE4F66
:1036C0008081E80EF11C011D111DC230D10541F4AD
:1036D000872D90E00E948002E80EF11C011D111D53
:1036E0002196CC15DD054CF3A8019701250D311D60
:1036F000411D511DB901CA01DF91CF911F910F9159
:10370000FF90EF90DF90CF90BF90AF909F908F9001
:103710007F906F905F9008954F925F926F927F922B
:103720008F929F92AF92BF92CF92DF92EF92FF92D1
:103730000F931F93DF93CF93CDB7DEB728970FB6C4
:10374000F894DEBF0FBECDBFE82FF42F722F5C2C94
:103750004A2C8A2D8150823008F040C030E040E091
:1037600050E03961802F90E0A0E0B0E0B82FAA27A8
:1037700099278827282B392B4A2B5B2B8E2D90E0FD
:10378000A0E0B0E0DC0199278827282B392B4A2BB1
:103790005B2B29833A834B835C832C8D30E040E0A4
:1037A00050E0542F432F322F22278D8D90E0A0E040
:1037B000B0E0282B392B4A2B5B2B426B8E8D90E08F
:1037C000A0E0B0E0B82FAA2799278827282B392B0B
:1037D0004A2B5B2B2D833E834F8358878E2F4F2F91
:1037E000272F0E94711A2AE030E040E050E00E944A
:1037F0004D1E7B018C0125E43EE040E050E00E943C
:10380000AC1E3901552029F026E33BE644E050E0A8
:1038100004C02AE83CE144E050E059016A01AE18D6
:10382000BF08C00AD10A882D90E08E3291051CF0A5
:103830008DE290E005C08831910514F488E190E0B4
:1038400078EE872E7FEF972E880E991E43E0441660
:1038500009F0C3C0552009F05FC089E190EFADEFDA
:10386000BFEFA80EB91ECA1EDB1E9B8D913059F505
:1038700046EC51E020E030E0FA0185919491681621
:103880007906D0F4F901EE0FFF1FEE0FFF1FE8538A
:10389000FE4F25913491C90153E0880F991F5A9525
:1038A000E1F7220F331F820F931FA0E0B0E0A81AA8
:1038B000B90ACA0ADB0A07C02F5F3F4F4C5F5F4F50
:1038C00023303105C9F68BE291E00E940D1F90E094
:1038D000681679061CF480E090E00BC082E491E069
:1038E0000E940D1F90E0681679060CF0ACC187E1CC
:1038F00090E0880E991EC401845D9E4F0E940D1FAA
:1039000090E025E43EE0DC01A29FC001A39F900D62
:10391000B29F900D112454C08CE495ECADEFBFEF35
:10392000A80EB91ECA1EDB1E92EDE92E91E0F92EFB
:1039300000E010E0C7010E94151F68167906D0F458
:10394000000F111F000F111FC8018C529E4F0E94C3
:10395000151F9C0103E0880F991F0A95E1F7220FBC
:10396000331F820F931FA0E0B0E0A81AB90ACA0A59
:10397000DB0A09C00F5F1F4FA4E0B0E0EA0EFB1E98
:1039800003301105B9F600E010E0C801875A9E4FD8
:103990000E940D1F90E068167906CCF4800E911EEF
:1039A000C401865A9E4F0E940D1F90E025E43EE020
:1039B000AC01429FC001439F900D529F900D112476
:1039C000A0E0B0E0A81AB90ACA0ADB0A3CC1095E45
:1039D0001F4F05341105C9F636C1552009F04BC0FB
:1039E0005B8D513079F5B8E1EB2EB3E0FB2E00E0B2
:1039F00010E0C7010E94151F68167906D0F4000F69
:103A0000111F000F111FC801865E9C4F0E94151FD9
:103A10009C01F3E0880F991FFA95E1F7220F331FFD
:103A2000820F931FA0E0B0E0A81AB90ACA0ADB0A05
:103A300009C00F5F1F4F84E090E0E80EF91E0B30C5
:103A40001105B9F600E010E0C801805090400E94D6
:103A50000D1F90E06816790644F4800E911EC40193
:103A60008F5F9F4F0E940D1F4AC0095E1F4F0A388B
:103A7000110551F75BC0BB8DB13079F57EE9E72EBA
:103A800071E0F72E00E010E0C7010E94151F6816D4
:103A90007906D0F4000F111F000F111FC8018056C6
:103AA0009E4F0E94151F9C0153E0880F991F5A9545
:103AB000E1F7220F331F820F931FA0E0B0E0A81A96
:103AC000B90ACA0ADB0A09C00F5F1F4F44E050E081
:103AD000E40EF51E0A301105B9F600E010E0C80149
:103AE00086579F4F0E940D1F90E068167906CCF410
:103AF000800E911EC40185579F4F0E940D1F90E0BC
:103B000025E43EE0DC01A29FC001A39F900DB29F7F
:103B1000900D1124A0E0B0E0A81AB90ACA0ADB0A85
:103B200005C0095E1F4F013A1105C9F6B2E04B16F8
:103B300009F042C02DEAE22E2EE8F22E012D112DC1
:103B4000EA0CFB1C0C1D1D1D89819A81AB81BC8177
:103B50008E259F25A027B12789839A83AB83BC83B9
:103B6000CE0101960E94B71969817A818B819C816F
:103B70007F778070907028EE33E040E050E00E9444
:103B80004D1E2FEF3FE740E050E00E94AC1ECA01FF
:103B9000B90126E036ED40E050E00E944D1E28EECF
:103BA00033E040E050E00E94AC1E59016A01AE0CC7
:103BB000BF1CC01ED11E47C041E0441609F043C0DF
:103BC0009CEFE92E99E2F92E9FEF092F9FEF192F15
:103BD000EA0CFB1C0C1D1D1D8D819E81AF81B885DB
:103BE0008E259F25A027B1278D839E83AF83B8871D
:103BF000CE0101960E94B7196D817E818F819885D3
:103C00007F778070907028EE33E040E050E00E94B3
:103C10004D1E2FEF3FE740E050E00E94AC1ECA016E
:103C2000B90122EB3EE840E050E00E944D1E28EE34
:103C300033E040E050E00E94AC1E57016801A21A38
:103C4000B30AC40AD50AD7FE05C020E030E040E040
:103C500050E00AC0C601B50120E930E040E050E084
:103C60000E944D1E9B01AC01B901CA0128960FB6F6
:103C7000F894DEBF0FBECDBFCF91DF911F910F91A2
:103C8000FF90EF90DF90CF90BF90AF909F908F907C
:103C90007F906F905F904F900895629FD001739FC7
:103CA000F001829FE00DF11D649FE00DF11D929FD8
:103CB000F00D839FF00D749FF00D659FF00D992717
:103CC000729FB00DE11DF91F639FB00DE11DF91F3B
:103CD000BD01CF0111240895991B79E004C0991FFB
:103CE000961708F0961B881F7A95C9F78095089556
:103CF00087FB082E062687FD819567FD6195ECDF21
:103D00000EF4919507FC81950895AA1BBB1B51E108
:103D100007C0AA1FBB1FA617B70710F0A61BB70B3B
:103D2000881F991F5A95A9F780959095BC01CD01E0
:103D3000089597FB092E07260AD077FD04D0E5DF0A
:103D400006D000201AF4709561957F4F0895F6F71C
:103D5000909581959F4F0895A1E21A2EAA1BBB1B37
:103D6000FD010DC0AA1FBB1FEE1FFF1FA217B30747
:103D7000E407F50720F0A21BB30BE40BF50B661F5D
:103D8000771F881F991F1A9469F760957095809521
:103D900090959B01AC01BD01CF01089597FB092EC1
:103DA00005260ED057FD04D0D7DF0AD0001C38F40A
:103DB00050954095309521953F4F4F4F5F4F089557
:103DC000F6F790958095709561957F4F8F4F9F4F37
:103DD0000895FC018191861721F08823D9F799274E
:103DE00008953197CF010895FB01DC018D91019079
:103DF00080190110D9F3990B0895FB01DC010D9096
:103E00000020E9F711974150504028F00190002020
:103E10000D92C9F708951C920895F999FECF92BDAD
:103E200081BDF89A992780B50895A8E1B0E042E0F5
:103E300050E00C94301F262FF999FECF1FBA92BD87
:103E400081BD20BD0FB6F894FA9AF99A0FBE01967B
:103E500008950E941B1F272F0C941C1FDC01CB010F
:103E6000FC01F999FECF06C0F2BDE1BDF89A31968A
:103E700000B40D9241505040B8F70895F894FFCF28
:103E8000244750524D43000A0D000A0D48656C6CE2
:103E90006F20576F726C64210A0D000A0D4275661F
:103EA0006665722073697A652069733A0900FA3E83
:103EB0001A7ADE8EF62E6078AE1CAA2A3ACEF30A63
:103EC000B61E3838B86E76DAFC60DAF266B6BEE056
:103ED000FEE6F8484E393F525823261F1C1F1E1F6E
:103EE0001E1F1F1E1F1E1FC46C28A8CA916B709E28
:083EF000639393D9E791FE00F2
:00000001FF
