:100000000C945E010C942B120C947B010C945F06F3
:100010000C947B010C94B3060C947B010C947B0133
:100020000C947B010C94AC0C0C947B010C947B0124
:100030000C947B010C947B010C947B010C947B0150
:100040000C94C0070C947B010C947B010C947B01F5
:100050000C947B010C947B010C947B010C944C0C54
:100060000C947B010C947B01FA3E1A7ADE8EF62EFC
:100070006078AE1CAA2A3ACEF30AB61E3838B86E9B
:1000800076DA6800FC60DAF266B6BEE0FEE684006E
:1000900003070809060A050C0490000B10120F0D47
:1000A0000E11139B0014000000000000000000006F
:1000B0000000000000000000000000002800000018
:1000C0000001010101020202030303040404050507
:1000D00006060832000000000001010101020202D0
:1000E000020303040404050505073C0000000000AA
:1000F00000010101010202020303030404040505D7
:100100000646000000000101010101020202020393
:100110000303040404040000C80000000000000001
:1001200000000000000000000000000000000514B6
:1001300000000000000000000000000000000000BF
:100140000000000000001E00000001010101020289
:100150000303030404050506060707080D2800002D
:100160000001010101020202030303040405050664
:100170000606070B32000000000001010102020226
:10018000030303040404050506060A3C00000000FE
:100190000000000101010102020203030304040440
:1001A00005074600000000000000000101010102F7
:1001B000020202020303030305C80000000000005E
:1001C0000000000000000101010101010101020223
:1001D000140000000000000000000000000000000B
:1001E00000000000000000C8000000000000000047
:1001F00001010101010102020202020303041400D1
:1002000000000000000000000000000000000000EE
:1002100000000000001E00000000000000010101BD
:10022000010102020202030303030406C8000000E6
:1002300000000000010101010101020202020303AA
:10024000030305190000001E00B30A23008F0A28CB
:1002500000FD092D00D80932006A093700D9083C91
:1002600000FE074100FE0646004706C800B5041917
:100270000000001E003F092D001B093200F6083760
:1002800000D1083C0090084100F606460022074BCA
:10029000006505C8004804190000001E00FE04C8DF
:1002A00000DA04190000001E009005C8006C051F4C
:1002B0001C1F1E1F1E1F1F1E1F1E1F0011241FBEDE
:1002C000CFEFD4E0DEBFCDBF13E0A0E0B1E0EAE0C5
:1002D000FDE302C005900D92A839B107D9F713E0EC
:1002E000A8E9B3E001C01D92AE3CB107E1F70E945E
:1002F0009A160C94831E0C9400009C017894109222
:10030000A7031092A6038091A6039091A7038217DA
:100310009307C8F30895A895089581E080939C03FE
:100320005B9A8CB58F7B8CBD85B1877D85B95E98D6
:1003300015BC1092B9031092680085B1897F85B908
:100340008BB18F7C8BB928988AB18F7C8AB9209821
:100350005A985298E1E6F0E090E8908388E0808334
:10036000449A83B7876083BF8895908310824498AE
:1003700008958EE284B988E48AB989E187B984E373
:100380008BB991E095B985E08093680090936B00FC
:1003900080E380936D000895FC0183709070892B39
:1003A00039F4CF0164E670E00E94EE1D892B49F418
:1003B00020E030E0CF0160E971E00E94EE1D892B62
:1003C00011F421E030E0822F089510928000109205
:1003D0008100299A2A9878941092A7031092A60374
:1003E0008091A6039091A7030A97D0F32A9A29989F
:1003F00078941092A7031092A6038091A60390917F
:10040000A7030A97D0F385B1897F85B982EB8093E2
:10041000800088E18093810008951F93162F9C012E
:1004200040E050E060E472E48FE090E00E94371E0C
:1004300030938700209386008091860090918700FA
:100440009695879590938B0080938A0080918A007F
:1004500090918B00909389008093880028EC30E085
:100460001CC08091810082608093810080ED97E0C4
:10047000F9013197F1F70197D9F7809181008D7FCC
:100480008093810085B1897F85B980ED97E0F9017E
:100490003197F1F70197D9F71150112311F785B171
:1004A000897F85B91F9108958B3510F08AE503C0C7
:1004B0008E3108F48EE187BD83E084BD81E085BD87
:1004C00084B5806884BD80916E00816080936E00E9
:1004D00078940895282F1092BB03882319F58091F2
:1004E000B70364E60E94E21D90E043966AE070E084
:1004F0000E94021EFB01EC57FF4FE491E093C00302
:100500008091B70364E60E94E21D90E043966AE0A2
:1005100070E00E94021EFC01EC57FF4FE491E09353
:10052000C10305C082E08093BE038093C103809124
:100530009A03A22FB0E0882379F58091CA036AE07C
:100540000E94E21DE82FF0E0EC57FF4FE491E093AA
:10055000BC038091CA030E94E21DE92FF0E0EC5732
:10056000FF4FE491E093BD038091BA030E94E21D26
:10057000E82FF0E0EC57FF4FE491A554BC4F1396E1
:10058000EC9313978091BA030E94E21DE92FF0E0EB
:10059000EC57FF4FE4912EC08091BA036AE00E94AD
:1005A000E21DE82FF0E0EC57FF4FE491E093BC032D
:1005B0008091BA030E94E21DE92FF0E0EC57FF4F53
:1005C000E491E093BD038091CA030E94E21DE82FED
:1005D000F0E0EC57FF4FE491A554BC4F1396EC9319
:1005E00013978091CA030E94E21DE92FF0E0EC57B7
:1005F000FF4FE4911496EC938091B70364E60E9458
:10060000E21D892F6AE00E94E21DE82FF0E0EC571E
:10061000FF4FE491E093C2038091B70364E60E9428
:10062000E21D892F6AE00E94E21DE92FF0E0EC57FD
:10063000FF4FE491E093C3030895982F80919A03AC
:10064000882309F03BC09C3058F08091BB03816047
:100650008093BB03E7E7F0E0E491E093C2030AC0B4
:10066000E8E6F0E0E491E093C2038091BB038E7F63
:100670008093BB03E4E7F0E0E491E093C303892FA8
:1006800090E00B966CE070E00E94021E9C012F5FD0
:100690003F4FC9016AE070E00E94021EFC01EC5766
:1006A000FF4FE491E093BD03C9016AE070E00E944E
:1006B000021EFB01EC57FF4FE4911EC0892F90E012
:1006C000479668E170E00E94021E9C012F5F3F4F39
:1006D000C9016AE070E00E94021EFC01EC57FF4F66
:1006E000E491E093BD03C9016AE070E00E94021E3C
:1006F000FB01EC57FF4FE491E093BC0308950F9387
:100700001F93062F142F0E941D03812F6AE00E9461
:10071000E21D24E830E0F901E90FF11DE491E093D6
:10072000C303812F0E94E21DF901E80FF11DE4913E
:10073000E093C2031092C103802F0E94E21DF901D1
:10074000E90FF11DE491E093C003802F0E94E21DA8
:10075000280F311DF90184918093BF031092BE03CD
:100760001F910F910895AC011092BB0321E030E07E
:10077000A22FB0E0FA01EA0FFB1FE30FF11D319742
:10078000E081EE2339F18E2F81568A3128F4F0E092
:10079000E95FFF4FE49108C08E2F80538A3040F408
:1007A000F0E0EC5AFF4FE491A554BC4FEC930FC01E
:1007B000EE3251F42150E22FF0E0E554FC4F8081FD
:1007C000816080833F5F03C0A554BC4F1C922F5FA4
:1007D000293070F20895CF93DF93EB011092BB03A1
:1007E000882309F03BC080E091E00E94B303CE0172
:1007F00068E770E00E94EE1DFB01EC57FF4FE491AB
:10080000E093BC03CE016CE070E00E94EE1DCB01D2
:100810006AE070E00E94EE1DFC01EC57FF4FE4918E
:10082000E093BD03CE016CE070E00E94EE1D9C01E0
:100830006AE070E00E94EE1DFB01EC57FF4FE4916F
:10084000E093C203C9016AE070E00E94EE1DFC0162
:10085000EC57FF4FE491E093C30329C089E091E096
:100860000E94B303CE0164E670E00E94EE1DFB011E
:10087000EC57FF4FE491E093BC03CE0164E670E0D7
:100880000E94EE1D6AE070E00E94EE1DFB01EC5735
:10089000FF4FE491E093BD03CE016AE070E00E9457
:1008A000EE1DFC01EC57FF4FE491E093BE03DF9196
:1008B000CF910895CF93DF93EB011092BB03882370
:1008C00019F482E191E007C0813019F48BE191E0E5
:1008D00002C084E291E00E94B303CE0164E670E0BE
:1008E0000E94EE1DFB01EC57FF4FE491E093BC0327
:1008F000CE0164E670E00E94EE1D6AE070E00E94A6
:10090000EE1DFB01EC57FF4FE491E093BD03CE01D8
:100910006AE070E00E94EE1DFC01EC57FF4FE4918D
:10092000E093BE03DF91CF910895EF92FF920F9372
:100930001F93CF93DF937B018C01161617061806C1
:1009400019060CF5C3ECD3E0C801B7012AE030E08A
:1009500040E050E00E94371EFB01EC57FF4F6491CE
:100960006883C801B7012AE030E040E050E00E940F
:10097000371EC901DA017C018D01219783E0CB3B51
:10098000D80711F704C08DE291E00E94B303DF9114
:10099000CF911F910F91FF90EF900895EF92FF92EA
:1009A0000F931F93B82FA62F80919B038C3009F0D3
:1009B0006FC08091C903843009F46AC0E090AC0331
:1009C000F090AD030091AE031091AF038091B60398
:1009D000B81740F08091B6038B1709F58091C403D6
:1009E0006817E8F42091B6036091C4038091CD03A9
:1009F000833019F041E050E002C044E050E030E0C4
:100A000084EC9FEFFC012E9FC0012F9F900D3E9F15
:100A1000900D1124861B910980569A4F1AC020917F
:100A2000B6036091C4038091CD03833019F041E097
:100A300050E002C044E050E030E084EC9FEFFC0165
:100A40002E9FC0012F9F900D3E9F900D1124861B5D
:100A500091092CE3B29F90011124820F931F8A0FFA
:100A6000911D9C01429FC001439F900D529F900D8C
:100A70001124AA2797FDA095BA2FA8019701281B3A
:100A8000390B4A0B5B0BCA01B9010E94950420C0C7
:100A90001092C3031092C2031092C1038A2F6AE01E
:100AA0000E94E21DE92FF0E0EC57FF4FE491E09344
:100AB000C0038A2F0E94E21DE82FF0E0EC57FF4FA1
:100AC000E491E093BF031092BE038B2F0E941D039D
:100AD0001F910F91FF90EF9008954A9B36C080912F
:100AE000C503882309F049C081E08093C5031092B3
:100AF000A5031092A40386E391E00E94B30389E06A
:100B00008093C90378941092A7031092A603809152
:100B1000A6039091A703885E9340C8F38091C60313
:100B20006091B8030E94CE0478941092A7031092AB
:100B3000A6038091A6039091A703805D9740C8F318
:100B400080919B038093C90308958091C5038823F6
:100B5000A1F01092C5031092A5031092A4038091F6
:100B6000C803882351F01092C803809181008D7FC3
:100B70008093810085B1866085B90895CF92DF9218
:100B8000EF92FF921F93DF93CF93CDB7DEB7C05E96
:100B9000D0400FB6F894DEBF0FBECDBFDE01119678
:100BA000EFE3F1E080EE01900D928150E1F783E6F2
:100BB0008093C90310E039E0C32ED12CCC0EDD1E8A
:100BC0007E010894E11CF11C18C08091A9038D7F5F
:100BD0008093A903C701820F931F0E94B3037894E7
:100BE0001092A7031092A6038091A6039091A703E9
:100BF0008D549140C8F31F5FA895212F30E0F60176
:100C0000E20FF31F8081882301F780919B0380937B
:100C1000C903C052DF4F0FB6F894DEBF0FBECDBF81
:100C2000CF91DF911F91FF90EF90DF90CF900895CB
:100C30008AE08093B0039AE08091A90380FD20C0F0
:100C40008091A903882321F48091AA03882319F0B5
:100C50009093B00309C08091B003882329F4809158
:100C60009B038093C90308958091A903867021F3A3
:100C70001092A9030E94BE0580919B038093C90333
:100C8000089588E592E09093A5038093A4038FE1F3
:100C900092E00E94B30389E08093C9037894109294
:100CA000A7031092A6038091A6039091A703885EE4
:100CB0009340C8F380919B038093C90308951F92CA
:100CC0000F920FB60F9211242F933F934F935F9380
:100CD0006F937F938F939F93AF93BF93EF93FF9304
:100CE000109268007894189925C08091A80381FD1E
:100CF00026C078941092A7031092A6038091A603B1
:100D00009091A7030A97D0F3189919C00E94E501A2
:100D10008091C803882319F00E94410610C0809179
:100D2000A80382608093A8038091A90382608093C6
:100D3000A90305C08091A8038D7F8093A80385E057
:100D400080936800FF91EF91BF91AF919F918F9138
:100D50007F916F915F914F913F912F910F900FBEB7
:100D60000F901F9018951F920F920FB60F9211249B
:100D70002F933F934F935F936F937F938F939F93A3
:100D8000AF93BF93EF93FF931092680078944D99BF
:100D900022C08091A80380FD23C078941092A703FD
:100DA0001092A6038091A6039091A7030A97D0F30F
:100DB0004D9959C00E94E5018091C8038823A1F58F
:100DC0008091A80381608093A8038091A90381602A
:100DD0008093A90305C08091A8038E7F8093A80308
:100DE0004C993AC08091A80382FD3DC0789410923E
:100DF000A7031092A6038091A6039091A7030A97D8
:100E0000D0F34C9930C082E08093AB0316C04C9B6A
:100E100014C00E94E5018091A8038B7F8093A803F2
:100E20008091C803882319F00E9441061CC080915C
:100E3000A90384608093A90316C08091AB03882323
:100E400031F78091A80384608093A8038091AA035E
:100E500084608093AA0307C01092AA038091A8031C
:100E60008B7F8093A80385E080936800FF91EF91CA
:100E7000BF91AF919F918F917F916F915F914F91B2
:100E80003F912F910F900FBE0F901F90189581E505
:100E90008CBD08959B01AC01F894CA01AA27BB2719
:100EA0008EBD0DB407FEFDCFBB27A52F942F832F3A
:100EB0008EBD0DB407FEFDCF2EBD0DB407FEFDCFD8
:100EC000409A409878940895AF92BF92CF92DF9263
:100ED000EF92FF920F931F93E82FF0E0E057FF4F40
:100EE000E49181E090E002C0880F991FEA95E2F753
:100EF0007C010027F7FC0095102F2091B103309161
:100F0000B2034091B3035091B403A0E0B0E070E0AD
:100F1000E1E0AE2EB12CC12CD12CCB010A2E02C0A7
:100F2000959587950A94E2F780FF11C0FD01E5567B
:100F3000FF4FE491A601950104C0220F331F441F07
:100F4000551FEA95D2F7E22AF32A042B152B1196A6
:100F5000A830B10511F72093B1033093B203409349
:100F6000B3035093B403C801B7010E944A071F910D
:100F70000F91FF90EF90DF90CF90BF90AF900895CA
:100F80001F920F920FB60F9211242F933F934F93FE
:100F90005F936F937F938F939F93AF93BF93EF93E1
:100FA000FF937894A8958091A0039091A103019656
:100FB0009093A1038093A003819708F46CC01092D2
:100FC000A1031092A0038091A6039091A70301961C
:100FD0009093A7038093A60380919F03893010F01C
:100FE00010929F0380919F03E82FF0E0E554FC4F9F
:100FF00060810E94640780919F038F5F80939F03AD
:101000008091C803882309F446C08091A40390917D
:10101000A503892B09F03FC08091A2039091A303FF
:1010200001969093A3038093A2038536910598F1CE
:101030001092A3031092A2038AEF90E0909387008E
:101040008093860080918600909187009695879581
:1010500090938B0080938A0080918A0090918B00FE
:1010600090938900809388008091C803807F49F025
:101070008091C8038F708093C803809181008D7F19
:1010800008C08091C803806F8093C803809181005D
:10109000826080938100FF91EF91BF91AF919F910A
:1010A0008F917F916F915F914F913F912F910F9011
:1010B0000FBE0F901F9018958EBD0DB407FEFDCF8B
:1010C00008958AE090E00E94521E8093B90385B192
:1010D000866085B982E3809380008091B90388237C
:1010E00029F08091800080688093800088E180935F
:1010F00081008AEF90E09093870080938600809132
:1011000086009091870096958795909389008093AB
:101110008800809188009091890090938B00809343
:101120008A00089584E090E00E94521E68E10E94C7
:10113000E21D9093B60385E090E00E94521E6CE39E
:101140000E94E21D9093C40386E090E00E94521E2C
:101150006CE30E94E21D9093CC0388E090E00E9433
:10116000521E6CE30E94E21D9093B80387E090E06A
:101170000E94521E68E10E94E21D9093C60381E026
:1011800090E00E94521E64E60E94E21D9093B70315
:1011900082E090E00E94521E6DE00E94E21D90935A
:1011A000CA0383E090E00E94521E8F718093BA03BD
:1011B00091E090939E03E6EBF0E080818062808373
:1011C00085E08093B10090937000789408958091A9
:1011D0009C038823A9F180E880936100109261004C
:1011E00010929C0380E49CE90197F1F700B605FC9E
:1011F00027C00E94B90189E090E00E94521E0E941F
:10120000540281E58CBD5B9843988AE090E00E948F
:10121000521E8093B9030E946108A8950E946D0533
:1012200080E793E061E00E940D0280EE96E061E0CD
:101230000E940D0280EC9DE061E00E940D02A895E5
:1012400008950F931F938AE08093B0038BE090E0A2
:101250000E94521E80939A0310E00AE001C010E041
:101260008091A903882321F48091AA03882319F08F
:101270000093B00304C08091B0038823C9F080912B
:10128000A90380FD3AC08091A90381FF16C0109286
:10129000A903112369F480919A03882319F488E241
:1012A00092E002C081E392E00E94B30311E005C026
:1012B00080919B038093C90320C08091A90382FF82
:1012C000CFCF1092A903113051F690E080919A038C
:1012D000882309F491E090939A03992319F488E202
:1012E00092E002C081E392E00E94B3038BE090E0C1
:1012F00060919A030E94601EB3CF1F910F910895D1
:10130000EF92FF920F931F938AE08093B0038AE0DD
:1013100090E00E94521EF82E00E0BAE0EB2E01C0D1
:1013200000E08091A903882321F48091AA038823F7
:1013300019F0E092B00304C08091B003882369F1F2
:101340008091A90380FD68C08091A90381FF2AC014
:101350001092A903002309F5FF2051F08AE392E0DF
:101360000E94B3038091C00381608093C00304C0D6
:1013700083E492E00E94B3038091C1038160809373
:10138000C1038091C20381608093C2038091C30333
:1013900081608093C30301E005C080919B0380932B
:1013A000C9033AC08091A90382FFBBCF1092A90361
:1013B000013009F0B5CF10E0FF2009F411E0F12E63
:1013C000112351F08AE392E00E94B3038091C0039D
:1013D00081608093C00304C083E492E00E94B30361
:1013E0008091C10381608093C1038091C2038160B9
:1013F0008093C2038091C30381608093C3038AE01A
:1014000090E0612F0E94601E0E94610880EA9FE0C8
:1014100061E00E940D0285CF1F910F91FF90EF9028
:1014200008950F931F938AE08093B00389E090E0C2
:101430000E94521E182F20E00AE001C020E0809197
:10144000A903882321F48091AA03882319F000932B
:10145000B00304C08091B003882349F18091A903AF
:1014600080FD59C08091A90381FF2BC01092A90370
:101470002223E9F48CE492E00E94B303812F6AE016
:101480000E94E21DE82FF0E0EC57FF4FE491E1608D
:10149000E093C203812F0E94E21DE92FF0E0EC5798
:1014A000FF4FE491E160E093C30321E00AC0809123
:1014B0009B038093C90389E090E0612F0E94601E26
:1014C0002AC08091A90382FD04C08091AA0382FFF3
:1014D000B6CF1092A903213009F0B0CF1B5F1C35A5
:1014E00008F01EE1812F6AE00E94E21DE82FF0E083
:1014F000EC57FF4FE491E160E093C203812F0E941B
:10150000E21DE92FF0E0EC57FF4FE491E160E0933A
:10151000C30317BD94CF1F910F910895DF92EF92EF
:10152000FF920F931F93E090B603F090C4030091D5
:10153000CC038AE08093B00310E08AE0D82E80913B
:10154000A90380FDD9C08091A903882321F480914B
:10155000AA03882319F0D092B00305C08091B0038C
:10156000882309F44BC08091A90381FF4CC01092DD
:10157000A9031123B9F4E090B603F090C4030091DD
:10158000CC038E2D6F2D402F0E947F038091BC03D2
:1015900081608093BC038091BD0381608093BD0313
:1015A00011E031C0113089F48E2D6F2D402F0E9433
:1015B0007F038091BF0381608093BF038091C0034C
:1015C00081608093C00312E01EC0123089F48E2D1A
:1015D0006F2D402F0E947F038091C2038160809312
:1015E000C2038091C30381608093C30313E00BC0E7
:1015F000E092B603F092C4030093CC0380919B0366
:101600008093C90379C08091A90382FD04C08091B1
:10161000AA0382FF94CF1092A9031130F9F48E2D02
:1016200090E0019668E170E00E94021EE82E6F2DA6
:10163000402F0E947F038091BC0381608093BC0394
:101640008091BD0381608093BD03E092B6036091F9
:10165000B60384E090E00E94601E3DC0123001F5A8
:101660008F2D90E001966CE370E00E94021EF82E30
:101670008E2D6F2D402F0E947F038091BF038160CC
:101680008093BF038091C00381608093C003609109
:10169000C40385E090E00E94601EF092C4031BC06A
:1016A0001330C9F4802F90E001966CE370E00E9443
:1016B000021E082F8E2D6F2D402F0E947F038091D8
:1016C000C20381608093C2038091C30381608093D1
:1016D000C3030093CC038091AA0382FF30CF789498
:1016E0001092A7031092A6038091A6039091A703DE
:1016F0008B349105C8F323CF1F910F91FF90EF908A
:10170000DF900895EF92FF920F931F931091C603FD
:101710000091B8038AE08093B003FF242AE0E22E10
:101720008091A90380FDB3C08091A903882321F48F
:101730008091AA03882319F0E092B00319C0809128
:10174000B0038823A9F480919B038093C90310936D
:10175000C6030093B8036091C60387E090E00E943F
:10176000601E6091B80388E090E00E94601E8FC008
:101770008091A90381FF3EC01092A903FF2089F444
:10178000812F602F0E94CE048091BC0381608093E2
:10179000BC038091BD0381608093BD03FF24F3945B
:1017A00029C081E0F81689F4812F602F0E94CE04B1
:1017B0008091BF0381608093BF038091C0038160EB
:1017C0008093C00392E0F92E15C01093C6030093D6
:1017D000B8036091C60387E090E00E94601E6091AC
:1017E000B80388E090E00E94601E80919B03809384
:1017F000C9034DC08091A90382FD04C08091AA0352
:1018000082FF8ECF1092A90381E0F816B1F4812FE8
:1018100090E0019668E170E00E94021E182F602F90
:101820000E94CE048091BC0381608093BC038091B0
:10183000BD0381608093BD0319C082E0F816B1F446
:10184000802F90E001966CE370E00E94021E082F4A
:10185000812F602F0E94CE048091BF03816080930E
:10186000BF038091C00381608093C0038091AA036D
:1018700082FF56CF78941092A7031092A60380910E
:10188000A6039091A7038B349105C8F349CF1F910C
:101890000F91FF90EF9008951F920F920FB60F9245
:1018A00011242F933F934F935F936F937F938F9365
:1018B0009F93AF93BF93EF93FF9300B605FE22C0B3
:1018C00080919C038823B9F55B9A85B1877D85B9A2
:1018D0005E988CB58F7B8CBD80919E03882361F0D0
:1018E0006091C40385E090E00E94601E6091CC038B
:1018F00086E090E00E94601E15BC1092B903109221
:10190000680014C080919C038823A9F080919E03F5
:10191000882361F06091C40385E090E00E94601E1E
:101920006091CC0386E090E00E94601EE0919803F5
:10193000F09199030995FF91EF91BF91AF919F911C
:101940008F917F916F915F914F913F912F910F9068
:101950000FBE0F901F9018951F920F920FB60F9207
:1019600011242F933F934F935F936F937F938F93A4
:101970009F93AF93BF93EF93FF9380E880936100B1
:10198000109261008091CC038F5F8093CC03809193
:10199000CC038C33A8F11092CC038091C4038F5FE9
:1019A0008093C4038091AC039091AD03A091AE03EA
:1019B000B091AF03181619061A061B060CF52091F4
:1019C000AC033091AD034091AE035091AF038091D1
:1019D000CD03833029F081E090E0A0E0B0E004C0C6
:1019E00084E090E0A0E0B0E0281B390B4A0B5B0BD1
:1019F0002093AC033093AD034093AE035093AF03F9
:101A00008091C4038C3398F01092C4038091B60384
:101A10008F5F8093B6036091B60384E090E00E94EC
:101A2000601E6091C40385E090E00E94601E80917A
:101A3000B603883168F01092B6038091BA038F5FC5
:101A40008093BA036091BA0383E090E00E94601E25
:101A50008091BA03803268F58091BA038F3181F4A6
:101A60008091CA03843029F18091CA03863009F13C
:101A70008091CA038930E9F08091CA038B30C9F0A4
:101A80008091BA038E3121F48091CA03823089F0AB
:101A90008091BA038D31D9F48091CA038230B9F4B0
:101AA0008091B70390E08053984F0E94CC01882327
:101AB00071F481E08093BA038091CA038F5F8093B1
:101AC000CA036091CA0382E090E00E94601E809188
:101AD000CA038D3070F08091B7038F5F8093B70396
:101AE00081E08093CA036091B70381E090E00E9497
:101AF000601E80919C03882309F0F9C08091C9037E
:101B0000882311F580919D03882349F08091CC03AF
:101B100080FF05C083E592E00E94B30308C0809176
:101B2000B6036091C4034091CC030E947F0380916F
:101B3000C503882321F08091BB03826003C080919C
:101B4000BB038D7F8093BB038091C9038C3009F068
:101B50008BC02091AC033091AD034091AE03509106
:101B6000AF038091CD03833029F080E090E0A0E0C6
:101B7000B0E008C08091CC036FE00E94E21D90E0CD
:101B8000A0E0B0E0281B390B4A0B5B0B12161306C2
:101B9000140615060CF057C02091AC033091AD032C
:101BA0004091AE035091AF038091CD03833029F073
:101BB00080E090E0A0E0B0E008C08091CC036FE04E
:101BC0000E94E21D90E0A0E0B0E0281B390B4A0B18
:101BD0005B0BCA01B9010E9495048091CC036BE3B1
:101BE00070E0681B71099B01442737FD4095542F15
:101BF00025FF05C08091BE0381608093BE0324FF52
:101C000005C08091BF0381608093BF0323FF05C09F
:101C10008091C00381608093C00322FF05C0809142
:101C2000C10381608093C10321FF05C08091C2037D
:101C300081608093C20360FF0AC08091C30381600A
:101C40008093C30304C08DE291E00E94B3038091AE
:101C5000C503882321F08091BB03826003C080917B
:101C6000BB038D7F8093BB038091C5038823B9F0AC
:101C70009091C6038091B603981789F49091B803A8
:101C80008091C403981759F48091CC03882339F4C8
:101C900081E08093C8031092A5031092A403809161
:101CA000B003882329F08091B00381508093B00362
:101CB0008091AB03882329F08091AB0381508093FE
:101CC000AB038091A4039091A503009781F0019745
:101CD0009093A5038093A40380FF04C08091BB036D
:101CE000826003C08091BB038D7F8093BB03FF9113
:101CF000EF91BF91AF919F918F917F916F915F9184
:101D00004F913F912F910F900FBE0F901F901895FC
:101D10006F927F928F929F92AF92BF92CF92DF92FB
:101D2000EF92FF920F931F9385E190E00E94521E65
:101D30008093CD038EE090E00E94521E682E8FE0CB
:101D400090E00E94521E782E80E190E00E94521E88
:101D5000B82E81E190E00E94521E982E82E190E020
:101D60000E94521E082F83E190E00E94521ED82E3E
:101D700084E190E00E94521EC82EA090CD0386E11F
:101D800090E00E94521E182F89E190E00E945A1E96
:101D90007C0187E190E00E945A1EAC01812FB701BF
:101DA0000E94451A882E8BE190E00E94521EE82E78
:101DB0008CE190E00E94521EF82E8DE190E00E948E
:101DC000521E182F8EE190E00E94521E00D000D0CB
:101DD000EDB7FEB731969CE6B90ED90EADB7BEB7DA
:101DE0001196EC92F18212838383862D672D4B2D01
:101DF000292DED2C0E94381B0F900F900F900F9003
:101E00001F910F91FF90EF90DF90CF90BF90AF9018
:101E10009F908F907F906F900895DF92EF92FF9246
:101E20000F931F9381E190E00E94521E8093CB0399
:101E300082E190E00E94521E8093B50383E190E01E
:101E40000E94521E8093C7030E94880E7B018C0162
:101E5000DD24D39450C08091B5038F5F8093B50388
:101E60008091B503803268F58091B5038F3181F49C
:101E70008091CB03843029F18091CB03863009F126
:101E80008091CB038930E9F08091CB038B30C9F08E
:101E90008091B5038E3121F48091CB03823089F09B
:101EA0008091B5038D31A1F48091CB03823081F410
:101EB0008091C70390E08459984F0E94CC018823F9
:101EC00039F4D092B5038091CB038F5F8093CB031D
:101ED0008091CB038D3038F0D092CB038091C70333
:101EE0008F5F8093C70380E69AEFAFEFBFEFE80EF6
:101EF000F91E0A1F1B1F90EAE91695E0F90690E00B
:101F0000090790E0190708F0A6CF1F910F91FF90E5
:101F1000EF90DF900895FF920F931F93CF93DF937D
:101F2000882311F481E003C0823021F480E00E9414
:101F30006A0264C1813009F061C1F090BA03009176
:101F4000CA031091B7030E940D0F80919B038C3040
:101F500061F48091B5038093BA038091CB038093A1
:101F6000CA038091C7038093B7038091CA03C82F27
:101F7000D0E080919B038C3039F48091B703E82F37
:101F8000F0E0E459F84F06C08091B703E82FF0E085
:101F9000E053F84F8091CA03833010F42C963197A8
:101FA0002091BA031092C2031092C30330E02F5F56
:101FB0003F4F2E0F3F1FCE01880F991F280F391F4B
:101FC000CF019695879596958795280F391FCF0154
:101FD00060E971E00E94EE1D260F371FCF0164E615
:101FE00070E00E94EE1D261B370BAE014F5F5F4F66
:101FF000CA01880F991F840F951F880F991F6AE0E7
:1020000070E00E94EE1DC901860F971F67E070E027
:102010000E94EE1D8330B9F0843028F4813069F0DD
:10202000823070F407C08530A1F0853078F08630BA
:10203000B9F412C08CE592E011C083E692E00EC0C4
:102040008AE692E00BC082E792E008C08BE792E05C
:1020500005C084E892E002C08BE892E00E94B303DE
:1020600078941092A7031092A6038091A6039091F2
:10207000A703885E9340C8F31092BF031092C00379
:102080001092C1038091CA03863079F1873070F4D1
:10209000833011F1843028F48130C1F08230D9F5D9
:1020A00018C08430E1F08530B1F51CC0893031F1C1
:1020B0008A3028F48730E1F0883069F51CC08B3015
:1020C00019F18B30F0F08C3031F521C084E992E0C9
:1020D00020C088E992E01DC08CE992E01AC082EA33
:1020E00092E017C088EA92E014C08CEA92E011C036
:1020F00081EB92E00EC086EB92E00BC08CEB92E09D
:1021000008C081EC92E005C087EC92E002C08DEC43
:1021100092E00E94B3038091BA036AE00E94E21D3C
:10212000E82FF0E0EC57FF4FE491E093C203809179
:10213000BA030E94E21DE92FF0E0EC57FF4FE49153
:10214000E093C30380919B038C3009F057C07894CF
:102150001092A7031092A6038091A6039091A70363
:10216000885E9340C8F31092BF031092BE03109292
:10217000BD031092BC038091B70364E60E94E21D88
:1021800090E043966AE070E00E94021EFB01EC576B
:10219000FF4FE491E093C0038091B70364E60E948F
:1021A000E21D90E043966AE070E00E94021EFC018E
:1021B000EC57FF4FE491E093C1038091B70364E6CD
:1021C0000E94E21D892F6AE00E94E21DE82FF0E0E4
:1021D000EC57FF4FE491E093C2038091B7030E9454
:1021E000E21DE92FF0E0EC57FF4FE491E093C303C9
:1021F000F092BA030093CA031093B703DF91CF9113
:102200001F910F91FF900895FF920F931F938AE003
:102210008093B00310E00AE0FF24F3948091A903B7
:10222000882321F48091AA03882319F00093B00336
:1022300005C08091B003882309F46DC08091A90383
:1022400080FD05C18091A90381FF6AC01092A90396
:102250001123A9F480919A03882311F012E001C0A0
:1022600011E080E00E948B0F8091BC03816080931D
:10227000BC038091BD0381608093BD0351C01130C8
:1022800029F480919A03882339F020C01230E1F4B8
:1022900080919A038130A9F480919A03882311F0E8
:1022A00011E001C012E080E00E948B0F8091BF031B
:1022B00081608093BF038091C00381608093C003DD
:1022C0002FC0882339F015C0113099F480919A03FA
:1022D000813079F480E00E948B0F8091C20381608D
:1022E0008093C2038091C30381608093C30313E092
:1022F00017C083E68093C90380E00E948B0F789417
:102300001092A7031092A6038091A6039091A703B1
:102310008C5D9540C8F380919B038093C90397C05F
:102320008091A90382FD04C08091AA0382FF76CF29
:102330001092A903113061F58091CA038F5F8093D9
:10234000CA038091CA038D3010F01093CA0380E055
:102350000E948B0F80919A03882359F48091BC03CB
:1023600081608093BC038091BD0381608093BD0335
:102370000AC08091BF0381608093BF038091C00336
:1023800081608093C0036091CA0382E090E04DC0F9
:10239000123061F58091BA038F5F8093BA03809108
:1023A000BA03803210F0F092BA0380E00E948B0FE3
:1023B00080919A03813059F48091BC0381608093AD
:1023C000BC038091BD0381608093BD030AC08091EE
:1023D000BF0381608093BF038091C00381608093BD
:1023E000C0036091BA0383E090E01FC01330F9F49A
:1023F0008091B7038F5F8093B7038091B70364E642
:102400000E94E21D9093B70380E00E948B0F8091A1
:10241000C20381608093C2038091C3038160809373
:10242000C3036091B70381E090E00E94601E809139
:10243000AA0382FFF3CE78941092A7031092A6030A
:102440008091A6039091A703CC97D0F3E7CE1F917C
:102450000F91FF9008951F920F920FB60F921124C3
:102460002F933F934F935F936F937F938F939F939C
:10247000AF93BF93EF93FF9389E60E94DC1729B1D6
:10248000789478941092A7031092A6038091A603E3
:102490009091A7030A97D0F389B1247030E090E0BF
:1024A000847090702817390711F40E946D05FF9110
:1024B000EF91BF91AF919F918F917F916F915F91BC
:1024C0004F913F912F910F900FBE0F901F90189535
:1024D0006F927F928F929F92AF92BF92CF92DF9234
:1024E000EF92FF920F931F93CF93DF930E94880E7A
:1024F0005B016C0181E190E00E94521EF82E82E1A6
:1025000090E00E94521E182F83E190E00E94521E1C
:102510002091CA030091BA039091B703482F445900
:1025200090538F2D612FE92E0E9428199B01AC0139
:102530008091CD03833031F061E0E62EF12C012D46
:10254000112D05C094E0E92EF12C012D112D609084
:10255000B6038091CD03833021F081E0882E912C49
:1025600003C0B4E08B2E912C7090C4038091CD03F6
:10257000833019F0C1E0D0E002C0C4E0D0E0CA016D
:10258000B90120EA35E040E050E00E94C31DA801F7
:1025900097010E94C31DA61AB70AC80AD90A8CE37C
:1025A000689EC00111249C01289DC001299D900DA9
:1025B000389D900D1124AA2797FDA095BA2FA81A2F
:1025C000B90ACA0ADB0A872D90E09C01C29FC001AC
:1025D000C39F900DD29F900D1124AA2797FDA0951F
:1025E000BA2FA81AB90ACA0ADB0AA092AC03B092A1
:1025F000AD03C092AE03D092AF030E940D0F809145
:10260000B7032091C70390E08D599F4F30E08217A8
:10261000930744F52091C7038091B70330E090E021
:102620008C599F4F2817390731F49091CB03809133
:10263000CA039817B8F02091C7038091B70330E020
:1026400090E08C599F4F28173907A1F49091CB0344
:102650008091CA03981771F49091B5038091BA03E1
:10266000981740F41092AC031092AD031092AE0391
:102670001092AF03DF91CF911F910F91FF90EF90D8
:10268000DF90CF90BF90AF909F908F907F906F9092
:1026900008953F924F925F926F927F928F929F9296
:1026A000AF92BF92CF92DF92EF92FF920F931F9360
:1026B000DF93CF93CDB7DEB728970FB6F894DEBF80
:1026C0000FBECDBF8AE08093B0035090BA03409014
:1026D000CA033090B70384E190E00E94521E682E36
:1026E00085E190E00E94521E782E8FE090E00E94DB
:1026F000521E8093BA038EE090E00E94521E809397
:10270000CA0380E190E00E94521E8093B70386E1E5
:1027100090E00E94521EE82E8BE190E00E94521E33
:10272000A82E87E190E00E945A1E6C0189E190E09A
:102730000E945A1E4C0100E04AE0B42EFF24F3949C
:102740008091A903882321F48091AA03882319F09A
:10275000B092B00309C08091B003882329F480911E
:102760009B038093C90304C08091A90380FF07C025
:102770005092BA034092CA033092B703C3C2809109
:10278000A90381FF55C11092A9030023A9F48091E8
:102790009A03882311F002E001C001E082E00E9468
:1027A0008B0F8091BC0381608093BC038091BD033B
:1027B00081608093BD033CC1013029F480919A036C
:1027C000882339F020C00230E1F480919A038130EF
:1027D000A9F480919A03882311F001E001C002E07E
:1027E00082E00E948B0F8091BE0381608093BE03C4
:1027F0008091BF0381608093BF031AC1882341F099
:1028000079C00130F1F480919A03813009F072C0EF
:1028100082E00E948B0F8091C00381608093C0038F
:102820008091C10381608093C1038091C203816064
:102830008093C2038091C30381608093C30303E04C
:10284000F7C0033059F4662019F083ED92E002C01E
:102850008CED92E00E94B30304E0EAC00430B9F4C6
:10286000772019F485EE92E00EC021E0721619F47B
:102870008EEE92E008C082E0781619F487EF92E0BD
:1028800002C080E093E00E94B30305E0D1C00530B0
:1028900089F4EE2019F489E093E008C091E0E9168C
:1028A00019F482E193E002C08BE193E00E94B3034C
:1028B00006E0BEC0063031F48E2DB6010E945A04E7
:1028C00007E0B6C0073049F4A2E0EA1641F08E2DC9
:1028D000B4010E94EB0308E0ABC0083059F4AA2011
:1028E00031F084E293E00E94B30309E0A1C08DE2DD
:1028F00093E0F9CFDE011196EFE7F3E088E0019075
:102900000D928150E1F72091B703E72DF0E0EE0F33
:10291000FF1FE60DF11DEC0FFD1F4181832D90E09F
:102920008C599F4F821B9109242F30E028173907BB
:1029300024F024E6B22EB30C03C0B090B703B40E5B
:1029400083E68093C9030091CA03F090BA03109103
:10295000B7038E2DB401A6010E94451A882E8091DE
:10296000B6039091C4032091CC0300D000D0EDB702
:10297000FEB7319614593B2D3459ADB7BEB71196F9
:10298000AC92818392832383802F6F2D412F242D3E
:10299000052DE32EC62CA72C0E94381B7092CD0368
:1029A0000F900F900F900F9082E190E0652D0E94A4
:1029B000601E81E190E0642D0E94601E83E190E042
:1029C0006B2D0E94601E6091C4038DE190E00E9417
:1029D000601E6091B6038CE190E00E94601E6091E1
:1029E000CC038EE190E00E94601E5092BA034092A8
:1029F000CA033092B7030E9468126091AC037091D1
:102A0000AD038091AE039091AF030E94950478943A
:102A10001092A7031092A6038091A6039091A7039A
:102A20008C5D9540C8F380919B038093C9036AC174
:102A30008091A90382FD04C08091AA0382FF80CE09
:102A40001092A903013061F58091CA038F5F8093D2
:102A5000CA038091CA038D3010F00093CA0382E04C
:102A60000E948B0F80919A03882359F48091BC03B4
:102A700081608093BC038091BD0381608093BD031E
:102A80000AC08091BE0381608093BE038091BF0322
:102A900081608093BF036091CA038EE090E020C103
:102AA000023061F58091BA038F5F8093BA03809101
:102AB000BA03803210F0F092BA0382E00E948B0FCA
:102AC00080919A03813059F48091BC038160809396
:102AD000BC038091BD0381608093BD030AC08091D7
:102AE000BE0381608093BE038091BF0381608093A9
:102AF000BF036091BA038FE090E0F2C0033041F56C
:102B00008091B7038F5F8093B7038091B70368EC20
:102B10000E94E21D9093B70382E00E948B0F809188
:102B2000C00381608093C0038091C1038160809362
:102B3000C1038091C20381608093C2038091C3036B
:102B400081608093C3036091B70380E190E0C8C0C7
:102B5000043089F410E0662009F411E0612E11239D
:102B600019F083ED92E002C08CED92E00E94B30375
:102B700084E190E0B4C00530D9F4739423E072226C
:102B800019F485EE92E00EC081E0781619F48EEE0D
:102B900092E008C092E0791619F487EF92E002C043
:102BA00080E093E00E94B30385E190E0672D98C038
:102BB000063059F58E2D8F5F63E00E94E21DE92EED
:102BC000992359F489E093E00E94B30393E2C92E5C
:102BD000D12C84E2882E912C14C0A1E09A1759F4CC
:102BE00082E193E00E94B3031FE0C12ED12CBCE52B
:102BF0008B2E912C06C08BE193E00E94B303CC2472
:102C0000DD2486E190E06E2D6BC0073079F5EE2073
:102C100069F485E090E0C80ED91E95E9C91692E0E6
:102C2000D906D0F0A3E2CA2ED12C16C0A1E0EA1634
:102C300069F483E090E0C80ED91E9DE2C91691E0C8
:102C4000D90650F0FFE0CF2ED12C06C00894C11C4D
:102C5000D11CAFEFCA22DD2487E190E0B6010E94CB
:102C60006E1E8E2DB6010E945A043CC0083029F514
:102C7000EE2059F40894811C911CB9E78B1691043D
:102C800090F0E4E28E2E912C0EC021E0E21659F471
:102C90000894811C911C82E3881681E0980618F044
:102CA0007CE5872E912C89E190E0B4010E946E1E94
:102CB0008E2DB4010E94EB0315C0093099F410E089
:102CC000AA2009F411E0A12E112319F084E293E067
:102CD00002C08DE293E00E94B3038BE190E0612F8C
:102CE0000E94601E8091AA0382FF2ACD78941092E0
:102CF000A7031092A6038091A6039091A703CC97F7
:102D0000D0F31ECD28960FB6F894DEBF0FBECDBF10
:102D1000CF91DF911F910F91FF90EF90DF90CF90B7
:102D2000BF90AF909F908F907F906F905F904F90EB
:102D30003F9008958F929F92AF92BF92CF92DF9271
:102D4000EF92FF920F931F9315BC569A5E9884B72B
:102D500014BE90E00E94481888E10FB6F894809362
:102D60006000109260000FBE2FE088E190E00FB687
:102D7000F894A895809360000FBE20936000A895FA
:102D800011E010939D0310929E038AE190E00E944F
:102D9000CF1788E480BF80ED97E00197F1F700B688
:102DA00005FE06C080B7806180BF0E94920822C0E5
:102DB0000E94B9015B98109369001DBB1092C90372
:102DC00081E58CBD89E090E00E94521E0E94540271
:102DD00078948BE090E00E94521E80939A030E94A8
:102DE000610880EA9FE061E00E940D020E94920863
:102DF0000E946D051CE0912EB3E68B2EA7E0AA2E53
:102E0000F4E0BF2EEDE0CE2E78E0E72E6BE0D62E7C
:102E100055E0F52E03E016E0A89500B605FE03C0C8
:102E20000E948D01F9CF8091A90380FF6BC01092A1
:102E3000A9038091C903863009F440C0873068F443
:102E4000833051F1843018F4882391F074C08430B9
:102E5000C1F0853009F06FC028C0883009F440C047
:102E60008830A8F18C3021F08D3009F064C041C069
:102E7000B092C90386E393E00E94B3030E94820BE1
:102E8000CBCF0093C90380E493E00E94B3030E9478
:102E90008E0A10929D03C0CFF092C90389E493E09B
:102EA0000E94B3030E940411B7CF1093C90382E5B7
:102EB00093E00E94B3030E94110AAECFA092C9030F
:102EC0008BE593E00E94B3030E948009A5CFE092B6
:102ED000C90384E693E00E94B3030E9421099CCFBA
:102EE000C092C9038DE693E00E94B3030E941806C6
:102EF00093CFD092C90386E793E00E94B3030E9468
:102F000049138ACF8091A90381FF1AC01092A903A7
:102F10008092C90381E00E948B0FA895789410924B
:102F2000A7031092A6038091A6039091A7038C5D3E
:102F30009540C8F3A89580919B038093C9036CCFFB
:102F40008091A90382FF68CF1092A90380919B030F
:102F5000882319F490929B0302C010929B038091E6
:102F60009B038093C9030E94681256CF06C090E06D
:102F700000009F5F9E31E1F781508823C1F70895DB
:102F800048EC50E009C020E137E2FA013197F1F74F
:102F900021503040D1F781508823A9F708959093AC
:102FA000C5008093C40088E18093C1008EE08093C7
:102FB000C200519A50980895982F8091C00085FFC3
:102FC000FCCF9093C60080E090E008958091C0000F
:102FD00087FFFCCF8091C60008958091C000807863
:102FE0000895AC0120E007C08091C00085FFFCCFB0
:102FF0003093C6002F5FFA01E20FF11D34913323A5
:1030000099F7662371F08091C00085FFFCCF8AE0BC
:103010008093C6008091C00085FFFCCF8DE0809337
:10302000C6000895FC0107C08091C00085FFFCCF59
:1030300031969093C60090819923B1F70895282F77
:10304000982F92959F709A3030F48091C00085FF40
:10305000FCCF905D05C08091C00085FFFCCF995AE0
:103060009093C600822F90E08F7090700A973CF486
:103070008091C00085FFFCCF2F70205D06C080913D
:10308000C00085FFFCCF2F70295A2093C6000895F9
:103090001F93182F892F0E941F18812F0E941F181D
:1030A0001F910895EF92FF920F931F937B018C0164
:1030B000C801AA27BB270E944818C7010E944818C8
:1030C0001F910F91FF90EF9008950F931F93CF934F
:1030D000DF938C01E0E1F7E240E0C0E0D0E0C8011E
:1030E000BF010E94EE1D262F662329F4442319F404
:1030F000E130F10549F48091C00085FFFCCF205DEF
:103100002093C600205341E0CF016AE070E00E94A6
:10311000EE1D2196C530D10571F0822F90E09C0103
:103120002E9FC0012F9F900D3E9F900D1124081BD4
:10313000190BFB01D4CFDF91CF911F910F9108950F
:103140004F925F926F927F928F929F92AF92BF92B7
:10315000CF92DF92EF92FF920F931F93CF93DF9363
:103160004B015C01E12C9AECF92E9AE9092F9BE3C3
:10317000192F4424C0E0D0E0C501B401A801970193
:103180000E94151ED22E222341F4442031F481E006
:10319000E816F1040105110561F48091C00085FF76
:1031A000FCCF80E3D80ED092C60080EDD80E442428
:1031B0004394C801B7012AE030E040E050E00E94AB
:1031C000151EC22E732E642E552E2196CA30D1059F
:1031D000A9F06D2D70E080E090E0A80197010E94B9
:1031E000C31D861A970AA80AB90A2C2D372D462D19
:1031F000552DC901DA017C018D01BECFDF91CF9140
:103200001F910F91FF90EF90DF90CF90BF90AF9004
:103210009F908F907F906F905F904F9008959C014A
:1032200060E971E00E94EE1D892B11F481E00895A0
:10323000C90164E670E00E94EE1D892B11F480E064
:10324000089580E023703070232B09F481E0089505
:103250004F925F926F927F928F929F92AF92BF92A6
:10326000CF92DF92EF92FF920F931F93CF93DF9352
:10327000382F562F942E522E402E8E2CE41620F0EE
:10328000E41691F4281780F4852D642D482D232F02
:10329000052FE92C0E94281922273327A901261B74
:1032A000370B480B590BDEC0351569F4981409F03B
:1032B00053C0842D90E0851B91099C01442737FD64
:1032C0004095542FCFC0981409F046C0C32FD0E0CA
:1032D000FE01E255FD4FE4918E2F90E0851B910990
:1032E0007C010027F7FC0095102F323041F4892D26
:1032F00090E00E940F19E80EF11C011D111D9FEABC
:10330000A92E92E0B92EAC0EBD1ECC24DD243E01C8
:103310000894611C711CC52DD0E017C0F501849183
:10332000E80EF11C011D111D2230310541F4892DDB
:1033300090E00E940F19E80EF11C011D111D089468
:10334000C11CD11C0894A11CB11C93012C0D3D1D66
:103350002C173D071CF380C0C32FD0E0FE01E255BF
:10336000FD4FE4918E2F90E0851B91097C01002791
:10337000F7FC0095102F323041F4892D90E00E9427
:103380000F19E80EF11C011D111D8FEAA82E82E015
:10339000B82EAC0EBD1ECC24DD24219617C0F5013D
:1033A0008491E80EF11C011D111D2230310541F4FC
:1033B000892D90E00E940F19E80EF11C011D111DCE
:1033C0000894C11CD11C0894A11CB11C9E012C0D99
:1033D0003D1D2D3031051CF3892D90E06C010894C2
:1033E000C11CD11CC0E0D0E03C01A82CBB2411C002
:1033F000C6010E940F1990E083599E4FAA2797FD9E
:10340000A095BA2FE80EF91E0A1F1B1F0894C11CB5
:10341000D11C2196CE01860D971D8A159B0544F37C
:10342000C1E0D0E0C52CDD2414C0FE01E255FD4F03
:10343000E491EE0EF11C011D111DC230D10541F4C5
:10344000882D90E00E940F19E80EF11C011D111D3E
:103450002196CC15DD054CF3A8019701240D311DF3
:10346000411D511DB901CA01DF91CF911F910F91EB
:10347000FF90EF90DF90CF90BF90AF909F908F9094
:103480007F906F905F904F900895EF92FF920F930F
:103490001F937B01882341F4BA0180E090E02FEB79
:1034A00032E040E050E009C0813011F5BA0180E01F
:1034B00090E020E137E240E050E00E94C31D00E0D0
:1034C00010E0A80197010E94151ECA01B901A801C8
:1034D00097010E94151EC901DA018F3F9105A105D0
:1034E000B10539F030F08FEF90E0A0E0B0E001C01E
:1034F000842F1F910F91FF90EF9008952F923F928C
:103500004F925F926F927F928F929F92AF92BF92F3
:10351000CF92DF92EF92FF920F931F93CF93DF939F
:10352000EC01288039804A805B806C807D808E80B1
:103530009F80AA24BB246501F501E370F070EE0FB3
:10354000FF1FEE0FFF1FE957FC4FE080F180028163
:103550001381EA0CFB1C0C1D1D1DD401C30175E079
:10356000B695A795979587957A95D1F7A40193017C
:1035700064E0220F331F441F551F6A95D1F782273D
:103580009327A427B527860D971DA81DB91DE826EA
:10359000F9260A271B272E0C3F1C401E511E89EBC3
:1035A00099E7A7E3BEE9A80EB91ECA1EDB1EA20159
:1035B0009101F5E05695479537952795FA95D1F7FE
:1035C000D201C101E4E0880F991FAA1FBB1FEA9531
:1035D000D1F7282739274A275B27220D331D441DA1
:1035E000551DD601C5017BE0B695A79597958795A2
:1035F0007A95D1F783709070880F991F880F991F63
:1036000089579C4FFC0180819181A281B3818A0DF1
:103610009B1DAC1DBD1D282739274A275B27620E3D
:10362000731E841E951EF0E2AF16F7E3BF06FFEE91
:10363000CF06F6ECDF0609F07FCF288239824A8276
:103640005B826C827D828E829F82DF91CF911F91FF
:103650000F91FF90EF90DF90CF90BF90AF909F9031
:103660008F907F906F905F904F903F902F90089534
:103670008F92AF92BF92CF92DF92EF92FF920F9311
:103680001F93DF93CF93CDB7DEB728970FB6F8948B
:10369000DEBF0FBECDBFE82FF42F722FBC2C8A2DBA
:1036A0008150823008F040C030E040E050E03961A5
:1036B000802F90E0A0E0B0E0B82FAA2799278827B4
:1036C000282B392B4A2B5B2B8E2D90E0A0E0B0E00D
:1036D000DC0199278827282B392B4A2B5B2B298340
:1036E0003A834B835C832F8930E040E050E0542FD5
:1036F000432F322F2227888D90E0A0E0B0E0282BC6
:10370000392B4A2B5B2B426B898D90E0A0E0B0E017
:10371000B82FAA2799278827282B392B4A2B5B2BD0
:103720002D833E834F8358878E2F4F2F272F0E9444
:1037300028192AE030E040E050E00E94C31D7B01E0
:103740008C0125E43EE040E050E00E94151E690136
:10375000BB2029F026E33BE644E050E004C02AE821
:103760003CE144E050E0BA01A9014E195F09600B49
:10377000710B882D90E08E3291051CF08DE290E067
:1037800005C08831910514F488E190E08C0108515E
:10379000104083E0A81609F0A5C0BB2009F04BC07B
:1037A000475E5F40624070409E89913051F5A7E9C5
:1037B000B2E020E030E0FD0185919491C816D90671
:1037C000D0F4F901EE0FFF1FEE0FFF1FE756FD4F7C
:1037D00025913491C901E3E0880F991FEA95E1F73B
:1037E000220F331F820F931FA0E0B0E0481B590B3C
:1037F0006A0B7B0B06C02F5F3F4F149623303105B9
:10380000D1F6E0EDF1E0849190E0C816D9061CF401
:1038100080E090E009C07796849190E0C816D906C0
:103820000CF08CC187E190E0080F191F0F521E4F5A
:10383000F80184913FC0445B5A4362407040A3EA60
:10384000B2E020E030E0FD0185919491C816D906E0
:10385000D0F4F901EE0FFF1FEE0FFF1FEB55FD4FE8
:1038600025913491C901E3E0880F991FEA95E1F7AA
:10387000220F331F820F931FA0E0B0E0481B590BAB
:103880006A0B7B0B06C02F5F3F4F14962330310528
:10389000D1F620E030E0F901E250FE4FE4918E2FA6
:1038A00090E0C816D906C4F4020F131F01501E4F32
:1038B000F801849190E025E43EE0DC01A29FC00184
:1038C000A39F900DB29F900D1124A0E0B0E0481B83
:1038D000590B6A0B7B0B32C1295E3F4F25343105F2
:1038E000D1F62CC1BB2009F045C0BE89B13051F5DD
:1038F000A3E4B2E020E030E0FD0185919491C81688
:10390000D906D0F4F901EE0FFF1FEE0FFF1FEB5B9E
:10391000FD4F25913491C901E3E0880F991FEA9585
:10392000E1F7220F331F820F931FA0E0B0E0481B86
:10393000590B6A0B7B0B06C02F5F3F4F14962B3041
:103940003105D1F620E030E0F901EB55FF4FE4916D
:103950008E2F90E0C816D9063CF4020F131F0A55AB
:103960001F4FF801849144C0295E3F4F2A3831052A
:1039700059F755C0BE89B13051F5AFE6B2E020E04D
:1039800030E0FD0185919491C816D906D0F4F90173
:10399000EE0FFF1FEE0FFF1FEF58FD4F25913491E3
:1039A000C901F3E0880F991FFA95E1F7220F331F41
:1039B000820F931FA0E0B0E0481B590B6A0B7B0BF2
:1039C00006C02F5F3F4F14962A303105D1F620E014
:1039D00030E0F901E15DFE4FE4918E2F90E0C816D2
:1039E000D906C4F4020F131F005D1E4FF801849125
:1039F00090E025E43EE0DC01A29FC001A39F900D72
:103A0000B29F900D1124A0E0B0E0481B590B6A0B47
:103A10007B0B05C0295E3F4F213A3105D1F6B2E05C
:103A2000AB1609F042C08DEAE82E8EE8F82E012D83
:103A3000112DE40EF51E061F171F89819A81AB8197
:103A4000BC818E259F25A027B12789839A83AB83CC
:103A5000BC83CE0101960E947E1A69817A818B8196
:103A60009C817F778070907028EE33E040E050E0DA
:103A70000E94C31D2FEF3FE740E050E00E94151E5B
:103A8000CA01B90126E036ED40E050E00E94C31DB6
:103A900028EE33E040E050E00E94151EBA01A90173
:103AA0004E0D5F1D601F711F49C0E1E0AE1609F0A9
:103AB00045C0BCEFEB2EB9E2FB2EBFEF0B2FBFEFE3
:103AC0001B2FE40EF51E061F171F8D819E81AF81EF
:103AD000B8858E259F25A027B1278D839E83AF8330
:103AE000B887CE0101960E947E1A6D817E818F81FA
:103AF00098857F778070907028EE33E040E050E04A
:103B00000E94C31D2FEF3FE740E050E00E94151ECA
:103B1000CA01B90122EB3EE840E050E00E94C31D1B
:103B200028EE33E040E050E00E94151ED801C701A6
:103B3000821B930BA40BB50BAC01BD0177FF05C035
:103B400020E030E040E050E00AC0CB01BA0120E9BB
:103B500030E040E050E00E94C31D9B01AC01B90180
:103B6000CA0128960FB6F894DEBF0FBECDBFCF9125
:103B7000DF911F910F91FF90EF90DF90CF90BF905A
:103B8000AF908F900895629FD001739FF001829F44
:103B9000E00DF11D649FE00DF11D929FF00D839FDC
:103BA000F00D749FF00D659FF00D9927729FB00D79
:103BB000E11DF91F639FB00DE11DF91FBD01CF018C
:103BC00011240895991B79E004C0991F961708F0F5
:103BD000961B881F7A95C9F780950895AA1BBB1B71
:103BE00051E107C0AA1FBB1FA617B70710F0A61BFD
:103BF000B70B881F991F5A95A9F780959095BC011E
:103C0000CD01089597FB092E07260AD077FD04D031
:103C1000E5DF06D000201AF4709561957F4F089576
:103C2000F6F7909581959F4F0895A1E21A2EAA1B51
:103C3000BB1BFD010DC0AA1FBB1FEE1FFF1FA2175C
:103C4000B307E407F50720F0A21BB30BE40BF50B59
:103C5000661F771F881F991F1A9469F760957095E2
:103C6000809590959B01AC01BD01CF01089597FB14
:103C7000092E05260ED057FD04D0D7DF0AD0001C30
:103C800038F450954095309521953F4F4F4F5F4FF9
:103C90000895F6F790958095709561957F4F8F4FB9
:103CA0009F4F0895F999FECF92BD81BDF89A99274B
:103CB00080B50895A8E1B0E042E050E00C94751E94
:103CC000262FF999FECF1FBA92BD81BD20BD0FB638
:103CD000F894FA9AF99A0FBE019608950E94601E10
:103CE000272F0C94611EDC01CB01FC01F999FECF5A
:103CF00006C0F2BDE1BDF89A319600B40D92415074
:0A3D00005040B8F70895F894FFCF83
:103D0A0020202066742020200020202020636D209F
:103D1A002000202020206C62732000202020206BAD
:103D2A006720200020202020626D69200074696DC0
:103D3A00657320757000616C61726D206F6E002072
:103D4A00202020202020202020646561746874755A
:103D5A0062652E2020646562756767696E672E202A
:103D6A0020636F6465206F7074696D697A61746924
:103D7A006F6E2E202062792063616974736974689A
:103D8A00322E2020636F6465206A6564692E2020C4
:103D9A007777772E6361697473697468322E636FFB
:103DAA006D20202020202020202020696365747542
:103DBA0062652E2020696365747562652068617288
:103DCA0064776172652E20206279206C6164796162
:103DDA0064612E202073696D706C79207468652087
:103DEA00626573742E20202020202020202020614C
:103DFA006461667275697420696E64757374726938
:103E0A0065732E207777772E61646166727569749F
:103E1A002E636F6D20202020202020202020007378
:103E2A006E6F6F7A696E67007573612D31326872D1
:103E3A00006575722D3234687200766F6C2068697D
:103E4A00676800766F6C20206C6F77006272697405
:103E5A0065200020202020202020200073756E6419
:103E6A006179006D6F6E6461790074756573646160
:103E7A0079007765646E736461790074687572732A
:103E8A00646179006672696461790073617475723C
:103E9A00646179006A616E00666562006D617263D1
:103EAA006800617072696C006D6179006A756E658F
:103EBA00006A756C79006175677374007365707454
:103ECA00006F63746F62006E6F76656D0064656380
:103EDA00656D0066656D616C652020006D616C65BD
:103EEA0020202020006E6F726D616C2020007065AA
:103EFA007373696D7374006F7074696D697374009C
:103F0A00736164697374696300696D70657269616C
:103F1A006C006D6574726963202000646972656360
:103F2A0074202000736D6F6B65722020006E6F6EB7
:103F3A0020736D6B720073657420616C61726D0021
:103F4A007365742074696D650073657420646174A7
:103F5A0065007365742062726974007365742076F3
:103F6A006F6C2000736574207265676E0061626F02
:103F7A007574202020006465617468636C6B004866
:103F8A004E393F52582326C46C28A8CA916B709E9A
:083F9A00639393D9E791FE0047
:00000001FF
