:100000000C945E010C94CE150C947B010C940509A4
:100010000C947B010C9459090C947B010C947B018A
:100020000C947B010C94DF100C947B010C947B01ED
:100030000C947B010C947B010C947B010C947B0150
:100040000C94660A0C947B010C947B010C947B014C
:100050000C947B010C947B010C947B010C947F101D
:100060000C947B010C947B01FA3E1A7ADE8EF62EFC
:100070006078AE1CAA2A3ACEF30AB61E3838B86E9B
:1000800076DA6800FC60DAF266B6BEE0FEE684006E
:1000900003070809060A050C0490000B10120F0D47
:1000A0000E11139B0014000000000000000000006F
:1000B0000000000000000000000000002800000018
:1000C0000001010101020202030303040404050507
:1000D00006060832000000000001010101020202D0
:1000E000020303040404050505073C0000000000AA
:1000F00000010101010202020303030404040505D7
:100100000646000000000101010101020202020393
:100110000303040404040000C80000000000000001
:1001200000000000000000000000000000000514B6
:1001300000000000000000000000000000000000BF
:100140000000000000001E00000001010101020289
:100150000303030404050506060707080D2800002D
:100160000001010101020202030303040405050664
:100170000606070B32000000000001010102020226
:10018000030303040404050506060A3C00000000FE
:100190000000000101010102020203030304040440
:1001A00005074600000000000000000101010102F7
:1001B000020202020303030305C80000000000005E
:1001C0000000000000000101010101010101020223
:1001D000140000000000000000000000000000000B
:1001E00000000000000000C8000000000000000047
:1001F00001010101010102020202020303041400D1
:1002000000000000000000000000000000000000EE
:1002100000000000001E00000000000000010101BD
:10022000010102020202030303030406C8000000E6
:1002300000000000010101010101020202020303AA
:10024000030305190000001E00B30A23008F0A28CB
:1002500000FD092D00D80932006A093700D9083C91
:1002600000FE074100FE0646004706C800B5041917
:100270000000001E003F092D001B093200F6083760
:1002800000D1083C0090084100F606460022074BCA
:10029000006505C8004804190000001E00FE04C8DF
:1002A00000DA04190000001E009005C8006C051F4C
:1002B0001C1F1E1F1E1F1F1E1F1E1F0011241FBEDE
:1002C000CFEFD4E0DEBFCDBF12E0A0E0B1E0E0EEC2
:1002D000FDE302C005900D92A63AB107D9F712E0EE
:1002E000A6EAB2E001C01D92A93DB107E1F70E9464
:1002F0001A170C94EE1E0C9400009C017894109236
:10030000B5021092B4028091B4029091B5028217A6
:100310009307C8F30895A895089581E08093AA02F1
:100320005B9A8CB58F7B8CBD85B1877D85B95E98D6
:1003300015BC1092C6021092680085B1897F85B9FC
:100340008BB18F7C8BB928988AB18F7C8AB9209821
:100350005A985298E1E6F0E090E8908388E0808334
:10036000449A83B7876083BF8895908310824498AE
:1003700008958EE284B988E48AB989E187B984E373
:100380008BB991E095B985E08093680090936B00FC
:1003900080E380936D000895FC0183709070892B39
:1003A00039F4CF0164E670E00E94591E892B49F4AC
:1003B00020E030E0CF0160E971E00E94591E892BF6
:1003C00011F421E030E0822F089510928000109205
:1003D0008100299A2A9878941092B5021092B4025A
:1003E0008091B4029091B5020A97D0F32A9A299885
:1003F00078941092B5021092B4028091B402909158
:10040000B5020A97D0F385B1897F85B982EB8093D5
:10041000800088E18093810008951F93162F9C012E
:1004200040E050E060E472E48FE090E00E94A21EA1
:1004300030938700209386008091860090918700FA
:100440009695879590938B0080938A0080918A007F
:1004500090918B00909389008093880028EC30E085
:100460001CC08091810082608093810080ED97E0C4
:10047000F9013197F1F70197D9F7809181008D7FCC
:100480008093810085B1897F85B980ED97E0F9017E
:100490003197F1F70197D9F71150112311F785B171
:1004A000897F85B91F9108958B3590F58E3110F0B5
:1004B0008E3111F48EE12DC0843210F483E229C014
:1004C000893210F488E225C08E3210F48DE221C00A
:1004D000833310F482E31DC0883310F487E319C01E
:1004E0008D3310F48CE315C0823410F481E411C014
:1004F000873410F486E40DC08C3410F48BE409C00A
:10050000813510F480E505C0863510F485E501C01D
:100510008AE587BD83E084BD81E085BD84B58068C0
:1005200084BD80916E00816080936E007894089500
:100530001F93182F262F842F6AE00E944D1EE92F4B
:10054000F0E0EC57FF4FE491E093D002842F0E943B
:100550004D1EE82FF0E0EC57FF4FE491E093CF02FF
:100560001092CE02822F0E944D1EE92FF0E0EC5730
:10057000FF4FE491E093CD02822F0E944D1EE82FA1
:10058000F0E0EC57FF4FE491E093CC021092CB02E5
:100590008091A802882361F5812F90E00B966CE092
:1005A00070E00E946D1E9C012F5F3F4FC9016AE001
:1005B00070E00E946D1EFC01EC57FF4FE491E09348
:1005C000CA02C9016AE070E00E946D1EFB01EC578F
:1005D000FF4FE491E093C9021C3020F08091C802E3
:1005E000816003C08091C8028E7F8093C8021AC0C8
:1005F000812F68E10E944D1E292F892F6AE00E94F9
:100600004D1EE92FF0E0EC57FF4FE491E093CA0252
:10061000822F0E944D1EE82FF0E0EC57FF4FE4912F
:10062000E093C9021F910895CF93DF931092C802FF
:10063000EC01A9ECB2E0E881EE23D1F08E2F8156D7
:100640008A3128F4F0E0E95FFF4FE49108C08E2F73
:1006500080538A3030F4F0E0EC5AFF4FE491EC9391
:1006600001C01C922196119682E0A13DB80719F7AE
:10067000DF91CF910895AF92BF92CF92DF92EF9228
:10068000FF920F931F93CF93DF93882309F07AC0D3
:100690001092C80282E08093CB028093CE028091B8
:1006A000A802882361F58091D6026AE00E944D1E5F
:1006B000E82FF0E0EC57FF4FE491E093C9028091FE
:1006C000D6020E944D1EE92FF0E0EC57FF4FE49157
:1006D000E093CA028091C7020E944D1EE82FF0E00D
:1006E000EC57FF4FE491E093CC028091C7020E9447
:1006F0004D1EE92FF0E0EC57FF4FE4912BC08091A5
:10070000C7026AE00E944D1EE82FF0E0EC57FF4F51
:10071000E491E093C9028091C7020E944D1EE92F27
:10072000F0E0EC57FF4FE491E093CA028091D602CB
:100730000E944D1EE82FF0E0EC57FF4FE491E0934C
:10074000CC028091D6020E944D1EE92FF0E0EC57BA
:10075000FF4FE491E093CD028091C4026AE00E94D1
:100760004D1EE82FF0E0EC57FF4FE491E093CF02ED
:100770008091C4020E944D1EE92FF0E0EC57FF4F1C
:10078000E491A2C0823009F0A2C01092C802809108
:10079000A802882361F58091D6026AE00E944D1E6E
:1007A000E82FF0E0EC57FF4FE491E093C90280910D
:1007B000D6020E944D1EE92FF0E0EC57FF4FE49166
:1007C000E093CA028091C7020E944D1EE82FF0E01C
:1007D000EC57FF4FE491E093CB028091C7020E9457
:1007E0004D1EE92FF0E0EC57FF4FE4912BC08091B4
:1007F000C7026AE00E944D1EE82FF0E0EC57FF4F61
:10080000E491E093C9028091C7020E944D1EE92F36
:10081000F0E0EC57FF4FE491E093CA028091D602DA
:100820000E944D1EE82FF0E0EC57FF4FE491E0935B
:10083000CB028091D6020E944D1EE92FF0E0EC57CA
:10084000FF4FE491E093CC028091C40264E60E94E1
:100850004D1E90E043966AE070E00E946D1EFB0121
:10086000EC57FF4FE491E093CD028091C40264E61F
:100870000E944D1E90E043966AE070E00E946D1E5B
:10088000FC01EC57FF4FE491E093CE028091C4024B
:1008900064E60E944D1E892F6AE00E944D1EE82FDB
:1008A000F0E0EC57FF4FE491E093CF028091C40257
:1008B00064E60E944D1E892F6AE00E944D1EE92FBA
:1008C000F0E0EC57FF4FE491E093D00292C1813009
:1008D00009F08FC1A090C702B090D602C090C402A8
:1008E000E090BA02F090BB020091BC021091BD02F0
:1008F0008091A9028C3009F05EC051C08091C7027E
:100900008F5F8093C7028091C702803268F5809123
:10091000C7028F3181F48091D602843029F1809111
:10092000D602863009F18091D6028930E9F08091B3
:10093000D6028B30C9F08091C7028E3121F48091AC
:10094000D602823089F08091C7028D31A1F4809166
:10095000D602823081F48091C40290E08053984F97
:100960000E94CC01882339F4D092C7028091D6022C
:100970008F5F8093D6028091D6028D3038F0D0926E
:10098000D6028091C4028F5F8093C40280E69AEF02
:10099000AFEFBFEFE80EF91E0A1F1B1F02C0DD24D8
:1009A000D39490EAE91695E0F90690E0090790E003
:1009B00019070CF0A3CF8091D602C82FD0E0809108
:1009C000C402E82FF0E0E053F84F8091D602833064
:1009D00010F42C9631972091C7021092CF021092FA
:1009E000D00230E02F5F3F4F2E0F3F1FCE01880F08
:1009F000991F280F391FCF01969587959695879552
:100A0000280F391FCF0160E971E00E94591E260F9F
:100A1000371FCF0164E670E00E94591E261B370B7A
:100A2000AE014F5F5F4FCA01880F991F840F951F5A
:100A3000880F991F6AE070E00E94591EC901860F55
:100A4000971F67E070E00E94591E8330B9F0843030
:100A500028F4813069F0823070F407C08530A1F04D
:100A6000853078F08630B9F412C080E091E011C092
:100A700087E091E00EC08EE091E00BC086E191E04E
:100A800008C08FE191E005C088E291E002C08FE2EA
:100A900091E00E94140378941092B5021092B4026F
:100AA0008091B4029091B502885E9340C8F3109291
:100AB000CC021092CD021092CE028091D6028630E6
:100AC00079F1873070F4833011F1843028F481306B
:100AD000C1F08230D9F518C08430E1F08530B1F52D
:100AE0001CC0893031F18A3028F48730E1F0883039
:100AF00069F51CC08B3019F18B30F0F08C3031F57A
:100B000021C088E391E020C08CE391E01DC080E427
:100B100091E01AC086E491E017C08CE491E014C023
:100B200080E591E011C085E591E00EC08AE591E095
:100B30000BC080E691E008C085E691E005C08BE639
:100B400091E002C081E791E00E9414038091C70206
:100B50006AE00E944D1EE82FF0E0EC57FF4FE49151
:100B6000E093CF028091C7020E944D1EE92FF0E072
:100B7000EC57FF4FE491E093D0028091A9028C30B2
:100B800009F037C078941092B5021092B4028091A7
:100B9000B4029091B502885E9340C8F31092CC02E3
:100BA0001092CB021092CA021092C9028AED809371
:100BB000CD028CEF8093CE028091C4026AE00E9445
:100BC0004D1EE82FF0E0EC57FF4FE491E093CF0289
:100BD0008091C4020E944D1EE92FF0E0EC57FF4FB8
:100BE000E491E093D002A092C702B092D602C092E4
:100BF000C402DF91CF911F910F91FF90EF90DF9092
:100C0000CF90BF90AF900895CF93DF93EB011092F8
:100C1000C802882309F03BC087E791E00E941403D3
:100C2000CE0168E770E00E94591EFB01EC57FF4FB0
:100C3000E491E093C902CE016CE070E00E94591E7D
:100C4000CB016AE070E00E94591EFC01EC57FF4F97
:100C5000E491E093CA02CE016CE070E00E94591E5C
:100C60009C016AE070E00E94591EFB01EC57FF4FA7
:100C7000E491E093CF02C9016AE070E00E94591E3E
:100C8000FC01EC57FF4FE491E093D00229C080E8CB
:100C900091E00E941403CE0164E670E00E94591EA8
:100CA000FB01EC57FF4FE491E093C902CE0164E6EB
:100CB00070E00E94591E6AE070E00E94591EFB011C
:100CC000EC57FF4FE491E093CA02CE016AE070E076
:100CD0000E94591EFC01EC57FF4FE491E093CB02B8
:100CE000DF91CF910895CF93DF93EB011092C8026B
:100CF000882319F489E891E007C0813019F482E96A
:100D000091E002C08BE991E00E941403CE0164E6F9
:100D100070E00E94591EFB01EC57FF4FE491E093F5
:100D2000C902CE0164E670E00E94591E6AE070E0DC
:100D30000E94591EFB01EC57FF4FE491E093CA0259
:100D4000CE016AE070E00E94591EFC01EC57FF4F93
:100D5000E491E093CB02DF91CF910895EF92FF925F
:100D60000F931F937B018C011616170618061906A0
:100D70000CF0D7C02AE030E040E050E00E94A21E14
:100D8000FB01EC57FF4F64916093D002C801B7019B
:100D90002AE030E040E050E00E94A21E122F032F14
:100DA000F42EE52E622F732F842F952F2AE030E04A
:100DB00040E050E00E94A21EFB01EC57FF4F6491FF
:100DC0006093CF02612F702F8F2D9E2D2AE030E08F
:100DD00040E050E00E94A21E122F032FF42EE52EB9
:100DE000622F732F842F952F2AE030E040E050E0EF
:100DF0000E94A21EFB01EC57FF4F64916093CE024C
:100E0000612F702F8F2D9E2D2AE030E040E050E0C2
:100E10000E94A21E122F032FF42EE52E622F732F95
:100E2000842F952F2AE030E040E050E00E94A21E7F
:100E3000FB01EC57FF4F64916093CD02612F702F3F
:100E40008F2D9E2D2AE030E040E050E00E94A21E4F
:100E5000122F032FF42EE52E622F732F842F952F40
:100E60002AE030E040E050E00E94A21EFB01EC5777
:100E7000FF4F64916093CC02612F702F8F2D9E2DB8
:100E80002AE030E040E050E00E94A21E122F032F23
:100E9000F42EE52E622F732F842F952F2AE030E059
:100EA00040E050E00E94A21EFB01EC57FF4F64910E
:100EB0006093CB02612F702F8F2D9E2D2AE030E0A2
:100EC00040E050E00E94A21E122F032FF42EE52EC8
:100ED000622F732F842F952F2AE030E040E050E0FE
:100EE0000E94A21EFB01EC57FF4F64916093CA025F
:100EF000612F702F8F2D9E2D2AE030E040E050E0D2
:100F00000E94A21ECA01B9012AE030E040E050E090
:100F10000E94A21EFB01EC57FF4F64916093C9022F
:100F200004C084EA91E00E9414031F910F91FF9086
:100F3000EF900895EF92FF920F931F93A82FB62F73
:100F40008091A9028C3009F06FC08091D502843065
:100F500009F46AC0E090BA02F090BB020091BC02B2
:100F60001091BD028091C302A81740F08091C30286
:100F70008A1709F58091D1026817E8F42091C3021D
:100F80006091D1028091D802833019F041E050E0A5
:100F900002C044E050E030E084EC9FEFFC012E9F63
:100FA000C0012F9F900D3E9F900D1124861B91092B
:100FB00080569A4F1AC02091C3026091D10280914D
:100FC000D802833019F041E050E002C044E050E024
:100FD00030E084EC9FEFFC012E9FC0012F9F900D0D
:100FE0003E9F900D1124861B91092CE3A29F900136
:100FF0001124820F931F8B0F911D9C01429FC001F2
:10100000439F900D529F900D1124AA2797FDA09504
:10101000BA2FA8019701281B390B4A0B5B0BCA0199
:10102000B9010E94AE067DC01092D0021092CF028C
:101030001092CE028B2F6AE00E944D1EE92FF0E045
:10104000EC57FF4FE491E093CD028B2F0E944D1E91
:10105000E82FF0E0EC57FF4FE491E093CC021092C0
:10106000CB028091A802882309F03BC0AC3058F035
:101070008091C80281608093C802E7E7F0E0E491C4
:10108000E093CF020AC0E8E6F0E0E491E093CF02FB
:101090008091C8028E7F8093C802E4E7F0E0E4917B
:1010A000E093D0028A2F90E00B966CE070E00E94F3
:1010B0006D1E9C012F5F3F4FC9016AE070E00E94E6
:1010C0006D1EFC01EC57FF4FE491E093CA02C90189
:1010D0006AE070E00E946D1EFB01EC57FF4FE49147
:1010E0001EC08A2F90E0479668E170E00E946D1E56
:1010F0009C012F5F3F4FC9016AE070E00E946D1EA6
:10110000FC01EC57FF4FE491E093CA02C9016AE089
:1011100070E00E946D1EFB01EC57FF4FE491E093DD
:10112000C9021F910F91FF90EF9008954A9B36C01E
:101130008091D202882309F049C081E08093D202D5
:101140001092B3021092B2028DEA91E00E94140351
:1011500089E08093D50278941092B5021092B4027F
:101160008091B4029091B502885E9340C8F380915B
:10117000D3026091C5020E949A0778941092B5023A
:101180001092B4028091B4029091B502805D9740B4
:10119000C8F38091A9028093D50208958091D2026C
:1011A0008823A1F01092D2021092B3021092B202E0
:1011B0008091D402882351F01092D4028091810052
:1011C0008D7F8093810085B1866085B9089588E51B
:1011D00092E09093B3028093B20286EB91E00E947A
:1011E000140389E08093D50278941092B50210928E
:1011F000B4028091B4029091B502885E9340C8F326
:101200008091A9028093D50208951F920F920FB684
:101210000F9211242F933F934F935F936F937F937C
:101220008F939F93AF93BF93EF93FF9310926800B8
:101230007894189925C08091B60281FD26C07894D3
:101240001092B5021092B4028091B4029091B5024E
:101250000A97D0F3189919C00E94E5018091D40231
:10126000882319F00E94E70810C08091B6028260BE
:101270008093B6028091B70282608093B70205C066
:101280008091B6028D7F8093B60285E080936800DE
:10129000FF91EF91BF91AF919F918F917F916F914E
:1012A0005F914F913F912F910F900FBE0F901F9024
:1012B00018951F920F920FB60F9211242F933F9300
:1012C0004F935F936F937F938F939F93AF93BF934E
:1012D000EF93FF931092680078944D9922C080910B
:1012E000B60280FD23C078941092B5021092B40229
:1012F0008091B4029091B5020A97D0F34D9959C0EC
:101300000E94E5018091D4028823A1F58091B60264
:1013100081608093B6028091B70281608093B702AA
:1013200005C08091B6028E7F8093B6024C993AC078
:101330008091B60282FD3DC078941092B502109261
:10134000B4028091B4029091B5020A97D0F34C99FF
:1013500030C082E08093B90216C04C9B14C00E943A
:10136000E5018091B6028B7F8093B6028091D40212
:10137000882319F00E94E7081CC08091B70284609E
:101380008093B70216C08091B902882331F780910B
:10139000B60284608093B6028091B8028460809324
:1013A000B80207C01092B8028091B6028B7F80937A
:1013B000B60285E080936800FF91EF91BF91AF91F5
:1013C0009F918F917F916F915F914F913F912F915D
:1013D0000F900FBE0F901F90189581E58CBD08955A
:1013E0009B01AC01F894CA01AA27BB278EBD0DB49E
:1013F00007FEFDCFBB27A52F942F832F8EBD0DB4E5
:1014000007FEFDCF2EBD0DB407FEFDCF409A4098DC
:1014100078940895AF92BF92CF92DF92EF92FF92AD
:101420000F931F93E82FF0E0E057FF4FE49181E026
:1014300090E002C0880F991FEA95E2F77C0100272F
:10144000F7FC0095102F2091BF023091C00240910F
:10145000C1025091C202A0E0B0E070E091E0A92E7C
:10146000B12CC12CD12CCB010A2E02C095958795A9
:101470000A94E2F780FF11C0FD01E556FF4FE491A9
:10148000A601950104C0220F331F441F551FEA9582
:10149000D2F7E22AF32A042B152B1196A830B105B6
:1014A00011F72093BF023093C0024093C1025093C2
:1014B000C202C801B7010E94F0091F910F91FF906D
:1014C000EF90DF90CF90BF90AF9008951F920F9252
:1014D0000FB60F9211242F933F934F935F936F9307
:1014E0007F938F939F93AF93BF93EF93FF937894E2
:1014F000A8958091AE029091AF0201969093AF02B1
:101500008093AE02819708F46CC01092AF021092E3
:10151000AE028091B4029091B50201969093B5020B
:101520008093B4028091AD02893010F01092AD0228
:101530008091AD02E82FF0E0E853FD4F60810E94FA
:101540000A0A8091AD028F5F8093AD028091D40230
:10155000882309F446C08091B2029091B302892B8E
:1015600009F03FC08091B0029091B1020196909332
:10157000B1028093B0028536910598F11092B102C4
:101580001092B0028AEF90E09093870080938600DB
:1015900080918600909187009695879590938B0017
:1015A00080938A0080918A0090918B0090938900AB
:1015B000809388008091D402807F49F08091D4028A
:1015C0008F708093D402809181008D7F08C08091BC
:1015D000D402806F8093D4028091810082608093D6
:1015E0008100FF91EF91BF91AF919F918F917F917A
:1015F0006F915F914F913F912F910F900FBE0F9080
:101600001F9018958EBD0DB407FEFDCF08958AE09A
:1016100090E00E94BD1E8093C60285B1866085B9A8
:1016200082E3809380008091C602882329F0809114
:10163000800080688093800088E1809381008AEF39
:1016400090E090938700809386008091860090912F
:101650008700969587959093890080938800809164
:1016600088009091890090938B0080938A00089560
:1016700084E090E00E94BD1E68E10E944D1E9093A0
:10168000C30285E090E00E94BD1E6CE30E944D1EE7
:101690009093D10286E090E00E94BD1E6CE30E9410
:1016A0004D1E9093D70288E090E00E94BD1E6CE32F
:1016B0000E944D1E9093C50287E090E00E94BD1EDF
:1016C00068E10E944D1E9093D30281E090E00E9459
:1016D000BD1E64E60E944D1E9093C40282E090E01D
:1016E0000E94BD1E6DE00E944D1E9093D60283E0C5
:1016F00090E00E94BD1E8F718093C70291E090938D
:10170000AC02E6EBF0E080818062808385E080932C
:10171000B10090937000789408958091AA02882374
:10172000A9F180E880936100109261001092AA02F2
:1017300080E49CE90197F1F700B605FC27C00E9400
:10174000B90189E090E00E94BD1E0E94540281E52B
:101750008CBD5B9843988AE090E00E94BD1E809308
:10176000C6020E94070BA8950E94960880E793E0A6
:1017700061E00E940D0280EE96E061E00E940D02A1
:1017800080EC9DE061E00E940D02A89508950F9302
:101790001F938AE08093BE028BE090E00E94BD1E02
:1017A0008093A80210E00AE001C010E08091B70227
:1017B000882321F48091B802882319F00093BE0297
:1017C00004C08091BE028823C9F08091B70280FDD9
:1017D0003AC08091B70281FF16C01092B702112360
:1017E00069F48091A802882319F48FEB91E002C07C
:1017F00088EC91E00E94140311E005C08091A902D9
:101800008093D50220C08091B70282FFCFCF109283
:10181000B702113051F690E08091A802882309F4B4
:1018200091E09093A802992319F48FEB91E002C004
:1018300088EC91E00E9414038BE090E06091A80294
:101840000E94CB1EB3CF1F910F910895EF92FF928C
:101850000F931F938AE08093BE028AE090E00E947B
:10186000BD1EF82E00E04AE0E42E01C000E08091A9
:10187000B702882321F48091B802882319F0E092FE
:10188000BE0204C08091BE02882369F18091B70234
:1018900080FD68C08091B70281FF2AC01092B70214
:1018A000002309F5FF2051F081ED91E00E9414031F
:1018B0008091CD0281608093CD0204C08AED91E0D9
:1018C0000E9414038091CE0281608093CE028091A9
:1018D000CF0281608093CF028091D002816080939B
:1018E000D00201E005C08091A9028093D5023AC0E0
:1018F0008091B70282FFBBCF1092B702013009F08E
:10190000B5CF10E0FF2009F411E0F12E112351F0C2
:1019100081ED91E00E9414038091CD02816080935B
:10192000CD0204C08AED91E00E9414038091CE02A2
:1019300081608093CE028091CF0281608093CF023C
:101940008091D00281608093D0028AE090E0612F84
:101950000E94CB1E0E94070B80EA9FE061E00E947C
:101960000D0285CF1F910F91FF90EF9008953F9248
:101970004F925F926F927F928F929F92AF92BF929F
:10198000CF92DF92EF92FF920F931F938AE08093A2
:10199000BE0289E090E00E94BD1E182F20E06AE0A0
:1019A000362E0EE15AE5552E45E5442E30E5732ED0
:1019B0009BE4692E86E4882EB1E4AB2EACE39A2E2C
:1019C000F7E3BF2EE2E3DE2E7DE2C72E68E2F62EBD
:1019D00053E2E52E01C020E08091B702882321F474
:1019E0008091B802882319F03092BE0204C0809121
:1019F000BE02882349F18091B70280FD8BC080919F
:101A0000B70281FF2BC01092B7022223E9F483EEC4
:101A100091E00E941403812F6AE00E944D1EE82F7E
:101A2000F0E0EC57FF4FE491E160E093CF02812FAB
:101A30000E944D1EE92FF0E0EC57FF4FE491E1606A
:101A4000E093D00221E00AC08091A9028093D502E0
:101A500089E090E0612F0E94CB1E5CC08091B702AC
:101A600082FD04C08091B80282FFB6CF1092B70207
:101A7000213009F0B0CF1B5F1C3508F01EE1812F2B
:101A80006AE00E944D1EE82FF0E0EC57FF4FE49112
:101A9000E160E093CF02812F0E944D1EE92FF0E01C
:101AA000EC57FF4FE491E160E093D0021F3180F1E9
:101AB000143210F4E7BC90CF193210F4F7BC8CCF7D
:101AC0001E3210F4C7BC88CF133310F4D7BC84CFB8
:101AD000183310F4B7BC80CF1D3310F497BC7CCF03
:101AE000123410F4A7BC78CF173410F487BC74CF2D
:101AF0001C3410F467BC70CF113510F477BC6CCF78
:101B0000163510F447BC68CF1B3511F057BC64CFB5
:101B100007BD62CF1F910F91FF90EF90DF90CF90A4
:101B2000BF90AF909F908F907F906F905F904F90FD
:101B30003F900895FF920F931F938AE08093BE0217
:101B400010E00AE0FF24F3948091B702882321F487
:101B50008091B802882319F00093BE0205C08091DD
:101B6000BE02882309F46DC08091B70280FD05C1D3
:101B70008091B70281FF6AC01092B7021123A9F4C5
:101B80008091A802882311F012E001C011E080E0EA
:101B90000E943B038091C90281608093C9028091B9
:101BA000CA0281608093CA0251C0113029F4809129
:101BB000A802882339F020C01230E1F48091A802F5
:101BC0008130A9F48091A802882311F011E001C0AE
:101BD00012E080E00E943B038091CC028160809300
:101BE000CC028091CD0281608093CD022FC08823EA
:101BF00039F015C0113099F48091A802813079F440
:101C000080E00E943B038091CF0281608093CF02ED
:101C10008091D00281608093D00213E017C083E6E8
:101C20008093D50280E00E943B0378941092B50225
:101C30001092B4028091B4029091B5028C5D9540EF
:101C4000C8F38091A9028093D50297C08091B70212
:101C500082FD04C08091B80282FF76CF1092B70255
:101C6000113061F58091D6028F5F8093D60280910A
:101C7000D6028D3010F01093D60280E00E943B0314
:101C80008091A802882359F48091C90281608093D1
:101C9000C9028091CA0281608093CA020AC0809101
:101CA000CC0281608093CC028091CD0281608093D0
:101CB000CD026091D60282E090E04DC0123061F515
:101CC0008091C7028F5F8093C7028091C7028032E4
:101CD00010F0F092C70280E00E943B038091A802BE
:101CE000813059F48091C90281608093C90280914A
:101CF000CA0281608093CA020AC08091CC028160CE
:101D00008093CC028091CD0281608093CD0260915E
:101D1000C70283E090E01FC01330F9F48091C40241
:101D20008F5F8093C4028091C40264E60E944D1EBE
:101D30009093C40280E00E943B038091CF028160B7
:101D40008093CF028091D00281608093D002609115
:101D5000C40281E090E00E94CB1E8091B80282FF15
:101D6000F3CE78941092B5021092B4028091B4022E
:101D70009091B502CC97D0F3E7CE1F910F91FF90D1
:101D80000895DF92EF92FF920F931F93E090C302AA
:101D9000F090D1020091D7028AE08093BE0210E059
:101DA0007AE0D72E8091B70280FDD9C08091B7022A
:101DB000882321F48091B802882319F0D092BE02C2
:101DC00005C08091BE02882309F44BC08091B70200
:101DD00081FF4CC01092B7021123B9F4E090C30206
:101DE000F090D1020091D7028E2D6F2D402F0E94CE
:101DF00098028091C90281608093C9028091CA02D1
:101E000081608093CA0211E031C0113089F48E2DB7
:101E10006F2D402F0E9498028091CC0281608093A8
:101E2000CC028091CD0281608093CD0212E01EC071
:101E3000123089F48E2D6F2D402F0E9498028091D0
:101E4000CF0281608093CF028091D0028160809325
:101E5000D00213E00BC0E092C302F092D1020093D3
:101E6000D7028091A9028093D50279C08091B702F0
:101E700082FD04C08091B80282FF94CF1092B70215
:101E80001130F9F48E2D90E0019668E170E00E9427
:101E90006D1EE82E6F2D402F0E9498028091C9027E
:101EA00081608093C9028091CA0281608093CA02D6
:101EB000E092C3026091C30284E090E00E94CB1ED6
:101EC0003DC0123001F58F2D90E001966CE370E07B
:101ED0000E946D1EF82E8E2D6F2D402F0E949802AD
:101EE0008091CC0281608093CC028091CD02816090
:101EF0008093CD026091D10285E090E00E94CB1EDC
:101F0000F092D1021BC01330C9F4802F90E00196EB
:101F10006CE370E00E946D1E082F8E2D6F2D402FF8
:101F20000E9498028091CF0281608093CF028091BD
:101F3000D00281608093D0020093D7028091B802D2
:101F400082FF30CF78941092B5021092B402809143
:101F5000B4029091B5028B349105C8F323CF1F9141
:101F60000F91FF90EF90DF900895EF92FF920F9303
:101F70001F931091D3020091C5028AE08093BE02A4
:101F8000FF24FAE0EF2E8091B70280FDB3C080916C
:101F9000B702882321F48091B802882319F0E092D7
:101FA000BE0219C08091BE028823A9F48091A902C3
:101FB0008093D5021093D3020093C5026091D3029F
:101FC00087E090E00E94CB1E6091C50288E090E01F
:101FD0000E94CB1E8FC08091B70281FF3EC010923D
:101FE000B702FF2089F4812F602F0E949A07809109
:101FF000C90281608093C9028091CA028160809386
:10200000CA02FF24F39429C081E0F81689F4812FD5
:10201000602F0E949A078091CC0281608093CC024D
:102020008091CD0281608093CD02E2E0FE2E15C04A
:102030001093D3020093C5026091D30287E090E031
:102040000E94CB1E6091C50288E090E00E94CB1EEA
:102050008091A9028093D5024DC08091B70282FD84
:1020600004C08091B80282FF8ECF1092B70281E047
:10207000F816B1F4812F90E0019668E170E00E94BB
:102080006D1E182F602F0E949A078091C9028160EF
:102090008093C9028091CA0281608093CA0219C0EC
:1020A00082E0F816B1F4802F90E001966CE370E0C6
:1020B0000E946D1E082F812F602F0E949A07809129
:1020C000CC0281608093CC028091CD0281608093AC
:1020D000CD028091B80282FF56CF78941092B5025B
:1020E0001092B4028091B4029091B5028B349105A4
:1020F000C8F349CF1F910F91FF90EF9008951F9261
:102100000F920FB60F9211242F933F934F935F932B
:102110006F937F938F939F93AF93BF93EF93FF93AF
:1021200000B605FE22C08091AA028823B9F55B9A09
:1021300085B1877D85B95E988CB58F7B8CBD80918C
:10214000AC02882361F06091D10285E090E00E94AA
:10215000CB1E6091D70286E090E00E94CB1E15BC9A
:102160001092C6021092680014C08091AA028823BF
:10217000A9F08091AC02882361F06091D10285E0E2
:1021800090E00E94CB1E6091D70286E090E00E9412
:10219000CB1EE091A602F091A7020995FF91EF9165
:1021A000BF91AF919F918F917F916F915F914F916F
:1021B0003F912F910F900FBE0F901F9018951F9277
:1021C0000F920FB60F9211242F933F934F935F936B
:1021D0006F937F938F939F93AF93BF93EF93FF93EF
:1021E00080E880936100109261008091D7028F5F38
:1021F0008093D7028091D7028C33A8F11092D70236
:102200008091D1028F5F8093D1028091BA02909128
:10221000BB02A091BC02B091BD02181619061A06A5
:102220001B060CF52091BA023091BB024091BC0212
:102230005091BD028091D802833029F081E090E076
:10224000A0E0B0E004C084E090E0A0E0B0E0281B93
:10225000390B4A0B5B0B2093BA023093BB024093BD
:10226000BC025093BD028091D1028C3398F0109241
:10227000D1028091C3028F5F8093C3026091C30239
:1022800084E090E00E94CB1E6091D10285E090E056
:102290000E94CB1E8091C302883168F01092C30265
:1022A0008091C7028F5F8093C7026091C70283E06D
:1022B00090E00E94CB1E8091C702803268F5809129
:1022C000C7028F3181F48091D602843029F1809148
:1022D000D602863009F18091D6028930E9F08091EA
:1022E000D6028B30C9F08091C7028E3121F48091E3
:1022F000D602823089F08091C7028D31D9F4809165
:10230000D6028230B9F48091C40290E08053984F95
:102310000E94CC01882371F481E08093C7028091F0
:10232000D6028F5F8093D6026091D60282E090E061
:102330000E94CB1E8091D6028D3070F08091C40235
:102340008F5F8093C40281E08093D6026091C402C3
:1023500081E090E00E94CB1E8091AA02882309F0C0
:10236000F9C08091D502882311F58091AB028823B2
:1023700049F08091D70280FF05C08AEE91E00E946B
:10238000140308C08091C3026091D1024091D7022A
:102390000E9498028091D202882321F08091C80285
:1023A000826003C08091C8028D7F8093C8028091B3
:1023B000D5028C3009F08BC02091BA023091BB025B
:1023C0004091BC025091BD028091D802833029F027
:1023D00080E090E0A0E0B0E008C08091D7026FE01C
:1023E0000E944D1E90E0A0E0B0E0281B390B4A0B84
:1023F0005B0B12161306140615060CF057C020913D
:10240000BA023091BB024091BC025091BD02809152
:10241000D802833029F080E090E0A0E0B0E008C06E
:102420008091D7026FE00E944D1E90E0A0E0B0E0E6
:10243000281B390B4A0B5B0BCA01B9010E94AE067F
:102440008091D7026BE370E0681B71099B01442700
:1024500037FD4095542F25FF05C08091CB02816048
:102460008093CB0224FF05C08091CC0281608093D1
:10247000CC0223FF05C08091CD0281608093CD0204
:1024800022FF05C08091CE0281608093CE0221FFA1
:1024900005C08091CF0281608093CF0260FF0AC0A7
:1024A0008091D00281608093D00204C084EA91E0E0
:1024B0000E9414038091D202882321F08091C802E7
:1024C000826003C08091C8028D7F8093C802809192
:1024D000D2028823B9F09091D3028091C302981759
:1024E00089F49091C5028091D102981759F4809196
:1024F000D702882339F481E08093D4021092B3028A
:102500001092B2028091BE02882329F08091BE020F
:1025100081508093BE028091B902882329F0809176
:10252000B90281508093B9028091B2029091B302B6
:10253000009781F001979093B3028093B20280FFDD
:1025400004C08091C802826003C08091C8028D7F60
:102550008093C802FF91EF91BF91AF919F918F91AE
:102560007F916F915F914F913F912F910F900FBE8F
:102570000F901F9018955F926F927F928F929F920B
:10258000AF92BF92CF92DF92EF92FF920F931F9381
:10259000CF93DF938AE08093BE029090C702609051
:1025A000D6027090C40284E190E00E94BD1E582EB5
:1025B00085E190E00E94BD1EB82E8FE090E00E9461
:1025C000BD1E8093C7028EE090E00E94BD1E8093E6
:1025D000D60280E190E00E94BD1E8093C40286E195
:1025E00090E00E94BD1EE82E8BE190E00E94BD1E8F
:1025F000A82E87E190E00E94C51EEC0189E190E0E1
:102600000E94C51E6C0100E09AE0892EFF24F3941D
:102610008091B702882321F48091B802882319F0B1
:102620008092BE0205C08091BE02882309F442C197
:102630008091B70280FD42C18091B70281FF54C1F1
:102640001092B7020023A9F48091A802882311F008
:1026500002E001C001E082E00E943B038091C902D8
:1026600081608093C9028091CA0281608093CA020E
:102670003BC1013029F48091A802882339F020C0A1
:102680000230E1F48091A8028130A9F48091A8027F
:10269000882311F001E001C002E082E00E943B03C8
:1026A0008091CB0281608093CB028091CC028160CB
:1026B0008093CC0219C1882341F079C00130F1F434
:1026C0008091A802813009F072C082E00E943B0331
:1026D0008091CD0281608093CD028091CE02816095
:1026E0008093CE028091CF0281608093CF0280914F
:1026F000D00281608093D00203E0F6C0033059F429
:10270000552019F083EF91E002C08CEF91E00E9418
:10271000140304E0E9C00430B9F4BB2019F485E0E7
:1027200092E00EC021E0B21619F48EE092E008C0EB
:1027300082E0B81619F487E192E002C080E292E0EC
:102740000E94140305E0D0C0053089F4EE2019F48E
:1027500089E292E008C0A1E0EA1619F482E392E06F
:1027600002C08BE392E00E94140306E0BDC0063075
:1027700031F48E2DBE010E94730607E0B5C007300C
:1027800049F4B2E0EB1641F08E2DB6010E9404062A
:1027900008E0AAC0083059F4AA2031F084E492E09D
:1027A0000E94140309E0A0C08DE492E0F9CF83E613
:1027B0008093D5020091D602F090C7021091C40216
:1027C0008E2DB601AE010E94B01A882E8091C302F0
:1027D0009091D1022091D70200D000D0EDB7FEB782
:1027E00031961459372D3053ADB7BEB71196AC9210
:1027F000818392832383802F6F2D412F262D092DD6
:10280000E32EC52CAB2C0E94A31B7B018C01B09244
:10281000D8020F900F900F900F9082E190E0692DF9
:102820000E94CB1E81E190E0662D0E94CB1E83E1C9
:1028300090E0672D0E94CB1E6091D1028DE190E067
:102840000E94CB1E6091C3028CE190E00E94CB1EDF
:102850006091D7028EE190E00E94CB1E8091C3026E
:102860002CE3829FC0011124AA2797FDA095BA2FBF
:10287000E81AF90A0A0B1B0B8091D102E81AF10839
:1028800001091109E092BA02F092BB020093BC0266
:102890001093BD02C801B7010E94AE067894109251
:1028A000B5021092B4028091B4029091B5028C5D91
:1028B0009540C8F38091A9028093D5029092C702F7
:1028C0006092D6027092C402DF91CF911F910F9156
:1028D000FF90EF90DF90CF90BF90AF909F908F9040
:1028E0007F906F905F9008958091B70282FD04C041
:1028F0008091B80282FF8CCE1092B702013061F550
:102900008091D6028F5F8093D6028091D6028D305F
:1029100010F00093D60282E00E943B038091A8024F
:10292000882359F48091C90281608093C902809103
:10293000CA0281608093CA020AC08091CB02816082
:102940008093CB028091CC0281608093CC02609115
:10295000D6028EE090E010C1023061F58091C7028E
:102960008F5F8093C7028091C702803210F0F0928F
:10297000C70282E00E943B038091A802813059F493
:102980008091C90281608093C9028091CA028160EE
:102990008093CA020AC08091CB0281608093CB02EF
:1029A0008091CC0281608093CC026091C7028FE05D
:1029B00090E0E2C0033041F58091C4028F5F8093C4
:1029C000C4028091C40268EC0E944D1E9093C40220
:1029D00082E00E943B038091CD0281608093CD0212
:1029E0008091CE0281608093CE028091CF0281607F
:1029F0008093CF028091D00281608093D002609159
:102A0000C40280E190E0B8C0043089F410E05520A1
:102A100009F411E0512E112319F083EF91E002C067
:102A20008CEF91E00E94140384E190E0A4C0053093
:102A3000D9F4B39423E0B22219F485E092E00EC0F9
:102A400081E0B81619F48EE092E008C0A2E0BA1650
:102A500019F487E192E002C080E292E00E94140340
:102A600085E190E06B2D88C0063049F58E2D8F5F93
:102A700063E00E944D1EE92E992351F489E292E011
:102A80000E941403C3E2D0E084E2C82ED12C13C00C
:102A9000B1E09B1751F482E392E00E941403CFE06F
:102AA000D0E01CE5C12ED12C06C08BE392E00E9441
:102AB0001403C0E0D0E086E190E06E2D5DC00730E9
:102AC00009F5EE2041F4259622E0C539D20780F0C1
:102AD000C3E2D0E00DC081E0E81641F42396A1E006
:102AE000CD32DA0728F0CFE0D0E002C02196D070D6
:102AF00087E190E0BE010E94D91E8E2DBE010E948A
:102B000073063CC0083029F5EE2059F40894C11C26
:102B1000D11CB9E7CB16D10490F0B4E2CB2ED12C66
:102B20000EC021E0E21659F40894C11CD11C82E3C6
:102B3000C81681E0D80618F0ACE5CA2ED12C89E180
:102B400090E0B6010E94D91E8E2DB6010E940406A7
:102B500015C0093099F410E0AA2009F411E0A12E63
:102B6000112319F084E492E002C08DE492E00E9407
:102B700014038BE190E0612F0E94CB1E8091B8027C
:102B800082FF46CD78941092B5021092B4028091E3
:102B9000B4029091B502CC97D0F33ACD1F920F9228
:102BA0000FB60F9211242F933F934F935F936F9320
:102BB0007F938F939F93AF93BF93EF93FF9389E698
:102BC0000E94471829B1789478941092B502109217
:102BD000B4028091B4029091B5020A97D0F389B102
:102BE000247030E090E0847090702817390711F459
:102BF0000E949608FF91EF91BF91AF919F918F91A5
:102C00007F916F915F914F913F912F910F900FBEE8
:102C10000F901F9018956F927F928F929F92AF9214
:102C2000BF92CF92DF92EF92FF920F931F93CF93B9
:102C3000DF9385E190E00E94BD1E8093D8028EE074
:102C400090E00E94BD1E682E8FE090E00E94BD1EA5
:102C5000782E80E190E00E94BD1EB82E81E190E0C8
:102C60000E94BD1E982E82E190E00E94BD1E082F9A
:102C700083E190E00E94BD1ED82E84E190E00E9486
:102C8000BD1EC82EA090D80286E190E00E94BD1E15
:102C9000182F89E190E00E94C51E7C0187E190E039
:102CA0000E94C51EAC01812FB7010E94B01A882E68
:102CB0008BE190E00E94BD1EE82E8CE190E00E9426
:102CC000BD1EF82E8DE190E00E94BD1E182F8EE1F2
:102CD00090E00E94BD1E00D000D0EDB7FEB7319647
:102CE0002CE6B20E30EDD30EADB7BEB71196EC9216
:102CF000F18212838383862D672D4B2D292DED2C98
:102D00000E94A31B5B016C010F900F900F900F901E
:102D100081E190E00E94BD1EF82E82E190E00E94C9
:102D2000BD1E182F83E190E00E94BD1E2091D602A7
:102D30000091C7029091C402482F405390538F2DA9
:102D4000612FE92E0E9493199B01AC018091D8025A
:102D5000833031F0F1E0EF2EF12C012D112D05C063
:102D6000E4E0EE2EF12C012D112D6090C302809134
:102D7000D802833021F071E0872E912C03C064E0EB
:102D8000862E912C7090D1028091D802833019F058
:102D9000C1E0D0E002C0C4E0D0E0CA01B90120EA3D
:102DA00035E040E050E00E942E1EA80197010E94ED
:102DB0002E1EA61AB70AC80AD90A8CE3689EC0015B
:102DC00011249C01289DC001299D900D389D900DD6
:102DD0001124AA2797FDA095BA2FA81AB90ACA0AE2
:102DE000DB0A872D90E0DC01CA9FC001CB9F900DCC
:102DF000DA9F900D1124AA2797FDA095BA2FA81A43
:102E0000B90ACA0ADB0AA092BA02B092BB02C09207
:102E1000BC02D092BD02DF91CF911F910F91FF9024
:102E2000EF90DF90CF90BF90AF909F908F907F906A
:102E30006F9008959F92AF92BF92CF92DF92EF92E0
:102E4000FF920F931F9315BC569A5E9884B714BED9
:102E500090E00E94B31888E10FB6F8948093600068
:102E6000109260000FBE2FE088E190E00FB6F8945A
:102E7000A895809360000FBE20936000A89511E094
:102E80001093AB021092AC028AE190E00E943A18D3
:102E900088E480BF80ED97E00197F1F700B605FE6A
:102EA00006C080B7806180BF0E94380B22C00E949C
:102EB000B9015B98109369001DBB1092D50281E5A2
:102EC0008CBD89E090E00E94BD1E0E94540278945F
:102ED0008BE090E00E94BD1E8093A8020E94070B29
:102EE00080EA9FE061E00E940D020E94380B0E9480
:102EF00096082CE0922E93E6A92E86E0B82E04E0E8
:102F0000C02E18E0D12EB7E0EB2EABE0FA2E05E094
:102F100013E0A89500B605FE03C00E948D01F9CF0D
:102F20008091B70280FF59C01092B7028091D502FC
:102F3000853079F1863038F4833011F18430A8F48B
:102F4000882351F063C08730B1F1873058F1883061
:102F5000D9F18C3009F05AC0C092D50286E592E0D2
:102F60000E9414030E94B50FD4CF1093D50280E6BF
:102F700092E00E9414030E94C10E1092AB02C9CFCE
:102F80000093D50289E692E00E9414030E949A0DF4
:102F9000C0CFB092D50282E792E00E9414030E9453
:102FA000B70CB7CFE092D5028BE792E00E941403F2
:102FB0000E94260CAECFD092D50284E892E00E9407
:102FC00014030E94C70BA5CFF092D5028DE892E0C2
:102FD0000E9414030E94BB129CCF8091B70281FF14
:102FE0001AC01092B702A092D50281E00E943B0362
:102FF000A89578941092B5021092B4028091B40210
:103000009091B5028C5D9540C8F3A8958091A90276
:103010008093D5027ECF8091B70282FF7ACF109243
:10302000B7028091A902882319F49092A90202C0E4
:103030001092A9028091A9028093D5020E940B16DA
:1030400068CF06C090E000009F5F9E31E1F781509D
:103050008823C1F7089548EC50E009C020E137E229
:10306000FA013197F1F721503040D1F78150882390
:10307000A9F708959093C5008093C40088E18093D8
:10308000C1008EE08093C200519A50980895982F05
:103090008091C00085FFFCCF9093C60080E090E057
:1030A00008958091C00087FFFCCF8091C6000895ED
:1030B0008091C00080780895AC0120E007C0809125
:1030C000C00085FFFCCF3093C6002F5FFA01E20FEE
:1030D000F11D3491332399F7662371F08091C0007C
:1030E00085FFFCCF8AE08093C6008091C00085FFF9
:1030F000FCCF8DE08093C6000895FC0107C080914D
:10310000C00085FFFCCF31969093C6009081992333
:10311000B1F70895282F982F92959F709A3030F428
:103120008091C00085FFFCCF905D05C08091C000FC
:1031300085FFFCCF995A9093C600822F90E08F7044
:1031400090700A973CF48091C00085FFFCCF2F70EF
:10315000205D06C08091C00085FFFCCF2F70295AEA
:103160002093C60008951F93182F892F0E948A1854
:10317000812F0E948A181F910895EF92FF920F935A
:103180001F937B018C01C801AA27BB270E94B3189B
:10319000C7010E94B3181F910F91FF90EF900895FF
:1031A0000F931F93CF93DF938C01E0E1F7E240E0B0
:1031B000C0E0D0E0C801BF010E94591E262F66233F
:1031C00029F4442319F4E130F10549F48091C00059
:1031D00085FFFCCF205D2093C600205341E0CF0146
:1031E0006AE070E00E94591E2196C530D10571F049
:1031F000822F90E09C012E9FC0012F9F900D3E9F3B
:10320000900D1124081B190BFB01D4CFDF91CF9136
:103210001F910F9108954F925F926F927F928F92BC
:103220009F92AF92BF92CF92DF92EF92FF920F9355
:103230001F93CF93DF934B015C01E12C9AECF92EA5
:103240009AE9092F9BE3192F4424C0E0D0E0C5017F
:10325000B401A80197010E94801ED22E222341F4BE
:10326000442031F481E0E816F1040105110561F410
:103270008091C00085FFFCCF80E3D80ED092C600BD
:1032800080EDD80E44244394C801B7012AE030E011
:1032900040E050E00E94801EC22E732E642E552EF8
:1032A0002196CA30D105A9F06D2D70E080E090E044
:1032B000A80197010E942E1E861A970AA80AB90A29
:1032C0002C2D372D462D552DC901DA017C018D019C
:1032D000BECFDF91CF911F910F91FF90EF90DF90C4
:1032E000CF90BF90AF909F908F907F906F905F90A6
:1032F0004F9008959C0160E971E00E94591E892B4E
:1033000011F481E00895C90164E670E00E94591E3D
:10331000892B11F480E0089580E023703070232B16
:1033200009F481E008954F925F926F927F928F929D
:103330009F92AF92BF92CF92DF92EF92FF920F9344
:103340001F93CF93DF93382F562F942E522E402E5B
:103350008E2CE41620F0E41691F4281780F4852DC5
:10336000642D482D232F052FE92C0E949319222725
:103370003327A901261B370B480B590BDEC0351527
:1033800069F4981409F053C0842D90E0851B9109CD
:103390009C01442737FD4095542FCFC0981409F065
:1033A00046C0C32FD0E0FE01E255FD4FE4918E2FC1
:1033B00090E0851B91097C010027F7FC0095102FF8
:1033C000323041F4892D90E00E947A19E80EF11C08
:1033D000011D111D9FEAA92E92E0B92EAC0EBD1E53
:1033E000CC24DD243E010894611C711CC52DD0E065
:1033F00017C0F5018491E80EF11C011D111D22304A
:10340000310541F4892D90E00E947A19E80EF11CF3
:10341000011D111D0894C11CD11C0894A11CB11CD4
:1034200093012C0D3D1D2C173D071CF380C0C32FAD
:10343000D0E0FE01E255FD4FE4918E2F90E0851B18
:1034400091097C010027F7FC0095102F323041F4E0
:10345000892D90E00E947A19E80EF11C011D111DC2
:103460008FEAA82E82E0B82EAC0EBD1ECC24DD243F
:10347000219617C0F5018491E80EF11C011D111D64
:103480002230310541F4892D90E00E947A19E80E2E
:10349000F11C011D111D0894C11CD11C0894A11C14
:1034A000B11C9E012C0D3D1D2D3031051CF3892DC5
:1034B00090E06C010894C11CD11CC0E0D0E03C013C
:1034C000A82CBB2411C0C6010E947A1990E0835930
:1034D0009E4FAA2797FDA095BA2FE80EF91E0A1F46
:1034E0001B1F0894C11CD11C2196CE01860D971D6F
:1034F0008A159B0544F3C1E0D0E0C52CDD2414C03F
:10350000FE01E255FD4FE491EE0EF11C011D111D6F
:10351000C230D10541F4882D90E00E947A19E80E5E
:10352000F11C011D111D2196CC15DD054CF3A801E0
:103530009701240D311D411D511DB901CA01DF91B3
:10354000CF911F910F91FF90EF90DF90CF90BF90A0
:10355000AF909F908F907F906F905F904F90089565
:10356000EF92FF920F931F937B01882341F4BA01DE
:1035700080E090E02FEB32E040E050E009C0813085
:1035800011F5BA0180E090E020E137E240E050E040
:103590000E942E1E00E010E0A80197010E94801EEC
:1035A000CA01B901A80197010E94801EC901DA0170
:1035B0008F3F9105A105B10539F030F08FEF90E014
:1035C000A0E0B0E001C0842F1F910F91FF90EF9019
:1035D00008952F923F924F925F926F927F928F92B7
:1035E0009F92AF92BF92CF92DF92EF92FF920F9392
:1035F0001F93CF93DF93EC01288039804A805B8052
:103600006C807D808E809F80AA24BB246501F5019B
:10361000E370F070EE0FFF1FEE0FFF1FEA56FD4F35
:10362000E080F18002811381EA0CFB1C0C1D1D1D42
:10363000D401C30175E0B695A795979587957A95BE
:10364000D1F7A401930164E0220F331F441F551FDB
:103650006A95D1F782279327A427B527860D971D52
:10366000A81DB91DE826F9260A271B272E0C3F1C8A
:10367000401E511E89EB99E7A7E3BEE9A80EB91ECB
:10368000CA1EDB1EA2019101F5E0569547953795BC
:103690002795FA95D1F7D201C101E4E0880F991F6F
:1036A000AA1FBB1FEA95D1F7282739274A275B278E
:1036B000220D331D441D551DD601C5017BE0B69575
:1036C000A795979587957A95D1F783709070880F15
:1036D000991F880F991F8A569D4FFC018081918107
:1036E000A281B3818A0D9B1DAC1DBD1D28273927E2
:1036F0004A275B27620E731E841E951EF0E2AF16EA
:10370000F7E3BF06FFEECF06F6ECDF0609F07FCF4A
:10371000288239824A825B826C827D828E829F827D
:10372000DF91CF911F910F91FF90EF90DF90CF909D
:10373000BF90AF909F908F907F906F905F904F90D1
:103740003F902F9008958F92AF92BF92CF92DF92C9
:10375000EF92FF920F931F93DF93CF93CDB7DEB716
:1037600028970FB6F894DEBF0FBECDBFE82FF42F19
:10377000722FBC2C8A2D8150823008F040C030E07E
:1037800040E050E03961802F90E0A0E0B0E0B82F39
:10379000AA2799278827282B392B4A2B5B2B8E2D7C
:1037A00090E0A0E0B0E0DC0199278827282B392B96
:1037B0004A2B5B2B29833A834B835C832F8930E030
:1037C00040E050E0542F432F322F2227888D90E085
:1037D000A0E0B0E0282B392B4A2B5B2B426B898D64
:1037E00090E0A0E0B0E0B82FAA2799278827282BDF
:1037F000392B4A2B5B2B2D833E834F8358878E2F8B
:103800004F2F272F0E9493192AE030E040E050E02C
:103810000E942E1E7B018C0125E43EE040E050E03A
:103820000E94801E6901BB2029F026E33BE644E0AC
:1038300050E004C02AE83CE144E050E0BA01A901AC
:103840004E195F09600B710B882D90E08E32910547
:103850001CF08DE290E005C08831910514F488E1F8
:1038600090E08C010851104083E0A81609F0A5C033
:10387000BB2009F04BC0475E5F40624070409E89AC
:10388000913051F5A7E9B2E020E030E0FD018591EB
:103890009491C816D906D0F4F901EE0FFF1FEE0F70
:1038A000FF1FE756FD4F25913491C901E3E0880FD2
:1038B000991FEA95E1F7220F331F820F931FA0E0B3
:1038C000B0E0481B590B6A0B7B0B06C02F5F3F4FC4
:1038D000149623303105D1F6E0EDF1E0849190E0CB
:1038E000C816D9061CF480E090E009C07796849150
:1038F00090E0C816D9060CF08CC187E190E0080F63
:10390000191F0F521E4FF80184913FC0445B5A4368
:1039100062407040A3EAB2E020E030E0FD01859112
:103920009491C816D906D0F4F901EE0FFF1FEE0FDF
:10393000FF1FEB55FD4F25913491C901E3E0880F3E
:10394000991FEA95E1F7220F331F820F931FA0E022
:10395000B0E0481B590B6A0B7B0B06C02F5F3F4F33
:10396000149623303105D1F620E030E0F901E25021
:10397000FE4FE4918E2F90E0C816D906C4F4020FD2
:10398000131F01501E4FF801849190E025E43EE0A2
:10399000DC01A29FC001A39F900DB29F900D112446
:1039A000A0E0B0E0481B590B6A0B7B0B32C1295ECB
:1039B0003F4F25343105D1F62CC1BB2009F045C05D
:1039C000BE89B13051F5A3E4B2E020E030E0FD0162
:1039D00085919491C816D906D0F4F901EE0FFF1F16
:1039E000EE0FFF1FEB5BFD4F25913491C901E3E022
:1039F000880F991FEA95E1F7220F331F820F931F5B
:103A0000A0E0B0E0481B590B6A0B7B0B06C02F5F90
:103A10003F4F14962B303105D1F620E030E0F9010C
:103A2000EB55FF4FE4918E2F90E0C816D9063CF479
:103A3000020F131F0A551F4FF801849144C0295EDD
:103A40003F4F2A38310559F755C0BE89B13051F57D
:103A5000AFE6B2E020E030E0FD0185919491C81618
:103A6000D906D0F4F901EE0FFF1FEE0FFF1FEF583C
:103A7000FD4F25913491C901F3E0880F991FFA9504
:103A8000E1F7220F331F820F931FA0E0B0E0481B25
:103A9000590B6A0B7B0B06C02F5F3F4F14962A30E1
:103AA0003105D1F620E030E0F901E15DFE4FE4910F
:103AB0008E2F90E0C816D906C4F4020F131F005DC4
:103AC0001E4FF801849190E025E43EE0DC01A29FC6
:103AD000C001A39F900DB29F900D1124A0E0B0E013
:103AE000481B590B6A0B7B0B05C0295E3F4F213ADF
:103AF0003105D1F6B2E0AB1609F042C08DEAE82EEE
:103B00008EE8F82E012D112DE40EF51E061F171F4D
:103B100089819A81AB81BC818E259F25A027B12701
:103B200089839A83AB83BC83CE0101960E94E91AF4
:103B300069817A818B819C817F778070907028EE7B
:103B400033E040E050E00E942E1E2FEF3FE740E0C0
:103B500050E00E94801ECA01B90126E036ED40E027
:103B600050E00E942E1E28EE33E040E050E00E941C
:103B7000801EBA01A9014E0D5F1D601F711F49C053
:103B8000E1E0AE1609F045C0BCEFEB2EB9E2FB2E2A
:103B9000BFEF0B2FBFEF1B2FE40EF51E061F171FE5
:103BA0008D819E81AF81B8858E259F25A027B12765
:103BB0008D839E83AF83B887CE0101960E94E91A58
:103BC0006D817E818F8198857F778070907028EEDF
:103BD00033E040E050E00E942E1E2FEF3FE740E030
:103BE00050E00E94801ECA01B90122EB3EE840E08D
:103BF00050E00E942E1E28EE33E040E050E00E948C
:103C0000801ED801C701821B930BA40BB50BAC011E
:103C1000BD0177FF05C020E030E040E050E00AC081
:103C2000CB01BA0120E930E040E050E00E942E1EB6
:103C30009B01AC01B901CA0128960FB6F894DEBF0A
:103C40000FBECDBFCF91DF911F910F91FF90EF90ED
:103C5000DF90CF90BF90AF908F900895629FD0017A
:103C6000739FF001829FE00DF11D649FE00DF11D37
:103C7000929FF00D839FF00D749FF00D659FF00DE6
:103C80009927729FB00DE11DF91F639FB00DE11DD3
:103C9000F91FBD01CF0111240895991B79E004C0DB
:103CA000991F961708F0961B881F7A95C9F780957B
:103CB0000895AA1BBB1B51E107C0AA1FBB1FA61773
:103CC000B70710F0A61BB70B881F991F5A95A9F7C5
:103CD00080959095BC01CD01089597FB092E07268C
:103CE0000AD077FD04D0E5DF06D000201AF47095E5
:103CF00061957F4F0895F6F7909581959F4F0895B0
:103D0000A1E21A2EAA1BBB1BFD010DC0AA1FBB1FDF
:103D1000EE1FFF1FA217B307E407F50720F0A21B51
:103D2000B30BE40BF50B661F771F881F991F1A94BE
:103D300069F760957095809590959B01AC01BD01E8
:103D4000CF01089597FB092E05260ED057FD04D00C
:103D5000D7DF0AD0001C38F4509540953095219556
:103D60003F4F4F4F5F4F0895F6F7909580957095B0
:103D700061957F4F8F4F9F4F0895F999FECF92BD68
:103D800081BDF89A992780B50895A8E1B0E042E096
:103D900050E00C94E01E262FF999FECF1FBA92BD79
:103DA00081BD20BD0FB6F894FA9AF99A0FBE01961C
:103DB00008950E94CB1E272F0C94CC1EDC01CB0152
:103DC000FC01F999FECF06C0F2BDE1BDF89A31962B
:103DD00000B40D9241505040B8F70895F894FFCFC9
:103DE00073756E646179006D6F6E646179007475CE
:103DF0006573646179007765646E736461790074DA
:103E000068757273646179006672696461790073C0
:103E100061747572646179006A616E006665620042
:103E20006D6172636800617072696C006D61790028
:103E30006A756E65006A756C7900617567737400E8
:103E400073657074006F63746F62006E6F76656D7A
:103E500000646563656D00202020667420202000CA
:103E600020202020636D202000202020206C627301
:103E70002000202020206B672020002020202062AE
:103E80006D69200074696D657320757000616C61E7
:103E9000726D206F6E00736E6F6F7A696E6700755A
:103EA00073612D31326872006575722D323468721B
:103EB00000766F6C206869676800766F6C20206CF4
:103EC0006F77006272697465200020202020202016
:103ED00020200066656D616C652020006D616C6559
:103EE00020202020006E6F726D616C2020007065B4
:103EF0007373696D7374006F7074696D69737400A6
:103F0000736164697374696300696D706572696176
:103F10006C006D657472696320200064697265636A
:103F200074202000736D6F6B65722020006E6F6EC1
:103F300020736D6B720073657420616C61726D002B
:103F40007365742074696D650073657420646174B1
:103F500065007365742062726974007365742076FD
:103F60006F6C2000736574207265676E0064656114
:103F70007468636C6B00C46C28A8CA916B709E63F4
:063F80009393D9E791FEC6
:00000001FF
