:100000000C945E010C94FD110C947B010C94CB05B7
:100010000C947B010C941F060C947B010C947B01C7
:100020000C947B010C947E0C0C947B010C947B0152
:100030000C947B010C947B010C947B010C947B0150
:100040000C942C070C947B010C947B010C947B0189
:100050000C947B010C947B010C947B010C941E0C82
:100060000C947B010C947B01FA3E1A7ADE8EF62EFC
:100070006078AE1CAA2A3ACEF30AB61E3838B86E9B
:1000800076DA6800FC60DAF266B6BEE0FEE684006E
:1000900003070809060A050C0490000B10120F0D47
:1000A0000E11139B0014000000000000000000006F
:1000B0000000000000000000000000002800000018
:1000C0000001010101020202030303040404050507
:1000D00006060832000000000001010101020202D0
:1000E000020303040404050505073C0000000000AA
:1000F00000010101010202020303030404040505D7
:100100000646000000000101010101020202020393
:100110000303040404040000C80000000000000001
:1001200000000000000000000000000000000514B6
:1001300000000000000000000000000000000000BF
:100140000000000000001E00000001010101020289
:100150000303030404050506060707080D2800002D
:100160000001010101020202030303040405050664
:100170000606070B32000000000001010102020226
:10018000030303040404050506060A3C00000000FE
:100190000000000101010102020203030304040440
:1001A00005074600000000000000000101010102F7
:1001B000020202020303030305C80000000000005E
:1001C0000000000000000101010101010101020223
:1001D000140000000000000000000000000000000B
:1001E00000000000000000C8000000000000000047
:1001F00001010101010102020202020303041400D1
:1002000000000000000000000000000000000000EE
:1002100000000000001E00000000000000010101BD
:10022000010102020202030303030406C8000000E6
:1002300000000000010101010101020202020303AA
:10024000030305190000001E00B30A23008F0A28CB
:1002500000FD092D00D80932006A093700D9083C91
:1002600000FE074100FE0646004706C800B5041917
:100270000000001E003F092D001B093200F6083760
:1002800000D1083C0090084100F606460022074BCA
:10029000006505C8004804190000001E00FE04C8DF
:1002A00000DA04190000001E009005C8006C051F4C
:1002B0001C1F1E1F1E1F1F1E1F1E1F0011241FBEDE
:1002C000CFEFD4E0DEBFCDBF12E0A0E0B1E0ECE6BE
:1002D000FCE302C005900D92AE3AB107D9F712E0E7
:1002E000AEEAB2E001C01D92A43EB107E1F70E9460
:1002F00060160C94341E0C9400009C0178941092AB
:10030000BD021092BC028091BC029091BD02821786
:100310009307C8F30895A895089581E08093B202E9
:100320005B9A8CB58F7B8CBD85B1877D85B95E98D6
:1003300015BC1092CF021092680085B1897F85B9F3
:100340008BB18F7C8BB928988AB18F7C8AB9209821
:100350005A985298E1E6F0E090E8908388E0808334
:10036000449A83B7876083BF8895908310824498AE
:1003700008958EE284B988E48AB989E187B984E373
:100380008BB991E095B985E08093680090936B00FC
:1003900080E380936D000895FC0183709070892B39
:1003A00039F4CF0164E670E00E949F1D892B49F467
:1003B00020E030E0CF0160E971E00E949F1D892BB1
:1003C00011F421E030E0822F089510928000109205
:1003D0008100299A2A9878941092BD021092BC024A
:1003E0008091BC029091BD020A97D0F32A9A299875
:1003F00078941092BD021092BC028091BC02909140
:10040000BD020A97D0F385B1897F85B982EB8093CD
:10041000800088E18093810008951F93162F9C012E
:1004200040E050E060E472E48FE090E00E94E81D5C
:1004300030938700209386008091860090918700FA
:100440009695879590938B0080938A0080918A007F
:1004500090918B00909389008093880028EC30E085
:100460001CC08091810082608093810080ED97E0C4
:10047000F9013197F1F70197D9F7809181008D7FCC
:100480008093810085B1897F85B980ED97E0F9017E
:100490003197F1F70197D9F71150112311F785B171
:1004A000897F85B91F9108958B3510F08AE503C0C7
:1004B0008E3108F48EE187BD83E084BD81E085BD87
:1004C00084B5806884BD80916E00816080936E00E9
:1004D00078940895282F1092D102882319F58091DD
:1004E000CD0264E60E94931D90E043966AE070E0BE
:1004F0000E94B31DFB01EC57FF4FE491E093D6023D
:100500008091CD0264E60E94931D90E043966AE0DC
:1005100070E00E94B31DFC01EC57FF4FE491E093A3
:10052000D70205C082E08093D4028093D7028091E5
:10053000B002A22FB0E0882379F58091E0026AE052
:100540000E94931DE82FF0E0EC57FF4FE491E093F9
:10055000D2028091E0020E94931DE92FF0E0EC5757
:10056000FF4FE491E093D3028091D0020E94931D4B
:10057000E82FF0E0EC57FF4FE491AF52BD4F1396D8
:10058000EC9313978091D0020E94931DE92FF0E025
:10059000EC57FF4FE4912EC08091D0026AE00E9498
:1005A000931DE82FF0E0EC57FF4FE491E093D20267
:1005B0008091D0020E94931DE92FF0E0EC57FF4F8D
:1005C000E491E093D3028091E0020E94931DE82F12
:1005D000F0E0EC57FF4FE491AF52BD4F1396EC9310
:1005E00013978091E0020E94931DE92FF0E0EC57F1
:1005F000FF4FE4911496EC938091CD0264E60E9443
:10060000931D892F6AE00E94931DE82FF0E0EC57BC
:10061000FF4FE491E093D8028091CD0264E60E94FE
:10062000931D892F6AE00E94931DE92FF0E0EC579B
:10063000FF4FE491E093D9020895982F8091B00282
:10064000882309F03BC09C3058F08091D102816032
:100650008093D102E7E7F0E0E491E093D8020AC08A
:10066000E8E6F0E0E491E093D8028091D1028E7F39
:100670008093D102E4E7F0E0E491E093D902892F7E
:1006800090E00B966CE070E00E94B31D9C012F5F20
:100690003F4FC9016AE070E00E94B31DFC01EC57B6
:1006A000FF4FE491E093D302C9016AE070E00E9439
:1006B000B31DFB01EC57FF4FE4911EC0892F90E062
:1006C000479668E170E00E94B31D9C012F5F3F4F89
:1006D000C9016AE070E00E94B31DFC01EC57FF4FB6
:1006E000E491E093D302C9016AE070E00E94B31D77
:1006F000FB01EC57FF4FE491E093D20208950F9372
:100700001F93062F142F0E941D03812F6AE00E9461
:10071000931D24E830E0F901E90FF11DE491E09325
:10072000D902812F0E94931DF901E80FF11DE49178
:10073000E093D8021092D702802F0E94931DF901F6
:10074000E90FF11DE491E093D602802F0E94931DE2
:10075000280F311DF90184918093D5021092D402A3
:100760001F910F910895CF93DF931092D102EC0166
:10077000A2EDB2E0E881EE23D1F08E2F81568A31CE
:1007800028F4F0E0E95FFF4FE49108C08E2F80531A
:100790008A3030F4F0E0EC5AFF4FE491EC9301C062
:1007A0001C922196119682E0AA3DB80719F7DF91B5
:1007B000CF910895CF93DF93EB011092D10288235C
:1007C00009F03BC080E091E00E94B303CE0168E7EE
:1007D00070E00E949F1DFB01EC57FF4FE491E093F6
:1007E000D202CE016CE070E00E949F1DCB016AE056
:1007F00070E00E949F1DFC01EC57FF4FE491E093D5
:10080000D302CE016CE070E00E949F1D9C016AE063
:1008100070E00E949F1DFB01EC57FF4FE491E093B5
:10082000D802C9016AE070E00E949F1DFC01EC57EC
:10083000FF4FE491E093D90229C089E091E00E9442
:10084000B303CE0164E670E00E949F1DFB01EC57EC
:10085000FF4FE491E093D202CE0164E670E00E9483
:100860009F1D6AE070E00E949F1DFB01EC57FF4F47
:10087000E491E093D302CE016AE070E00E949F1DF4
:10088000FC01EC57FF4FE491E093D402DF91CF914C
:100890000895CF93DF93EB011092D102882319F4CE
:1008A00082E191E007C0813019F48BE191E002C050
:1008B00084E291E00E94B303CE0164E670E00E94FE
:1008C0009F1DFB01EC57FF4FE491E093D202CE0154
:1008D00064E670E00E949F1D6AE070E00E949F1D28
:1008E000FB01EC57FF4FE491E093D302CE016AE0A5
:1008F00070E00E949F1DFC01EC57FF4FE491E093D4
:10090000D402DF91CF910895EF92FF920F931F933E
:10091000CF93DF937B018C01161617061806190674
:100920000CF5C9EDD2E0C801B7012AE030E040E0A3
:1009300050E00E94E81DFB01EC57FF4F6491688373
:10094000C801B7012AE030E040E050E00E94E81D15
:10095000C901DA017C018D01219782E0C13DD807F0
:1009600011F704C08DE291E00E94B303DF91CF91B3
:100970001F910F91FF90EF900895EF92FF920F93C8
:100980001F93B82FA62F8091B1028C3009F06FC051
:100990008091DF02843009F46AC0E090C202F090D6
:1009A000C3020091C4021091C5028091CC02B81715
:1009B00040F08091CC028B1709F58091DA0268171C
:1009C000E8F42091CC026091DA028091E302833056
:1009D00019F041E050E002C044E050E030E084EC27
:1009E0009FEFFC012E9FC0012F9F900D3E9F900D09
:1009F0001124861B910980569A4F1AC02091CC026F
:100A00006091DA028091E302833019F041E050E016
:100A100002C044E050E030E084EC9FEFFC012E9FE8
:100A2000C0012F9F900D3E9F900D1124861B9109B0
:100A30002CE3B29F90011124820F931F8A0F911D06
:100A40009C01429FC001439F900D529F900D112425
:100A5000AA2797FDA095BA2FA8019701281B390B4B
:100A60004A0B5B0BCA01B9010E94840420C010929A
:100A7000D9021092D8021092D7028A2F6AE00E94FF
:100A8000931DE92FF0E0EC57FF4FE491E093D6027D
:100A90008A2F0E94931DE82FF0E0EC57FF4FE4915E
:100AA000E093D5021092D4028B2F0E941D031F9158
:100AB0000F91FF90EF9008954A9B36C08091DB0222
:100AC000882309F049C081E08093DB021092BB02C9
:100AD0001092BA0286E391E00E94B30389E080930A
:100AE000DF0278941092BD021092BC028091BC0289
:100AF0009091BD02885E9340C8F38091DC026091C2
:100B0000CE020E94BD0478941092BD021092BC02E5
:100B10008091BC029091BD02805D9740C8F38091A6
:100B2000B1028093DF0208958091DB028823A1F057
:100B30001092DB021092BB021092BA028091DE0288
:100B4000882351F01092DE02809181008D7F809386
:100B5000810085B1866085B9089588E592E090931B
:100B6000BB028093BA028FE391E00E94B30389E055
:100B70008093DF0278941092BD021092BC028091A3
:100B8000BC029091BD02885E9340C8F38091B1028F
:100B90008093DF0208951F920F920FB60F921124D7
:100BA0002F933F934F935F936F937F938F939F9375
:100BB000AF93BF93EF93FF931092680078941899C6
:100BC00025C08091BE0281FD26C078941092BD029E
:100BD0001092BC028091BC029091BD020A97D0F3A2
:100BE000189919C00E94E5018091DE02882319F04E
:100BF0000E94AD0510C08091BE0282608093BE024B
:100C00008091BF0282608093BF0205C08091BE02C6
:100C10008D7F8093BE0285E080936800FF91EF9105
:100C2000BF91AF919F918F917F916F915F914F9104
:100C30003F912F910F900FBE0F901F9018951F920C
:100C40000F920FB60F9211242F933F934F935F9300
:100C50006F937F938F939F93AF93BF93EF93FF9384
:100C60001092680078944D9922C08091BE0280FD58
:100C700023C078941092BD021092BC028091BC02F5
:100C80009091BD020A97D0F34D9959C00E94E50199
:100C90008091DE028823A1F58091BE02816080935D
:100CA000BE028091BF0281608093BF0205C0809127
:100CB000BE028E7F8093BE024C993AC08091BE02E4
:100CC00082FD3DC078941092BD021092BC028091CA
:100CD000BC029091BD020A97D0F34C9930C082E0DB
:100CE0008093C10216C04C9B14C00E94E501809104
:100CF000BE028B7F8093BE028091DE02882319F0B2
:100D00000E94AD051CC08091BF0284608093BF0229
:100D100016C08091C102882331F78091BE028460A1
:100D20008093BE028091C00284608093C00207C09D
:100D30001092C0028091BE028B7F8093BE0285E03C
:100D400080936800FF91EF91BF91AF919F918F9138
:100D50007F916F915F914F913F912F910F900FBEB7
:100D60000F901F90189581E58CBD08959B01AC01F3
:100D7000F894CA01AA27BB278EBD0DB407FEFDCF8C
:100D8000BB27A52F942F832F8EBD0DB407FEFDCF5B
:100D90002EBD0DB407FEFDCF409A4098789408957B
:100DA000AF92BF92CF92DF92EF92FF920F931F9379
:100DB000E82FF0E0E057FF4FE49181E090E002C0BF
:100DC000880F991FEA95E2F77C010027F7FC009550
:100DD000102F2091C7023091C8024091C902509152
:100DE000CA02A0E0B0E070E0E1E0AE2EB12CC12C70
:100DF000D12CCB010A2E02C0959587950A94E2F773
:100E000080FF11C0FD01E556FF4FE491A601950159
:100E100004C0220F331F441F551FEA95D2F7E22A60
:100E2000F32A042B152B1196A830B10511F7209346
:100E3000C7023093C8024093C9025093CA02C80146
:100E4000B7010E94B6061F910F91FF90EF90DF90BF
:100E5000CF90BF90AF9008951F920F920FB60F9250
:100E600011242F933F934F935F936F937F938F93AF
:100E70009F93AF93BF93EF93FF937894A89580913E
:100E8000B6029091B70201969093B7028093B60292
:100E9000819708F46CC01092B7021092B60280914C
:100EA000BC029091BD0201969093BD028093BC025A
:100EB0008091B502893010F01092B5028091B50290
:100EC000E82FF0E0EF52FD4F60810E94D006809144
:100ED000B5028F5F8093B5028091DE02882309F40A
:100EE00046C08091BA029091BB02892B09F03FC0A5
:100EF0008091B8029091B90201969093B9028093C3
:100F0000B8028536910598F11092B9021092B80294
:100F10008AEF90E09093870080938600809186000E
:100F2000909187009695879590938B0080938A0087
:100F300080918A0090918B00909389008093880023
:100F40008091DE02807F49F08091DE028F70809375
:100F5000DE02809181008D7F08C08091DE02806F6B
:100F60008093DE0280918100826080938100FF91F6
:100F7000EF91BF91AF919F918F917F916F915F9111
:100F80004F913F912F910F900FBE0F901F9018958A
:100F90008EBD0DB407FEFDCF08958AE090E00E945B
:100FA000031E8093CF0285B1866085B982E380936A
:100FB00080008091CF02882329F080918000806892
:100FC0008093800088E1809381008AEF90E0909385
:100FD0008700809386008091860090918700969587
:100FE00087959093890080938800809188009091E4
:100FF000890090938B0080938A00089584E090E0AC
:101000000E94031E68E10E94931D9093CC0285E02C
:1010100090E00E94031E6CE30E94931D9093DA02FD
:1010200086E090E00E94031E6CE30E94931D909363
:10103000E20288E090E00E94031E6CE30E94931D90
:101040009093CE0287E090E00E94031E68E10E9428
:10105000931D9093DC0281E090E00E94031E64E601
:101060000E94931D9093CD0282E090E00E94031EA7
:101070006DE00E94931D9093E00283E090E00E9457
:10108000031E8F718093D00291E09093B402E6EB3F
:10109000F0E080818062808385E08093B10090934E
:1010A0007000789408958091B2028823A9F180E8B5
:1010B00080936100109261001092B20280E49CE97A
:1010C0000197F1F700B605FC27C00E94B90189E03D
:1010D00090E00E94031E0E94540281E58CBD5B9843
:1010E00043988AE090E00E94031E8093CF020E9402
:1010F000CD07A8950E945C0580E793E061E00E941F
:101100000D0280EE96E061E00E940D0280EC9DE011
:1011100061E00E940D02A89508950F931F938AE045
:101120008093C6028BE090E00E94031E8093B00281
:1011300010E00AE001C010E08091BF02882321F492
:101140008091C002882319F00093C60204C08091E8
:10115000C6028823C9F08091BF0280FD3AC0809109
:10116000BF0281FF16C01092BF02112369F4809163
:10117000B002882319F488E491E002C081E591E08F
:101180000E94B30311E005C08091B1028093DF0299
:1011900020C08091BF0282FFCFCF1092BF021130DA
:1011A00051F690E08091B002882309F491E0909389
:1011B000B002992319F488E491E002C081E591E03E
:1011C0000E94B3038BE090E06091B0020E94111E78
:1011D000B3CF1F910F910895EF92FF920F931F933A
:1011E0008AE08093C6028AE090E00E94031EF82EF7
:1011F00000E0BAE0EB2E01C000E08091BF0288233E
:1012000021F48091C002882319F0E092C60204C044
:101210008091C602882369F18091BF0280FD68C079
:101220008091BF0281FF2AC01092BF02002309F5FE
:10123000FF2051F08AE591E00E94B3038091D6022D
:1012400081608093D60204C083E691E00E94B303DC
:101250008091D70281608093D7028091D80281600B
:101260008093D8028091D90281608093D90201E0F5
:1012700005C08091B1028093DF023AC08091BF0225
:1012800082FFBBCF1092BF02013009F0B5CF10E052
:10129000FF2009F411E0F12E112351F08AE591E0CD
:1012A0000E94B3038091D60281608093D60204C06D
:1012B00083E691E00E94B3038091D702816080931E
:1012C000D7028091D80281608093D8028091D902A0
:1012D00081608093D9028AE090E0612F0E94111E04
:1012E0000E94CD0780EA9FE061E00E940D0285CF59
:1012F0001F910F91FF90EF9008953F924F925F9250
:101300006F927F928F929F92AF92BF92CF92DF9215
:10131000EF92FF920F931F938AE08093C60289E0B9
:1013200090E00E94031E182F20E09AE0392E0EE173
:101330008AE5582EB5E54B2EA0E57A2EFBE46F2EFC
:10134000E6E48E2E71E4A72E6CE3962E57E3B52EBD
:1013500042E3D42E3DE2C32E98E2F92E83E2E82E3A
:1013600001C020E08091BF02882321F48091C00257
:10137000882319F03092C60204C08091C6028823E7
:1013800049F18091BF0280FD8BC08091BF0281FF37
:101390002BC01092BF022223E9F48CE691E00E9458
:1013A000B303812F6AE00E94931DE82FF0E0EC5711
:1013B000FF4FE491E160E093D802812F0E94931DDA
:1013C000E92FF0E0EC57FF4FE491E160E093D902A0
:1013D00021E00AC08091B1028093DF0289E090E0B1
:1013E000612F0E94111E5CC08091BF0282FD04C06B
:1013F0008091C00282FFB6CF1092BF02213009F067
:10140000B0CF1B5F1C3508F01EE1812F6AE00E94FF
:10141000931DE82FF0E0EC57FF4FE491E160E0937B
:10142000D802812F0E94931DE92FF0E0EC57FF4F67
:10143000E491E160E093D9021F3180F1143210F49D
:10144000E7BC90CF193210F4F7BC8CCF1E3210F4E9
:10145000C7BC88CF133310F4D7BC84CF183310F433
:10146000B7BC80CF1D3310F497BC7CCF123410F47E
:10147000A7BC78CF173410F487BC74CF1C3410F499
:1014800067BC70CF113510F477BC6CCF163510F4F3
:1014900047BC68CF1B3511F057BC64CF07BD62CF86
:1014A0001F910F91FF90EF90DF90CF90BF90AF9082
:1014B0009F908F907F906F905F904F903F90089596
:1014C000DF92EF92FF920F931F93E090CC02F09087
:1014D000DA020091E2028AE08093C60210E02AE07C
:1014E000D22E8091BF0280FDD9C08091BF02882397
:1014F00021F48091C002882319F0D092C60205C061
:101500008091C602882309F44BC08091BF0281FFFD
:101510004CC01092BF021123B9F4E090CC02F090BD
:10152000DA020091E2028E2D6F2D402F0E947F0380
:101530008091D20281608093D2028091D302816037
:101540008093D30211E031C0113089F48E2D6F2DBC
:10155000402F0E947F038091D50281608093D50245
:101560008091D60281608093D60212E01EC01230B4
:1015700089F48E2D6F2D402F0E947F038091D80219
:1015800081608093D8028091D90281608093D902D2
:1015900013E00BC0E092CC02F092DA020093E20278
:1015A0008091B1028093DF0279C08091BF0282FDF9
:1015B00004C08091C00282FF94CF1092BF0211300C
:1015C000F9F48E2D90E0019668E170E00E94B31D61
:1015D000E82E6F2D402F0E947F038091D202816000
:1015E0008093D2028091D30281608093D302E092F3
:1015F000CC026091CC0284E090E00E94111E3DC0BC
:10160000123001F58F2D90E001966CE370E00E949E
:10161000B31DF82E8E2D6F2D402F0E947F038091D9
:10162000D50281608093D5028091D602816080933B
:10163000D6026091DA0285E090E00E94111EF092DD
:10164000DA021BC01330C9F4802F90E001966CE3DE
:1016500070E00E94B31D082F8E2D6F2D402F0E9429
:101660007F038091D80281608093D8028091D90253
:1016700081608093D9020093E2028091C00282FFD0
:1016800030CF78941092BD021092BC028091BC02BF
:101690009091BD028B349105C8F323CF1F910F9118
:1016A000FF90EF90DF900895EF92FF920F931F93BA
:1016B0001091DC020091CE028AE08093C602FF24E2
:1016C0004AE0E42E8091BF0280FDB3C08091BF024A
:1016D000882321F48091C002882319F0E092C60289
:1016E00019C08091C6028823A9F48091B102809329
:1016F000DF021093DC020093CE026091DC0287E0EF
:1017000090E00E94111E6091CE0288E090E00E945D
:10171000111E8FC08091BF0281FF3EC01092BF0298
:10172000FF2089F4812F602F0E94BD048091D20296
:1017300081608093D2028091D30281608093D30232
:10174000FF24F39429C081E0F81689F4812F602FDB
:101750000E94BD048091D50281608093D502809162
:10176000D60281608093D60232E0F32E15C010932A
:10177000DC020093CE026091DC0287E090E00E94E0
:10178000111E6091CE0288E090E00E94111E8091AF
:10179000B1028093DF024DC08091BF0282FD04C080
:1017A0008091C00282FF8ECF1092BF0281E0F816B6
:1017B000B1F4812F90E0019668E170E00E94B31DC2
:1017C000182F602F0E94BD048091D2028160809307
:1017D000D2028091D30281608093D30219C082E04B
:1017E000F816B1F4802F90E001966CE370E00E944F
:1017F000B31D082F812F602F0E94BD048091D50258
:1018000081608093D5028091D60281608093D60258
:101810008091C00282FF56CF78941092BD02109240
:10182000BC028091BC029091BD028B349105C8F33B
:1018300049CF1F910F91FF90EF9008951F920F9243
:101840000FB60F9211242F933F934F935F936F9393
:101850007F938F939F93AF93BF93EF93FF9300B6C4
:1018600005FE22C08091B2028823B9F55B9A85B14A
:10187000877D85B95E988CB58F7B8CBD8091B402D5
:10188000882361F06091DA0285E090E00E94111EE9
:101890006091E20286E090E00E94111E15BC109259
:1018A000CF021092680014C08091B2028823A9F080
:1018B0008091B402882361F06091DA0285E090E0C3
:1018C0000E94111E6091E20286E090E00E94111ECB
:1018D000E091AE02F091AF020995FF91EF91BF91B7
:1018E000AF919F918F917F916F915F914F913F91B8
:1018F0002F910F900FBE0F901F9018951F920F926F
:101900000FB60F9211242F933F934F935F936F93D2
:101910007F938F939F93AF93BF93EF93FF9380E851
:1019200080936100109261008091E2028F5F80934A
:10193000E2028091E2028C33A8F11092E2028091DF
:10194000DA028F5F8093DA028091C2029091C30223
:10195000A091C402B091C502181619061A061B06FA
:101960000CF52091C2023091C3024091C402509103
:10197000C5028091E302833029F081E090E0A0E08D
:10198000B0E004C084E090E0A0E0B0E0281B390B98
:101990004A0B5B0B2093C2023093C3024093C402F4
:1019A0005093C5028091DA028C3398F01092DA02DB
:1019B0008091CC028F5F8093CC026091CC0284E056
:1019C00090E00E94111E6091DA0285E090E00E9492
:1019D000111E8091CC02883168F01092CC02809167
:1019E000D0028F5F8093D0026091D00283E090E0BC
:1019F0000E94111E8091D002803268F58091D00241
:101A00008F3181F48091E002843029F18091E002ED
:101A1000863009F18091E0028930E9F08091E0029E
:101A20008B30C9F08091D0028E3121F48091E00298
:101A3000823089F08091D0028D31D9F48091E0021A
:101A40008230B9F48091CD0290E08053984F0E948B
:101A5000CC01882371F481E08093D0028091E00270
:101A60008F5F8093E0026091E00282E090E00E944C
:101A7000111E8091E0028D3070F08091CD028F5F59
:101A80008093CD0281E08093E0026091CD0281E0FD
:101A900090E00E94111E8091B202882309F0F9C0E3
:101AA0008091DF02882311F58091B302882349F0E9
:101AB0008091E20280FF05C083E791E00E94B303BA
:101AC00008C08091CC026091DA024091E2020E944B
:101AD0007F038091DB02882321F08091D102826014
:101AE00003C08091D1028D7F8093D1028091DF026B
:101AF0008C3009F08BC02091C2023091C30240911A
:101B0000C4025091C5028091E302833029F080E045
:101B100090E0A0E0B0E008C08091E2026FE00E9497
:101B2000931D90E0A0E0B0E0281B390B4A0B5B0B43
:101B300012161306140615060CF057C02091C202A7
:101B40003091C3024091C4025091C5028091E302DA
:101B5000833029F080E090E0A0E0B0E008C0809100
:101B6000E2026FE00E94931D90E0A0E0B0E0281B2D
:101B7000390B4A0B5B0BCA01B9010E9484048091A6
:101B8000E2026BE370E0681B71099B01442737FD9B
:101B90004095542F25FF05C08091D4028160809329
:101BA000D40224FF05C08091D50281608093D502C4
:101BB00023FF05C08091D60281608093D60222FF68
:101BC00005C08091D70281608093D70221FF05C0B4
:101BD0008091D80281608093D80260FF0AC0809112
:101BE000D90281608093D90204C08DE291E00E9405
:101BF000B3038091DB02882321F08091D1028260BF
:101C000003C08091D1028D7F8093D1028091DB024D
:101C10008823B9F09091DC028091CC02981789F466
:101C20009091CE028091DA02981759F48091E202E5
:101C3000882339F481E08093DE021092BB02109277
:101C4000BA028091C602882329F08091C602815091
:101C50008093C6028091C102882329F08091C1023D
:101C600081508093C1028091BA029091BB0200978B
:101C700081F001979093BB028093BA0280FF04C069
:101C80008091D102826003C08091D1028D7F8093C8
:101C9000D102FF91EF91BF91AF919F918F917F9171
:101CA0006F915F914F913F912F910F900FBE0F90C9
:101CB0001F9018956F927F928F929F92AF92BF92D2
:101CC000CF92DF92EF92FF920F931F9385E190E006
:101CD0000E94031E8093E3028EE090E00E94031EA8
:101CE000682E8FE090E00E94031E782E80E190E045
:101CF0000E94031EB82E81E190E00E94031E982EE0
:101D000082E190E00E94031E082F83E190E00E9490
:101D1000031ED82E84E190E00E94031EC82EA090DE
:101D2000E30286E190E00E94031E182F89E190E013
:101D30000E940B1E7C0187E190E00E940B1EAC010B
:101D4000812FB7010E94F619882E8BE190E00E9446
:101D5000031EE82E8CE190E00E94031EF82E8DE118
:101D600090E00E94031E182F8EE190E00E94031E57
:101D700000D000D0EDB7FEB731969CE6B90ED90E73
:101D8000ADB7BEB71196EC92F18212838383862D94
:101D9000672D4B2D292DED2C0E94E91A0F900F90E5
:101DA0000F900F901F910F91FF90EF90DF90CF90C9
:101DB000BF90AF909F908F907F906F900895DF922B
:101DC000EF92FF920F931F9381E190E00E94031E18
:101DD0008093E10282E190E00E94031E8093CB0297
:101DE00083E190E00E94031E8093DD020E945A0E60
:101DF0007B018C01DD24D39450C08091CB028F5F96
:101E00008093CB028091CB02803268F58091CB0227
:101E10008F3181F48091E102843029F18091E102D7
:101E2000863009F18091E1028930E9F08091E10288
:101E30008B30C9F08091CB028E3121F48091E10288
:101E4000823089F08091CB028D31A1F48091E10242
:101E5000823081F48091DD0290E08459984F0E9495
:101E6000CC01882339F4D092CB028091E1028F5FBC
:101E70008093E1028091E1028D3038F0D092E1024E
:101E80008091DD028F5F8093DD0280E69AEFAFEFF5
:101E9000BFEFE80EF91E0A1F1B1F90EAE91695E036
:101EA000F90690E0090790E0190708F0A6CF1F9106
:101EB0000F91FF90EF90DF900895FF920F931F9383
:101EC000CF93DF93882311F481E003C0823021F4A3
:101ED00080E00E946A0264C1813009F061C1F09023
:101EE000D0020091E0021091CD020E94DF0E80919D
:101EF000B1028C3061F48091CB028093D00280914A
:101F0000E1028093E0028091DD028093CD02809116
:101F1000E002C82FD0E08091B1028C3039F480917A
:101F2000CD02E82FF0E0E459F84F06C08091CD02D1
:101F3000E82FF0E0E053F84F8091E002833010F496
:101F40002C9631972091D0021092D8021092D9028B
:101F500030E02F5F3F4F2E0F3F1FCE01880F991F9C
:101F6000280F391FCF019695879596958795280F4D
:101F7000391FCF0160E971E00E949F1D260F371FB6
:101F8000CF0164E670E00E949F1D261B370BAE0157
:101F90004F5F5F4FCA01880F991F840F951F880FED
:101FA000991F6AE070E00E949F1DC901860F971F6C
:101FB00067E070E00E949F1D8330B9F0843028F400
:101FC000813069F0823070F407C08530A1F085302F
:101FD00078F08630B9F412C08CE791E011C083E844
:101FE00091E00EC08AE891E00BC082E991E008C060
:101FF0008BE991E005C084EA91E002C08BEA91E0B0
:102000000E94B30378941092BD021092BC0280919A
:10201000BC029091BD02885E9340C8F31092D50235
:102020001092D6021092D7028091E002863079F1A8
:10203000873070F4833011F1843028F48130C1F09E
:102040008230D9F518C08430E1F08530B1F51CC07C
:10205000893031F18A3028F48730E1F0883069F531
:102060001CC08B3019F18B30F0F08C3031F521C071
:1020700084EB91E020C088EB91E01DC08CEB91E0F7
:102080001AC082EC91E017C088EC91E014C08CEC8F
:1020900091E011C081ED91E00EC086ED91E00BC0A2
:1020A0008CED91E008C081EE91E005C087EE91E0F3
:1020B00002C08DEE91E00E94B3038091D0026AE0ED
:1020C0000E94931DE82FF0E0EC57FF4FE491E0935E
:1020D000D8028091D0020E94931DE92FF0E0EC57C6
:1020E000FF4FE491E093D9028091B1028C3009F066
:1020F00057C078941092BD021092BC028091BC022D
:102100009091BD02885E9340C8F31092D502109260
:10211000D4021092D3021092D2028091CD0264E6D2
:102120000E94931D90E043966AE070E00E94B31D08
:10213000FB01EC57FF4FE491E093D6028091CD0272
:1021400064E60E94931D90E043966AE070E00E946E
:10215000B31DFC01EC57FF4FE491E093D70280914F
:10216000CD0264E60E94931D892F6AE00E94931DB0
:10217000E82FF0E0EC57FF4FE491E093D802809114
:10218000CD020E94931DE92FF0E0EC57FF4FE49140
:10219000E093D902F092D0020093E0021093CD02B6
:1021A000DF91CF911F910F91FF900895FF920F93B0
:1021B0001F938AE08093C60210E00AE0FF24F394A4
:1021C0008091BF02882321F48091C002882319F0F6
:1021D0000093C60205C08091C602882309F46DC031
:1021E0008091BF0280FD05C18091BF0281FF6AC05E
:1021F0001092BF021123A9F48091B002882311F03C
:1022000012E001C011E080E00E945D0F8091D202D7
:1022100081608093D2028091D30281608093D30247
:1022200051C0113029F48091B002882339F020C0C8
:102230001230E1F48091B0028130A9F48091B002B3
:10224000882311F011E001C012E080E00E945D0FD0
:102250008091D50281608093D5028091D602816001
:102260008093D6022FC0882339F015C0113099F41D
:102270008091B002813079F480E00E945D0F8091FE
:10228000D80281608093D8028091D90281608093C6
:10229000D90213E017C083E68093DF0280E00E943A
:1022A0005D0F78941092BD021092BC028091BC0226
:1022B0009091BD028C5D9540C8F38091B1028093EE
:1022C000DF0297C08091BF0282FD04C08091C002EE
:1022D00082FF76CF1092BF02113061F58091E0024B
:1022E0008F5F8093E0028091E0028D3010F01093B8
:1022F000E00280E00E945D0F8091B002882359F4D3
:102300008091D20281608093D2028091D302816059
:102310008093D3020AC08091D50281608093D50258
:102320008091D60281608093D6026091E00282E0C3
:1023300090E04DC0123061F58091D0028F5F8093A4
:10234000D0028091D002803210F0F092D00280E072
:102350000E945D0F8091B002813059F48091D202C9
:1023600081608093D2028091D30281608093D302F6
:102370000AC08091D50281608093D5028091D602F7
:1023800081608093D6026091D00283E090E01FC00C
:102390001330F9F48091CD028F5F8093CD0280914C
:1023A000CD0264E60E94931D9093CD0280E00E94CE
:1023B0005D0F8091D80281608093D8028091D9020C
:1023C00081608093D9026091CD0281E090E00E940B
:1023D000111E8091C00282FFF3CE78941092BD024C
:1023E0001092BC028091BC029091BD02CC97D0F3B8
:1023F000E7CE1F910F91FF9008951F920F920FB695
:102400000F9211242F933F934F935F936F937F937A
:102410008F939F93AF93BF93EF93FF9389E60E94AF
:102420008D1729B1789478941092BD021092BC0255
:102430008091BC029091BD020A97D0F389B12470BB
:1024400030E090E0847090702817390711F40E94F2
:102450005C05FF91EF91BF91AF919F918F917F911B
:102460006F915F914F913F912F910F900FBE0F9001
:102470001F9018956F927F928F929F92AF92BF920A
:10248000CF92DF92EF92FF920F931F93CF93DF9340
:102490000E945A0E5B016C0181E190E00E94031ED4
:1024A000F82E82E190E00E94031E182F83E190E055
:1024B0000E94031E2091E0020091D0029091CD0273
:1024C000482F445990538F2D612FE92E0E94D9181F
:1024D0009B01AC018091E302833031F061E0E62E94
:1024E000F12C012D112D05C094E0E92EF12C012DC8
:1024F000112D6090CC028091E302833021F081E0C5
:10250000882E912C03C0B4E08B2E912C7090DA02AF
:102510008091E302833019F0C1E0D0E002C0C4E052
:10252000D0E0CA01B90120EA35E040E050E00E9465
:10253000741DA80197010E94741DA61AB70AC80A43
:10254000D90A8CE3689EC00111249C01289DC0011A
:10255000299D900D389D900D1124AA2797FDA095D7
:10256000BA2FA81AB90ACA0ADB0A872D90E09C0183
:10257000C29FC001C39F900DD29F900D1124AA2726
:1025800097FDA095BA2FA81AB90ACA0ADB0AA09229
:10259000C202B092C302C092C402D092C5020E948D
:1025A000DF0E8091CD022091DD0290E08D599F4F8A
:1025B00030E08217930744F52091DD028091CD022F
:1025C00030E090E08C599F4F2817390731F49091F3
:1025D000E1028091E0029817B8F02091DD0280912D
:1025E000CD0230E090E08C599F4F28173907A1F4B5
:1025F0009091E1028091E002981771F49091CB02E2
:102600008091D002981740F41092C2021092C30237
:102610001092C4021092C502DF91CF911F910F91C9
:10262000FF90EF90DF90CF90BF90AF909F908F90F2
:102630007F906F9008953F924F925F926F927F923A
:102640008F929F92AF92BF92CF92DF92EF92FF92C2
:102650000F931F93DF93CF93CDB7DEB728970FB6B5
:10266000F894DEBF0FBECDBF8AE08093C6025090C3
:10267000D0023090E0024090CD0284E190E00E94D0
:10268000031E682E85E190E00E94031E782E8FE0E5
:1026900090E00E94031E8093D0028EE090E00E94A2
:1026A000031E8093E00280E190E00E94031E80936D
:1026B000CD0286E190E00E94031EE82E8BE190E0BF
:1026C0000E94031EA82E87E190E00E940B1E6C0161
:1026D00089E190E00E940B1E4C0100E04AE0B42E1C
:1026E000FF24F3948091BF02882321F48091C002DB
:1026F000882319F0B092C60205C08091C6028823D3
:1027000009F452C18091BF0280FD52C18091BF0285
:1027100081FF6CC11092BF020023A9F48091B00226
:10272000882311F002E001C001E082E00E945D0F09
:102730008091D20281608093D2028091D302816025
:102740008093D30253C1013029F48091B0028823D1
:1027500039F020C00230E1F48091B0028130A9F458
:102760008091B002882311F001E001C002E082E014
:102770000E945D0F8091D40281608093D402809189
:10278000D50281608093D50231C1882341F079C0A0
:102790000130F1F48091B002813009F072C082E022
:1027A0000E945D0F8091D60281608093D602809155
:1027B000D70281608093D7028091D8028160809394
:1027C000D8028091D90281608093D90203E00EC1C2
:1027D000033059F4662019F083EF91E002C08CEFCA
:1027E00091E00E94B30304E001C10430B9F4772002
:1027F00019F485E092E00EC021E0721619F48EE023
:1028000092E008C082E0781619F487E192E002C0F5
:1028100080E292E00E94B30305E0E8C0053089F44D
:10282000EE2019F489E292E008C091E0E91619F46B
:1028300082E392E002C08BE392E00E94B30306E0E1
:10284000D5C0063031F48E2DB6010E94490407E050
:10285000CDC0073049F4A2E0EA1641F08E2DB40154
:102860000E94DA0308E0C2C0083059F4AA2031F00F
:1028700084E492E00E94B30309E0B8C08DE492E0E2
:10288000F9CFDE011196E6E9F2E088E001900D92C1
:102890008150E1F72091CD02E72DF0E0EE0FFF1F10
:1028A000E60DF11DEC0FFD1F4181842D90E08C5948
:1028B0009F4F821B9109242F30E02817390724F0FD
:1028C00024E6B22EB40C03C0B090CD02B40E83E661
:1028D0008093DF020091E002F090D0021091CD02CF
:1028E0008E2DB401A6010E94F619882E8091CC028B
:1028F0009091DA022091E20200D000D0EDB7FEB74D
:10290000319614593B2D3459ADB7BEB71196AC92E0
:10291000818392832383802F6F2D412F232D052DBB
:10292000E32EC62CA72C0E94E91A7092E3020F90A6
:102930000F900F900F9082E190E0652D0E94111E84
:1029400081E190E0632D0E94111E83E190E06B2DE8
:102950000E94111E6091DA028DE190E00E94111E2A
:102960006091CC028CE190E00E94111E6091E20225
:102970008EE190E00E94111E0E943A126091C20204
:102980007091C3028091C4029091C5020E94840498
:1029900078941092BD021092BC028091BC0290917A
:1029A000BD028C5D9540C8F38091B1028093DF0237
:1029B0005092D0023092E0024092CD0228960FB69B
:1029C000F894DEBF0FBECDBFCF91DF911F910F9165
:1029D000FF90EF90DF90CF90BF90AF909F908F903F
:1029E0007F906F905F904F903F9008958091BF02CD
:1029F00082FD04C08091C00282FF74CE1092BF029B
:102A0000013061F58091E0028F5F8093E002809158
:102A1000E0028D3010F00093E00282E00E945D0F32
:102A20008091B002882359F48091D2028160809312
:102A3000D2028091D30281608093D3020AC0809138
:102A4000D40281608093D4028091D502816080930A
:102A5000D5026091E0028EE090E020C1023061F585
:102A60008091D0028F5F8093D0028091D00280321B
:102A700010F0F092D00282E00E945D0F8091B002CF
:102A8000813059F48091D20281608093D20280918A
:102A9000D30281608093D3020AC08091D402816006
:102AA0008093D4028091D50281608093D502609199
:102AB000D0028FE090E0F2C0033041F58091CD026A
:102AC0008F5F8093CD028091CD0268EC0E94931DB0
:102AD0009093CD0282E00E945D0F8091D6028160CA
:102AE0008093D6028091D70281608093D702809133
:102AF000D80281608093D8028091D902816080934E
:102B0000D9026091CD0280E190E0C8C0043089F420
:102B100010E0662009F411E0612E112319F083EF13
:102B200091E002C08CEF91E00E94B30384E190E059
:102B3000B4C00530D9F4739423E0722219F485E00F
:102B400092E00EC081E0781619F48EE092E008C0A1
:102B500092E0791619F487E192E002C080E292E0F7
:102B60000E94B30385E190E0672D98C0063059F5C7
:102B70008E2D8F5F63E00E94931DE92E992359F4F7
:102B800089E292E00E94B30393E2C92ED12C84E241
:102B9000882E912C14C0A1E09A1759F482E392E098
:102BA0000E94B3031FE0C12ED12CBCE58B2E912CCB
:102BB00006C08BE392E00E94B303CC24DD2486E1BF
:102BC00090E06E2D6BC0073079F5EE2069F485E05A
:102BD00090E0C80ED91E95E9C91692E0D906D0F04A
:102BE000A3E2CA2ED12C16C0A1E0EA1669F483E054
:102BF00090E0C80ED91E9DE2C91691E0D90650F0AA
:102C0000FFE0CF2ED12C06C00894C11CD11CAFEF21
:102C1000CA22DD2487E190E0B6010E941F1E8E2D9E
:102C2000B6010E9449043CC0083029F5EE2059F451
:102C30000894811C911CB9E78B16910490F0E4E292
:102C40008E2E912C0EC021E0E21659F40894811CBE
:102C5000911C82E3881681E0980618F07CE5872EA7
:102C6000912C89E190E0B4010E941F1E8E2DB401C9
:102C70000E94DA0315C0093099F410E0AA2009F483
:102C800011E0A12E112319F084E492E002C08DE43A
:102C900092E00E94B3038BE190E0612F0E94111E2D
:102CA0008091C00282FF1ECD78941092BD021092D6
:102CB000BC028091BC029091BD02CC97D0F312CDA2
:102CC0009F92AF92BF92CF92DF92EF92FF920F93BB
:102CD0001F9315BC569A5E9884B714BE90E00E946C
:102CE000F91788E10FB6F8948093600010926000A5
:102CF0000FBE2FE088E190E00FB6F894A89580937E
:102D000060000FBE20936000A89511E01093B302FD
:102D10001092B4028AE190E00E94801788E480BF9C
:102D200080ED97E00197F1F700B605FE06C080B789
:102D3000806180BF0E94FE0722C00E94B9015B989B
:102D4000109369001DBB1092DF0281E58CBD89E004
:102D500090E00E94031E0E94540278948BE090E061
:102D60000E94031E8093B0020E94CD0780EA9FE07C
:102D700061E00E940D020E94FE070E945C05BCE01B
:102D80009B2EA3E6AA2EF6E0BF2EE4E0CE2E78E03E
:102D9000D72E67E0E62E5BE0F52E05E013E0A89560
:102DA00000B605FE03C00E948D01F9CF8091BF02DD
:102DB00080FF59C01092BF028091DF02853079F107
:102DC000863038F4833011F18430A8F4882351F030
:102DD00063C08730B1F1873058F18830D9F18C3039
:102DE00009F05AC0C092DF0286E592E00E94B30368
:102DF0000E94540BD4CF1093DF0280E692E00E9431
:102E0000B3030E94600A1092B302C9CF0093DF029D
:102E100089E692E00E94B3030E94D610C0CFB09220
:102E2000DF0282E792E00E94B3030E947D09B7CFE0
:102E3000E092DF028BE792E00E94B3030E94EC086D
:102E4000AECFD092DF0284E892E00E94B3030E94EA
:102E50008D08A5CFF092DF028DE892E00E94B303C7
:102E60000E941B139CCF8091BF0281FF1AC0109259
:102E7000BF02A092DF0281E00E945D0FA8957894C6
:102E80001092BD021092BC028091BC029091BD02D2
:102E90008C5D9540C8F3A8958091B1028093DF02C4
:102EA0007ECF8091BF0282FF7ACF1092BF028091C5
:102EB000B102882319F49092B10202C01092B102BB
:102EC0008091B1028093DF020E943A1268CF06C05F
:102ED00090E000009F5F9E31E1F781508823C1F7A9
:102EE000089548EC50E009C020E137E2FA0131973B
:102EF000F1F721503040D1F781508823A9F7089588
:102F00009093C5008093C40088E18093C1008EE057
:102F10008093C200519A50980895982F8091C000D4
:102F200085FFFCCF9093C60080E090E008958091EB
:102F3000C00087FFFCCF8091C60008958091C0003B
:102F400080780895AC0120E007C08091C00085FF23
:102F5000FCCF3093C6002F5FFA01E20FF11D3491D0
:102F6000332399F7662371F08091C00085FFFCCF71
:102F70008AE08093C6008091C00085FFFCCF8DE081
:102F80008093C6000895FC0107C08091C00085FFB2
:102F9000FCCF31969093C60090819923B1F70895A4
:102FA000282F982F92959F709A3030F48091C0000E
:102FB00085FFFCCF905D05C08091C00085FFFCCFF0
:102FC000995A9093C600822F90E08F7090700A9764
:102FD0003CF48091C00085FFFCCF2F70205D06C0BF
:102FE0008091C00085FFFCCF2F70295A2093C60026
:102FF00008951F93182F892F0E94D017812F0E94A8
:10300000D0171F910895EF92FF920F931F937B01AA
:103010008C01C801AA27BB270E94F917C7010E948B
:10302000F9171F910F91FF90EF9008950F931F9341
:10303000CF93DF938C01E0E1F7E240E0C0E0D0E025
:10304000C801BF010E949F1D262F662329F4442337
:1030500019F4E130F10549F48091C00085FFFCCFFF
:10306000205D2093C600205341E0CF016AE070E06C
:103070000E949F1D2196C530D10571F0822F90E0EE
:103080009C012E9FC0012F9F900D3E9F900D1124FB
:10309000081B190BFB01D4CFDF91CF911F910F912A
:1030A00008954F925F926F927F928F929F92AF920C
:1030B000BF92CF92DF92EF92FF920F931F93CF9325
:1030C000DF934B015C01E12C9AECF92E9AE9092F70
:1030D0009BE3192F4424C0E0D0E0C501B401A8014E
:1030E00097010E94C61DD22E222341F4442031F4C0
:1030F00081E0E816F1040105110561F48091C0003A
:1031000085FFFCCF80E3D80ED092C60080EDD80EAC
:1031100044244394C801B7012AE030E040E050E085
:103120000E94C61DC22E732E642E552E2196CA30C3
:10313000D105A9F06D2D70E080E090E0A801970125
:103140000E94741D861A970AA80AB90A2C2D372DD9
:10315000462D552DC901DA017C018D01BECFDF91CD
:10316000CF911F910F91FF90EF90DF90CF90BF9084
:10317000AF909F908F907F906F905F904F90089549
:103180009C0160E971E00E949F1D892B11F481E090
:103190000895C90164E670E00E949F1D892B11F417
:1031A00080E0089580E023703070232B09F481E0E3
:1031B00008954F925F926F927F928F929F92AF92FB
:1031C000BF92CF92DF92EF92FF920F931F93CF9314
:1031D000DF93382F562F942E522E402E8E2CE4162D
:1031E00020F0E41691F4281780F4852D642D482DE5
:1031F000232F052FE92C0E94D91822273327A90154
:10320000261B370B480B590BDEC0351569F4981493
:1032100009F053C0842D90E0851B91099C0144273F
:1032200037FD4095542FCFC0981409F046C0C32FE6
:10323000D0E0FE01E255FD4FE4918E2F90E0851B1A
:1032400091097C010027F7FC0095102F323041F4E2
:10325000892D90E00E94C018E80EF11C011D111D7F
:103260009FEAA92E92E0B92EAC0EBD1ECC24DD241F
:103270003E010894611C711CC52DD0E017C0F501FA
:103280008491E80EF11C011D111D2230310541F41D
:10329000892D90E00E94C018E80EF11C011D111D3F
:1032A0000894C11CD11C0894A11CB11C93012C0DC5
:1032B0003D1D2C173D071CF380C0C32FD0E0FE013D
:1032C000E255FD4FE4918E2F90E0851B91097C0122
:1032D0000027F7FC0095102F323041F4892D90E043
:1032E0000E94C018E80EF11C011D111D8FEAA82EC6
:1032F00082E0B82EAC0EBD1ECC24DD24219617C072
:10330000F5018491E80EF11C011D111D22303105DB
:1033100041F4892D90E00E94C018E80EF11C011DB7
:10332000111D0894C11CD11C0894A11CB11C9E0144
:103330002C0D3D1D2D3031051CF3892D90E06C01C5
:103340000894C11CD11CC0E0D0E03C01A82CBB24D7
:1033500011C0C6010E94C01890E083599E4FAA2751
:1033600097FDA095BA2FE80EF91E0A1F1B1F08949F
:10337000C11CD11C2196CE01860D971D8A159B0577
:1033800044F3C1E0D0E0C52CDD2414C0FE01E255B9
:10339000FD4FE491EE0EF11C011D111DC230D1054F
:1033A00041F4882D90E00E94C018E80EF11C011D28
:1033B000111D2196CC15DD054CF3A8019701240DB4
:1033C000311D411D511DB901CA01DF91CF911F91DE
:1033D0000F91FF90EF90DF90CF90BF90AF909F90B4
:1033E0008F907F906F905F904F900895EF92FF9233
:1033F0000F931F937B01882341F4BA0180E090E092
:103400002FEB32E040E050E009C0813011F5BA0105
:1034100080E090E020E137E240E050E00E94741D3F
:1034200000E010E0A80197010E94C61DCA01B90181
:10343000A80197010E94C61DC901DA018F3F9105BD
:10344000A105B10539F030F08FEF90E0A0E0B0E0D9
:1034500001C0842F1F910F91FF90EF9008952F923C
:103460003F924F925F926F927F928F929F92AF9214
:10347000BF92CF92DF92EF92FF920F931F93CF9361
:10348000DF93EC01288039804A805B806C807D80EE
:103490008E809F80AA24BB246501F501E370F07043
:1034A000EE0FFF1FEE0FFF1FE256FD4FE080F18091
:1034B00002811381EA0CFB1C0C1D1D1DD401C301EC
:1034C00075E0B695A795979587957A95D1F7A4015C
:1034D000930164E0220F331F441F551F6A95D1F7F3
:1034E00082279327A427B527860D971DA81DB91DF0
:1034F000E826F9260A271B272E0C3F1C401E511ECA
:1035000089EB99E7A7E3BEE9A80EB91ECA1EDB1E28
:10351000A2019101F5E05695479537952795FA95C3
:10352000D1F7D201C101E4E0880F991FAA1FBB1F88
:10353000EA95D1F7282739274A275B27220D331D23
:10354000441D551DD601C5017BE0B695A7959795FD
:1035500087957A95D1F783709070880F991F880F9F
:10356000991F82569D4FFC0180819181A281B38178
:103570008A0D9B1DAC1DBD1D282739274A275B27B7
:10358000620E731E841E951EF0E2AF16F7E3BF06AF
:10359000FFEECF06F6ECDF0609F07FCF28823982F6
:1035A0004A825B826C827D828E829F82DF91CF9184
:1035B0001F910F91FF90EF90DF90CF90BF90AF9051
:1035C0009F908F907F906F905F904F903F902F9043
:1035D00008958F92AF92BF92CF92DF92EF92FF92B7
:1035E0000F931F93DF93CF93CDB7DEB728970FB616
:1035F000F894DEBF0FBECDBFE82FF42F722FBC2C86
:103600008A2D8150823008F040C030E040E050E028
:103610003961802F90E0A0E0B0E0B82FAA27992769
:103620008827282B392B4A2B5B2B8E2D90E0A0E08E
:10363000B0E0DC0199278827282B392B4A2B5B2BFC
:1036400029833A834B835C832F8930E040E050E04C
:10365000542F432F322F2227888D90E0A0E0B0E036
:10366000282B392B4A2B5B2B426B898D90E0A0E0F5
:10367000B0E0B82FAA2799278827282B392B4A2B67
:103680005B2B2D833E834F8358878E2F4F2F272F01
:103690000E94D9182AE030E040E050E00E94741DFA
:1036A0007B018C0125E43EE040E050E00E94C61D15
:1036B0006901BB2029F026E33BE644E050E004C06A
:1036C0002AE83CE144E050E0BA01A9014E195F0943
:1036D000600B710B882D90E08E3291051CF08DE20D
:1036E00090E005C08831910514F488E190E08C01E8
:1036F0000851104083E0A81609F0A5C0BB2009F0CE
:103700004BC0475E5F40624070409E89913051F5EA
:10371000A7E9B2E020E030E0FD0185919491C81660
:10372000D906D0F4F901EE0FFF1FEE0FFF1FE75689
:10373000FD4F25913491C901E3E0880F991FEA9567
:10374000E1F7220F331F820F931FA0E0B0E0481B68
:10375000590B6A0B7B0B06C02F5F3F4F149623302B
:103760003105D1F6E0EDF1E0849190E0C816D9067C
:103770001CF480E090E009C07796849190E0C81630
:10378000D9060CF08CC187E190E0080F191F0F5289
:103790001E4FF80184913FC0445B5A436240704021
:1037A000A3EAB2E020E030E0FD0185919491C816D3
:1037B000D906D0F4F901EE0FFF1FEE0FFF1FEB55F6
:1037C000FD4F25913491C901E3E0880F991FEA95D7
:1037D000E1F7220F331F820F931FA0E0B0E0481BD8
:1037E000590B6A0B7B0B06C02F5F3F4F149623309B
:1037F0003105D1F620E030E0F901E250FE4FE491CE
:103800008E2F90E0C816D906C4F4020F131F015082
:103810001E4FF801849190E025E43EE0DC01A29F78
:10382000C001A39F900DB29F900D1124A0E0B0E0C5
:10383000481B590B6A0B7B0B32C1295E3F4F253465
:103840003105D1F62CC1BB2009F045C0BE89B1308D
:1038500051F5A3E4B2E020E030E0FD0185919491C0
:10386000C816D906D0F4F901EE0FFF1FEE0FFF1FA7
:10387000EB5BFD4F25913491C901E3E0880F991F5F
:10388000EA95E1F7220F331F820F931FA0E0B0E00B
:10389000481B590B6A0B7B0B06C02F5F3F4F1496DA
:1038A0002B303105D1F620E030E0F901EB55FF4F28
:1038B000E4918E2F90E0C816D9063CF4020F131F36
:1038C0000A551F4FF801849144C0295E3F4F2A38A2
:1038D000310559F755C0BE89B13051F5AFE6B2E0B8
:1038E00020E030E0FD0185919491C816D906D0F40E
:1038F000F901EE0FFF1FEE0FFF1FEF58FD4F25914F
:103900003491C901F3E0880F991FFA95E1F7220F6E
:10391000331F820F931FA0E0B0E0481B590B6A0BC6
:103920007B0B06C02F5F3F4F14962A303105D1F62E
:1039300020E030E0F901E15DFE4FE4918E2F90E050
:10394000C816D906C4F4020F131F005D1E4FF801FC
:10395000849190E025E43EE0DC01A29FC001A39F9A
:10396000900DB29F900D1124A0E0B0E0481B590BC0
:103970006A0B7B0B05C0295E3F4F213A3105D1F61A
:10398000B2E0AB1609F042C08DEAE82E8EE8F82EC0
:10399000012D112DE40EF51E061F171F89819A8136
:1039A000AB81BC818E259F25A027B12789839A836F
:1039B000AB83BC83CE0101960E942F1A69817A8164
:1039C0008B819C817F778070907028EE33E040E09F
:1039D00050E00E94741D2FEF3FE740E050E00E944E
:1039E000C61DCA01B90126E036ED40E050E00E9454
:1039F000741D28EE33E040E050E00E94C61DBA017D
:103A0000A9014E0D5F1D601F711F49C0E1E0AE1698
:103A100009F045C0BCEFEB2EB9E2FB2EBFEF0B2F38
:103A2000BFEF1B2FE40EF51E061F171F8D819E8111
:103A3000AF81B8858E259F25A027B1278D839E83D2
:103A4000AF83B887CE0101960E942F1A6D817E81C7
:103A50008F8198857F778070907028EE33E040E00A
:103A600050E00E94741D2FEF3FE740E050E00E94BD
:103A7000C61DCA01B90122EB3EE840E050E00E94B9
:103A8000741D28EE33E040E050E00E94C61DD801CE
:103A9000C701821B930BA40BB50BAC01BD0177FFD3
:103AA00005C020E030E040E050E00AC0CB01BA01A0
:103AB00020E930E040E050E00E94741D9B01AC0121
:103AC000B901CA0128960FB6F894DEBF0FBECDBF6C
:103AD000CF91DF911F910F91FF90EF90DF90CF90EA
:103AE000BF90AF908F900895629FD001739FF001B7
:103AF000829FE00DF11D649FE00DF11D929FF00D7E
:103B0000839FF00D749FF00D659FF00D9927729FB4
:103B1000B00DE11DF91F639FB00DE11DF91FBD013F
:103B2000CF0111240895991B79E004C0991F9617BD
:103B300008F0961B881F7A95C9F780950895AA1BEF
:103B4000BB1B51E107C0AA1FBB1FA617B70710F088
:103B5000A61BB70B881F991F5A95A9F780959095BA
:103B6000BC01CD01089597FB092E07260AD077FDE9
:103B700004D0E5DF06D000201AF4709561957F4FE0
:103B80000895F6F7909581959F4F0895A1E21A2E1A
:103B9000AA1BBB1BFD010DC0AA1FBB1FEE1FFF1FF1
:103BA000A217B307E407F50720F0A21BB30BE40B41
:103BB000F50B661F771F881F991F1A9469F7609588
:103BC0007095809590959B01AC01BD01CF01089542
:103BD00097FB092E05260ED057FD04D0D7DF0AD05B
:103BE000001C38F450954095309521953F4F4F4F2C
:103BF0005F4F0895F6F790958095709561957F4F8A
:103C00008F4F9F4F0895F999FECF92BD81BDF89ACD
:103C1000992780B50895A8E1B0E042E050E00C9407
:103C2000261E262FF999FECF1FBA92BD81BD20BD59
:103C30000FB6F894FA9AF99A0FBE019608950E9469
:103C4000111E272F0C94121EDC01CB01FC01F999E7
:103C5000FECF06C0F2BDE1BDF89A319600B40D92D8
:0C3C600041505040B8F70895F894FFCF91
:103C6C0020202066742020200020202020636D203E
:103C7C002000202020206C62732000202020206B4C
:103C8C006720200020202020626D69200074696D5F
:103C9C00657320757000616C61726D206F6E0073BE
:103CAC006E6F6F7A696E67007573612D3132687251
:103CBC00006575722D3234687200766F6C206869FD
:103CCC00676800766F6C20206C6F77006272697485
:103CDC0065200020202020202020200073756E6499
:103CEC006179006D6F6E64617900747565736461E0
:103CFC0079007765646E73646179007468757273AA
:103D0C0064617900667269646179007361747572BB
:103D1C00646179006A616E00666562006D61726350
:103D2C006800617072696C006D6179006A756E650E
:103D3C00006A756C790061756773740073657074D3
:103D4C00006F63746F62006E6F76656D00646563FF
:103D5C00656D0066656D616C652020006D616C653C
:103D6C0020202020006E6F726D616C202000706529
:103D7C007373696D7374006F7074696D697374001B
:103D8C00736164697374696300696D7065726961EC
:103D9C006C006D65747269632020006469726563E0
:103DAC0074202000736D6F6B65722020006E6F6E37
:103DBC0020736D6B720073657420616C61726D00A1
:103DCC007365742074696D65007365742064617427
:103DDC006500736574206272697400736574207673
:103DEC006F6C2000736574207265676E006465618A
:103DFC007468636C6B00484E393F52582326C46C70
:0E3E0C0028A8CA916B709E639393D9E791FE2C
:00000001FF
