:100000000C9493020C945C120C94B0020C944F0864
:100010000C94B0020C94A3080C94B0020C94B0029F
:100020000C94B0020C94A60D0C94B0020C94B00287
:100030000C94B0020C94B0020C94B0020C94B00278
:100040000C94B0090C94B0020C94B0020C94B00261
:100050000C94B0020C94B0020C94B0020C94460DB7
:100060000C94B0020C94B00203070809060A050CB0
:100070000468000B10120F0D0E11137300202020C6
:1000800020202020202020646561746874756265DA
:100090002E2020646562756767696E672E20206375
:1000A0006F6465206F7074696D697A6174696F6ED1
:1000B0002E20206279206361697473697468322E1E
:1000C0002020636F6465206A6564692E202077773D
:1000D000772E6361697473697468322E636F6D2063
:1000E000202020202020202020696365747562650F
:1000F0002E2020696365747562652068617264777B
:100100006172652E20206279206C6164796164617E
:100110002E202073696D706C79207468652062658B
:1001200073742E2020202020202020202061646154
:10013000667275697420696E64757374726965732B
:100140002E207777772E61646166727569742E63ED
:100150006F6D20202020202020202020006A616E4A
:100160002020006665622020006D61726368006176
:100170007072696C006D61792020006A756E65206F
:10018000006A756C7920006175677374007365701F
:100190007420006F63746F62006E6F76656D00642B
:1001A0006563656D0073756E64617920206D6F6E97
:1001B0006461792020747565736461792077656462
:1001C0006E7364617974687572736461796672695B
:1001D0006461792020736174757264617900616C67
:1001E00061726D206F6E006575722D323468720019
:1001F0007573612D3132687200766F6C20206C6FE0
:100200007700766F6C2068696768006E6F6E207388
:100210006D6B7200736D6F6B657220200064697284
:100220006563742020006D65747269632020006925
:100230006D70657269616C00736164697374696380
:10024000006F7074696D6973740070657373696DA4
:100250007374006E6F726D616C2020006D616C654F
:10026000202020200066656D616C65202000202024
:100270002020636D20200020202066742020200094
:1002800020202020626D692000202020206B672024
:100290002000202020206C62732000627269746547
:1002A00020006465617468636C6B0061626F7574D3
:1002B00020202000736574207265676E007365747A
:1002C00020766F6C2000736574206272697400730D
:1002D00065742064617465007365742074696D656C
:1002E0000073657420616C61726D0074696D657373
:1002F0002075700020202020202020200074696DAF
:10030000657320757000736E6F6F7A696E67001485
:1003100000000000000000000000000000000000DD
:10032000000000000000280000000001010101029F
:100330000202030303040404050506060832000054
:10034000000000010101010202020203030404048F
:10035000050505073C000000000000010101010245
:10036000020203030304040405050646000000001E
:100370000101010101020202020303030404040457
:100380000000C800000000000000000000000000A5
:100390000000000000000000051400000000000044
:1003A000000000000000000000000000000000004D
:1003B0001E00000001010101020203030304040501
:1003C0000506060707080D280000000101010102CB
:1003D000020203030304040505060606070B3200A8
:1003E00000000000010101020202030303040404EF
:1003F000050506060A3C000000000000000101019E
:10040000010202020303030404040507460000007E
:1004100000000000000101010102020202020303C8
:10042000030305C8000000000000000000000000F9
:10043000010101010101010102021400000000009C
:1004400000000000000000000000000000000000AC
:1004500000C80000000000000000010101010101CE
:100460000202020202030304140000000000000064
:100470000000000000000000000000000000001E5E
:10048000000000000000000101010101020202025F
:10049000030303030406C80000000000000001017C
:1004A0000101010102020202030303030519000016
:1004B000001E00B30A23008F0A2800FD092D00D872
:1004C0000932006A093700D9083C00FE074100FEE6
:1004D0000646004706C800B504190000001E003F8C
:1004E000092D001B093200F6083700D1083C0090A6
:1004F000084100F606460022074B006505C8004883
:1005000004190000001E00FE04C800DA04190000EF
:10051000001E009005C8006C051F1C1F1E1F1E1F1B
:100520001F1E1F1E1F0011241FBECFEFD4E0DEBF11
:10053000CDBF11E0A0E0B1E0E6EEFBE302C0059024
:100540000D92AC33B107D9F711E0ACE3B1E001C0D3
:100550001D92AA37B107E1F70E9408160C94F11D0D
:100560000C9400009C01789410924B0110924A0167
:1005700080914A0190914B0182179307C8F3089527
:10058000A895089581E0809340015B9A8CB58F7B9C
:100590008CBD85B1877D85B95E9815BC10925E01D2
:1005A0001092680085B1897F85B98BB18F7C8BB93A
:1005B00028988AB18F7C8AB920985A985298E1E697
:1005C000F0E090E8908388E08083449A83B7876066
:1005D00083BF889590831082449808958EE284B9F1
:1005E00088E48AB989E187B984E38BB991E095B948
:1005F00085E08093680090936B0080E380936D00AA
:100600000895982F643008F053C080913E018823EC
:1006100019F4613081F404C0813069F4623059F416
:1006200080916101816080936101809162018160AC
:100630008093620108956330B9F4923051F480914F
:10064000650181608093650180916601816080937E
:1006500066018091670181608093670180916801E4
:100660008160809368010895992329F0E3E0F0E028
:10067000A3E0B0E004C0E4E0F0E0A4E0B0E0A05A01
:10068000BE4FE05AFE4F808181608C93992329F4FC
:10069000E5E0F0E0A5E0B0E004C0E4E0F0E0A4E0D4
:1006A000B0E0A05ABE4FE05AFE4F808181608C932B
:1006B0000895FC0183709070892B39F4CF0164E6B2
:1006C00070E00E945C1D892B49F420E030E0CF01EE
:1006D00060E971E00E945C1D892B11F421E030E09B
:1006E000822F08951092800010928100299A2A98F2
:1006F000789410924B0110924A0180914A01909196
:100700004B010A97D0F32A9A2998789410924B01BA
:1007100010924A0180914A0190914B010A97D0F3BF
:1007200085B1897F85B982EB8093800088E18093D1
:10073000810008951F93162F9C0140E050E060E473
:1007400072E48FE090E00E94A51D30938700209313
:10075000860080918600909187009695879590936A
:100760008B0080938A0080918A0090918B009093F7
:1007700089008093880028EC30E01CC080918100C3
:1007800082608093810080ED97E0F9013197F1F765
:100790000197D9F7809181008D7F8093810085B189
:1007A000897F85B980ED97E0F9013197F1F70197DD
:1007B000D9F71150112311F785B1897F85B91F91A0
:1007C00008958B3510F08AE503C08E3108F48EE170
:1007D00087BD83E084BD81E085BD84B5806884BD2C
:1007E00080916E00816080936E0078940895FF92EE
:1007F0000F931F93082F162FF22E1092600188235B
:10080000E9F4822F64E60E94501D282F30E02D5E0F
:100810003F4FC9016AE070E00E94701DFB01E65E77
:10082000FE4F808180936501C9016AE070E00E94FB
:10083000701DFC01E65EFE4F808103C082E0809364
:1008400063018093660180913E01A02FB0E0882370
:1008500021F5812F6AE00E94501DE82FF0E0E65E4E
:10086000FE4F808180936101812F0E94501DE92FEE
:10087000F0E0E65EFE4F808180936201A05ABE4F99
:10088000842F0E94501DE82FF0E0E65EFE4F80812D
:1008900013968C931397842F23C0842F6AE00E94B1
:1008A000501DE82FF0E0E65EFE4F808180936101ED
:1008B000842F0E94501DE92FF0E0E65EFE4F8081FC
:1008C00080936201A05ABE4F812F0E94501DE82FD5
:1008D000F0E0E65EFE4F808113968C931397812F94
:1008E0000E94501DE92FF0E0E65EFE4F80811496D5
:1008F0008C938F2D64E60E94501D292F892F6AE06A
:100900000E94501DE82FF0E0E65EFE4F808180934C
:100910006701822F0E94501DE92FF0E0E65EFE4F36
:100920008081809368011F910F91FF900895282F77
:1009300080913E01882391F52C3048F08091600130
:100940008160809360018EEC8093670108C08AEF1C
:1009500080936701809160018E7F809360018AEAB5
:1009600080936801822F90E00B966CE070E00E940B
:10097000701D9C012F5F3F4FC9016AE070E00E942B
:10098000701DFC01E65EFE4F808180936201C9010B
:100990006AE070E00E94701DFB0110C0822F6AE0C7
:1009A0000E94501DE92FF0E0E65EFE4F80818093AB
:1009B0006201822F0E94501DE82FF0E0E65EFE4F9C
:1009C00080818093610108950F931F93582F362FD4
:1009D000142F022F1092630110926601109267018A
:1009E00010926801862F6AE00E94501DE92FF0E006
:1009F000E65EFE4F808180936501832F0E94501D2B
:100A0000E82FF0E0E65EFE4F808180936401852F41
:100A10000E9497041C33A8F4812F6AE00E94501DA5
:100A2000E92FF0E0E65EFE4F808180936801812F20
:100A30000E94501DE82FF0E0E65EFE4F808180931B
:100A40006701002379F0E3E00E9FF0011124DF013C
:100A5000A25ABE4F8C9181608C93E15AFE4F8081E7
:100A6000816080831F910F910895AC011092600105
:100A700021E030E0A22FB0E0FD01E30FF11D31973E
:100A8000E40FF51FE491EE2351F18E2F81568A3148
:100A900030F4A05ABE4FF0E0E156FF4F09C08E2F50
:100AA00080538A3040F4A05ABE4FF0E0E651FF4F29
:100AB00080818C9311C0EE3261F4223050F02150CD
:100AC000E22FF0E0E05AFE4F8081816080833F5F3B
:100AD00003C0A05ABE4F1C922F5F293058F20895D0
:100AE00080913E01882319F480EF91E002C087EEE7
:100AF00091E00E9435050895882351F082E092E04C
:100B00000E9435058091650181608093650104C074
:100B100089EF91E00E9435058091660181608093A4
:100B2000660180916701816080936701809168010F
:100B30008160809368010895CF93DF93EB01109259
:100B400060018823D9F587E792E00E943505CE0140
:100B500068E770E00E945C1DFB01E65EFE4F80814D
:100B600080936101CE016CE070E00E945C1DCB01BE
:100B70006AE070E00E945C1DFC01E65EFE4F808131
:100B800080936201CE016CE070E00E945C1D9C01CC
:100B90006AE070E00E945C1DFB01E65EFE4F808112
:100BA00080936701C9016AE070E00E945C1DFC014E
:100BB000E65EFE4F80818093680129C08EE692E058
:100BC0000E943505CE0164E670E00E945C1DFB01C9
:100BD000E65EFE4F808180936101CE0164E670E0A5
:100BE0000E945C1D6AE070E00E945C1DFB01E65EF5
:100BF000FE4F808180936201CE016AE070E00E9426
:100C00005C1DFC01E65EFE4F808180936301DF91F5
:100C1000CF910895CF93DF93EB0110926001882369
:100C200019F482E992E007C0813019F489E892E072
:100C300002C080E892E00E943505CE0164E670E0D3
:100C40000E945C1DFB01E65EFE4F80818093610186
:100C5000CE0164E670E00E945C1D6AE070E00E94D4
:100C60005C1DFB01E65EFE4F808180936201CE0138
:100C70006AE070E00E945C1DFC01E65EFE4F808130
:100C800080936301DF91CF910895843051F4809176
:100C90007501882319F085E692E048C08CE592E062
:100CA00045C08530A1F480917801882319F483E54B
:100CB00092E03CC0813019F48AE492E037C082307F
:100CC00019F481E492E032C088E392E02FC08630CC
:100CD00079F480917101882319F48FE292E026C0A3
:100CE000813019F486E292E021C08DE192E01EC0CD
:100CF000873049F4609173017091740180917101A2
:100D00000E940A060895883049F460916A01709142
:100D10006B01809171010E949C050895893069F4EE
:100D200080915B01882329F084E192E00E943505DF
:100D300008958BE092E00E94350508951F93182FC7
:100D40008BE992E00E943505812F6AE00E94501DD8
:100D5000AAE1B1E0FD01E80FF11D8081816080937F
:100D60006701812F0E94501DA90FB11D8C918160D8
:100D7000809368011F910895EF92FF920F931F9344
:100D8000CF93DF937B018C01161617061806190600
:100D90001CF5C8E6D1E0C801B7012AE030E040E028
:100DA00050E00E94A51DDC01CB01865E9E4FFC0138
:100DB00080818883C801B7012AE030E040E050E03C
:100DC0000E94A51DC901DA017C018D012197F1E086
:100DD000C036DF0701F704C08DEF92E00E943505B1
:100DE000DF91CF911F910F91FF90EF900895EF92B7
:100DF000FF920F931F93E82F80913F018C3009F0F1
:100E00007BC080917001843009F476C0E09050017D
:100E1000F0905101009152011091530180915A01BB
:100E2000E817A0F080915A018E1721F48091690192
:100E3000681760F080915A018E1729F58091690139
:100E4000861709F5809177018823E9F020915A01EE
:100E50007091690180917901833019F041E050E08F
:100E600002C044E050E030E084EC9FEFDC012A9FB8
:100E7000C0012B9F900D3A9F900D1124871B910963
:100E800080569A4F1AC020915A0170916901809141
:100E90007901833019F041E050E002C044E050E0B5
:100EA00030E084EC9FEFDC012A9FC0012B9F900D66
:100EB0003A9F900D1124871B91092CE3E29F90012A
:100EC0001124820F931F860F911D9C01429FC00128
:100ED000439F900D529F900D1124AA2797FDA09536
:100EE000BA2FA8019701281B390B4A0B5B0BCA01CB
:100EF000B9010E94BC0605C08E2F4CE320E00E9481
:100F0000E4041F910F91FF90EF9008954A9B36C023
:100F100080916C01882309F049C081E080936C01C5
:100F200010924901109248018EED91E00E94350522
:100F300089E080937001789410924B0110924A01DD
:100F400080914A0190914B01885E9340C8F3809153
:100F50006D0160915D010E94F706789410924B013B
:100F600010924A0180914A0190914B01805D974017
:100F7000C8F380913F0180937001089580916C01C6
:100F80008823A1F010926C0110924901109248013F
:100F900080916F01882351F010926F018091810040
:100FA0008D7F8093810085B1866085B908951F93F8
:100FB00080914D018D7F80934D0183E68093700178
:100FC00010E019C01F5FE12FF0E0E358FF4F84915C
:100FD0008E32C1F3CF010E943505789410924B01F7
:100FE00010924A0180914A0190914B018D54914099
:100FF000C8F31F5FA895E12FF0E0EB57FF4FE49196
:10100000EE2309F780913F01809370011F910895AD
:101010008AE0809354019AE080914D0180FD20C0C8
:1010200080914D01882321F480914E01882319F08D
:101030009093540109C080915401882329F4809130
:101040003F0180937001089580914D01867021F3D6
:1010500010924D010E94D70780913F01809370014B
:10106000089588E592E0909349018093480186E0D5
:1010700093E00E94350589E0809370017894109286
:101080004B0110924A0180914A0190914B01885E78
:101090009340C8F380913F018093700108951F929F
:1010A0000F920FB60F9211242F933F934F935F939C
:1010B0006F937F938F939F93AF93BF93EF93FF9320
:1010C000109268007894189925C080914C0181FD98
:1010D00026C0789410924B0110924A0180914A01E7
:1010E00090914B010A97D0F3189919C00E9472038E
:1010F00080916F01882319F00E94310810C08091FF
:101100004C01826080934C0180914D0182608093FC
:101110004D0105C080914C018D7F80934C0185E08D
:1011200080936800FF91EF91BF91AF919F918F9154
:101130007F916F915F914F913F912F910F900FBED3
:101140000F901F9018951F920F920FB60F921124B7
:101150002F933F934F935F936F937F938F939F93BF
:10116000AF93BF93EF93FF931092680078944D99DB
:1011700022C080914C0180FD23C0789410924B01D5
:1011800010924A0180914A0190914B010A97D0F345
:101190004D9959C00E94720380916F018823A1F577
:1011A00080914C01816080934C0180914D01816060
:1011B00080934D0105C080914C018E7F80934C013E
:1011C0004C993AC080914C0182FD3DC078941092B8
:1011D0004B0110924A0180914A0190914B010A976C
:1011E000D0F34C9930C082E080934F0116C04C9BE5
:1011F00014C00E94720380914C018B7F80934C013C
:1012000080916F01882319F00E9431081CC08091E1
:101210004D01846080934D0116C080914F01882359
:1012200031F780914C01846080934C0180914E0194
:10123000846080934E0107C010924E0180914C0152
:101240008B7F80934C0185E080936800FF91EF9144
:10125000BF91AF919F918F917F916F915F914F91CE
:101260003F912F910F900FBE0F901F90189581E521
:101270008CBD08959B01AC01F894CA01AA27BB2735
:101280008EBD0DB407FEFDCFBB27A52F942F832F56
:101290008EBD0DB407FEFDCF2EBD0DB407FEFDCFF4
:1012A000409A409878940895AF92BF92CF92DF927F
:1012B000EF92FF920F931F93E82FF0E0E859FF4F52
:1012C000E49181E090E002C0880F991FEA95E2F76F
:1012D0007C010027F7FC0095102F209155013091DB
:1012E00056014091570150915801A0E0B0E070E0E4
:1012F000E1E0AE2EB12CC12CD12CCB010A2E02C0C4
:10130000959587950A94E2F780FF11C0FD01ED588D
:10131000FF4FE491A601950104C0220F331F441F23
:10132000551FEA95D2F7E22AF32A042B152B1196C2
:10133000A830B10511F72093550130935601409321
:10134000570150935801C801B7010E943A091F91F3
:101350000F91FF90EF90DF90CF90BF90AF900895E6
:101360001F920F920FB60F9211242F933F934F931A
:101370005F936F937F938F939F93AF93BF93EF93FD
:10138000FF937894A895809144019091450101962E
:101390009093450180934401819708F46CC01092AA
:1013A00045011092440180914A0190914B010196B0
:1013B00090934B0180934A0180914301893010F052
:1013C0001092430180914301E82FF0E0E05AFE4F74
:1013D00060810E945409809143018F5F8093430193
:1013E00080916F01882309F446C080914801909153
:1013F0004901892B09F03FC0809146019091470136
:10140000019690934701809346018536910598F1A6
:1014100010924701109246018AEF90E09093870066
:10142000809386008091860090918700969587959D
:1014300090938B0080938A0080918A0090918B001A
:10144000909389008093880080916F01807F49F09C
:1014500080916F018F7080936F01809181008D7FEB
:1014600008C080916F01806F80936F01809181002F
:10147000826080938100FF91EF91BF91AF919F9126
:101480008F917F916F915F914F913F912F910F902D
:101490000FBE0F901F9018958EBD0DB407FEFDCFA7
:1014A00008958AE090E00E94C01D80935E0185B19E
:1014B000866085B982E38093800080915E018823F5
:1014C00029F08091800080688093800088E180937B
:1014D00081008AEF90E0909387008093860080914E
:1014E00086009091870096958795909389008093C8
:1014F0008800809188009091890090938B00809360
:101500008A00089584E090E00E94C01D68E10E9476
:10151000501D90935A0185E090E00E94C01D6CE33D
:101520000E94501D9093690186E090E00E94C01DCA
:101530006CE30E94501D9093770188E090E00E9438
:10154000C01D6CE30E94501D90935D0187E090E008
:101550000E94C01D68E10E94501D90936D0181E0C2
:1015600090E00E94C01D64E60E94501D90935C01B3
:1015700082E090E00E94C01D6DE00E94501D90939B
:10158000720183E090E00E94C01D8F7180935F0123
:1015900091E090934201E6EBF0E0808180628083ED
:1015A00085E08093B10090937000789408958091C5
:1015B00040018823A9F180E88093610010926100C6
:1015C0001092400180E49CE90197F1F700B605FC18
:1015D00027C00E94EE0289E090E00E94C01D0E9498
:1015E000E10381E58CBD5B9843988AE090E00E941E
:1015F000C01D80935E010E94510AA8950E94860733
:1016000080E793E061E00E949A0380EE96E061E05B
:101610000E949A0380EC9DE061E00E949A03A895E5
:1016200008950F931F938AE0809354018BE090E01C
:101630000E94C01D80933E0110E00AE001C010E04E
:1016400080914D01882321F480914E01882319F067
:101650000093540104C080915401882381F080914B
:101660004D0180FD2AC080914D0181FF0DC0109277
:101670004D01112321F40E94700511E005C08091F5
:101680003F018093700119C080914D0182FFD8CF36
:1016900010924D01113099F690E080913E0188231F
:1016A00009F491E090933E010E9470058BE090E078
:1016B00060913E010E94CE1DC3CF1F910F910895EE
:1016C000FF920F931F938AE0809354018AE090E089
:1016D0000E94C01D182F00E0BAE0FB2E01C000E000
:1016E00080914D01882321F480914E01882319F0C7
:1016F000F092540104C080915401882389F08091B4
:101700004D0180FD2EC080914D0181FF0EC01092D1
:101710004D01002329F4812F0E947C0501E005C0C2
:1017200080913F01809370011CC080914D0182FF28
:10173000D7CF10924D01013091F680E0112309F4CA
:1017400081E0182F0E947C058AE090E0612F0E94C2
:10175000CE1D0E94510A80EA9FE061E00E949A0338
:10176000BFCF1F910F91FF900895FF920F931F938A
:101770008AE08093540189E090E00E94C01D182FF8
:1017800000E08AE0F82E01C000E080914D0188233E
:1017900021F480914E01882319F0F092540104C085
:1017A00080915401882389F080914D0180FD2CC0E7
:1017B00080914D0181FF13C010924D01002329F447
:1017C000812F0E949E0601E00AC080913F01809314
:1017D000700189E090E0612F0E94CE1D15C08091BC
:1017E0004D0182FD04C080914E0182FFCECF109248
:1017F0004D01013049F61B5F1C3508F01EE1812FB9
:101800000E949E0617BDC1CF1F910F91FF900895B2
:10181000DF92EF92FF920F931F93E0905A01F090A6
:101820006901009177018AE08093540110E09AE009
:10183000D92E80914D0180FD8AC080914D01882371
:1018400021F480914E01882319F0D092540104C0F4
:10185000809154018823E1F080914D0181FF24C0E3
:1018600010924D01112341F4E0905A01F09069016A
:101870000091770111E012C0113079F0123011F4AB
:1018800013E00CC0E0925A01F092690100937701D5
:1018900080913F01809370015AC012E08E2D6F2D10
:1018A000402F212F0E94E40480914D0182FD04C04D
:1018B00080914E0182FFBDCF10924D01113089F40D
:1018C0008E2D90E0019668E170E00E94701DE82E78
:1018D00080935A0160915A0184E090E00E94CE1DED
:1018E0001FC0123089F48F2D90E001966CE370E0F8
:1018F0000E94701DF82E6091690185E090E00E94C1
:10190000CE1DF09269010CC0133051F4802F90E08D
:1019100001966CE370E00E94701D082F80937701A0
:101920008E2D6F2D402F212F0E94E40480914E01B7
:1019300082FF7FCF789410924B0110924A018091E0
:101940004A0190914B018B349105C8F372CF1F91DE
:101950000F91FF90EF90DF900895EF92FF920F9319
:101960001F9300916D01F0905D018AE08093540116
:1019700010E02AE0E22E80914D0180FD82C080912E
:101980004D01882321F480914E01882319F0E092C3
:10199000540119C0809154018823A9F480913F011A
:1019A0008093700100936D01F0925D0160916D0173
:1019B00087E090E00E94CE1D60915D0188E090E09C
:1019C0000E94CE1D5EC080914D0181FF24C0109207
:1019D0004D011123C9F0113011F412E016C000932B
:1019E0006D01F0925D0160916D0187E090E00E94D1
:1019F000CE1D60915D0188E090E00E94CE1D809137
:101A00003F01809370013DC011E0802F6F2D4CE3AA
:101A1000212F0E94E40480914D0182FD04C0809139
:101A20004E0182FFA8CF10924D01113049F4802F52
:101A300090E0019668E170E00E94701D082F0AC0D6
:101A4000123041F48F2D90E001966CE370E00E941B
:101A5000701DF82E802F6F2D4CE3212F0E94E4047F
:101A600080914E0182FF87CF789410924B011092A3
:101A70004A0180914A0190914B018B349105C8F342
:101A80007ACF1F910F91FF90EF9008951F920F92C0
:101A90000FB60F9211242F933F934F935F936F9341
:101AA0007F938F939F93AF93BF93EF93FF9300B672
:101AB00005FE22C0809140018823B9F55B9A85B16B
:101AC000877D85B95E988CB58F7B8CBD80914201F6
:101AD000882361F06091690185E090E00E94CE1D4D
:101AE0006091770186E090E00E94CE1D15BC1092B7
:101AF0005E011092680014C0809140018823A9F013
:101B000080914201882361F06091690185E090E055
:101B10000E94CE1D6091770186E090E00E94CE1D6C
:101B2000E0913C01F0913D010995FF91EF91BF914A
:101B3000AF919F918F917F916F915F914F913F9165
:101B40002F910F900FBE0F901F9018951F920F921C
:101B50000FB60F9211242F933F934F935F936F9380
:101B60007F938F939F93AF93BF93EF93FF9380E8FF
:101B70008093610010926100809177018F5F809364
:101B80007701809177018C33A8F1109277018091D1
:101B900069018F5F8093690180915001909151019B
:101BA000A0915201B0915301181619061A061B068E
:101BB0000CF520915001309151014091520150910A
:101BC000530180917901833029F081E090E0A0E019
:101BD000B0E004C084E090E0A0E0B0E0281B390B46
:101BE0004A0B5B0B209350013093510140935201FB
:101BF00050935301809169018C3398F010926901E0
:101C000080915A018F5F80935A0160915A0184E05C
:101C100090E00E94CE1D6091690185E090E00E94F5
:101C2000CE1D80915A01883168F010925A0180913E
:101C30005F018F5F80935F0160915F0183E090E0BF
:101C40000E94CE1D80915F01803268F580915F0116
:101C50008F3181F480917201843029F18091720179
:101C6000863009F1809172018930E9F0809172012A
:101C70008B30C9F080915F018E3121F48091720127
:101C8000823089F080915F018D31D9F480917201A9
:101C90008230B9F480915C0190E08053984F0E94AB
:101CA0005903882371F481E080935F018091720170
:101CB0008F5F809372016091720182E090E00E94D8
:101CC000CE1D809172018D3070F080915C018F5F2C
:101CD00080935C0181E08093720160915C0181E0FE
:101CE00090E00E94CE1D80914001882309F0D7C06A
:101CF00080917001882319F580914101882349F072
:101D00008091770180FF05C084EF92E00E94350545
:101D100009C080915A01609169014091770120E0EA
:101D20000E94E40480916C01882321F0809160017D
:101D3000826003C0809160018D7F809360018091FB
:101D400070018C3009F068C0209150013091510130
:101D5000409152015091530180917901833029F0D3
:101D600080E090E0A0E0B0E008C0809177016FE0F3
:101D70000E94501D90E0A0E0B0E0281B390B4A0BF8
:101D80005B0B1216130614061506ACF520915001D4
:101D9000309151014091520150915301809179014C
:101DA000833029F080E090E0A0E0B0E008C08091AE
:101DB00077016FE00E94501D90E0A0E0B0E0281B8A
:101DC000390B4A0B5B0BCA01B9010E94BC0680911A
:101DD00077019BE3981B28E00BC090FF07C0E22F20
:101DE000F0E0E05AFE4F808181608083969521501B
:101DF000992399F704C08BEE92E00E9435058091FB
:101E00006C01882321F080916001826003C0809181
:101E100060018D7F8093600180916C018823B9F00F
:101E200090916D0180915A01981789F490915D010C
:101E300080916901981759F480917701882339F4CA
:101E400081E080936F0110924901109248018091C6
:101E50005401882329F080915401815080935401CA
:101E600080914F01882329F080914F018150809308
:101E70004F018091480190914901009781F00197AD
:101E8000909349018093480180FF04C080916001D4
:101E9000826003C0809160018D7F80936001FF911B
:101EA000EF91BF91AF919F918F917F916F915F91D2
:101EB0004F913F912F910F900FBE0F901F9018954B
:101EC0006F927F928F929F92AF92BF92CF92DF924A
:101ED000EF92FF920F931F9385E190E00E94C01D47
:101EE000809379018EE090E00E94C01D682E8FE003
:101EF00090E00E94C01D782E80E190E00E94C01DFD
:101F0000B82E81E190E00E94C01D982E82E190E001
:101F10000E94C01D082F83E190E00E94C01DD82EB2
:101F200084E190E00E94C01DC82EA090790186E156
:101F300090E00E94C01D182F89E190E00E94C81D0A
:101F40007C0187E190E00E94C81DAC01812FB701A0
:101F50000E94B319882E8BE190E00E94C01DE82EEC
:101F60008CE190E00E94C01DF82E8DE190E00E946F
:101F7000C01D182F8EE190E00E94C01D00D000D03F
:101F8000EDB7FEB731969CE6B90ED90EADB7BEB728
:101F90001196EC92F18212838383862D672D4B2D4F
:101FA000292DED2C0E94A61A0F900F900F900F90E4
:101FB0001F910F91FF90EF90DF90CF90BF90AF9067
:101FC0009F908F907F906F900895DF92EF92FF9295
:101FD0000F931F9381E190E00E94C01D80937601D2
:101FE00082E190E00E94C01D8093590183E190E05E
:101FF0000E94C01D80936E010E94600F7B018C01C6
:10200000DD24D39450C0809159018F5F8093590192
:1020100080915901803268F5809159018F3181F4A6
:1020200080917601843029F180917601863009F122
:10203000809176018930E9F0809176018B30C9F08A
:10204000809159018E3121F480917601823089F09E
:10205000809159018D31A1F480917601823081F413
:1020600080916E0190E08459984F0E945903882313
:1020700039F4D0925901809176018F5F8093760177
:10208000809176018D3038F0D092760180916E018A
:102090008F5F80936E0180E69AEFAFEFBFEFE80E9F
:1020A000F91E0A1F1B1F90EAE91695E0F90690E059
:1020B000090790E0190708F0A6CF1F910F91FF9034
:1020C000EF90DF900895FF920F931F93CF93DF93CC
:1020D000882341F46091720140915F0120915C017D
:1020E00081E009C0823051F46091720140915F013A
:1020F00020915C0180E00E94F70309C1813009F062
:1021000006C1F0905F010091720110915C010E9484
:10211000E50F80913F018C3061F4809159018093EB
:102120005F01809176018093720180916E018093AE
:102130005C0180917201C82FD0E080913F018C300A
:1021400039F480915C01E82FF0E0E459F84F06C0C3
:1021500080915C01E82FF0E0E053F84F809172012C
:10216000833010F42C96319720915F011092670113
:102170001092680130E02F5F3F4F2E0F3F1FCE01BE
:10218000880F991F280F391FCF019695879596952F
:102190008795280F391FCF0160E971E00E945C1D0F
:1021A000260F371FCF0164E670E00E945C1D261BDE
:1021B000370BAE014F5F5F4FCA01880F991F840F25
:1021C000951F880F991F6AE070E00E945C1DC9018D
:1021D000860F971F67E070E00E945C1D90E033E07F
:1021E000880F991F3A95E1F78B559E4F0E94350550
:1021F000789410924B0110924A0180914A0190917B
:102200004B01885E9340C8F31092640110926501FF
:10221000109266018091720126E0829FC001112414
:10222000895A9E4F0E94350580915F016AE00E94A5
:10223000501DE82FF0E0E65EFE4F8081809367013D
:1022400080915F010E94501DE92FF0E0E65EFE4F95
:1022500080818093680180913F018C3009F057C0E4
:10226000789410924B0110924A0180914A0190910A
:102270004B01885E9340C8F3109264011092630191
:10228000109262011092610180915C0164E60E94EB
:10229000501D90E043966AE070E00E94701DFB01C3
:1022A000E65EFE4F80818093650180915C0164E66B
:1022B0000E94501D90E043966AE070E00E94701DFD
:1022C000FC01E65EFE4F80818093660180915C0197
:1022D00064E60E94501D892F6AE00E94501DE82F7D
:1022E000F0E0E65EFE4F80818093670180915C01A3
:1022F0000E94501DE92FF0E0E65EFE4F8081809342
:102300006801F0925F010093720110935C01DF910C
:10231000CF911F910F91FF9008950F931F938AE023
:102320008093540110E00AE080914D01882321F44C
:1023300080914E01882319F00093540105C08091CB
:102340005401882309F43EC080914D0180FDB1C045
:1023500080914D0181FF4DC010924D01112329F450
:1023600080913E018823A9F132C0113029F4809177
:102370003E01882339F010C0123061F480913E0193
:10238000813029F480913E01882309F122C08823FD
:1023900011F106C0113021F480913E018130D9F055
:1023A00083E68093700180E00E946310789410921D
:1023B0004B0110924A0180914A0190914B018C5D32
:1023C0009540C8F380913F018093700172C012E084
:1023D00003C011E001C013E06091720140915F0100
:1023E00020915C0181E00E94F70380E0612F0E9450
:1023F000010380914D0182FD04C080914E0182FF56
:1024000093CF10924D01113081F4809172018F5F52
:1024100080937201809172018D3010F010937201DF
:102420006091720182E090E025C0123089F48091C1
:102430005F018F5F80935F0180915F01803218F0B0
:1024400081E080935F0160915F0183E090E012C0C2
:10245000133091F480915C018F5F80935C018091D7
:102460005C0164E60E94501D90935C0160915C01E8
:1024700081E090E00E94CE1D6091720140915F0169
:1024800020915C0181E00E94F70380E0612F0E94AF
:10249000010380914E0182FF47CF789410924B0147
:1024A00010924A0180914A0190914B01CC97D0F350
:1024B0003BCF1F910F9108951F920F920FB60F926D
:1024C00011242F933F934F935F936F937F938F9339
:1024D0009F93AF93BF93EF93FF9389E60E944A17B0
:1024E00029B17894789410924B0110924A0180910E
:1024F0004A0190914B010A97D0F389B1247030E0E2
:1025000090E0847090702817390711F40E948607B4
:10251000FF91EF91BF91AF919F918F917F916F91BB
:102520005F914F913F912F910F900FBE0F901F9091
:1025300018956F927F928F929F92AF92BF92CF9297
:10254000DF92EF92FF920F931F93CF93DF930E943E
:10255000600F5B016C0181E190E00E94C01DF82ECC
:1025600082E190E00E94C01D182F83E190E00E945C
:10257000C01D2091720100915F0190915C01482F74
:10258000445990538F2D612FE92E0E9496189B017C
:10259000AC0180917901833031F061E0E62EF12CBD
:1025A000012D112D05C094E0E92EF12C012D112DE6
:1025B00060905A0180917901833021F081E0882E6A
:1025C000912C03C0B4E08B2E912C70906901809106
:1025D0007901833019F0C1E0D0E002C0C4E0D0E05E
:1025E000CA01B90120EA35E040E050E00E94311D07
:1025F000A80197010E94311DA61AB70AC80AD90A74
:102600008CE3689EC00111249C01289DC001299D76
:10261000900D389D900D1124AA2797FDA095BA2FF3
:10262000A81AB90ACA0ADB0A872D90E09C01C29F4A
:10263000C001C39F900DD29F900D1124AA2797FD32
:10264000A095BA2FA81AB90ACA0ADB0AA0925001AB
:10265000B0925101C0925201D09253010E94E50FF5
:1026600080915C0120916E0190E08D599F4F30E088
:102670008217930744F520916E0180915C0130E050
:1026800090E08C599F4F2817390731F490917601CB
:10269000809172019817B8F020916E0180915C01D1
:1026A00030E090E08C599F4F28173907A1F49091A2
:1026B000760180917201981771F49091590180917F
:1026C0005F01981740F4109250011092510110923E
:1026D000520110925301DF91CF911F910F91FF9002
:1026E000EF90DF90CF90BF90AF909F908F907F90B2
:1026F0006F9008954F925F926F927F928F929F9208
:10270000AF92BF92CF92DF92EF92FF920F931F93FF
:10271000DF93CF93CDB7DEB728970FB6F894DEBF1F
:102720000FBECDBF8AE08093540184E190E00E9407
:10273000C01D8093750185E190E00E94C01D8093CB
:1027400078018FE090E00E94C01DC82E8EE090E0DE
:102750000E94C01DD82E80E190E00E94C01DE82E8E
:1027600086E190E00E94C01D809371018BE190E0B2
:102770000E94C01D80935B0187E190E00E94C81D0C
:10278000909374018093730189E190E00E94C81DC9
:1027900090936B0180936A0110E00AE02CE5622EB1
:1027A000712C94E2492E512C8FE0A82EB12CB3E26B
:1027B0008B2E912C80914D01882321F480914E0124
:1027C000882319F00093540105C080915401882397
:1027D00009F4E5C080914D0180FD03C280914D0157
:1027E00081FFEFC010924D01112331F480913E0121
:1027F000882309F4F0C1EDC1113029F480913E0124
:10280000882339F012C0123071F480913E0181307A
:1028100031F480913E01882309F4DBC1DCC18823B7
:1028200009F4D5C107C0113029F480913E018130EF
:1028300009F4CDC1812F8350843028F41F5F1430F8
:1028400008F0B8C0B1C0173031F480917101823006
:1028500009F0C3C1C4C1183009F4C1C160915C0161
:10286000DE011196E4E2F1E088E001900D928150E2
:10287000E1F780915C01A0907801B0907501EA2D9C
:10288000F0E0EE0FFF1FEB0DF11DEC0FFD1F51816E
:1028900090E08C599F4F8E199109252F30E0281711
:1028A000390724F074E6F72EF60E02C0FE2CF50E62
:1028B00083E6809370011091720100915F01609135
:1028C0006A0170916B014091730150917401809184
:1028D00071010E94B319882E90915A0120916901CB
:1028E0003091770100D000D0EDB7FEB731968CE67D
:1028F000E80E5F2D545980915B01ADB7BEB71196BC
:102900008C939183228333838D2D6C2D4E2D212F1B
:10291000E52ECB2C0E94A61A809178018093790134
:1029200060915F010F900F900F900F9082E190E007
:102930000E94CE1D6091720181E190E00E94CE1D47
:1029400083E190E06F2D0E94CE1D609169018DE1C1
:1029500090E00E94CE1D60915A018CE190E00E94AF
:10296000CE1D609177018EE190E00E94CE1D0E9405
:102970009912609150017091510180915201909192
:1029800053010E94BC06789410924B0110924A01A8
:1029900080914A0190914B018C5D9540C8F38091E4
:1029A0003F01809370011DC180E06D2D4C2D2E2DB7
:1029B0000E94F70382E0612F0E940103812F0E9491
:1029C000450680914D0182FD04C080914E0182FF39
:1029D000F1CE10924D01113051F4D3942CE02D150D
:1029E00010F4DD24D3948EE090E06D2D17C01230EA
:1029F00051F4C3948FE18C1510F4CC24C3948FE070
:102A000090E06C2D0BC0133061F48E2D8F5F68EC5D
:102A10000E94501DE92E80E190E06E2D0E94CE1D97
:102A200002C0143030F480E06D2D4C2D2E2D0E940C
:102A3000F70382E0612F0E940103143059F460E033
:102A400080917501882309F461E06093750184E148
:102A500090E0A8C0153049F4609178016F5F637011
:102A60006093780185E190E09DC0163031F580914A
:102A700071018F5F63E00E94501D692F9093710177
:102A8000992349F4909274018092730150926B01E2
:102A900040926A010FC0913049F4B0927401A09243
:102AA000730170926B0160926A0104C0109274010C
:102AB0001092730186E190E075C01730A9F520915E
:102AC0007101222389F4809173019091740105961C
:102AD000909374018093730185599240F0F0909225
:102AE00074018092730119C08091730190917401F7
:102AF000213069F4039690937401809373018D5291
:102B0000914058F0B0927401A092730106C00196F2
:102B10009070909374018093730160917301709130
:102B2000740187E190E02FC0183081F58091710128
:102B3000882389F480916A0190916B0101969093AA
:102B40006B0180936A0189379105B8F050926B014F
:102B500040926A0112C0813081F480916A019091A3
:102B60006B01019690936B0180936A0182539140AF
:102B700020F070926B0160926A0160916A0170911D
:102B80006B0189E190E00E94DC1D0EC0193061F4F8
:102B900060E080915B01882309F461E060935B0150
:102BA0008BE190E00E94CE1D812F0E94450680910E
:102BB0004E0182FFFFCD789410924B0110924A0192
:102BC00080914A0190914B01CC97D0F3F3CD13E063
:102BD000EBCE12E0E9CE11E0E7CE18E0EBCE19E043
:102BE000E9CE28960FB6F894DEBF0FBECDBFCF91C9
:102BF000DF911F910F91FF90EF90DF90CF90BF90EA
:102C0000AF909F908F907F906F905F904F900895BE
:102C10008F929F92AF92BF92CF92DF92EF92FF92EC
:102C20000F931F9315BC569A5E9884B714BE90E01C
:102C30000E94B61788E10FB6F89480936000109256
:102C400060000FBE2FE088E190E00FB6F894A895E1
:102C5000809360000FBE20936000A89511E0109350
:102C60004101109242018AE190E00E943D1788E400
:102C700080BF80ED97E00197F1F700B605FE06C032
:102C800080B7806180BF0E94820A22C00E94EE024B
:102C90005B98109369001DBB1092700181E58CBD9B
:102CA00089E090E00E94C01D0E94E10378948BE0CF
:102CB00090E00E94C01D80933E010E94510A80EA6C
:102CC0009FE061E00E949A030E94820A0E948607A8
:102CD000ACE09A2EF3E68F2EE7E0AE2E74E0B72E2E
:102CE0006DE0C62E58E0E52E4BE0D42E35E0F32EF5
:102CF00003E016E0A89500B605FE03C00E94C202DC
:102D0000F9CF80914D0180FF6BC010924D018091F1
:102D10007001863009F440C0873068F4833051F187
:102D2000843018F4882391F074C08430C1F0853069
:102D300009F06FC028C0883009F440C08830A8F17D
:102D40008C3021F08D3009F064C041C0B092700128
:102D500081EE92E00E9435050E94AD0CCBCF00932E
:102D6000700188ED92E00E9435050E94080C1092D7
:102D70004101C0CFF09270018FEC92E00E943505C6
:102D80000E948D11B7CF1093700186EC92E00E94E3
:102D900035050E94B50BAECFA09270018DEB92E08D
:102DA0000E9435050E94600BA5CFE092700184EB74
:102DB00092E00E9435050E94110B9CCFC0927001D9
:102DC0008BEA92E00E9435050E94080893CFD092CA
:102DD000700182EA92E00E9435050E947A138ACF40
:102DE00080914D0181FF1AC010924D0180927001B7
:102DF00081E00E946310A895789410924B01109284
:102E00004A0180914A0190914B018C5D9540C8F335
:102E1000A89580913F01809370016CCF80914D0106
:102E200082FF68CF10924D0180913F01882319F4F1
:102E300090923F0102C010923F0180913F01809328
:102E400070010E94991256CF06C090E000009F5F6B
:102E50009E31E1F781508823C1F7089548EC50E096
:102E600009C020E137E2FA013197F1F721503040F3
:102E7000D1F781508823A9F708959093C5008093D6
:102E8000C40088E18093C1008EE08093C200519A13
:102E900050980895982F8091C00085FFFCCF9093A3
:102EA000C60080E090E008958091C00087FFFCCFCD
:102EB0008091C60008958091C00080780895AC018B
:102EC00020E007C08091C00085FFFCCF3093C60092
:102ED0002F5FFA01E20FF11D3491332399F7662336
:102EE00071F08091C00085FFFCCF8AE08093C6001E
:102EF0008091C00085FFFCCF8DE08093C6000895CF
:102F0000FC0107C08091C00085FFFCCF31969093F3
:102F1000C60090819923B1F70895282F982F929594
:102F20009F709A3030F48091C00085FFFCCF905D97
:102F300005C08091C00085FFFCCF995A9093C600D0
:102F4000822F90E08F7090700A973CF48091C000BF
:102F500085FFFCCF2F70205D06C08091C00085FFEB
:102F6000FCCF2F70295A2093C60008951F93182F65
:102F7000892F0E948D17812F0E948D171F91089510
:102F8000EF92FF920F931F937B018C01C801AA2738
:102F9000BB270E94B617C7010E94B6171F910F9159
:102FA000FF90EF9008950F931F93CF93DF938C01C1
:102FB000E0E1F7E240E0C0E0D0E0C801BF010E94DC
:102FC0005C1D262F662329F4442319F4E130F10512
:102FD00049F48091C00085FFFCCF205D2093C6009E
:102FE000205341E0CF016AE070E00E945C1D219611
:102FF000C530D10571F0822F90E09C012E9FC00159
:103000002F9F900D3E9F900D1124081B190BFB0163
:10301000D4CFDF91CF911F910F9108954F925F927E
:103020006F927F928F929F92AF92BF92CF92DF92D8
:10303000EF92FF920F931F93CF93DF934B015C01AD
:10304000E12C9AECF92E9AE9092F9BE3192F4424DD
:10305000C0E0D0E0C501B401A80197010E94831D22
:10306000D22E222341F4442031F481E0E816F10409
:103070000105110561F48091C00085FFFCCF80E35C
:10308000D80ED092C60080EDD80E44244394C801D7
:10309000B7012AE030E040E050E00E94831DC22EDC
:1030A000732E642E552E2196CA30D105A9F06D2DB0
:1030B00070E080E090E0A80197010E94311D861A1F
:1030C000970AA80AB90A2C2D372D462D552DC9016E
:1030D000DA017C018D01BECFDF91CF911F910F915D
:1030E000FF90EF90DF90CF90BF90AF909F908F9028
:1030F0007F906F905F904F9008959C0160E971E020
:103100000E945C1D892B11F481E00895C90164E6D9
:1031100070E00E945C1D892B11F480E0089580E02E
:1031200023703070232B09F481E008954F925F9251
:103130006F927F928F929F92AF92BF92CF92DF92C7
:10314000EF92FF920F931F93CF93DF93382F562F59
:10315000942E522E402E8E2CE41620F0E41691F47C
:10316000281780F4852D642D482D232F052FE92C59
:103170000E94961822273327A901261B370B480BDC
:10318000590BDEC0351569F4981409F053C0842D2D
:1031900090E0851B91099C01442737FD4095542FF1
:1031A000CFC0981409F046C0C32FD0E0FE01E85EFE
:1031B000FA4FE4918E2F90E0851B91097C01002746
:1031C000F7FC0095102F323041F4892D90E00E94D9
:1031D0007D18E80EF11C011D111D99E1A92E95E045
:1031E000B92EAC0EBD1ECC24DD243E010894611C1A
:1031F000711CC52DD0E017C0F5018491E80EF11CBB
:10320000011D111D2230310541F4892D90E00E94ED
:103210007D18E80EF11C011D111D0894C11CD11C64
:103220000894A11CB11C93012C0D3D1D2C173D07CA
:103230001CF380C0C32FD0E0FE01E85EFA4FE4919A
:103240008E2F90E0851B91097C010027F7FC0095EB
:10325000102F323041F4892D90E00E947D18E80E45
:10326000F11C011D111D89E1A82E85E0B82EAC0EC0
:10327000BD1ECC24DD24219617C0F5018491E80EF3
:10328000F11C011D111D2230310541F4892D90E002
:103290000E947D18E80EF11C011D111D0894C11C2F
:1032A000D11C0894A11CB11C9E012C0D3D1D2D307C
:1032B00031051CF3892D90E06C010894C11CD11CD0
:1032C000C0E0D0E03C01A82CBB2411C0C6010E9484
:1032D0007D1890E083599E4FAA2797FDA095BA2F9D
:1032E000E80EF91E0A1F1B1F0894C11CD11C219651
:1032F000CE01860D971D8A159B0544F3C1E0D0E0F1
:10330000C52CDD2414C0FE01E85EFA4FE491EE0EF8
:10331000F11C011D111DC230D10541F4882D90E032
:103320000E947D18E80EF11C011D111D2196CC157F
:10333000DD054CF3A8019701240D311D411D511DE0
:10334000B901CA01DF91CF911F910F91FF90EF90CA
:10335000DF90CF90BF90AF909F908F907F906F90B5
:103360005F904F900895EF92FF920F931F937B0110
:10337000882341F4BA0180E090E02FEB32E040E096
:1033800050E009C0813011F5BA0180E090E020E101
:1033900037E240E050E00E94311D00E010E0A8015B
:1033A00097010E94831DCA01B901A80197010E94DB
:1033B000831DC901DA018F3F9105A105B10539F0DF
:1033C00030F08FEF90E0A0E0B0E001C0842F1F91BB
:1033D0000F91FF90EF9008952F923F924F925F923E
:1033E0006F927F928F929F92AF92BF92CF92DF9215
:1033F000EF92FF920F931F93CF93DF93EC012880FE
:1034000039804A805B806C807D808E809F80AA247A
:10341000BB246501F501E370F070EE0FFF1FEE0FA6
:10342000FF1FE45DFE4FE080F18002811381EA0C12
:10343000FB1C0C1D1D1DD401C30175E0B695A7959D
:10344000979587957A95D1F7A401930164E0220FAF
:10345000331F441F551F6A95D1F782279327A4274E
:10346000B527860D971DA81DB91DE826F9260A2740
:103470001B272E0C3F1C401E511E89EB99E7A7E32A
:10348000BEE9A80EB91ECA1EDB1EA2019101F5E01D
:103490005695479537952795FA95D1F7D201C101F1
:1034A000E4E0880F991FAA1FBB1FEA95D1F72827D0
:1034B00039274A275B27220D331D441D551DD60190
:1034C000C5017BE0B695A795979587957A95D1F735
:1034D00083709070880F991F880F991F845D9E4F8D
:1034E000FC0180819181A281B3818A0D9B1DAC1D5D
:1034F000BD1D282739274A275B27620E731E841EAD
:10350000951EF0E2AF16F7E3BF06FFEECF06F6EC2E
:10351000DF0609F07FCF288239824A825B826C8283
:103520007D828E829F82DF91CF911F910F91FF90BC
:10353000EF90DF90CF90BF90AF909F908F907F9053
:103540006F905F904F903F902F9008958F92AF9221
:10355000BF92CF92DF92EF92FF920F931F93DF9370
:10356000CF93CDB7DEB728970FB6F894DEBF0FBE66
:10357000CDBFE82FF42F722FBC2C8A2D81508230C2
:1035800008F040C030E040E050E03961802F90E02A
:10359000A0E0B0E0B82FAA2799278827282B392B3D
:1035A0004A2B5B2B8E2D90E0A0E0B0E0DC01992748
:1035B0008827282B392B4A2B5B2B29833A834B8373
:1035C0005C832F8930E040E050E0542F432F322FAE
:1035D0002227888D90E0A0E0B0E0282B392B4A2BE1
:1035E0005B2B426B898D90E0A0E0B0E0B82FAA275A
:1035F00099278827282B392B4A2B5B2B2D833E8339
:103600004F8358878E2F4F2F272F0E9496182AE01E
:1036100030E040E050E00E94311D7B018C0125E448
:103620003EE040E050E00E94831D6901BB2029F08C
:1036300026E33BE644E050E004C02AE83CE144E0F5
:1036400050E0BA01A9014E195F09600B710B882D7A
:1036500090E08E3291051CF08DE290E005C088313B
:10366000910514F488E190E08C010851104083E04A
:10367000A81609F0A5C0BB2009F04BC0475E5F400B
:10368000624070409E89913051F5A1E0B5E020E0A4
:1036900030E0FD0185919491C816D906D0F4F90166
:1036A000EE0FFF1FEE0FFF1FED5FFA4F25913491D4
:1036B000C901E3E0880F991FEA95E1F7220F331F54
:1036C000820F931FA0E0B0E0481B590B6A0B7B0BE5
:1036D00006C02F5F3F4F149623303105D1F6EAE341
:1036E000F4E0849190E0C816D9061CF480E090E0E4
:1036F00009C07796849190E0C816D9060CF08CC169
:1037000087E190E0080F191F055C1B4FF8018491B9
:103710003FC0445B5A4362407040ADE0B5E020E0FA
:1037200030E0FD0185919491C816D906D0F4F901D5
:10373000EE0FFF1FEE0FFF1FE15FFA4F259134914F
:10374000C901E3E0880F991FEA95E1F7220F331FC3
:10375000820F931FA0E0B0E0481B590B6A0B7B0B54
:1037600006C02F5F3F4F149623303105D1F620E07D
:1037700030E0F901E859FB4FE4918E2F90E0C81634
:10378000D906C4F4020F131F07591B4FF801849187
:1037900090E025E43EE0DC01A29FC001A39F900DD4
:1037A000B29F900D1124A0E0B0E0481B590B6A0BAA
:1037B0007B0B32C1295E3F4F25343105D1F62CC138
:1037C000BB2009F045C0BE89B13051F5ADEAB4E087
:1037D00020E030E0FD0185919491C816D906D0F41F
:1037E000F901EE0FFF1FEE0FFF1FE155FB4F259173
:1037F0003491C901E3E0880F991FEA95E1F7220FA0
:10380000331F820F931FA0E0B0E0481B590B6A0BD7
:103810007B0B06C02F5F3F4F14962B303105D1F63E
:1038200020E030E0F901E15FFC4FE4918E2F90E061
:10383000C816D9063CF4020F131F005F1C4FF80195
:10384000849144C0295E3F4F2A38310559F755C04D
:10385000BE89B13051F5A9EDB4E020E030E0FD01C2
:1038600085919491C816D906D0F4F901EE0FFF1F87
:10387000EE0FFF1FE552FB4F25913491C901F3E094
:10388000880F991FFA95E1F7220F331F820F931FBC
:10389000A0E0B0E0481B590B6A0B7B0B06C02F5F02
:1038A0003F4F14962A303105D1F620E030E0F9017F
:1038B000E756FC4FE4918E2F90E0C816D906C4F469
:1038C000020F131F06561C4FF801849190E025E467
:1038D0003EE0DC01A29FC001A39F900DB29F900D1E
:1038E0001124A0E0B0E0481B590B6A0B7B0B05C00C
:1038F000295E3F4F213A3105D1F6B2E0AB1609F00F
:1039000042C08DEAE82E8EE8F82E012D112DE40E2E
:10391000F51E061F171F89819A81AB81BC818E25F8
:103920009F25A027B12789839A83AB83BC83CE01CF
:1039300001960E94EC1969817A818B819C817F7745
:103940008070907028EE33E040E050E00E94311D1E
:103950002FEF3FE740E050E00E94831DCA01B9010C
:1039600026E036ED40E050E00E94311D28EE33E0C5
:1039700040E050E00E94831DBA01A9014E0D5F1D79
:10398000601F711F49C0E1E0AE1609F045C0BCEFF1
:10399000EB2EB9E2FB2EBFEF0B2FBFEF1B2FE40E78
:1039A000F51E061F171F8D819E81AF81B8858E255C
:1039B0009F25A027B1278D839E83AF83B887CE0133
:1039C00001960E94EC196D817E818F8198857F77A9
:1039D0008070907028EE33E040E050E00E94311D8E
:1039E0002FEF3FE740E050E00E94831DCA01B9017C
:1039F00022EB3EE840E050E00E94311D28EE33E02B
:103A000040E050E00E94831DD801C701821B930B48
:103A1000A40BB50BAC01BD0177FF05C020E030E081
:103A200040E050E00AC0CB01BA0120E930E040E0BC
:103A300050E00E94311D9B01AC01B901CA012896DA
:103A40000FB6F894DEBF0FBECDBFCF91DF911F91AF
:103A50000F91FF90EF90DF90CF90BF90AF908F903D
:103A60000895629FD001739FF001829FE00DF11DC8
:103A7000649FE00DF11D929FF00D839FF00D749FE8
:103A8000F00D659FF00D9927729FB00DE11DF91F94
:103A9000639FB00DE11DF91FBD01CF0111240895F1
:103AA000991B79E004C0991F961708F0961B881F90
:103AB0007A95C9F780950895AA1BBB1B51E107C0F1
:103AC000AA1FBB1FA617B70710F0A61BB70B881FAE
:103AD000991F5A95A9F780959095BC01CD0108953D
:103AE00097FB092E07260AD077FD04D0E5DF06D024
:103AF00000201AF4709561957F4F0895F6F7909520
:103B000081959F4F0895A1E21A2EAA1BBB1BFD01B0
:103B10000DC0AA1FBB1FEE1FFF1FA217B307E407AC
:103B2000F50720F0A21BB30BE40BF50B661F771F04
:103B3000881F991F1A9469F76095709580959095E4
:103B40009B01AC01BD01CF01089597FB092E05260D
:103B50000ED057FD04D0D7DF0AD0001C38F45095A2
:103B60004095309521953F4F4F4F5F4F0895F6F7A1
:103B700090958095709561957F4F8F4F9F4F0895D9
:103B8000F999FECF92BD81BDF89A992780B5089525
:103B9000A8E1B0E042E050E00C94E31D262FF99933
:103BA000FECF1FBA92BD81BD20BD0FB6F894FA9A20
:103BB000F99A0FBE019608950E94CE1D272F0C94EE
:103BC000CF1DDC01CB01FC01F999FECF06C0F2BD8F
:103BD000E1BDF89A319600B40D9241505040B8F7CB
:063BE0000895F894FFCFE8
:103BE600FA3E1A7ADE8EF62E6078AE1CAA2A3ACEF5
:103BF600F30AB61E3838B86E76DAFC60DAF266B6C4
:103C0600BEE0FEE6484E393F52582326C46C28A82B
:0C3C1600CA916B709E639393D9E791FEF6
:00000001FF
