:100000000C94AB000C940B0F0C94C8000C94C3061A
:100010000C94C8000C941C070C94C8000C94C800E5
:100020000C94C8000C94D40C0C94C8000C94C80018
:100030000C94C8000C94C8000C94C8000C94C80020
:100040000C94E8040C94C8000C94C8000C94C800EC
:100050000C94C8000C94C8000C94C8000C94690C53
:100060000C94C8000C94C800FA3E1A7ADE8EF62E64
:100070006078AE1CAA2A3ACEF30AB61E3838B86E9B
:1000800076DA6800FC60DAF266B6BEE0FEE684006E
:1000900003070809060A050C0490000B10120F0D47
:1000A0000E11139B00616C61726D206F66660053C8
:1000B00065742064617900646F6E6500616C6172C3
:1000C0006D20696E697400636C6F636B20696E6983
:1000D0007400737065616B657220696E697400628B
:1000E0006F6F737420696E69740076666420696E40
:1000F0006974007475726E696E67206F6E20616C32
:1001000061726D7377007475726E696E67206F6EC1
:1001100020627574746F6E7300636C6F636B20691B
:100120006E697400210077616B6574696D650057B5
:10013000414B455245534554007A00616C61726DE4
:10014000206F6E2100623200623300623100736EF4
:100150006F6F7A65000011241FBECFEFD4E0DEBFC1
:10016000CDBF14E0A0E0B1E0E0E0F8E202C005900D
:100170000D92AA30B107D9F714E0AAE0B4E001C0AB
:100180001D92A733B107E1F70E94F70D0C94FE13FF
:100190000C9400009C01789410921804109217049B
:1001A000809117049091180482179307C8F308955B
:1001B000A895089581E080930D045B9A8CB58F7BA0
:1001C0008CBD85B1877D85B95E9815BC10922504DC
:1001D0001092680085B1897F85B98BB18F7C8BB90E
:1001E00028988AB18F7C8AB920985A985298E1E66B
:1001F000F0E090E8908388E08083449A83B787603A
:1002000083BF889590831082449808958EE284B9C4
:1002100088E48AB989E187B984E38BB991E095B91B
:1002200085E08093680090936B0080E380936D007D
:100230000895FC0183709070892B39F4CF0164E636
:1002400070E00E948413892B49F420E030E0CF0154
:1002500060E971E00E948413892B11F421E030E001
:10026000822F08951092800010928100299A2A9876
:1002700078941092180410921704809117049091AA
:1002800018040A97D0F32A9A29987894109218049F
:100290001092170480911704909118040A97D0F3D4
:1002A00085B1897F85B982EB8093800088E1809356
:1002B000810008951F93162F9C0140E050E060E4F8
:1002C00072E48FE090E00E94CD133093870020937A
:1002D00086008091860090918700969587959093EF
:1002E0008B0080938A0080918A0090918B0090937C
:1002F00089008093880028EC30E01CC08091810048
:1003000082608093810080ED97E0F9013197F1F7E9
:100310000197D9F7809181008D7F8093810085B10D
:10032000897F85B980ED97E0F9013197F1F7019761
:10033000D9F71150112311F785B1897F85B91F9124
:1003400008958B3590F58E3110F08E3111F48EE1D9
:100350002DC0843210F483E229C0893210F488E27F
:1003600025C08E3210F48DE221C0833310F482E375
:100370001DC0883310F487E319C08D3310F48CE36B
:1003800015C0823410F481E411C0873410F486E47F
:100390000DC08C3410F48BE409C0813510F480E575
:1003A00005C0863510F485E501C08AE587BD83E088
:1003B00084BD81E085BD84B5806884BD80916E0078
:1003C000816080936E00789408951F93182F262FD4
:1003D000842F6AE00E947813E92FF0E0EC57FF4F7A
:1003E000E491E0932F04842F0E947813E82FF0E02B
:1003F000EC57FF4FE491E0932E0410922D04822FCE
:100400000E947813E92FF0E0EC57FF4FE491E0935E
:100410002C04822F0E947813E82FF0E0EC57FF4F56
:10042000E491E0932B0410922A0480910C04882319
:1004300061F5812F90E00B966CE070E00E949813BC
:100440009C012F5F3F4FC9016AE070E00E94981342
:10045000FC01EC57FF4FE491E0932904C9016AE0E5
:1004600070E00E949813FB01EC57FF4FE491E0937A
:1004700028041C3020F080912704816003C0809103
:1004800027048E7F809327041AC0812F68E10E9481
:100490007813292F892F6AE00E947813E92FF0E062
:1004A000EC57FF4FE491E0932904822F0E947813C8
:1004B000E82FF0E0EC57FF4FE491E09328041F9100
:1004C0000895382F262F10922F0410922E04109288
:1004D0002D04862F6AE00E947813E92FF0E0EC5794
:1004E000FF4FE491E0932C04822F0E947813E82FB1
:1004F000F0E0EC57FF4FE491E0932B0410922A04B4
:1005000080910C04882309F03BC03C3058F0809166
:100510002704816080932704E7E7F0E0E491E0930B
:100520002E040AC0E8E6F0E0E491E0932E04809106
:1005300027048E7F80932704E4E7F0E0E491E093C2
:100540002F04832F90E00B966CE070E00E949813CC
:100550009C012F5F3F4FC9016AE070E00E94981331
:10056000FC01EC57FF4FE491E0932904C9016AE0D4
:1005700070E00E949813FB01EC57FF4FE4911EC0FE
:10058000832F90E0479668E170E00E9498139C01E9
:100590002F5F3F4FC9016AE070E00E949813FC0191
:1005A000EC57FF4FE491E0932904C9016AE070E041
:1005B0000E949813FB01EC57FF4FE491E09328044D
:1005C0000895CF93DF9310922704EC01A8E2B4E0E2
:1005D000E881EE23D1F08E2F81568A3128F4F0E0A5
:1005E000E95FFF4FE49108C08E2F80538A3030F4CA
:1005F000F0E0EC5AFF4FE491EC9301C01C9221967D
:10060000119684E0A033B80719F7DF91CF910895D0
:10061000CF93DF93882309F07AC01092270482E0F9
:1006200080932A0480932D0480910C04882361F523
:10063000809135046AE00E947813E82FF0E0EC57CF
:10064000FF4FE491E0932804809135040E947813D1
:10065000E92FF0E0EC57FF4FE491E09329048091FB
:1006600026040E947813E82FF0E0EC57FF4FE49146
:10067000E0932B04809126040E947813E92FF0E088
:10068000EC57FF4FE4912BC0809126046AE00E9452
:100690007813E82FF0E0EC57FF4FE491E093280443
:1006A000809126040E947813E92FF0E0EC57FF4F69
:1006B000E491E0932904809135040E947813E82F97
:1006C000F0E0EC57FF4FE491E0932B048091350468
:1006D0000E947813E92FF0E0EC57FF4FE491E0938C
:1006E0002C04809123046AE00E947813E82FF0E044
:1006F000EC57FF4FE491E0932E04809123040E9475
:100700007813E92FF0E0EC57FF4FE491E3C081301C
:1007100009F0E2C080913504C82FD0E08091230415
:10072000E82FF0E0E053F84F80913504833010F467
:100730002C9631972091260410922E0410922F04AB
:1007400030E02F5F3F4F2E0F3F1FCE01880F991FC4
:10075000280F391FCF019695879596958795280F75
:10076000391FCF0160E971E00E948413260F371F03
:10077000CF0164E670E00E948413261B370BAE01A4
:100780004F5F5F4FCA01880F991F840F951F880F15
:10079000991F6AE070E00E948413C901860F971FB9
:1007A00067E070E00E9484138330B9F0843028F44D
:1007B000813069F0823070F407C08530A1F0853057
:1007C00078F08630B9F412C080E091E011C087E083
:1007D00091E00EC08EE091E00BC086E191E008C090
:1007E0008FE191E005C088E291E002C08FE291E0E4
:1007F0000E94E102789410921804109217048091DC
:10080000170490911804885E9340C8F310922B044B
:1008100010922C0410922D0480913504863079F1C9
:10082000873070F4833011F1843028F48130C1F0C6
:100830008230D9F518C08430E1F08530B1F51CC0A4
:10084000893031F18A3028F48730E1F0883069F559
:100850001CC08B3019F18B30F0F08C3031F521C099
:1008600088E391E020C08CE391E01DC080E491E03A
:100870001AC086E491E017C08CE491E014C080E5D2
:1008800091E011C085E591E00EC08AE591E00BC0D2
:1008900080E691E008C085E691E005C08BE691E036
:1008A00002C081E791E00E94E102809126046AE0A3
:1008B0000E947813E82FF0E0EC57FF4FE491E093AB
:1008C0002E04809126040E947813E92FF0E0EC5763
:1008D000FF4FE491E0932F04DF91CF91089581E5DC
:1008E0008CBD08959B01AC01F894CA01AA27BB27CF
:1008F0008EBD0DB407FEFDCFBB27A52F942F832FF0
:100900008EBD0DB407FEFDCF2EBD0DB407FEFDCF8D
:10091000409A409878940895AF92BF92CF92DF9218
:10092000EF92FF920F931F93E82FF0E0E057FF4FF5
:10093000E49181E090E002C0880F991FEA95E2F708
:100940007C010027F7FC0095102F20911E043091A8
:100950001F044091200450912104A0E0B0E070E019
:1009600091E0A92EB12CC12CD12CCB010A2E02C0B2
:10097000959587950A94E2F780FF11C0FD01E55631
:10098000FF4FE491A601950104C0220F331F441FBD
:10099000551FEA95D2F7E22AF32A042B152B11965C
:1009A000A830B10511F720931E0430931F04409323
:1009B000200450932104C801B7010E9472041F91C2
:1009C0000F91FF90EF90DF90CF90BF90AF90089580
:1009D0001F920F920FB60F9211242F933F934F93B4
:1009E0005F936F937F938F939F93AF93BF93EF9397
:1009F000FF937894A8958091110490911204019628
:100A00009093120480931104819708F46CC01092A3
:100A10001204109211048091170490911804019609
:100A2000909318048093170480911004893010F07B
:100A30001092100480911004E82FF0E0E95DFB4F64
:100A400060810E948C04809110048F5F8093100459
:100A500080913304882309F446C080911504909155
:100A60001604892B09F03FC080911304909114045F
:100A7000019690931404809313048536910598F1A0
:100A800010921404109213048AEF90E09093870060
:100A90008093860080918600909187009695879537
:100AA00090938B0080938A0080918A0090918B00B4
:100AB000909389008093880080913304807F49F06F
:100AC000809133048F7080933304809181008D7FF7
:100AD00008C080913304806F80933304809181003B
:100AE000826080938100FF91EF91BF91AF919F91C0
:100AF0008F917F916F915F914F913F912F910F90C7
:100B00000FBE0F901F9018958EBD0DB407FEFDCF40
:100B100008958AE090E00E94E8138093250485B14F
:100B2000866085B982E380938000809125048823C4
:100B300029F08091800080688093800088E1809314
:100B400081008AEF90E090938700809386008091E7
:100B50008600909187009695879590938900809361
:100B60008800809188009091890090938B008093F9
:100B70008A00089584E090E00E94E81368E10E94F2
:100B800078139093220485E090E00E94E8136CE3D0
:100B90000E9478139093300486E090E00E94E8135E
:100BA0006CE30E9478139093360488E090E00E94F2
:100BB000E8136CE30E9478139093240487E090E09C
:100BC0000E94E81368E10E9478139093320481E058
:100BD00090E00E94E81364E60E9478139093230447
:100BE00082E090E00E94E8136DE00E9478139093F9
:100BF000350483E090E00E94E8138F71809326040F
:100C000091E090930F04E6EBF0E0808180628083B6
:100C100085E08093B10090937000789408954A9B8A
:100C200034C080913104882309F04CC081E0809366
:100C30003104109216041092150487E791E00E9487
:100C4000E10289E0809334047894109218041092A1
:100C500017048091170490911804885E9340C8F39C
:100C600080913204609124040E9461027894109271
:100C70001804109217048091170490911804885E4C
:100C80009340C8F31092340408958091310488236E
:100C9000C9F010923104109216041092150480913C
:100CA0003304882379F085EA90E061E00E94830FA5
:100CB00010923304809181008D7F8093810085B1F3
:100CC000866085B9089580910D048823D1F180E86C
:100CD000809361001092610086E291E061E00E94E1
:100CE000830F10920D0480E49CE90197F1F700B6A0
:100CF00005FC27C00E94060189E090E00E94E813ED
:100D00000E94A10181E58CBD5B9843988AE090E048
:100D10000E94E813809325040E948905A8950E94EB
:100D20000F0680E793E061E00E945A0180EE96E0B2
:100D300061E00E945A0180EC9DE061E00E945A014E
:100D4000A895089588E592E0909316048093150481
:100D50008EE491E061E00E94830F80E891E00E94C0
:100D6000E10289E080933404789410921804109280
:100D700017048091170490911804885E9340C8F37B
:100D80001092340408951F920F920FB60F921124FF
:100D90002F933F934F935F936F937F938F939F9383
:100DA000AF93BF93EF93FF931092680078941899D4
:100DB0002AC08091190481FD2BC0789410921804E8
:100DC0001092170480911704909118040A97D0F399
:100DD00018991EC00E94320180913304882319F0B3
:100DE0000E94A20615C080911904826080931904A4
:100DF00080911A04826080931A0485E491E061E096
:100E00000E94830F05C0809119048D7F809319047F
:100E100085E080936800FF91EF91BF91AF919F9122
:100E20008F917F916F915F914F913F912F910F9093
:100E30000FBE0F901F9018951F920F920FB60F9232
:100E400011242F933F934F935F936F937F938F93CF
:100E50009F93AF93BF93EF93FF93109268007894A2
:100E60004D9927C08091190480FD28C07894109274
:100E700018041092170480911704909118040A978F
:100E8000D0F34D9963C00E943201809133048823CE
:100E9000C9F58091190481608093190480911A0426
:100EA000816080931A048BE491E061E00E94830FDB
:100EB00005C0809119048E7F809319044C993FC01E
:100EC0008091190482FD42C0789410921804109207
:100ED000170480911704909118040A97D0F34C9945
:100EE00035C082E080931C041BC04C9B19C00E943B
:100EF0003201809119048B7F80931904809133040F
:100F0000882319F00E94A20621C088E491E061E0E4
:100F10000E94830F80911A04846080931A0416C083
:100F200080911C04882309F78091190484608093C0
:100F3000190480911B04846080931B0407C01092E5
:100F40001B04809119048B7F8093190485E08093A2
:100F50006800FF91EF91BF91AF919F918F917F9129
:100F60006F915F914F913F912F910F900FBE0F9016
:100F70001F9018950F931F938AE080931D048BE0B8
:100F800090E00E94E81380930C0410E00AE001C096
:100F900010E080911A04882321F480911B04882397
:100FA00019F000931D0404C080911D048823C9F02A
:100FB00080911A0480FD38C080911A0481FF14C00A
:100FC00010921A04112369F480910C04882319F4F7
:100FD00089E891E002C082E991E00E94E10211E01B
:100FE00003C01092340420C080911A0482FFD1CF34
:100FF00010921A04113061F690E080910C0488235D
:1010000009F491E090930C04992319F489E891E094
:1010100002C082E991E00E94E1028BE090E06091E1
:101020000C040E94F013B5CF1F910F910895EF9219
:10103000FF920F931F938AE080931D048AE090E053
:101040000E94E813F82E00E04AE0E42E01C000E020
:1010500080911A04882321F480911B04882319F0BD
:10106000E0921D0404C080911D04882369F18091E1
:101070001A0480FD66C080911A0481FF28C0109276
:101080001A04002309F5FF2051F08BE991E00E943A
:10109000E10280912C04816080932C0404C084EAD6
:1010A00091E00E94E10280912D04816080932D04E3
:1010B00080912E04816080932E0480912F048160A2
:1010C00080932F0401E003C0109234043AC0809151
:1010D0001A0482FFBDCF10921A04013009F0B7CF75
:1010E00010E0FF2009F411E0F12E112351F08BE9FB
:1010F00091E00E94E10280912C04816080932C0495
:1011000004C084EA91E00E94E10280912D04816094
:1011100080932D0480912E04816080932E04809111
:101120002F04816080932F048AE090E0612F0E9459
:10113000F0130E94890580EA9FE061E00E945A0155
:1011400087CF1F910F91FF90EF9008953F924F929C
:101150005F926F927F928F929F92AF92BF92CF9247
:10116000DF92EF92FF920F931F938AE080931D040A
:1011700089E090E00E94E813182F20E06AE0362E04
:101180000EE15AE5552E45E5442E30E5732E9BE4DD
:10119000692E86E4882EB1E4AB2EACE39A2EF7E3F9
:1011A000BF2EE2E3DE2E7DE2C72E68E2F62E53E28A
:1011B000E52E01C020E080911A04882321F480915B
:1011C0001B04882319F030921D0404C080911D0473
:1011D000882349F180911A0480FD89C080911A0406
:1011E00081FF29C010921A042223E9F48DEA91E0CC
:1011F0000E94E102812F6AE00E947813E82FF0E05C
:10120000EC57FF4FE491E160E0932E04812F0E94A0
:101210007813E92FF0E0EC57FF4FE491E160E093A1
:101220002F0421E008C01092340489E090E0612F7F
:101230000E94F0135CC080911A0482FD04C080916A
:101240001B0482FFB8CF10921A04213009F0B2CFEC
:101250001B5F1C3508F01EE1812F6AE00E947813A5
:10126000E82FF0E0EC57FF4FE491E160E0932E04AB
:10127000812F0E947813E92FF0E0EC57FF4FE491A3
:10128000E160E0932F041F3180F1143210F4E7BCC9
:1012900092CF193210F4F7BC8ECF1E3210F4C7BCB7
:1012A0008ACF133310F4D7BC86CF183310F4B7BCF1
:1012B00082CF1D3310F497BC7ECF123410F4A7BC3C
:1012C0007ACF173410F487BC76CF1C3410F467BC87
:1012D00072CF113510F477BC6ECF163510F447BCC1
:1012E0006ACF1B3511F057BC66CF07BD64CF1F9185
:1012F0000F91FF90EF90DF90CF90BF90AF909F90B5
:101300008F907F906F905F904F903F900895FF92E5
:101310000F931F938AE080931D0410E00AE0FF24DE
:10132000F39480911A04882321F480911B0488236C
:1013300019F000931D0405C080911D04882309F451
:1013400072C080911A0480FD08C180911A0481FF47
:101350006DC010921A041123D1F480910C048823DB
:1013600011F411E006C08FEA90E061E00E94830F63
:1013700012E080E00E94080380912804816080933D
:101380002804809129048160809329044FC0113082
:1013900029F480910C04882339F020C01230E1F444
:1013A00080910C048130A9F480910C04882311F001
:1013B00011E001C012E080E00E94080380912B043C
:1013C000816080932B0480912C04816080932C0495
:1013D0002DC0882339F015C0113099F480910C0488
:1013E000813079F480E00E94080380912E048160AE
:1013F00080932E0480912F04816080932F0413E04A
:1014000015C083E68093340480E00E94080378943A
:1014100010921804109217048091170490911804E8
:101420008C5D9540C8F31092340497C080911A04E3
:1014300082FD04C080911B0482FF73CF10921A04B6
:10144000113061F5809135048F5F80933504809170
:1014500035048D3010F01093350480E00E940803AD
:1014600080910C04882359F4809128048160809332
:101470002804809129048160809329040AC0809106
:101480002B04816080932B0480912C0481608093D5
:101490002C046091350482E090E04DC0123061F57B
:1014A000809126048F5F80932604809126048032E9
:1014B00010F0F092260480E00E94080380910C0452
:1014C000813059F4809128048160809328048091B0
:1014D00029048160809329040AC080912B048160D3
:1014E00080932B0480912C04816080932C04609164
:1014F000260483E090E01FC01330F9F480912304A8
:101500008F5F809323048091230464E60E94781304
:101510009093230480E00E94080380912E04816050
:1015200080932E0480912F04816080932F0460911A
:10153000230481E090E00E94F01380911B0482FF5D
:10154000F0CE78941092180410921704809117042A
:1015500090911804CC97D0F3E4CE1F910F91FF9097
:101560000895DF92EF92FF920F931F93E090220471
:10157000F0903004009136048AE080931D0410E05E
:101580007AE0D72E80911A0480FDD7C080911A048A
:10159000882321F480911B04882319F0D0921D0424
:1015A00005C080911D04882309F44BC080911A0462
:1015B00081FF4AC010921A041123B9F4E09022046A
:1015C000F0903004009136048E2D6F2D402F0E9434
:1015D000E50180912804816080932804809129048A
:1015E00081608093290411E02FC0113089F48E2D81
:1015F0006F2D402F0E94E50180912B048160809324
:101600002B0480912C04816080932C0412E01CC078
:10161000123089F48E2D6F2D402F0E94E5018091AC
:101620002E04816080932E0480912F04816080932A
:101630002F0413E009C0E0922204F09230040093DA
:1016400036041092340479C080911A0482FD04C0DB
:1016500080911B0482FF96CF10921A041130F9F486
:101660008E2D90E0019668E170E00E949813E82EBC
:101670006F2D402F0E94E5018091280481608093A6
:10168000280480912904816080932904E092220437
:101690006091220484E090E00E94F0133DC012307B
:1016A00001F58F2D90E001966CE370E00E94981395
:1016B000F82E8E2D6F2D402F0E94E50180912B0476
:1016C000816080932B0480912C04816080932C0492
:1016D0006091300485E090E00E94F013F0923004B5
:1016E0001BC01330C9F4802F90E001966CE370E0CA
:1016F0000E949813082F8E2D6F2D402F0E94E50118
:1017000080912E04816080932E0480912F0481604B
:1017100080932F040093360480911B0482FF32CF04
:1017200078941092180410921704809117049091E5
:1017300018048B349105C8F325CF1F910F91FF90AA
:10174000EF90DF900895EF92FF920F931F93109107
:101750003204009124048AE080931D04FF24FAE0FF
:10176000EF2E80911A0480FDAFC080911A04882367
:1017700021F480911B04882319F0E0921D0417C006
:1017800080911D04882399F410923404109332043C
:10179000009324046091320487E090E00E94F013EB
:1017A0006091240488E090E00E94F0138DC0809145
:1017B0001A0481FF3CC010921A04FF2089F4812F83
:1017C000602F0E9461028091280481608093280428
:1017D00080912904816080932904FF24F39427C019
:1017E00081E0F81689F4812F602F0E9461028091B8
:1017F0002B04816080932B0480912C048160809362
:101800002C04E2E0FE2E13C0109332040093240453
:101810006091320487E090E00E94F013609124040C
:1018200088E090E00E94F013109234044DC0809143
:101830001A0482FD04C080911B0482FF92CF109293
:101840001A0481E0F816B1F4812F90E0019668E166
:1018500070E00E949813182F602F0E9461028091FF
:1018600028048160809328048091290481608093FA
:10187000290419C082E0F816B1F4802F90E0019697
:101880006CE370E00E949813082F812F602F0E9454
:10189000610280912B04816080932B0480912C0441
:1018A000816080932C0480911B0482FF5ACF78942E
:1018B0001092180410921704809117049091180444
:1018C0008B349105C8F34DCF1F910F91FF90EF908E
:1018D00008951F920F920FB60F9211242F933F93EA
:1018E0004F935F936F937F938F939F93AF93BF9328
:1018F000EF93FF9300B605FE28C080910D04882366
:1019000009F041C05B9A85B1877D85B95E988CB539
:101910008F7B8CBD80910F04882361F0609130042F
:1019200085E090E00E94F0136091360486E090E03C
:101930000E94F01389E391E061E00E94830F15BCDF
:10194000109225041092680019C080910D0488231C
:10195000D1F080910F04882361F06091300485E01C
:1019600090E00E94F0136091360486E090E00E94BF
:10197000F0138FE291E061E00E94830FE0910A048E
:10198000F0910B040995FF91EF91BF91AF919F9159
:101990008F917F916F915F914F913F912F910F9018
:1019A0000FBE0F901F9018951F920F920FB60F92B7
:1019B00011242F933F934F935F936F937F938F9354
:1019C0009F93AF93BF93EF93FF9380E88093610061
:1019D00010926100809136048F5F8093360480916D
:1019E00036048C3338F010923604809130048F5FC7
:1019F00080933004809130048C3398F0109230043E
:101A0000809122048F5F809322046091220484E0FD
:101A100090E00E94F0136091300485E090E00E9415
:101A2000F01380912204883168F010922204809192
:101A300026048F5F809326046091260483E090E063
:101A40000E94F01380912604803268F5809126046C
:101A50008F3181F480913504843029F180913504EF
:101A6000863009F1809135048930E9F080913504A0
:101A70008B30C9F0809126048E3121F48091350499
:101A8000823089F0809126048D31D9F4809135041B
:101A90008230B9F48091230490E08053984F0E94E3
:101AA0001901882371F481E0809326048091350424
:101AB0008F5F809335046091350482E090E00E944E
:101AC000F013809135048D3070F0809123048F5F86
:101AD0008093230481E0809335046091230481E0A6
:101AE00090E00E94F01380910D04882309F06EC0ED
:101AF00080913404882311F580910E04882349F0E5
:101B00008091360480FF05C084EB91E00E94E102E1
:101B100008C08091220460913004409136040E94F4
:101B2000E50180913104882321F0809127048260AF
:101B300003C0809127048D7F809327048091310416
:101B40008823E1F090913204809122049817B1F437
:101B50009091240480913004981781F48091360488
:101B6000882361F48BE391E061E00E94830F81E0C0
:101B700080933304109216041092150480911D0472
:101B8000882329F080911D04815080931D04809149
:101B90001C04882329F080911C04815080931C042C
:101BA0008091150490911604009781F0019790930D
:101BB00016048093150480FF04C08091270482607E
:101BC00003C0809127048D7F80932704FF91EF91BC
:101BD000BF91AF919F918F917F916F915F914F9145
:101BE0003F912F910F900FBE0F901F901895BF92AD
:101BF000CF92DF92EF92FF920F931F9315BC569AEC
:101C00005E9884B714BE90E00E94DA0F88E10FB6A8
:101C1000F89480936000109260000FBE2FE088E17E
:101C200090E00FB6F894A895809360000FBE2093C3
:101C30006000A89511E010930E0410920F048AE141
:101C400090E00E94610F84E291E061E00E94830FC6
:101C500088E480BF80ED97E00197F1F700B605FEBC
:101C60000BC080B7806180BF89E191E061E00E9494
:101C7000830F0E94BA0545C00E9406015B9886E06A
:101C800091E061E00E94830F83EF90E061E00E94A9
:101C9000830F109369001DBB109234048AEE90E00C
:101CA00061E00E94830F81E58CBD8FED90E061E0E3
:101CB0000E94830F89E090E00E94E8130E94A10136
:101CC00078948BE090E00E94E81380930C0482EDFE
:101CD00090E061E00E94830F0E94890580EA9FE006
:101CE00061E00E945A0187EC90E061E00E94830F5E
:101CF0000E94BA058CEB90E061E00E94830F0E9485
:101D00000F0687EB90E061E00E94830F83E6B82E18
:101D100003E0C02E17E0D12EB6E0EB2EA8E0FA2E9D
:101D200004E015E0A89500B605FE03C00E94DA00A5
:101D3000F9CF80911A0480FF4EC010921A0480914E
:101D400034048430C9F0853030F4882361F0833066
:101D500009F05EC01CC0863061F1863008F1873022
:101D600009F056C02FC0009334048DEB91E00E941F
:101D7000E1020E94A30BD6CFC092340487EC91E01D
:101D80000E94E1020E94B10A10920E04CBCF109380
:101D9000340480ED91E00E94E1020E948709C2CFE5
:101DA000E092340489ED91E00E94E1020E94A608CD
:101DB000B9CFD092340482EE91E00E94E1020E94F9
:101DC0001708B0CFF09234048BEE91E00E94E1024C
:101DD0000E94BA07A7CF80911A0481FD04C08091A8
:101DE0001A0482FF9FCF10921A04B092340481E04B
:101DF0000E940803A8957894109218041092170472
:101E000080911704909118048C5D9540C8F3A895B3
:101E10001092340487CF1F920F920FB60F921124A5
:101E20002F933F934F935F936F937F938F939F93E2
:101E3000AF93BF93EF93FF9389E60E946E0F29B192
:101E400078947894109218041092170480911704D3
:101E5000909118040A97D0F389B1247030E090E093
:101E6000847090702817390711F40E940F06FF91B3
:101E7000EF91BF91AF919F918F917F916F915F9102
:101E80004F913F912F910F900FBE0F901F9018957B
:101E900006C090E000009F5F9E31E1F781508823EB
:101EA000C1F7089548EC50E009C020E137E2FA019B
:101EB0003197F1F721503040D1F781508823A9F7AD
:101EC00008959093C5008093C40088E18093C10079
:101ED0008EE08093C200519A50980895982F809177
:101EE000C00085FFFCCF9093C60080E090E008958D
:101EF0008091C00087FFFCCF8091C600089580913B
:101F0000C00080780895AC0120E007C08091C00037
:101F100085FFFCCF3093C6002F5FFA01E20FF11D61
:101F20003491332399F7662371F08091C00085FFC7
:101F3000FCCF8AE08093C6008091C00085FFFCCF73
:101F40008DE08093C6000895FC0107C08091C00019
:101F500085FFFCCF31969093C60090819923B1F70D
:101F60000895282F982F92959F709A3030F4809181
:101F7000C00085FFFCCF905D05C08091C00085FF4B
:101F8000FCCF995A9093C600822F90E08F7090708A
:101F90000A973CF48091C00085FFFCCF2F70205D34
:101FA00006C08091C00085FFFCCF2F70295A209376
:101FB000C60008951F93182F892F0E94B10F812FFB
:101FC0000E94B10F1F910895EF92FF920F931F93FC
:101FD0007B018C01C801AA27BB270E94DA0FC70129
:101FE0000E94DA0F1F910F91FF90EF9008950F93C9
:101FF0001F93CF93DF938C01E0E1F7E240E0C0E074
:10200000D0E0C801BF010E948413262F662329F463
:10201000442319F4E130F10549F48091C00085FFB3
:10202000FCCF205D2093C600205341E0CF016AE041
:1020300070E00E9484132196C530D10571F0822F83
:1020400090E09C012E9FC0012F9F900D3E9F900D10
:102050001124081B190BFB01D4CFDF91CF911F91E5
:102060000F9108954F925F926F927F928F929F92FD
:10207000AF92BF92CF92DF92EF92FF920F931F9396
:10208000CF93DF934B015C01E12C9AECF92E9AE996
:10209000092F9BE3192F4424C0E0D0E0C501B4010F
:1020A000A80197010E94AB13D22E222341F44420B1
:1020B00031F481E0E816F1040105110561F4809125
:1020C000C00085FFFCCF80E3D80ED092C60080ED23
:1020D000D80E44244394C801B7012AE030E040E020
:1020E00050E00E94AB13C22E732E642E552E219603
:1020F000CA30D105A9F06D2D70E080E090E0A80114
:1021000097010E945913861A970AA80AB90A2C2D1A
:10211000372D462D552DC901DA017C018D01BECF29
:10212000DF91CF911F910F91FF90EF90DF90CF90B3
:10213000BF90AF909F908F907F906F905F904F90E7
:1021400008959C0160E971E00E948413892B11F4C9
:1021500081E00895C90164E670E00E948413892B30
:1021600011F480E0089580E023703070232B09F48F
:1021700081E008957F928F929F92AF92BF92CF920B
:10218000DF92EF92FF920F931F93CF93DF93B82EBE
:10219000962FA42E822E702E9E2CE41620F0E4168C
:1021A00079F4281768F4882D672D492D2B2D092FD8
:1021B000EA2C0E94BA1066277727681B790BB7C0F4
:1021C000B81441F4A91409F041C0672D70E0691BEF
:1021D0007109ADC0A914D1F5CB2DD0E0FE01E350BB
:1021E000FC4F8081082F10E0091B110982E0B8160E
:1021F00031F48A2D90E00E94A110080F111D9EEF6E
:10220000C92E93E0D92ECC0EDD1EEE24FF24CB2D5B
:10221000D0E02196992413C0F6018081080F111D8A
:102220002230310531F48A2D90E00E94A110080F70
:10223000111D0894E11CF11C0894C11CD11C9E01C5
:102240002E0D3F1D281539053CF36EC0CB2DD0E077
:10225000FE01E350FC4F8081082F10E0091B11099B
:10226000F2E0BF1631F48A2D90E00E94A110080F11
:10227000111D8EEFC82E83E0D82ECC0EDD1EEE246D
:10228000FF24CB2DD0E0219613C0F6018081080FEA
:10229000111D2230310531F48A2D90E00E94A110E9
:1022A000080F111D0894E11CF11C0894C11CD11CDD
:1022B0009E012E0D3F1D2D3031053CF38A2D90E0FF
:1022C0007C010894E11CF11CC0E0D0E05C01C92C49
:1022D000DD240BC0C7010E94A11090E083599E4FDE
:1022E000080F191F0894E11CF11C2196CE018A0DDC
:1022F0009B1D8C159D0574F3C1E0D0E0E82CFF24F4
:1023000010C0FE01E350FC4F8081080F111DC23048
:10231000D10531F4892D90E00E94A110080F111D04
:102320002196CE15DF056CF3B801670D711DCB0149
:10233000DF91CF911F910F91FF90EF90DF90CF90A1
:10234000BF90AF909F908F907F900895669F90016F
:10235000679F300D769F300D1124882319F48FEB81
:1023600092E002C080E197E2BC01469FC001479F16
:10237000900D569F900D1124B9010E948413862F51
:1023800008958F92AF92CF92EF920F931F93DF93A6
:10239000CF93CDB7DEB70E94BA10AC01CC2019F0B4
:1023A0002CE130E302C024E63DE18CE99FEF489F39
:1023B0008001499F100D589F100D1124020F131F0B
:1023C000882D90E08E3291051CF08DE290E005C0E2
:1023D0008831910514F488E190E0AC0148515040F7
:1023E00063E0A61609F0B2C0CC2009F04DC0015040
:1023F0001F497B85713071F58091E6039091E70369
:10240000892B19F0E0E0F0E011C08091EA0390918F
:10241000EB03892B19F0E1E0F0E008C08091EE03B6
:102420009091EF03892BB1F0E2E0F0E0EE0FFF1F97
:10243000EE0FFF1FE851FC4F8081918124E630E0D0
:10244000BC01629FC001639F900D729F900D11248B
:10245000081B190B80911F03882319F020E030E03E
:1024600007C080913603882309F40BC121E030E0D6
:1024700087E190E0289FF001299FF00D389FF00D33
:102480001124E15EFC4F53C008501B447B85713022
:1024900071F58091F2039091F303892B19F0E0E03C
:1024A000F0E011C08091F6039091F703892B19F0A9
:1024B000E1E0F0E008C08091FA039091FB03892BE2
:1024C000B1F0E2E0F0E0EE0FFF1FEE0FFF1FEC5067
:1024D000FC4F8081918124E630E0BC01629FC00105
:1024E000639F900D729F900D1124081B190B809112
:1024F0004D03882319F020E030E00EC08091640382
:10250000882319F021E030E007C080917B03882305
:1025100009F4B7C022E030E087E190E0289FF001A5
:10252000299FF00D389FF00D1124E35BFC4FE40F61
:10253000F51F618170E080E090E023E531E74FEF27
:102540005FEF0E945913060F171F9BC0CC2009F0A4
:1025500040C07B85713019F5A2E9B3E0E0E0F0E01E
:102560008D919C911197892BA9F0EE0FFF1FEE0F13
:10257000FF1FEC56FC4F8081918124E630E0BC01C6
:10258000629FC001639F900D729F900D1124081BE4
:10259000190B05C031961496EB30F10509F7E4EFFD
:1025A000F1E020E030E08081882361F087E190E075
:1025B000289FF001299FF00D389FF00D1124EC5059
:1025C000FE4F3FC02F5F3F4F77962630310559F7BA
:1025D0004DC07B85713019F5AEEBB3E0E0E0F0E083
:1025E0008D919C911197892BA9F0EE0FFF1FEE0F93
:1025F000FF1FE054FC4F8081918124E630E0BC0154
:10260000629FC001639F900D729F900D1124081B63
:10261000190B05C031961496EA30F10509F7EEE77B
:10262000F2E020E030E080818823D1F087E190E083
:10263000289FF001299FF00D389FF00D1124E258DA
:10264000FD4FE40FF51F618170E080E090E023E52D
:1026500031E74FEF5FEF0E945913060F171F06C0B7
:102660002F5F3F4F779627303105E9F672E0A716C6
:1026700019F40E531D4605C081E0A81611F403524B
:102680001C4580E693E0089F9001099F300D189F3C
:10269000300D1124442737FD4095542FB901CA014C
:1026A000CF91DF911F910F91EF90CF90AF908F90CE
:1026B0000895629FD001739FF001829FE00DF11D8C
:1026C000649FE00DF11D929FF00D839FF00D749FAC
:1026D000F00D659FF00D9927729FB00DE11DF91F58
:1026E000639FB00DE11DF91FBD01CF0111240895B5
:1026F000991B79E004C0991F961708F0961B881F54
:102700007A95C9F780950895AA1BBB1B51E107C0B4
:10271000AA1FBB1FA617B70710F0A61BB70B881F71
:10272000991F5A95A9F780959095BC01CD01089500
:1027300097FB092E07260AD077FD04D0E5DF06D0E7
:1027400000201AF4709561957F4F0895F6F79095E3
:1027500081959F4F0895A1E21A2EAA1BBB1BFD0174
:102760000DC0AA1FBB1FEE1FFF1FA217B307E40770
:10277000F50720F0A21BB30BE40BF50B661F771FC8
:10278000881F991F1A9469F76095709580959095A8
:102790009B01AC01BD01CF01089597FB092E0526D1
:1027A0000ED057FD04D0D7DF0AD0001C38F4509566
:1027B0004095309521953F4F4F4F5F4F0895F6F765
:1027C00090958095709561957F4F8F4F9F4F08959D
:1027D000F999FECF92BD81BDF89A992780B50895E9
:1027E000262FF999FECF1FBA92BD81BD20BD0FB62D
:1027F000F894FA9AF99A0FBE01960895F894FFCFCB
:1028000073756E646179006D6F6E646179007475C3
:102810006573646179007765646E736461790074CF
:1028200068757273646179006672696461790073B6
:1028300061747572646179006A616E006665620038
:102840006D6172636800617072696C006D6179001E
:102850006A756E65006A756C7900617567737400DE
:1028600073657074006F63746F62006E6F76656D70
:1028700000646563656D00616C61726D206F6E0050
:10288000736E6F6F7A696E67007573612D31326890
:1028900072006575722D3234687200766F6C206834
:1028A00069676800766F6C20206C6F7700627269D0
:1028B00074652000202020202020202000736574D3
:1028C00020616C61726D007365742074696D6500C0
:1028D0007365742064617465007365742062726945
:1028E000740073657420766F6C20007365742072B9
:1028F00065676E001400000000000000000000008A
:10290000000000000000000000000028000000009F
:102910000101010102020203030304040405050688
:10292000060832000000000001010101020202025B
:102930000303040404050505073C00000000000033
:102940000101010102020203030304040405050658
:10295000460000000001010101010202020203031E
:102960000304040404000050000000000000000004
:10297000000000000000000000000000000514003E
:102980000000000000000000000000000000000047
:1029900000000000001E000000010101010202030E
:1029A00003030404050506060707080D28000000B8
:1029B00001010101020202030303040405050606E6
:1029C00006070B32000000000001010102020203B1
:1029D0000303040404050506060A3C000000000089
:1029E00000000101010102020203030304040405C3
:1029F0000746000000000000000001010101020282
:102A0000020202030303030550000000000000005F
:102A10000000000000010101010101010102021496
:102A200000000000000000000000000000000000A6
:102A3000000000000000280000000000000000016D
:102A40000101010101020202020203030414000059
:102A50000000000000000000000000000000000076
:102A6000000000001E000000000000000101010144
:102A7000010202020203030303040628000000000F
:102A8000000000010101010101020202020303032F
:102A90000305190000001E00B30A23008F0A280056
:102AA000FD092D00D80932006A093700D9083C0019
:102AB000FE074100FE06460047065000B504190017
:102AC00000001E003F092D001B093200F6083700E8
:102AD000D1083C0090084100F606460022074B0052
:102AE000650550004804190000001E00FE0428007F
:102AF000DA04190000001E00900528006C051F1C58
:0A2B00001F1E1F1E1F1F1E1F1E1F99
:00000001FF
