:100000000C945E010C9488120C947B010C9456069F
:100010000C947B010C94AA060C947B010C947B013C
:100020000C947B010C94090D0C947B010C947B01C6
:100030000C947B010C947B010C947B010C947B0150
:100040000C94B7070C947B010C947B010C947B01FE
:100050000C947B010C947B010C947B010C94A90CF7
:100060000C947B010C947B01FA3E1A7ADE8EF62EFC
:100070006078AE1CAA2A3ACEF30AB61E3838B86E9B
:1000800076DA6800FC60DAF266B6BEE0FEE684006E
:1000900003070809060A050C0490000B10120F0D47
:1000A0000E11139B0014000000000000000000006F
:1000B0000000000000000000000000002800000018
:1000C0000001010101020202030303040404050507
:1000D00006060832000000000001010101020202D0
:1000E000020303040404050505073C0000000000AA
:1000F00000010101010202020303030404040505D7
:100100000646000000000101010101020202020393
:100110000303040404040000C80000000000000001
:1001200000000000000000000000000000000514B6
:1001300000000000000000000000000000000000BF
:100140000000000000001E00000001010101020289
:100150000303030404050506060707080D2800002D
:100160000001010101020202030303040405050664
:100170000606070B32000000000001010102020226
:10018000030303040404050506060A3C00000000FE
:100190000000000101010102020203030304040440
:1001A00005074600000000000000000101010102F7
:1001B000020202020303030305C80000000000005E
:1001C0000000000000000101010101010101020223
:1001D000140000000000000000000000000000000B
:1001E00000000000000000C8000000000000000047
:1001F00001010101010102020202020303041400D1
:1002000000000000000000000000000000000000EE
:1002100000000000001E00000000000000010101BD
:10022000010102020202030303030406C8000000E6
:1002300000000000010101010101020202020303AA
:10024000030305190000001E00B30A23008F0A28CB
:1002500000FD092D00D80932006A093700D9083C91
:1002600000FE074100FE0646004706C800B5041917
:100270000000001E003F092D001B093200F6083760
:1002800000D1083C0090084100F606460022074BCA
:10029000006505C8004804190000001E00FE04C8DF
:1002A00000DA04190000001E009005C8006C051F4C
:1002B0001C1F1E1F1E1F1F1E1F1E1F0011241FBEDE
:1002C000CFEFD4E0DEBFCDBF13E0A0E0B1E0E4EAC1
:1002D000FDE302C005900D92AC32B107D9F713E0EF
:1002E000ACE2B3E001C01D92A236B107E1F70E9473
:1002F000F7160C94D01E0C9400009C017894109278
:100300003B0310923A0380913A0390913B0382178A
:100310009307C8F30895A895089581E0809330036A
:100320005B9A8CB58F7B8CBD85B1877D85B95E98D6
:1003300015BC10924D031092680085B1897F85B974
:100340008BB18F7C8BB928988AB18F7C8AB9209821
:100350005A985298E1E6F0E090E8908388E0808334
:10036000449A83B7876083BF8895908310824498AE
:1003700008958EE284B988E48AB989E187B984E373
:100380008BB991E095B985E08093680090936B00FC
:1003900080E380936D000895FC0183709070892B39
:1003A00039F4CF0164E670E00E943B1E892B49F4CA
:1003B00020E030E0CF0160E971E00E943B1E892B14
:1003C00011F421E030E0822F089510928000109205
:1003D0008100299A2A98789410923B0310923A034C
:1003E00080913A0390913B030A97D0F32A9A299877
:1003F000789410923B0310923A0380913A039091C3
:100400003B030A97D0F385B1897F85B982EB80934E
:10041000800088E18093810008951F93162F9C012E
:1004200040E050E060E472E48FE090E00E94841EBF
:1004300030938700209386008091860090918700FA
:100440009695879590938B0080938A0080918A007F
:1004500090918B00909389008093880028EC30E085
:100460001CC08091810082608093810080ED97E0C4
:10047000F9013197F1F70197D9F7809181008D7FCC
:100480008093810085B1897F85B980ED97E0F9017E
:100490003197F1F70197D9F71150112311F785B171
:1004A000897F85B91F9108958B3510F08AE503C0C7
:1004B0008E3108F48EE187BD83E084BD81E085BD87
:1004C00084B5806884BD80916E00816080936E00E9
:1004D00078940895282F10924F03882319F580915E
:1004E0004B0364E60E942F1E90E043966AE070E0A2
:1004F0000E944F1EFB01EC57FF4FE491E093540321
:1005000080914B0364E60E942F1E90E043966AE0C0
:1005100070E00E944F1EFC01EC57FF4FE491E09306
:10052000550305C082E08093520380935503809168
:100530002E03A22FB0E0882379F580915E036AE054
:100540000E942F1EE82FF0E0EC57FF4FE491E0935C
:10055000500380915E030E942F1EE92FF0E0EC57BC
:10056000FF4FE491E093510380914E030E942F1EB0
:10057000E82FF0E0EC57FF4FE491A15BBC4F1396DE
:10058000EC93139780914E030E942F1EE92FF0E009
:10059000EC57FF4FE4912EC080914E036AE00E9419
:1005A0002F1EE82FF0E0EC57FF4FE491E09350034B
:1005B00080914E030E942F1EE92FF0E0EC57FF4F71
:1005C000E491E093510380915E030E942F1EE82F77
:1005D000F0E0EC57FF4FE491A15BBC4F1396EC9316
:1005E000139780915E030E942F1EE92FF0E0EC57D5
:1005F000FF4FE4911496EC9380914B0364E60E94C4
:100600002F1E892F6AE00E942F1EE82FF0E0EC5782
:10061000FF4FE491E093560380914B0364E60E9400
:100620002F1E892F6AE00E942F1EE92FF0E0EC5761
:10063000FF4FE491E09357030895982F80912E0384
:10064000882309F03BC09C3058F080914F038160B3
:1006500080934F03E7E7F0E0E491E09356030AC08C
:10066000E8E6F0E0E491E093560380914F038E7F3B
:1006700080934F03E4E7F0E0E491E0935703892F80
:1006800090E00B966CE070E00E944F1E9C012F5F83
:100690003F4FC9016AE070E00E944F1EFC01EC5719
:1006A000FF4FE491E0935103C9016AE070E00E94BA
:1006B0004F1EFB01EC57FF4FE4911EC0892F90E0C5
:1006C000479668E170E00E944F1E9C012F5F3F4FEC
:1006D000C9016AE070E00E944F1EFC01EC57FF4F19
:1006E000E491E0935103C9016AE070E00E944F1E5B
:1006F000FB01EC57FF4FE491E093500308950F93F3
:100700001F93062F142F0E941D03812F6AE00E9461
:100710002F1E24E830E0F901E90FF11DE491E09388
:100720005703812F0E942F1EF901E80FF11DE4915C
:10073000E093560310925503802F0E942F1EF9015B
:10074000E90FF11DE491E0935403802F0E942F1EC6
:10075000280F311DF90184918093530310925203A5
:100760001F910F910895AC0110924F0321E030E0EA
:10077000A22FB0E0FA01EA0FFB1FE30FF11D319742
:10078000E081EE2339F18E2F81568A3128F4F0E092
:10079000E95FFF4FE49108C08E2F80538A3040F408
:1007A000F0E0EC5AFF4FE491A15BBC4FEC930FC01B
:1007B000EE3251F42150E22FF0E0E15BFC4F8081FA
:1007C000816080833F5F03C0A15BBC4F1C922F5FA1
:1007D000293070F20895CF93DF93EB0110924F030D
:1007E000882309F03BC080E091E00E94B303CE0172
:1007F00068E770E00E943B1EFB01EC57FF4FE4915D
:10080000E0935003CE016CE070E00E943B1ECB01F0
:100810006AE070E00E943B1EFC01EC57FF4FE49140
:10082000E0935103CE016CE070E00E943B1E9C01FE
:100830006AE070E00E943B1EFB01EC57FF4FE49121
:10084000E0935603C9016AE070E00E943B1EFC0180
:10085000EC57FF4FE491E093570329C089E091E002
:100860000E94B303CE0164E670E00E943B1EFB01D0
:10087000EC57FF4FE491E0935003CE0164E670E043
:100880000E943B1E6AE070E00E943B1EFB01EC5799
:10089000FF4FE491E0935103CE016AE070E00E94C3
:1008A0003B1EFC01EC57FF4FE491E0935203DF91B4
:1008B000CF910895CF93DF93EB0110924F038823DC
:1008C00019F482E191E007C0813019F48BE191E0E5
:1008D00002C084E291E00E94B303CE0164E670E0BE
:1008E0000E943B1EFB01EC57FF4FE491E093500345
:1008F000CE0164E670E00E943B1E6AE070E00E9458
:100900003B1EFB01EC57FF4FE491E0935103CE01F6
:100910006AE070E00E943B1EFC01EC57FF4FE4913F
:10092000E0935203DF91CF910895EF92FF920F93DE
:100930001F93CF93DF937B018C01161617061806C1
:1009400019060CF5C7E5D3E0C801B7012AE030E08D
:1009500040E050E00E94841EFB01EC57FF4F649181
:100960006883C801B7012AE030E040E050E00E940F
:10097000841EC901DA017C018D01219783E0CF3407
:10098000D80711F704C08DE291E00E94B303DF9114
:10099000CF911F910F91FF90EF900895EF92FF92EA
:1009A0000F931F93B82FA62F80912F038C3009F03F
:1009B0006FC080915D03843009F46AC0E090400309
:1009C000F0904103009142031091430380914A0348
:1009D000B81740F080914A038B1709F580915803AE
:1009E0006817E8F420914A036091580380916103ED
:1009F000833019F041E050E002C044E050E030E0C4
:100A000084EC9FEFFC012E9FC0012F9F900D3E9F15
:100A1000900D1124861B910980569A4F1AC020917F
:100A20004A036091580380916103833019F041E0DB
:100A300050E002C044E050E030E084EC9FEFFC0165
:100A40002E9FC0012F9F900D3E9F900D1124861B5D
:100A500091092CE3B29F90011124820F931F8A0FFA
:100A6000911D9C01429FC001439F900D529F900D8C
:100A70001124AA2797FDA095BA2FA8019701281B3A
:100A8000390B4A0B5B0BCA01B9010E94950420C0C7
:100A90001092570310925603109255038A2F6AE062
:100AA0000E942F1EE92FF0E0EC57FF4FE491E093F6
:100AB00054038A2F0E942F1EE82FF0E0EC57FF4FBF
:100AC000E491E0935303109252038B2F0E941D0375
:100AD0001F910F91FF90EF9008954A9B36C080912F
:100AE0005903882309F049C081E08093590310928B
:100AF00039031092380386E391E00E94B30389E042
:100B000080935D03789410923B0310923A03809196
:100B10003A0390913B03885E9340C8F380915A0357
:100B200060914C030E94CE04789410923B03109283
:100B30003A0380913A0390913B03805D9740C8F35C
:100B400080912F0380935D0308958091590388233A
:100B5000A1F010925903109239031092380380913A
:100B60005C03882351F010925C03809181008D7F9B
:100B70008093810085B1866085B90895CF92DF9218
:100B8000EF92FF921F93DF93CF93CDB7DEB7CE578F
:100B9000D0400FB6F894DEBF0FBECDBF9091590381
:100BA000992349F455C080915903891721F083E6B0
:100BB00080935D0305C080913C038770823099F378
:100BC00080915903891709F443C0DE011196EFE3C0
:100BD000F1E08EE701900D928150E1F710E039E0ED
:100BE000E32EF12CEC0EFD1E6E010894C11CD11CED
:100BF0001FC080913D038D7F80933D03F701E10F7E
:100C0000F11D8081882309F410E0C601810F911D38
:100C10000E94B303789410923B0310923A038091A0
:100C20003A0390913B038D549140C8F31F5FA89500
:100C300080913C0381FDDDCFF701E10FF11D808143
:100C40008823B9F680912F0380935D0381E001C072
:100C500080E0C258DF4F0FB6F894DEBF0FBECDBFA5
:100C6000CF91DF911F91FF90EF90DF90CF9008958B
:100C700088E592E090933903809338038DEB91E0FF
:100C80000E94B30389E080935D03789410923B0344
:100C900010923A0380913A0390913B03885E93400F
:100CA000C8F380912F0380935D0308951F920F92E4
:100CB0000FB60F9211242F933F934F935F936F932F
:100CC0007F938F939F93AF93BF93EF93FF93109274
:100CD00068007894189925C080913C0381FD26C056
:100CE000789410923B0310923A0380913A039091CA
:100CF0003B030A97D0F3189919C00E94E50180912F
:100D00005C03882319F00E94380610C080913C03D0
:100D1000826080933C0380913D03826080933D0319
:100D200005C080913C038D7F80933C0385E08093D8
:100D30006800FF91EF91BF91AF919F918F917F914B
:100D40006F915F914F913F912F910F900FBE0F9038
:100D50001F9018951F920F920FB60F9211242F9388
:100D60003F934F935F936F937F938F939F93AF9333
:100D7000BF93EF93FF931092680078944D9922C02F
:100D800080913C0380FD23C0789410923B03109225
:100D90003A0380913A0390913B030A97D0F34D991F
:100DA00059C00E94E50180915C038823A1F58091E0
:100DB0003C03816080933C0380913D03816080937C
:100DC0003D0305C080913C038E7F80933C034C998A
:100DD0003AC080913C0382FD3DC0789410923B0361
:100DE00010923A0380913A0390913B030A97D0F313
:100DF0004C9930C082E080933F0316C04C9B14C0D6
:100E00000E94E50180913C038B7F80933C0380919D
:100E10005C03882319F00E9438061CC080913D03B2
:100E2000846080933D0316C080913F03882331F78F
:100E300080913C03846080933C0380913E038460F6
:100E400080933E0307C010923E0380913C038B7F4A
:100E500080933C0385E080936800FF91EF91BF9100
:100E6000AF919F918F917F916F915F914F913F9142
:100E70002F910F900FBE0F901F90189581E58CBD9C
:100E800008959B01AC01F894CA01AA27BB278EBD27
:100E90000DB407FEFDCFBB27A52F942F832F8EBD4A
:100EA0000DB407FEFDCF2EBD0DB407FEFDCF409A59
:100EB000409878940895AF92BF92CF92DF92EF92CC
:100EC000FF920F931F93E82FF0E0E057FF4FE4915C
:100ED00081E090E002C0880F991FEA95E2F77C015B
:100EE0000027F7FC0095102F209145033091460311
:100EF0004091470350914803A0E0B0E070E0E1E08A
:100F0000AE2EB12CC12CD12CCB010A2E02C095954E
:100F100087950A94E2F780FF11C0FD01E556FF4F67
:100F2000E491A601950104C0220F331F441F551FF1
:100F3000EA95D2F7E22AF32A042B152B1196A83052
:100F4000B10511F7209345033093460340934703BF
:100F500050934803C801B7010E9441071F910F91A8
:100F6000FF90EF90DF90CF90BF90AF9008951F92C9
:100F70000F920FB60F9211242F933F934F935F93CD
:100F80006F937F938F939F93AF93BF93EF93FF9351
:100F90007894A895809134039091350301969093AD
:100FA000350380933403819708F46CC010923503A5
:100FB0001092340380913A0390913B0301969093F1
:100FC0003B0380933A0380913303893010F01092F1
:100FD000330380913303E82FF0E0E15BFC4F608145
:100FE0000E945B07809133038F5F8093330380916E
:100FF0005C03882309F446C080913803909139033B
:10100000892B09F03FC080913603909137030196F8
:1010100090933703809336038536910598F11092AB
:101020003703109236038AEF90E090938700809305
:101030008600809186009091870096958795909381
:101040008B0080938A0080918A0090918B0090930E
:1010500089008093880080915C03807F49F08091B3
:101060005C038F7080935C03809181008D7F08C04A
:1010700080915C03806F80935C038091810082602B
:1010800080938100FF91EF91BF91AF919F918F91DC
:101090007F916F915F914F913F912F910F900FBE74
:1010A0000F901F9018958EBD0DB407FEFDCF0895CB
:1010B0008AE090E00E949F1E80934D0385B1866078
:1010C00085B982E38093800080914D03882329F0C5
:1010D0008091800080688093800088E18093810007
:1010E0008AEF90E09093870080938600809186003D
:1010F00090918700969587959093890080938800BA
:10110000809188009091890090938B0080938A0051
:10111000089584E090E00E949F1E68E10E942F1EC7
:1011200090934A0385E090E00E949F1E6CE30E942A
:101130002F1E9093580386E090E00E949F1E6CE360
:101140000E942F1E9093600388E090E00E949F1EF3
:101150006CE30E942F1E90934C0387E090E00E9466
:101160009F1E68E10E942F1E90935A0381E090E039
:101170000E949F1E64E60E942F1E90934B0382E004
:1011800090E00E949F1E6DE00E942F1E90935E03D0
:1011900083E090E00E949F1E8F7180934E0391E048
:1011A00090933203E6EBF0E080818062808385E0FB
:1011B0008093B100909370007894089580913003EB
:1011C0008823A9F180E88093610010926100109259
:1011D000300380E49CE90197F1F700B605FC27C0D5
:1011E0000E94B90189E090E00E949F1E0E94540273
:1011F00081E58CBD5B9843988AE090E00E949F1E39
:1012000080934D030E945808A8950E946D0580E7C1
:1012100093E061E00E940D0280EE96E061E00E94A2
:101220000D0280EC9DE061E00E940D02A8950895FA
:101230000F931F938AE0809344038BE090E00E9419
:101240009F1E80932E0310E00AE001C010E0809101
:101250003D03882321F480913E03882319F00093F5
:10126000440304C0809144038823C9F080913D0366
:1012700080FD3AC080913D0381FF16C010923D036E
:10128000112369F480912E03882319F486EC91E0F0
:1012900002C08FEC91E00E94B30311E005C0809181
:1012A0002F0380935D0320C080913D0382FFCFCF49
:1012B00010923D03113051F690E080912E03882367
:1012C00009F491E090932E03992319F486EC91E0B0
:1012D00002C08FEC91E00E94B3038BE090E060913C
:1012E0002E030E94AD1EB3CF1F910F910895EF9270
:1012F000FF920F931F938AE0809344038AE090E06B
:101300000E949F1EF82E00E0BAE0EB2E01C000E024
:1013100080913D03882321F480913E03882319F0B6
:10132000E092440304C080914403882369F18091D2
:101330003D0380FD68C080913D0381FF2AC010926B
:101340003D03002309F5FF2051F088ED91E00E9454
:10135000B3038091540381608093540304C081EEF1
:1013600091E00E94B30380915503816080935503FF
:10137000809156038160809356038091570381606A
:101380008093570301E005C080912F0380935D0394
:101390003AC080913D0382FFBBCF10923D030130E4
:1013A00009F0B5CF10E0FF2009F411E0F12E112370
:1013B00051F088ED91E00E94B30380915403816065
:1013C0008093540304C081EE91E00E94B3038091A6
:1013D000550381608093550380915603816080930B
:1013E0005603809157038160809357038AE090E011
:1013F000612F0E94AD1E0E94580880EA9FE061E0C4
:101400000E940D0285CF1F910F91FF90EF900895DC
:101410003F924F925F926F927F928F929F92AF9284
:10142000BF92CF92DF92EF92FF920F931F938AE0C9
:101430008093440389E090E00E949F1E182F20E0D3
:101440009AE0392E0EE18AE5582EB5E54B2EA0E53F
:101450007A2EFBE46F2EE6E48E2E71E4A72E6CE369
:10146000962E57E3B52E42E3D42E3DE2C32E98E2EA
:10147000F92E83E2E82E01C020E080913D0388230D
:1014800021F480913E03882319F03092440304C074
:1014900080914403882349F180913D0380FD8BC0F6
:1014A00080913D0381FF2BC010923D032223E9F47C
:1014B0008AEE91E00E94B303812F6AE00E942F1E02
:1014C000E82FF0E0EC57FF4FE491E160E093560322
:1014D000812F0E942F1EE92FF0E0EC57FF4FE4917F
:1014E000E160E093570321E00AC080912F038093CD
:1014F0005D0389E090E0612F0E94AD1E5CC0809189
:101500003D0382FD04C080913E0382FFB6CF10925E
:101510003D03213009F0B0CF1B5F1C3508F01EE100
:10152000812F6AE00E942F1EE82FF0E0EC57FF4F5A
:10153000E491E160E0935603812F0E942F1EE92F72
:10154000F0E0EC57FF4FE491E160E09357031F3167
:1015500080F1143210F4E7BC90CF193210F4F7BCCC
:101560008CCF1E3210F4C7BC88CF133310F4D7BC15
:1015700084CF183310F4B7BC80CF1D3310F497BC60
:101580007CCF123410F4A7BC78CF173410F487BC8A
:1015900074CF1C3410F467BC70CF113510F477BCD5
:1015A0006CCF163510F447BC68CF1B3511F057BC13
:1015B00064CF07BD62CF1F910F91FF90EF90DF9036
:1015C000CF90BF90AF909F908F907F906F905F90E3
:1015D0004F903F900895DF92EF92FF920F931F93E9
:1015E000E0904A03F0905803009160038AE08093F2
:1015F000440310E02AE0D22E80913D0380FDD9C043
:1016000080913D03882321F480913E03882319F0C3
:10161000D092440305C080914403882309F44BC051
:1016200080913D0381FF4CC010923D031123B9F41A
:10163000E0904A03F0905803009160038E2D6F2DC7
:10164000402F0E947F03809150038160809350035C
:101650008091510381608093510311E031C01130BA
:1016600089F48E2D6F2D402F0E947F0380915303AC
:10167000816080935303809154038160809354036D
:1016800012E01EC0123089F48E2D6F2D402F0E9463
:101690007F038091560381608093560380915703A6
:1016A00081608093570313E00BC0E0924A03F092ED
:1016B00058030093600380912F0380935D0379C0EA
:1016C00080913D0382FD04C080913E0382FF94CF50
:1016D00010923D031130F9F48E2D90E0019668E1EF
:1016E00070E00E944F1EE82E6F2D402F0E947F0356
:1016F00080915003816080935003809151038160F9
:1017000080935103E0924A0360914A0384E090E0A1
:101710000E94AD1E3DC0123001F58F2D90E0019664
:101720006CE370E00E944F1EF82E8E2D6F2D402F1F
:101730000E947F03809153038160809353038091C3
:1017400054038160809354036091580385E090E0D6
:101750000E94AD1EF09258031BC01330C9F4802FB5
:1017600090E001966CE370E00E944F1E082F8E2DD2
:101770006F2D402F0E947F038091560381608093DC
:101780005603809157038160809357030093600351
:1017900080913E0382FF30CF789410923B031092E9
:1017A0003A0380913A0390913B038B349105C8F33F
:1017B00023CF1F910F91FF90EF90DF900895EF924C
:1017C000FF920F931F9310915A0300914C038AE0EC
:1017D00080934403FF244AE0E42E80913D0380FD82
:1017E000B3C080913D03882321F480913E03882378
:1017F00019F0E092440319C0809144038823A9F4AE
:1018000080912F0380935D0310935A0300934C0340
:1018100060915A0387E090E00E94AD1E60914C03F6
:1018200088E090E00E94AD1E8FC080913D0381FF53
:101830003EC010923D03FF2089F4812F602F0E944B
:10184000CE048091500381608093500380915103B6
:10185000816080935103FF24F39429C081E0F8163E
:1018600089F4812F602F0E94CE0480915303816000
:10187000809353038091540381608093540332E03A
:10188000F32E15C010935A0300934C0360915A0332
:1018900087E090E00E94AD1E60914C0388E090E0EC
:1018A0000E94AD1E80912F0380935D034DC08091F7
:1018B0003D0382FD04C080913E0382FF8ECF1092D3
:1018C0003D0381E0F816B1F4812F90E0019668E1C4
:1018D00070E00E944F1E182F602F0E94CE0480914E
:1018E0005003816080935003809151038160809305
:1018F000510319C082E0F816B1F4802F90E00196F0
:101900006CE370E00E944F1E082F812F602F0E9411
:10191000CE048091530381608093530380915403DC
:1019200081608093540380913E0382FF56CF789468
:1019300010923B0310923A0380913A0390913B033B
:101940008B349105C8F349CF1F910F91FF90EF9011
:1019500008951F920F920FB60F9211242F933F9369
:101960004F935F936F937F938F939F93AF93BF93A7
:10197000EF93FF9300B605FE22C0809130038823C9
:10198000B9F55B9A85B1877D85B95E988CB58F7BFB
:101990008CBD80913203882361F06091580385E00B
:1019A00090E00E94AD1E6091600386E090E00E948E
:1019B000AD1E15BC10924D031092680014C08091AA
:1019C00030038823A9F080913203882361F060916D
:1019D000580385E090E00E94AD1E6091600386E0B0
:1019E00090E00E94AD1EE0912C03F0912D0309952B
:1019F000FF91EF91BF91AF919F918F917F916F91E7
:101A00005F914F913F912F910F900FBE0F901F90BC
:101A100018951F920F920FB60F9211242F933F9398
:101A20004F935F936F937F938F939F93AF93BF93E6
:101A3000EF93FF9380E880936100109261008091A2
:101A400060038F5F80936003809160038C33A8F103
:101A500010926003809158038F5F809358038091A8
:101A6000400390914103A0914203B09143031816A3
:101A700019061A061B060CF520914003309141030C
:101A8000409142035091430380916103833029F0D8
:101A900081E090E0A0E0B0E004C084E090E0A0E04D
:101AA000B0E0281B390B4A0B5B0B209340033093AB
:101AB00041034093420350934303809158038C3376
:101AC00098F01092580380914A038F5F80934A03E5
:101AD00060914A0384E090E00E94AD1E609158033B
:101AE00085E090E00E94AD1E80914A03883168F045
:101AF00010924A0380914E038F5F80934E03609152
:101B00004E0383E090E00E94AD1E80914E03803230
:101B100068F580914E038F3181F480915E038430AB
:101B200029F180915E03863009F180915E0389304E
:101B3000E9F080915E038B30C9F080914E038E31C5
:101B400021F480915E03823089F080914E038D31C3
:101B5000D9F480915E038230B9F480914B0390E018
:101B60008053984F0E94CC01882371F481E08093C8
:101B70004E0380915E038F5F80935E0360915E03EE
:101B800082E090E00E94AD1E80915E038D3070F087
:101B900080914B038F5F80934B0381E080935E03C2
:101BA00060914B0381E090E00E94AD1E8091300374
:101BB000882309F0F9C080915D03882311F5809195
:101BC0003103882349F08091600380FF05C081EFD5
:101BD00091E00E94B30308C080914A0360915803CA
:101BE000409160030E947F0380915903882321F074
:101BF00080914F03826003C080914F038D7F80935B
:101C00004F0380915D038C3009F08BC0209140031D
:101C1000309141034091420350914303809161030D
:101C2000833029F080E090E0A0E0B0E008C080912F
:101C300060036FE00E942F1E90E0A0E0B0E0281B40
:101C4000390B4A0B5B0B12161306140615060CF023
:101C500057C020914003309141034091420350917D
:101C6000430380916103833029F080E090E0A0E09D
:101C7000B0E008C0809160036FE00E942F1E90E0EA
:101C8000A0E0B0E0281B390B4A0B5B0BCA01B9017D
:101C90000E949504809160036BE370E0681B7109FA
:101CA0009B01442737FD4095542F25FF05C08091A7
:101CB000520381608093520324FF05C08091530337
:101CC00081608093530323FF05C08091540381609A
:101CD0008093540322FF05C0809155038160809357
:101CE000550321FF05C08091560381608093560300
:101CF00060FF0AC08091570381608093570304C03E
:101D00008DE291E00E94B30380915903882321F072
:101D100080914F03826003C080914F038D7F809339
:101D20004F03809159038823B9F090915A03809111
:101D30004A03981789F490914C038091580398179F
:101D400059F480916003882339F481E080935C0327
:101D5000109239031092380380914403882329F0AC
:101D60008091440381508093440380913F038823F2
:101D700029F080913F03815080933F038091380385
:101D800090913903009781F00197909339038093E4
:101D9000380380FF04C080914F03826003C08091AC
:101DA0004F038D7F80934F03FF91EF91BF91AF91D0
:101DB0009F918F917F916F915F914F913F912F9163
:101DC0000F900FBE0F901F9018956F927F928F9279
:101DD0009F92AF92BF92CF92DF92EF92FF920F93BA
:101DE0001F9385E190E00E949F1E809361038EE027
:101DF00090E00E949F1E682E8FE090E00E949F1E40
:101E0000782E80E190E00E949F1EB82E81E190E044
:101E10000E949F1E982E82E190E00E949F1E082F34
:101E200083E190E00E949F1ED82E84E190E00E9402
:101E30009F1EC82EA090610386E190E00E949F1E25
:101E4000182F89E190E00E94A71E7C0187E190E0B5
:101E50000E94A71EAC01812FB7010E94921A882E02
:101E60008BE190E00E949F1EE82E8CE190E00E94A2
:101E70009F1EF82E8DE190E00E949F1E182F8EE18C
:101E800090E00E949F1E00D000D0EDB7FEB73196C3
:101E90009CE6B90ED90EADB7BEB71196EC92F182A1
:101EA00012838383862D672D4B2D292DED2C0E94C7
:101EB000851B0F900F900F900F901F910F91FF9027
:101EC000EF90DF90CF90BF90AF909F908F907F90DA
:101ED0006F900895DF92EF92FF920F931F9381E12D
:101EE00090E00E949F1E80935F0382E190E00E9439
:101EF0009F1E8093490383E190E00E949F1E809380
:101F00005B030E94E50E7B018C01DD24D39450C05D
:101F1000809149038F5F8093490380914903803208
:101F200068F5809149038F3181F480915F0384309B
:101F300029F180915F03863009F180915F03893038
:101F4000E9F080915F038B30C9F0809149038E31B5
:101F500021F480915F03823089F0809149038D31B3
:101F6000A1F480915F03823081F480915B0390E063
:101F70008459984F0E94CC01882339F4D0924903A8
:101F800080915F038F5F80935F0380915F038D304B
:101F900038F0D0925F0380915B038F5F80935B0387
:101FA00080E69AEFAFEFBFEFE80EF91E0A1F1B1F86
:101FB00090EAE91695E0F90690E0090790E0190724
:101FC00008F0A6CF1F910F91FF90EF90DF9008953A
:101FD000FF920F931F93CF93DF93882311F481E037
:101FE00003C0823021F480E00E946A0264C1813023
:101FF00009F061C1F0904E0300915E0310914B0314
:102000000E946A0F80912F038C3061F48091490304
:1020100080934E0380915F0380935E0380915B0306
:1020200080934B0380915E03C82FD0E080912F03F3
:102030008C3039F480914B03E82FF0E0E459F84FED
:1020400006C080914B03E82FF0E0E053F84F8091F9
:102050005E03833010F42C96319720914E0310923A
:1020600056031092570330E02F5F3F4F2E0F3F1F54
:10207000CE01880F991F280F391FCF01969587959C
:1020800096958795280F391FCF0160E971E00E946E
:102090003B1E260F371FCF0164E670E00E943B1EF7
:1020A000261B370BAE014F5F5F4FCA01880F991F88
:1020B000840F951F880F991F6AE070E00E943B1EF5
:1020C000C901860F971F67E070E00E943B1E8330B6
:1020D000B9F0843028F4813069F0823070F407C0A0
:1020E0008530A1F0853078F08630B9F412C08AEFDF
:1020F00091E011C081E092E00EC088E092E00BC058
:1021000080E192E008C089E192E005C082E292E0BD
:1021100002C089E292E00E94B303789410923B03DC
:1021200010923A0380913A0390913B03885E93406A
:10213000C8F31092530310925403109255038091E8
:102140005E03863079F1873070F4833011F184308A
:1021500028F48130C1F08230D9F518C08430E1F024
:102160008530B1F51CC0893031F18A3028F48730D0
:10217000E1F0883069F51CC08B3019F18B30F0F03C
:102180008C3031F521C082E392E020C086E392E0FA
:102190001DC08AE392E01AC080E492E017C086E492
:1021A00092E014C08AE492E011C08FE492E00EC085
:1021B00084E592E00BC08AE592E008C08FE592E0EA
:1021C00005C085E692E002C08BE692E00E94B30370
:1021D00080914E036AE00E942F1EE82FF0E0EC573A
:1021E000FF4FE491E093560380914E030E942F1E0F
:1021F000E92FF0E0EC57FF4FE491E0935703809113
:102200002F038C3009F057C0789410923B03109242
:102210003A0380913A0390913B03885E9340C8F360
:1022200010925303109252031092510310925003D4
:1022300080914B0364E60E942F1E90E043966AE073
:1022400070E00E944F1EFB01EC57FF4FE491E093BA
:10225000540380914B0364E60E942F1E90E0439646
:102260006AE070E00E944F1EFC01EC57FF4FE491C2
:10227000E093550380914B0364E60E942F1E892F43
:102280006AE00E942F1EE82FF0E0EC57FF4FE49128
:10229000E093560380914B030E942F1EE92FF0E03C
:1022A000EC57FF4FE491E0935703F0924E030093F5
:1022B0005E0310934B03DF91CF911F910F91FF901D
:1022C0000895FF920F931F938AE08093440310E0D8
:1022D0000AE0FF24F39480913D03882321F4809148
:1022E0003E03882319F00093440305C08091440302
:1022F000882309F46DC080913D0380FD05C1809164
:102300003D0381FF6AC010923D031123A9F480911F
:102310002E03882311F012E001C011E080E00E943A
:10232000E80F8091500381608093500380915103A6
:1023300081608093510351C0113029F480912E03A4
:10234000882339F020C01230E1F480912E038130CF
:10235000A9F480912E03882311F011E001C012E04E
:1023600080E00E94E80F80915303816080935303C3
:10237000809154038160809354032FC0882339F0E7
:1023800015C0113099F480912E03813079F480E0EA
:102390000E94E80F809156038160809356038091DC
:1023A000570381608093570313E017C083E680933F
:1023B0005D0380E00E94E80F789410923B03109236
:1023C0003A0380913A0390913B038C5D9540C8F3AA
:1023D00080912F0380935D0397C080913D0382FD20
:1023E00004C080913E0382FF76CF10923D031130EE
:1023F00061F580915E038F5F80935E0380915E0341
:102400008D3010F010935E0380E00E94E80F809101
:102410002E03882359F480915003816080935003E8
:10242000809151038160809351030AC080915303CE
:10243000816080935303809154038160809354039F
:1024400060915E0382E090E04DC0123061F58091B2
:102450004E038F5F80934E0380914E03803210F0C5
:10246000F0924E0380E00E94E80F80912E038130AD
:1024700059F48091500381608093500380915103FF
:102480008160809351030AC08091530381608093DF
:1024900053038091540381608093540360914E03F1
:1024A00083E090E01FC01330F9F480914B038F5FFD
:1024B00080934B0380914B0364E60E942F1E909300
:1024C0004B0380E00E94E80F809156038160809367
:1024D00056038091570381608093570360914B03AB
:1024E00081E090E00E94AD1E80913E0382FFF3CE1A
:1024F000789410923B0310923A0380913A039091A2
:102500003B03CC97D0F3E7CE1F910F91FF90089536
:102510001F920F920FB60F9211242F933F934F9358
:102520005F936F937F938F939F93AF93BF93EF933B
:10253000FF9389E60E94291829B178947894109223
:102540003B0310923A0380913A0390913B030A9720
:10255000D0F389B1247030E090E084709070281737
:10256000390711F40E946D05FF91EF91BF91AF9172
:102570009F918F917F916F915F914F913F912F919B
:102580000F900FBE0F901F9018956F927F928F92B1
:102590009F92AF92BF92CF92DF92EF92FF920F93F2
:1025A0001F93CF93DF930E94E50E5B016C0181E1E5
:1025B00090E00E949F1EF82E82E190E00E949F1EF4
:1025C000182F83E190E00E949F1E20915E030091EE
:1025D0004E0390914B03482F445990538F2D612FF8
:1025E000E92E0E9475199B01AC0180916103833033
:1025F00031F061E0E62EF12C012D112D05C094E0A3
:10260000E92EF12C012D112D60904A038091610378
:10261000833021F081E0882E912C03C0B4E08B2E12
:10262000912C7090580380916103833019F0C1E0C0
:10263000D0E002C0C4E0D0E0CA01B90120EA35E030
:1026400040E050E00E94101EA80197010E94101E59
:10265000A61AB70AC80AD90A8CE3689EC0011124D9
:102660009C01289DC001299D900D389D900D11243D
:10267000AA2797FDA095BA2FA81AB90ACA0ADB0A99
:10268000872D90E09C01C29FC001C39F900DD29FF7
:10269000900D1124AA2797FDA095BA2FA81AB90A60
:1026A000CA0ADB0AA0924003B0924103C0924203DF
:1026B000D09243030E946A0F80914B0320915B03E9
:1026C00090E08D599F4F30E08217930744F5209199
:1026D0005B0380914B0330E090E08C599F4F2817AB
:1026E000390731F490915F0380915E039817B8F039
:1026F00020915B0380914B0330E090E08C599F4F19
:1027000028173907A1F490915F0380915E03981711
:1027100071F49091490380914E03981740F4109200
:102720004003109241031092420310924303DF9141
:10273000CF911F910F91FF90EF90DF90CF90BF90BE
:10274000AF909F908F907F906F9008953F924F929F
:102750005F926F927F928F929F92AF92BF92CF9231
:10276000DF92EF92FF920F931F93DF93CF93CDB73A
:10277000DEB728970FB6F894DEBF0FBECDBF8AE054
:102780008093440350904E0340905E0330904B037F
:1027900084E190E00E949F1E682E85E190E00E94F7
:1027A0009F1E782E8FE090E00E949F1E80934E0324
:1027B0008EE090E00E949F1E80935E0380E190E097
:1027C0000E949F1E80934B0386E190E00E949F1E13
:1027D000E82E8BE190E00E949F1EA82E87E190E0FA
:1027E0000E94A71E6C0189E190E00E94A71E4C0187
:1027F00000E04AE0B42EFF24F39480913D03882347
:1028000021F480913E03882319F0B092440309C05B
:1028100080914403882329F480912F0380935D03E2
:1028200004C080913D0380FF07C050924E03409248
:102830005E0330924B03C3C280913D0381FF55C1BB
:1028400010923D030023A9F480912E03882311F0F8
:1028500002E001C001E082E00E94E80F8091500395
:102860008160809350038091510381608093510374
:102870003CC1013029F480912E03882339F020C017
:102880000230E1F480912E038130A9F480912E036F
:10289000882311F001E001C002E082E00E94E80F0D
:1028A0008091520381608093520380915303816031
:1028B000809353031AC1882341F079C00130F1F4A9
:1028C00080912E03813009F072C082E00E94E80FEF
:1028D00080915403816080935403809155038160FB
:1028E00080935503809156038160809356038091B5
:1028F000570381608093570303E0F7C0033059F416
:10290000662019F081E792E002C08AE792E00E9417
:10291000B30304E0EAC00430B9F4772019F483E883
:1029200092E00EC021E0721619F48CE892E008C023
:1029300082E0781619F485E992E002C08EE992E00F
:102940000E94B30305E0D1C0053089F4EE2019F4EC
:1029500087EA92E008C091E0E91619F480EB92E072
:1029600002C089EB92E00E94B30306E0BEC00630CD
:1029700031F48E2DB6010E945A0407E0B6C007302C
:1029800049F4A2E0EA1641F08E2DB4010E94EB0357
:1029900008E0ABC0083059F4AA2031F082EC92E094
:1029A0000E94B30309E0A1C08BEC92E0F9CFDE01F5
:1029B0001196E4E1F3E088E001900D928150E1F797
:1029C00020914B03E72DF0E0EE0FFF1FE60DF11D08
:1029D000EC0FFD1F4181832D90E08C599F4F821B8E
:1029E0009109242F30E02817390724F024E6B22E6D
:1029F000B30C03C0B0904B03B40E83E680935D0329
:102A000000915E03F0904E0310914B038E2DB401A4
:102A1000A6010E94921A882E80914A039091580331
:102A20002091600300D000D0EDB7FEB73196145965
:102A30003B2D3459ADB7BEB71196AC9281839283CA
:102A40002383802F6F2D412F242D052DE32EC62C9F
:102A5000A72C0E94851B709261030F900F900F901E
:102A60000F9082E190E0652D0E94AD1E81E190E023
:102A7000642D0E94AD1E83E190E06B2D0E94AD1E7F
:102A8000609158038DE190E00E94AD1E60914A0371
:102A90008CE190E00E94AD1E609160038EE190E0B9
:102AA0000E94AD1E50924E0340925E0330924B0343
:102AB0000E94C512609140037091410380914203CE
:102AC000909143030E949504789410923B031092D6
:102AD0003A0380913A0390913B038C5D9540C8F393
:102AE00080912F0380935D036AC180913D0382FD35
:102AF00004C080913E0382FF80CE10923D030130DE
:102B000061F580915E038F5F80935E0380915E0329
:102B10008D3010F000935E0382E00E94E80F8091F8
:102B20002E03882359F480915003816080935003D1
:102B3000809151038160809351030AC080915203B8
:102B4000816080935203809153038160809353038B
:102B500060915E038EE090E020C1023061F58091CB
:102B60004E038F5F80934E0380914E03803210F0AE
:102B7000F0924E0382E00E94E80F80912E03813094
:102B800059F48091500381608093500380915103E8
:102B90008160809351030AC08091520381608093C9
:102BA00052038091530381608093530360914E03DD
:102BB0008FE090E0F2C0033041F580914B038F5FCE
:102BC00080934B0380914B0368EC0E942F1E9093DF
:102BD0004B0382E00E94E80F809154038160809350
:102BE000540380915503816080935503809156036F
:102BF00081608093560380915703816080935703CF
:102C000060914B0380E190E0C8C0043089F410E08B
:102C1000662009F411E0612E112319F081E792E09A
:102C200002C08AE792E00E94B30384E190E0B4C05E
:102C30000530D9F4739423E0722219F483E892E00A
:102C40000EC081E0781619F48CE892E008C092E09A
:102C5000791619F485E992E002C08EE992E00E94AB
:102C6000B30385E190E0672D98C0063059F58E2DAD
:102C70008F5F63E00E942F1EE92E992359F487EAA3
:102C800092E00E94B30393E2C92ED12C84E2882EF5
:102C9000912C14C0A1E09A1759F480EB92E00E94A5
:102CA000B3031FE0C12ED12CBCE58B2E912C06C0A6
:102CB00089EB92E00E94B303CC24DD2486E190E00E
:102CC0006E2D6BC0073079F5EE2069F485E090E059
:102CD000C80ED91E95E9C91692E0D906D0F0A3E234
:102CE000CA2ED12C16C0A1E0EA1669F483E090E068
:102CF000C80ED91E9DE2C91691E0D90650F0FFE03A
:102D0000CF2ED12C06C00894C11CD11CAFEFCA2213
:102D1000DD2487E190E0B6010E94BB1E8E2DB60136
:102D20000E945A043CC0083029F5EE2059F408945A
:102D3000811C911CB9E78B16910490F0E4E28E2E71
:102D4000912C0EC021E0E21659F40894811C911CCC
:102D500082E3881681E0980618F07CE5872E912C96
:102D600089E190E0B4010E94BB1E8E2DB4010E9447
:102D7000EB0315C0093099F410E0AA2009F411E022
:102D8000A12E112319F082EC92E002C08BEC92E0AC
:102D90000E94B3038BE190E0612F0E94AD1E8091F1
:102DA0003E0382FF2ACD789410923B0310923A039F
:102DB00080913A0390913B03CC97D0F31ECD289697
:102DC0000FB6F894DEBF0FBECDBFCF91DF911F913C
:102DD0000F91FF90EF90DF90CF90BF90AF909F90BA
:102DE0008F907F906F905F904F903F9008959F924B
:102DF000AF92BF92CF92DF92EF92FF920F931F9309
:102E000015BC569A5E9884B714BE90E00E9495183F
:102E100088E10FB6F89480936000109260000FBEB6
:102E20002FE088E190E00FB6F894A89580936000B9
:102E30000FBE20936000A89511E01093310310920B
:102E400032038AE190E00E941C1888E480BF80ED84
:102E500097E00197F1F700B605FE06C080B78061E4
:102E600080BF0E94890822C00E94B9015B9810931C
:102E700069001DBB10925D0381E58CBD89E090E087
:102E80000E949F1E0E94540278948BE090E00E9462
:102E90009F1E80932E030E94580880EA9FE061E005
:102EA0000E940D020E9489080E946D05BCE09B2EC5
:102EB000A3E6AA2EF6E0BF2EE4E0CE2E78E0D72ED1
:102EC00067E0E62E5BE0F52E05E013E0A89500B67E
:102ED00005FE03C00E948D01F9CF80913D0380FF64
:102EE00059C010923D0380915D03853079F18630A1
:102EF00038F4833011F18430A8F4882351F068C08D
:102F00008730B1F1873058F18830D9F18C3009F031
:102F10005FC0C0925D0384ED92E00E94B3030E9403
:102F2000DF0BD4CF10935D038EED92E00E94B303CC
:102F30000E94EB0A10923103C9CF00935D0387EE24
:102F400092E00E94B3030E946111C0CFB0925D0372
:102F500080EF92E00E94B3030E94080AB7CFE0928C
:102F60005D0389EF92E00E94B3030E947709AECF20
:102F7000D0925D0382E093E00E94B3030E9418099F
:102F8000A5CFF0925D038BE093E00E94B3030E9413
:102F9000A6139CCF80913D0381FF1FC010923D037B
:102FA0000E94BE05882309F091CFA0925D0381E0C5
:102FB0000E94E80FA895789410923B0310923A0370
:102FC00080913A0390913B038C5D9540C8F3A8959E
:102FD00080912F0380935D0379CF80913D0382FF21
:102FE00075CF10923D0380912F03882319F490929E
:102FF0002F0302C010922F0380912F0380935D0353
:103000000E94C51263CF06C090E000009F5F9E3112
:10301000E1F781508823C1F7089548EC50E009C0DA
:1030200020E137E2FA013197F1F721503040D1F732
:1030300081508823A9F708959093C5008093C40018
:1030400088E18093C1008EE08093C200519A50982D
:103050000895982F8091C00085FFFCCF9093C60003
:1030600080E090E008958091C00087FFFCCF8091C0
:10307000C60008958091C00080780895AC0120E0DA
:1030800007C08091C00085FFFCCF3093C6002F5F42
:10309000FA01E20FF11D3491332399F7662371F0A1
:1030A0008091C00085FFFCCF8AE08093C6008091AC
:1030B000C00085FFFCCF8DE08093C6000895FC0121
:1030C00007C08091C00085FFFCCF31969093C60069
:1030D00090819923B1F70895282F982F92959F708A
:1030E0009A3030F48091C00085FFFCCF905D05C020
:1030F0008091C00085FFFCCF995A9093C600822F23
:1031000090E08F7090700A973CF48091C00085FF2A
:10311000FCCF2F70205D06C08091C00085FFFCCFE2
:103120002F70295A2093C60008951F93182F892FB6
:103130000E946C18812F0E946C181F910895EF92C5
:10314000FF920F931F937B018C01C801AA27BB2715
:103150000E949518C7010E9495181F910F91FF902A
:10316000EF9008950F931F93CF93DF938C01E0E1CD
:10317000F7E240E0C0E0D0E0C801BF010E943B1E82
:10318000262F662329F4442319F4E130F10549F48C
:103190008091C00085FFFCCF205D2093C6002053A6
:1031A00041E0CF016AE070E00E943B1E2196C530ED
:1031B000D10571F0822F90E09C012E9FC0012F9FBE
:1031C000900D3E9F900D1124081B190BFB01D4CFCD
:1031D000DF91CF911F910F9108954F925F926F925F
:1031E0007F928F929F92AF92BF92CF92DF92EF9297
:1031F000FF920F931F93CF93DF934B015C01E12C60
:103200009AECF92E9AE9092F9BE3192F4424C0E088
:10321000D0E0C501B401A80197010E94621ED22E20
:10322000222341F4442031F481E0E816F104010541
:10323000110561F48091C00085FFFCCF80E3D80EBA
:10324000D092C60080EDD80E44244394C801B70143
:103250002AE030E040E050E00E94621EC22E732E51
:10326000642E552E2196CA30D105A9F06D2D70E03F
:1032700080E090E0A80197010E94101E861A970A2C
:10328000A80AB90A2C2D372D462D552DC901DA0172
:103290007C018D01BECFDF91CF911F910F91FF90E7
:1032A000EF90DF90CF90BF90AF909F908F907F90E6
:1032B0006F905F904F9008959C0160E971E00E94CB
:1032C0003B1E892B11F481E00895C90164E670E08A
:1032D0000E943B1E892B11F480E0089580E023704A
:1032E0003070232B09F481E008954F925F926F9222
:1032F0007F928F929F92AF92BF92CF92DF92EF9286
:10330000FF920F931F93CF93DF93382F562F942E56
:10331000522E402E8E2CE41620F0E41691F428173D
:1033200080F4852D642D482D232F052FE92C0E9434
:10333000751922273327A901261B370B480B590B78
:10334000DEC0351569F4981409F053C0842D90E05F
:10335000851B91099C01442737FD4095542FCFC010
:10336000981409F046C0C32FD0E0FE01E255FD4F8E
:10337000E4918E2F90E0851B91097C010027F7FCDA
:103380000095102F323041F4892D90E00E945C1995
:10339000E80EF11C011D111D9FEAA92E92E0B92E25
:1033A000AC0EBD1ECC24DD243E010894611C711CB2
:1033B000C52DD0E017C0F5018491E80EF11C011D68
:1033C000111D2230310541F4892D90E00E945C19D5
:1033D000E80EF11C011D111D0894C11CD11C08949C
:1033E000A11CB11C93012C0D3D1D2C173D071CF396
:1033F00080C0C32FD0E0FE01E255FD4FE4918E2F37
:1034000090E0851B91097C010027F7FC0095102FA7
:10341000323041F4892D90E00E945C19E80EF11CD5
:10342000011D111D8FEAA82E82E0B82EAC0EBD1E24
:10343000CC24DD24219617C0F5018491E80EF11CFF
:10344000011D111D2230310541F4892D90E00E94AB
:103450005C19E80EF11C011D111D0894C11CD11C42
:103460000894A11CB11C9E012C0D3D1D2D30310571
:103470001CF3892D90E06C010894C11CD11CC0E0A4
:10348000D0E03C01A82CBB2411C0C6010E945C19ED
:1034900090E083599E4FAA2797FDA095BA2FE80E7A
:1034A000F91E0A1F1B1F0894C11CD11C2196CE01B6
:1034B000860D971D8A159B0544F3C1E0D0E0C52C0D
:1034C000DD2414C0FE01E255FD4FE491EE0EF11C27
:1034D000011D111DC230D10541F4882D90E00E94DC
:1034E0005C19E80EF11C011D111D2196CC15DD059E
:1034F0004CF3A8019701240D311D411D511DB90147
:10350000CA01DF91CF911F910F91FF90EF90DF9053
:10351000CF90BF90AF909F908F907F906F905F9073
:103520004F900895EF92FF920F931F937B01882392
:1035300041F4BA0180E090E02FEB32E040E050E04F
:1035400009C0813011F5BA0180E090E020E137E256
:1035500040E050E00E94101E00E010E0A80197013A
:103560000E94621ECA01B901A80197010E94621E51
:10357000C901DA018F3F9105A105B10539F030F09D
:103580008FEF90E0A0E0B0E001C0842F1F910F9179
:10359000FF90EF9008952F923F924F925F926F921B
:1035A0007F928F929F92AF92BF92CF92DF92EF92D3
:1035B000FF920F931F93CF93DF93EC012880398004
:1035C0004A805B806C807D808E809F80AA24BB2493
:1035D0006501F501E370F070EE0FFF1FEE0FFF1FA6
:1035E000E45EFC4FE080F18002811381EA0CFB1C59
:1035F0000C1D1D1DD401C30175E0B695A7959795C7
:1036000087957A95D1F7A401930164E0220F331FC7
:10361000441F551F6A95D1F782279327A427B52702
:10362000860D971DA81DB91DE826F9260A271B2718
:103630002E0C3F1C401E511E89EB99E7A7E3BEE903
:10364000A80EB91ECA1EDB1EA2019101F5E0569517
:10365000479537952795FA95D1F7D201C101E4E056
:10366000880F991FAA1FBB1FEA95D1F72827392772
:103670004A275B27220D331D441D551DD601C50168
:103680007BE0B695A795979587957A95D1F7837046
:103690009070880F991F880F991F845E9C4FFC01C2
:1036A00080819181A281B3818A0D9B1DAC1DBD1DBE
:1036B000282739274A275B27620E731E841E951E12
:1036C000F0E2AF16F7E3BF06FFEECF06F6ECDF063B
:1036D00009F07FCF288239824A825B826C827D82A8
:1036E0008E829F82DF91CF911F910F91FF90EF907B
:1036F000DF90CF90BF90AF909F908F907F906F9012
:103700005F904F903F902F9008958F92AF92BF920D
:10371000CF92DF92EF92FF920F931F93DF93CF939D
:10372000CDB7DEB728970FB6F894DEBF0FBECDBF7A
:10373000E82FF42F722FBC2C8A2D8150823008F094
:1037400040C030E040E050E03961802F90E0A0E0E0
:10375000B0E0B82FAA2799278827282B392B4A2B86
:103760005B2B8E2D90E0A0E0B0E0DC01992788274C
:10377000282B392B4A2B5B2B29833A834B835C8381
:103780002F8930E040E050E0542F432F322F222782
:10379000888D90E0A0E0B0E0282B392B4A2B5B2BE2
:1037A000426B898D90E0A0E0B0E0B82FAA2799275E
:1037B0008827282B392B4A2B5B2B2D833E834F8365
:1037C00058878E2F4F2F272F0E9475192AE030E03F
:1037D00040E050E00E94101E7B018C0125E43EE099
:1037E00040E050E00E94621E6901BB2029F026E300
:1037F0003BE644E050E004C02AE83CE144E050E00D
:10380000BA01A9014E195F09600B710B882D90E078
:103810008E3291051CF08DE290E005C08831910553
:1038200014F488E190E08C010851104083E0A81660
:1038300009F0A5C0BB2009F04BC0475E5F40624065
:1038400070409E89913051F5A7E9B2E020E030E068
:10385000FD0185919491C816D906D0F4F901EE0FB7
:10386000FF1FEE0FFF1FE756FD4F25913491C90151
:10387000E3E0880F991FEA95E1F7220F331F820FCB
:10388000931FA0E0B0E0481B590B6A0B7B0B06C0EE
:103890002F5F3F4F149623303105D1F6E0EDF1E074
:1038A000849190E0C816D9061CF480E090E009C02D
:1038B0007796849190E0C816D9060CF08CC187E108
:1038C00090E0080F191F0F521E4FF80184913FC05E
:1038D000445B5A4362407040A3EAB2E020E030E02B
:1038E000FD0185919491C816D906D0F4F901EE0F27
:1038F000FF1FEE0FFF1FEB55FD4F25913491C901BE
:10390000E3E0880F991FEA95E1F7220F331F820F3A
:10391000931FA0E0B0E0481B590B6A0B7B0B06C05D
:103920002F5F3F4F149623303105D1F620E030E071
:10393000F901E250FE4FE4918E2F90E0C816D906AF
:10394000C4F4020F131F01501E4FF801849190E040
:1039500025E43EE0DC01A29FC001A39F900DB29F31
:10396000900D1124A0E0B0E0481B590B6A0B7B0BB3
:1039700032C1295E3F4F25343105D1F62CC1BB2021
:1039800009F045C0BE89B13051F5A3E4B2E020E0B2
:1039900030E0FD0185919491C816D906D0F4F90163
:1039A000EE0FFF1FEE0FFF1FEB5BFD4F25913491D4
:1039B000C901E3E0880F991FEA95E1F7220F331F51
:1039C000820F931FA0E0B0E0481B590B6A0B7B0BE2
:1039D00006C02F5F3F4F14962B303105D1F620E003
:1039E00030E0F901EB55FF4FE4918E2F90E0C816BF
:1039F000D9063CF4020F131F0A551F4FF80184919A
:103A000044C0295E3F4F2A38310559F755C0BE8959
:103A1000B13051F5AFE6B2E020E030E0FD01859134
:103A20009491C816D906D0F4F901EE0FFF1FEE0FDE
:103A3000FF1FEF58FD4F25913491C901F3E0880F26
:103A4000991FFA95E1F7220F331F820F931FA0E011
:103A5000B0E0481B590B6A0B7B0B06C02F5F3F4F32
:103A600014962A303105D1F620E030E0F901E15D0D
:103A7000FE4FE4918E2F90E0C816D906C4F4020FD1
:103A8000131F005D1E4FF801849190E025E43EE095
:103A9000DC01A29FC001A39F900DB29F900D112445
:103AA000A0E0B0E0481B590B6A0B7B0B05C0295EF8
:103AB0003F4F213A3105D1F6B2E0AB1609F042C0D2
:103AC0008DEAE82E8EE8F82E012D112DE40EF51E5C
:103AD000061F171F89819A81AB81BC818E259F2586
:103AE000A027B12789839A83AB83BC83CE0101963B
:103AF0000E94CB1A69817A818B819C817F7780704B
:103B0000907028EE33E040E050E00E94101E2FEF4E
:103B10003FE740E050E00E94621ECA01B90126E082
:103B200036ED40E050E00E94101E28EE33E040E009
:103B300050E00E94621EBA01A9014E0D5F1D601F78
:103B4000711F49C0E1E0AE1609F045C0BCEFEB2E95
:103B5000B9E2FB2EBFEF0B2FBFEF1B2FE40EF51EBC
:103B6000061F171F8D819E81AF81B8858E259F25E9
:103B7000A027B1278D839E83AF83B887CE0101969E
:103B80000E94CB1A6D817E818F8198857F778070AE
:103B9000907028EE33E040E050E00E94101E2FEFBE
:103BA0003FE740E050E00E94621ECA01B90122EBEB
:103BB0003EE840E050E00E94101E28EE33E040E076
:103BC00050E00E94621ED801C701821B930BA40B18
:103BD000B50BAC01BD0177FF05C020E030E040E04F
:103BE00050E00AC0CB01BA0120E930E040E050E0EB
:103BF0000E94101E9B01AC01B901CA0128960FB6A4
:103C0000F894DEBF0FBECDBFCF91DF911F910F9112
:103C1000FF90EF90DF90CF90BF90AF908F9008957E
:103C2000629FD001739FF001829FE00DF11D649FA0
:103C3000E00DF11D929FF00D839FF00D749FF00D2C
:103C4000659FF00D9927729FB00DE11DF91F639FCD
:103C5000B00DE11DF91FBD01CF0111240895991B7D
:103C600079E004C0991F961708F0961B881F7A9573
:103C7000C9F780950895AA1BBB1B51E107C0AA1F75
:103C8000BB1FA617B70710F0A61BB70B881F991FFD
:103C90005A95A9F780959095BC01CD01089597FBA1
:103CA000092E07260AD077FD04D0E5DF06D00020D4
:103CB0001AF4709561957F4F0895F6F79095819568
:103CC0009F4F0895A1E21A2EAA1BBB1BFD010DC038
:103CD000AA1FBB1FEE1FFF1FA217B307E407F507BC
:103CE00020F0A21BB30BE40BF50B661F771F881F98
:103CF000991F1A9469F760957095809590959B012E
:103D0000AC01BD01CF01089597FB092E05260ED009
:103D100057FD04D0D7DF0AD0001C38F450954095E9
:103D2000309521953F4F4F4F5F4F0895F6F790958F
:103D30008095709561957F4F8F4F9F4F0895F999AA
:103D4000FECF92BD81BDF89A992780B50895A8E16C
:103D5000B0E042E050E00C94C21E262FF999FECF4D
:103D60001FBA92BD81BD20BD0FB6F894FA9AF99A98
:103D70000FBE019608950E94AD1E272F0C94AE1E13
:103D8000DC01CB01FC01F999FECF06C0F2BDE1BD1B
:103D9000F89A319600B40D9241505040B8F708950A
:043DA000F894FFCFC5
:103DA40020202066742020200020202020636D2005
:103DB4002000202020206C62732000202020206B13
:103DC4006720200020202020626D69200074696D26
:103DD400657320757000616C61726D206F6E0020D8
:103DE40020202020202020646561746820636C6F8B
:103DF400636B206669726D77617265206D6F6420F4
:103E04006279206361697473697468322E2020209A
:103E1400202020202020206963657475626520625B
:103E24007920616461667275697420696E64757362
:103E340074726965732E20202020202020202020E9
:103E44007777772E61646166727569742E636F6D1E
:103E540020202020202020202020202000736E6F8E
:103E64006F7A696E67007573612D3132687200650F
:103E740075722D3234687200766F6C2068696768D9
:103E840000766F6C20206C6F770062726974652015
:103E94000020202020202020200073756E6461798A
:103EA400006D6F6E64617900747565736461790087
:103EB4007765646E736461790074687572736461A4
:103EC4007900667269646179007361747572646102
:103ED40079006A616E00666562006D6172636800F4
:103EE400617072696C006D6179006A756E65006A53
:103EF400756C790061756773740073657074006F15
:103F040063746F62006E6F76656D00646563656DE2
:103F14000066656D616C652020006D616C65202014
:103F24002020006E6F726D616C20200070657373C9
:103F3400696D7374006F7074696D69737400736173
:103F440064697374696300696D70657269616C009A
:103F54006D657472696320200064697265637420FE
:103F64002000736D6F6B65722020006E6F6E20737E
:103F74006D6B720073657420616C61726D007365A2
:103F8400742074696D6500736574206461746500E0
:103F940073657420627269740073657420766F6C43
:103FA4002000736574207265676E006465617468CF
:103FB400636C6B00484E393F52582326C46C28A8C2
:0C3FC400CA916B709E639393D9E791FE45
:00000001FF
