:100000000C94BA010C941E140C94D7010C941F0983
:100010000C94D7010C9478090C94D7010C94D70157
:100020000C94D7010C940E150C94D7010C94D701A5
:100030000C94D7010C94D7010C94D7010C94D701E0
:100040000C9444070C94D7010C94D7010C94D7015D
:100050000C94D7010C94D7010C94D7010C94C50EC5
:100060000C94D7010C94D701FA3E1A7ADE8EF62E44
:100070006078AE1CAA2A3ACEF30AB61E3838B86E9B
:1000800076DA6800FC60DAF266B6BEE0FEE684006E
:1000900003070809060A050C0490000B10120F0D47
:1000A0000E11139B00616C61726D206F66660053C8
:1000B000657420646179005365742064617900641B
:1000C0006F6E6500616C61726D20696E69740063AA
:1000D0006C6F636B20696E697400737065616B652A
:1000E0007220696E697400626F6F737420696E6943
:1000F000740076666420696E6974007475726E6946
:100100006E67206F6E20616C61726D73770074751D
:10011000726E696E67206F6E20627574746F6E7395
:1001200000636C6F636B20696E69740021007761F6
:100130006B6574696D650057414B45524553455495
:10014000007A00616C61726D206F6E210062320076
:10015000623300623100736E6F6F7A6500140000C5
:10016000000000000000000000000000000000008F
:10017000000000002800000000010101010202024D
:10018000030303040404050506060832000000000A
:100190000001010101020202020303040404050537
:1001A00005073C00000000000001010101020202FD
:1001B00003030304040405050646000000000101D2
:1001C000010101020202020303030404040400000B
:1001D00050000000000000000000000000000000CF
:1001E00000000000000005140000000000000000F6
:1001F00000000000000000000000000000001E00E1
:1002000000000101010102020303030404050506C5
:10021000060707080D280000000101010102020283
:1002200003030304040505060606070B320000005D
:100230000000010101020202030303040404050596
:1002400006060A3C00000000000000010101010256
:100250000202030303040404050746000000000033
:100260000000000101010102020202020303030374
:100270000550000000000000000000000000010127
:100280000101010101010202140000000000000050
:100290000000000000000000000000000000002836
:1002A0000000000000000000010101010101020244
:1002B000020202030304140000000000000000001A
:1002C000000000000000000000000000001E000010
:1002D000000000000001010101010202020203030B
:1002E00003030406280000000000000001010101D2
:1002F0000101020202020303030305190000001EAC
:1003000000B30A23008F0A2800FD092D00D8093206
:10031000006A093700D9083C00FE074100FE064686
:100320000047065000B504190000001E003F092DCB
:10033000001B093200F6083700D1083C0090084144
:1003400000F606460022074B0065055000480419D8
:100350000000001E00FE042800DA04190000001E40
:1003600000900528006C051F1C1F1E1F1E1F1F1E4E
:100370001F1E1F0011241FBECFEFD4E0DEBFCDBF74
:1003800012E0A0E0B1E0ECE1F9E302C005900D92CB
:10039000AE38B107D9F712E0AEE8B2E001C01D9265
:1003A000AF3BB107E1F70E94F0120C948C1C0C9447
:1003B00000009C01789410929C0210929B02809104
:1003C0009B0290919C0282179307C8F30895A89509
:1003D000089581E0809391025B9A8CB58F7B8CBDF0
:1003E00085B1877D85B95E9815BC1092AD021092DB
:1003F000680085B1897F85B98BB18F7C8BB92898CE
:100400008AB18F7C8AB920985A985298E1E6F0E038
:1004100090E8908388E08083449A83B7876083BFA5
:10042000889590831082449808958EE284B988E478
:100430008AB989E187B984E38BB991E095B985E000
:100440008093680090936B0080E380936D00089523
:10045000FC0183709070892B39F4CF0164E670E061
:100460000E94F71B892B49F420E030E0CF0160E9BE
:1004700071E00E94F71B892B11F421E030E0822FFC
:1004800008951092800010928100299A2A987894F9
:1004900010929C0210929B0280919B0290919C0270
:1004A0000A97D0F32A9A2998789410929C02109275
:1004B0009B0280919B0290919C020A97D0F385B198
:1004C000897F85B982EB8093800088E180938100E9
:1004D00008951F93162F9C0140E050E060E472E401
:1004E0008FE090E00E94401C3093870020938600AC
:1004F00080918600909187009695879590938B00C8
:1005000080938A0080918A0090918B00909389005B
:100510008093880028EC30E01CC0809181008260CC
:100520008093810080ED97E0F9013197F1F7019711
:10053000D9F7809181008D7F8093810085B1897F7B
:1005400085B980ED97E0F9013197F1F70197D9F777
:100550001150112311F785B1897F85B91F91089535
:100560008B3590F58E3110F08E3111F48EE12DC067
:10057000843210F483E229C0893210F488E225C065
:100580008E3210F48DE221C0833310F482E31DC05B
:10059000883310F487E319C08D3310F48CE315C051
:1005A000823410F481E411C0873410F486E40DC065
:1005B0008C3410F48BE409C0813510F480E505C05B
:1005C000863510F485E501C08AE587BD83E084BDEA
:1005D00081E085BD84B5806884BD80916E008160B6
:1005E00080936E00789408951F93182F262F842FE0
:1005F0006AE00E94EB1BE92FF0E0EC57FF4FE4911B
:10060000E093B702842F0E94EB1BE82FF0E0EC5739
:10061000FF4FE491E093B6021092B502822F0E9440
:10062000EB1BE92FF0E0EC57FF4FE491E093B402AD
:10063000822F0E94EB1BE82FF0E0EC57FF4FE49174
:10064000E093B3021092B20280919002882361F588
:10065000812F90E00B966CE070E00E940B1C9C01D7
:100660002F5F3F4FC9016AE070E00E940B1CFC0144
:10067000EC57FF4FE491E093B102C9016AE070E0EA
:100680000E940B1CFB01EC57FF4FE491E093B0027A
:100690001C3020F08091AF02816003C08091AF02D6
:1006A0008E7F8093AF021AC0812F68E10E94EB1BFE
:1006B000292F892F6AE00E94EB1BE92FF0E0EC570D
:1006C000FF4FE491E093B102822F0E94EB1BE82FD1
:1006D000F0E0EC57FF4FE491E093B0021F910895D2
:1006E000382F262F1092B7021092B6021092B50240
:1006F000862F6AE00E94EB1BE92FF0E0EC57FF4FDA
:10070000E491E093B402822F0E94EB1BE82FF0E00B
:10071000EC57FF4FE491E093B3021092B202809144
:100720009002882309F03BC03C3058F08091AF0222
:1007300081608093AF02E7E7F0E0E491E093B602D6
:100740000AC0E8E6F0E0E491E093B6028091AF02DF
:100750008E7F8093AF02E4E7F0E0E491E093B7028C
:10076000832F90E00B966CE070E00E940B1C9C01C4
:100770002F5F3F4FC9016AE070E00E940B1CFC0133
:10078000EC57FF4FE491E093B102C9016AE070E0D9
:100790000E940B1CFB01EC57FF4FE4911EC0832FFE
:1007A00090E0479668E170E00E940B1C9C012F5F6F
:1007B0003F4FC9016AE070E00E940B1CFC01EC573E
:1007C000FF4FE491E093B102C9016AE070E00E943A
:1007D0000B1CFB01EC57FF4FE491E093B00208952E
:1007E000CF93DF931092AF02EC01A0EBB2E0E8816F
:1007F000EE23D1F08E2F81568A3128F4F0E0E95FA4
:10080000FF4FE49108C08E2F80538A3030F4F0E01F
:10081000EC5AFF4FE491EC9301C01C922196119683
:1008200082E0A83BB80719F7DF91CF910895CF93E5
:10083000DF93882309F07AC01092AF0282E08093A0
:10084000B2028093B50280919002882361F5809175
:10085000BD026AE00E94EB1BE82FF0E0EC57FF4F6F
:10086000E491E093B0028091BD020E94EB1BE92F5E
:10087000F0E0EC57FF4FE491E093B1028091AE02BB
:100880000E94EB1BE82FF0E0EC57FF4FE491E09360
:10089000B3028091AE020E94EB1BE92FF0E0EC570F
:1008A000FF4FE4912BC08091AE026AE00E94EB1BE7
:1008B000E82FF0E0EC57FF4FE491E093B002809115
:1008C000AE020E94EB1BE92FF0E0EC57FF4FE491E2
:1008D000E093B1028091BD020E94EB1BE82FF0E093
:1008E000EC57FF4FE491E093B3028091BD020E9468
:1008F000EB1BE92FF0E0EC57FF4FE491E093B402DB
:100900008091AB026AE00E94EB1BE82FF0E0EC570D
:10091000FF4FE491E093B6028091AB020E94EB1B83
:10092000E92FF0E0EC57FF4FE49186C1823009F0E7
:10093000A0C01092AF0280919002882361F580914F
:10094000BD026AE00E94EB1BE82FF0E0EC57FF4F7E
:10095000E491E093B0028091BD020E94EB1BE92F6D
:10096000F0E0EC57FF4FE491E093B1028091AE02CA
:100970000E94EB1BE82FF0E0EC57FF4FE491E0936F
:10098000B2028091AE020E94EB1BE92FF0E0EC571F
:10099000FF4FE4912BC08091AE026AE00E94EB1BF6
:1009A000E82FF0E0EC57FF4FE491E093B002809124
:1009B000AE020E94EB1BE92FF0E0EC57FF4FE491F1
:1009C000E093B1028091BD020E94EB1BE82FF0E0A2
:1009D000EC57FF4FE491E093B2028091BD020E9478
:1009E000EB1BE92FF0E0EC57FF4FE491E093B302EB
:1009F0008091AB0264E60E94EB1B90E043966AE0B4
:100A000070E00E940B1CFB01EC57FF4FE491E09358
:100A1000B4028091AB0264E60E94EB1B90E0439627
:100A20006AE070E00E940B1CFC01EC57FF4FE49160
:100A3000E093B5028091AB0264E60E94EB1B892F24
:100A40006AE00E94EB1BE82FF0E0EC57FF4FE491C7
:100A5000E093B6028091AB0264E60E94EB1B892F03
:100A60006AE00E94EB1BE92FF0E0EC57FF4FE491A6
:100A7000E3C0813009F0E2C08091BD02C82FD0E010
:100A80008091AB02E82FF0E0E053F84F8091BD0277
:100A9000833010F42C9631972091AE021092B6025A
:100AA0001092B70230E02F5F3F4F2E0F3F1FCE0155
:100AB000880F991F280F391FCF0196958795969516
:100AC0008795280F391FCF0160E971E00E94F71B5D
:100AD000260F371FCF0164E670E00E94F71B261B2C
:100AE000370BAE014F5F5F4FCA01880F991F840F0C
:100AF000951F880F991F6AE070E00E94F71BC901DB
:100B0000860F971F67E070E00E94F71B8330B9F0F3
:100B1000843028F4813069F0823070F407C0853069
:100B2000A1F0853078F08630B9F412C080E091E011
:100B300011C087E091E00EC08EE091E00BC086E12D
:100B400091E008C08FE191E005C088E291E002C029
:100B50008FE291E00E94F003789410929C02109230
:100B60009B0280919B0290919C02885E9340C8F307
:100B70001092B3021092B4021092B5028091BD029D
:100B8000863079F1873070F4833011F1843028F4A5
:100B90008130C1F08230D9F518C08430E1F0853061
:100BA000B1F51CC0893031F18A3028F48730E1F08A
:100BB000883069F51CC08B3019F18B30F0F08C3027
:100BC00031F521C088E391E020C08CE391E01DC0A5
:100BD00080E491E01AC086E491E017C08CE491E0D3
:100BE00014C080E591E011C085E591E00EC08AE572
:100BF00091E00BC080E691E008C085E691E005C079
:100C00008BE691E002C081E791E00E94F0038091C1
:100C1000AE026AE00E94EB1BE82FF0E0EC57FF4FBA
:100C2000E491E093B6028091AE020E94EB1BE92FA3
:100C3000F0E0EC57FF4FE491E093B702DF91CF91E2
:100C40000895CF93DF93EB011092AF02882309F050
:100C50003BC087E791E00E94F003CE0168E770E0B7
:100C60000E94F71BFB01EC57FF4FE491E093B002A9
:100C7000CE016CE070E00E94F71BCB016AE070E0EF
:100C80000E94F71BFC01EC57FF4FE491E093B10287
:100C9000CE016CE070E00E94F71B9C016AE070E0FE
:100CA0000E94F71BFB01EC57FF4FE491E093B60263
:100CB000C9016AE070E00E94F71BFC01EC57FF4F8E
:100CC000E491E093B70229C080E891E00E94F0032C
:100CD000CE0164E670E00E94F71BFB01EC57FF4F6A
:100CE000E491E093B002CE0164E670E00E94F71B4D
:100CF0006AE070E00E94F71BFB01EC57FF4FE491A4
:100D0000E093B102CE016AE070E00E94F71BFC01A3
:100D1000EC57FF4FE491E093B202DF91CF91089539
:100D2000CF93DF93EB011092AF02882319F489E887
:100D300091E007C0813019F482E991E002C08BE9AB
:100D400091E00E94F003CE0164E670E00E94F71B80
:100D5000FB01EC57FF4FE491E093B002CE0164E653
:100D600070E00E94F71B6AE070E00E94F71BFB0135
:100D7000EC57FF4FE491E093B102CE016AE070E0DE
:100D80000E94F71BFC01EC57FF4FE491E093B20285
:100D9000DF91CF91089581E58CBD08959B01AC0151
:100DA000F894CA01AA27BB278EBD0DB407FEFDCF5C
:100DB000BB27A52F942F832F8EBD0DB407FEFDCF2B
:100DC0002EBD0DB407FEFDCF409A4098789408954B
:100DD000AF92BF92CF92DF92EF92FF920F931F9349
:100DE000E82FF0E0E057FF4FE49181E090E002C08F
:100DF000880F991FEA95E2F77C010027F7FC009520
:100E0000102F2091A6023091A7024091A802509184
:100E1000A902A0E0B0E070E091E0A92EB12CC12CB5
:100E2000D12CCB010A2E02C0959587950A94E2F742
:100E300080FF11C0FD01E556FF4FE491A601950129
:100E400004C0220F331F441F551FEA95D2F7E22A30
:100E5000F32A042B152B1196A830B10511F7209316
:100E6000A6023093A7024093A8025093A902C8019A
:100E7000B7010E94CE061F910F91FF90EF90DF9077
:100E8000CF90BF90AF9008951F920F920FB60F9220
:100E900011242F933F934F935F936F937F938F937F
:100EA0009F93AF93BF93EF93FF937894A89580910E
:100EB00095029091960201969093960280939502E6
:100EC000819708F46CC0109296021092950280915E
:100ED0009B0290919C02019690939C0280939B02AE
:100EE00080919402893010F01092940280919402C3
:100EF000E82FF0E0E155FD4F60810E94E806809107
:100F000094028F5F809394028091BB02882309F43E
:100F100046C08091990290919A02892B09F03FC0B6
:100F200080919702909198020196909398028093F5
:100F300097028536910598F11092980210929702C7
:100F40008AEF90E0909387008093860080918600DE
:100F5000909187009695879590938B0080938A0057
:100F600080918A0090918B009093890080938800F3
:100F70008091BB02807F49F08091BB028F7080938B
:100F8000BB02809181008D7F08C08091BB02806F81
:100F90008093BB0280918100826080938100FF91E9
:100FA000EF91BF91AF919F918F917F916F915F91E1
:100FB0004F913F912F910F900FBE0F901F9018955A
:100FC0008EBD0DB407FEFDCF08958AE090E00E942B
:100FD0005B1C8093AD0285B1866085B982E3809306
:100FE00080008091AD02882329F080918000806884
:100FF0008093800088E1809381008AEF90E0909355
:101000008700809386008091860090918700969556
:1010100087959093890080938800809188009091B3
:10102000890090938B0080938A00089584E090E07B
:101030000E945B1C68E10E94EB1B9093AA0285E072
:1010400090E00E945B1C6CE30E94EB1B9093B80243
:1010500086E090E00E945B1C6CE30E94EB1B909387
:10106000BE0288E090E00E945B1C6CE30E94EB1BD8
:101070009093AC0287E090E00E945B1C68E10E94C4
:10108000EB1B9093BA0281E090E00E945B1C64E647
:101090000E94EB1B9093AB0282E090E00E945B1CED
:1010A0006DE00E94EB1B9093BD0283E090E00E94F4
:1010B0005B1C8F718093AE0291E090939302E6EBFC
:1010C000F0E080818062808385E08093B10090931E
:1010D0007000789408954A9B34C08091B9028823A7
:1010E00009F04CC081E08093B90210929A021092EC
:1010F000990284EA91E00E94F00389E08093BC02A7
:10110000789410929C0210929B0280919B02909185
:101110009C02885E9340C8F38091BA026091AC0251
:101120000E947003789410929C0210929B0280910E
:101130009B0290919C02885E9340C8F31092BC027F
:1011400008958091B9028823C9F01092B9021092D3
:101150009A02109299028091BB02882379F085EA65
:1011600090E061E00E94B2171092BB028091810072
:101170008D7F8093810085B1866085B908958091C7
:1011800091028823D1F180E8809361001092610080
:101190008EE291E061E00E94B2171092910280E429
:1011A0009CE90197F1F700B605FC27C00E941502E3
:1011B00089E090E00E945B1C0E94B00281E58CBD3A
:1011C0005B9843988AE090E00E945B1C8093AD029C
:1011D0000E94E507A8950E946B0880E793E061E014
:1011E0000E94690280EE96E061E00E94690280EC54
:1011F0009DE061E00E946902A895089588E592E06B
:1012000090939A028093990286E591E061E00E94B2
:10121000B2178DEA91E00E94F00389E08093BC024E
:10122000789410929C0210929B0280919B02909164
:101230009C02885E9340C8F31092BC0208951F92EE
:101240000F920FB60F9211242F933F934F935F93FA
:101250006F937F938F939F93AF93BF93EF93FF937E
:1012600010926800789418992AC080919D0281FD9F
:101270002BC0789410929C0210929B0280919B024A
:1012800090919C020A97D0F318991EC00E944102C7
:101290008091BB02882319F00E94FE0815C080913E
:1012A0009D02826080939D0280919E028260809365
:1012B0009E028DE491E061E00E94B21705C080912A
:1012C0009D028D7F80939D0285E080936800FF9151
:1012D000EF91BF91AF919F918F917F916F915F91AE
:1012E0004F913F912F910F900FBE0F901F90189527
:1012F0001F920F920FB60F9211242F933F934F938B
:101300005F936F937F938F939F93AF93BF93EF936D
:10131000FF931092680078944D9927C080919D02A8
:1013200080FD28C0789410929C0210929B028091BC
:101330009B0290919C020A97D0F34D9963C00E9442
:1013400041028091BB028823C9F580919D02816092
:1013500080939D0280919E02816080939E0283E52E
:1013600091E061E00E94B21705C080919D028E7FDE
:1013700080939D024C993FC080919D0282FD42C0A6
:10138000789410929C0210929B0280919B02909103
:101390009C020A97D0F34C9935C082E08093A0025A
:1013A0001BC04C9B19C00E94410280919D028B7F03
:1013B00080939D028091BB02882319F00E94FE0851
:1013C00021C080E591E061E00E94B21780919E0209
:1013D000846080939E0216C08091A002882309F742
:1013E00080919D02846080939D0280919F02846021
:1013F00080939F0207C010929F0280919D028B7F75
:1014000080939D0285E080936800FF91EF91BF91EA
:10141000AF919F918F917F916F915F914F913F918C
:101420002F910F900FBE0F901F9018950F931F9341
:101430008AE08093A5028BE090E00E945B1C809381
:10144000900210E00AE001C010E080919E02882323
:1014500021F480919F02882319F00093A50204C013
:101460008091A5028823C9F080919E0280FD38C03A
:1014700080919E0281FF14C010929E02112369F494
:1014800080919002882319F486EB91E002C08FEBE3
:1014900091E00E94F00311E003C01092BC0220C052
:1014A00080919E0282FFD1CF10929E02113061F690
:1014B00090E080919002882309F491E0909390024B
:1014C000992319F486EB91E002C08FEB91E00E9422
:1014D000F0038BE090E0609190020E94691CB5CF10
:1014E0001F910F910895EF92FF920F931F938AE03F
:1014F0008093A5028AE090E00E945B1CF82E00E039
:101500004AE0E42E01C000E080919E02882321F48D
:1015100080919F02882319F0E092A50204C0809177
:10152000A502882369F180919E0280FD66C08091AA
:101530009E0281FF28C010929E02002309F5FF2021
:1015400051F088EC91E00E94F0038091B402816038
:101550008093B40204C081ED91E00E94F003809179
:10156000B50281608093B5028091B602816080935C
:10157000B6028091B70281608093B70201E003C098
:101580001092BC023AC080919E0282FFBDCF1092A1
:101590009E02013009F0B7CF10E0FF2009F411E0FE
:1015A000F12E112351F088EC91E00E94F00380911C
:1015B000B40281608093B40204C081ED91E00E9486
:1015C000F0038091B50281608093B5028091B602EC
:1015D00081608093B6028091B70281608093B702E8
:1015E0008AE090E0612F0E94691C0E94E50780EA72
:1015F0009FE061E00E94690287CF1F910F91FF90E9
:10160000EF9008953F924F925F926F927F928F92E8
:101610009F92AF92BF92CF92DF92EF92FF920F9381
:101620001F938AE08093A50289E090E00E945B1CF2
:10163000182F20E06AE0362E0EE15AE5552E45E5DA
:10164000442E30E5732E9BE4692E86E4882EB1E4A7
:10165000AB2EACE39A2EF7E3BF2EE2E3DE2E7DE263
:10166000C72E68E2F62E53E2E52E01C020E08091FD
:101670009E02882321F480919F02882319F03092E2
:10168000A50204C08091A502882349F180919E02A1
:1016900080FD89C080919E0281FF29C010929E0228
:1016A0002223E9F48AED91E00E94F003812F6AE0A1
:1016B0000E94EB1BE82FF0E0EC57FF4FE491E16054
:1016C000E093B602812F0E94EB1BE92FF0E0EC576C
:1016D000FF4FE491E160E093B70221E008C010926F
:1016E000BC0289E090E0612F0E94691C5CC080917F
:1016F0009E0282FD04C080919F0282FFB8CF1092AB
:101700009E02213009F0B2CF1B5F1C3508F01EE1AC
:10171000812F6AE00E94EB1BE82FF0E0EC57FF4FAF
:10172000E491E160E093B602812F0E94EB1BE92F68
:10173000F0E0EC57FF4FE491E160E093B7021F3116
:1017400080F1143210F4E7BC92CF193210F4F7BCD8
:101750008ECF1E3210F4C7BC8ACF133310F4D7BC1F
:1017600086CF183310F4B7BC82CF1D3310F497BC6A
:101770007ECF123410F4A7BC7ACF173410F487BC94
:1017800076CF1C3410F467BC72CF113510F477BCDF
:101790006ECF163510F447BC6ACF1B3511F057BC1D
:1017A00066CF07BD64CF1F910F91FF90EF90DF9040
:1017B000CF90BF90AF909F908F907F906F905F90F1
:1017C0004F903F900895FF920F931F938AE080936C
:1017D000A50210E00AE0FF24F39480919E02882382
:1017E00021F480919F02882319F00093A50205C07F
:1017F0008091A502882309F472C080919E0280FD29
:1018000008C180919E0281FF6DC010929E0211233B
:10181000D1F480919002882311F411E006C087EB87
:1018200090E061E00E94B21712E080E00E9417048D
:101830008091B00281608093B0028091B10281609A
:101840008093B1024FC0113029F480919002882317
:1018500039F020C01230E1F4809190028130A9F477
:1018600080919002882311F011E001C012E080E025
:101870000E9417048091B30281608093B30280912B
:10188000B40281608093B4022DC0882339F015C062
:10189000113099F480919002813079F480E00E94B7
:1018A00017048091B60281608093B6028091B702DE
:1018B00081608093B70213E015C083E68093BC0279
:1018C00080E00E941704789410929C0210929B0270
:1018D00080919B0290919C028C5D9540C8F3109280
:1018E000BC0297C080919E0282FD04C080919F023D
:1018F00082FF73CF10929E02113061F58091BD027C
:101900008F5F8093BD028091BD028D3010F01093E7
:10191000BD0280E00E94170480919002882359F450
:101920008091B00281608093B0028091B1028160A9
:101930008093B1020AC08091B30281608093B302A8
:101940008091B40281608093B4026091BD0282E014
:1019500090E04DC0123061F58091AE028F5F8093B0
:10196000AE028091AE02803210F0F092AE0280E0C2
:101970000E94170480919002813059F48091B00246
:1019800081608093B0028091B10281608093B10246
:101990000AC08091B30281608093B3028091B40247
:1019A00081608093B4026091AE0283E090E01FC03A
:1019B0001330F9F48091AB028F5F8093AB0280917A
:1019C000AB0264E60E94EB1B9093AB0280E00E94A6
:1019D00017048091B60281608093B6028091B702AD
:1019E00081608093B7026091AB0281E090E00E9439
:1019F000691C80919F0282FFF0CE789410929C0225
:101A000010929B0280919B0290919C02CC97D0F304
:101A1000E4CE1F910F91FF900895DF92EF92FF9215
:101A20000F931F93E090AA02F090B8020091BE02BB
:101A30008AE08093A50210E07AE0D72E80919E0282
:101A400080FDD7C080919E02882321F480919F025F
:101A5000882319F0D092A50205C08091A5028823A1
:101A600009F44BC080919E0281FF4AC010929E02F1
:101A70001123B9F4E090AA02F090B8020091BE02DE
:101A80008E2D6F2D402F0E94F4028091B002816054
:101A90008093B0028091B10281608093B10211E025
:101AA0002FC0113089F48E2D6F2D402F0E94F4022B
:101AB0008091B30281608093B3028091B40281600F
:101AC0008093B40212E01CC0123089F48E2D6F2D69
:101AD000402F0E94F4028091B60281608093B6028A
:101AE0008091B70281608093B70213E009C0E09251
:101AF000AA02F092B8020093BE021092BC0279C012
:101B000080919E0282FD04C080919F0282FF96CF49
:101B100010929E021130F9F48E2D90E0019668E14A
:101B200070E00E940B1CE82E6F2D402F0E94F402E3
:101B30008091B00281608093B0028091B102816097
:101B40008093B102E092AA026091AA0284E090E040
:101B50000E94691C3DC0123001F58F2D90E0019666
:101B60006CE370E00E940B1CF82E8E2D6F2D402F21
:101B70000E94F4028091B30281608093B30280914D
:101B8000B40281608093B4026091B80285E090E075
:101B90000E94691CF092B8021BC01330C9F4802F58
:101BA00090E001966CE370E00E940B1C082F8E2DD4
:101BB0006F2D402F0E94F4028091B60281608093C5
:101BC000B6028091B70281608093B7020093BE0293
:101BD00080919F0282FF32CF789410929C021092E3
:101BE0009B0280919B0290919C028B349105C8F3DB
:101BF00025CF1F910F91FF90EF90DF900895EF9206
:101C0000FF920F931F931091BA020091AC028AE0E9
:101C10008093A502FF24FAE0EF2E80919E0280FDC2
:101C2000AFC080919E02882321F480919F02882377
:101C300019F0E092A50217C08091A502882399F4BB
:101C40001092BC021093BA020093AC026091BA02E7
:101C500087E090E00E94691C6091AC0288E090E00F
:101C60000E94691C8DC080919E0281FF3CC0109231
:101C70009E02FF2089F4812F602F0E9470038091C3
:101C8000B00281608093B0028091B1028160809344
:101C9000B102FF24F39427C081E0F81689F4812F64
:101CA000602F0E9470038091B30281608093B30221
:101CB0008091B40281608093B402E2E0FE2E13C0F2
:101CC0001093BA020093AC026091BA0287E090E0F0
:101CD0000E94691C6091AC0288E090E00E94691C3F
:101CE0001092BC024DC080919E0282FD04C0809182
:101CF0009F0282FF92CF10929E0281E0F816B1F40B
:101D0000812F90E0019668E170E00E940B1C182F73
:101D1000602F0E9470038091B00281608093B002B6
:101D20008091B10281608093B10219C082E0F816FF
:101D3000B1F4802F90E001966CE370E00E940B1CE0
:101D4000082F812F602F0E9470038091B302816061
:101D50008093B3028091B40281608093B402809139
:101D60009F0282FF5ACF789410929C0210929B029D
:101D700080919B0290919C028B349105C8F34DCFCA
:101D80001F910F91FF90EF9008951F920F920FB641
:101D90000F9211242F933F934F935F936F937F93F1
:101DA0008F939F93AF93BF93EF93FF9300B605FE7E
:101DB00028C080919102882309F041C05B9A85B1C7
:101DC000877D85B95E988CB58F7B8CBD80919302A1
:101DD000882361F06091B80285E090E00E94691C60
:101DE0006091BE0286E090E00E94691C81E491E06F
:101DF00061E00E94B21715BC1092AD02109268000B
:101E000019C0809191028823D1F080919302882398
:101E100061F06091B80285E090E00E94691C6091D9
:101E2000BE0286E090E00E94691C87E391E061E0D9
:101E30000E94B217E0918E02F0918F020995FF91F6
:101E4000EF91BF91AF919F918F917F916F915F9132
:101E50004F913F912F910F900FBE0F901F901895AB
:101E60005F926F927F928F929F92AF92BF92CF922A
:101E7000DF92EF92FF920F931F93CF93DF938AE04D
:101E80008093A5027090AE025090BD026090AB02AC
:101E900084E190E00E945B1C982E85E190E00E9416
:101EA0005B1CA82E8FE090E00E945B1C8093AE022A
:101EB0008EE090E00E945B1C8093BD0280E190E088
:101EC0000E945B1C8093AB0286E190E00E945B1C49
:101ED000E82E8BE190E00E945B1CB82E87E190E039
:101EE0000E94631CEC0189E190E00E94631C6C017C
:101EF00000E01AE0F12E8824839480919E028823CA
:101F000021F480919F02882319F0F092A50205C068
:101F10008091A502882309F400C280919E0280FD71
:101F2000FEC180919E0281FF10C210929E0200238A
:101F3000D1F480919002882311F401E006C08FEA69
:101F400090E061E00E94B21702E082E00E94170474
:101F50008091B00281608093B0028091B102816073
:101F60008093B102F2C1013029F48091900288235C
:101F700039F020C00230E1F4809190028130A9F460
:101F800080919002882311F001E001C002E082E01C
:101F90000E9417048091B20281608093B202809106
:101FA000B30281608093B302D0C1882341F07AC02C
:101FB0000130F1F480919002813009F073C082E029
:101FC0000E9417048091B40281608093B4028091D2
:101FD000B50281608093B5028091B60281608093E2
:101FE000B6028091B70281608093B70203E0ADC171
:101FF000033059F4992019F081EE91E002C08AEE85
:1020000091E00E94F00304E0A0C10430C1F422E09A
:10201000A21661F083E0A81661F0E1E0AE1619F0B7
:1020200083EF91E008C08CEF91E005C085E092E07D
:1020300002C08EE092E00E94F00305E086C1053008
:1020400089F4EE2019F487E192E008C0F1E0EF1680
:1020500019F480E292E002C089E292E00E94F0036B
:1020600006E073C1063031F48E2DBE010E94900649
:1020700007E06BC1073049F422E0E21641F08E2DF3
:10208000B6010E94210608E060C1083059F4BB2067
:1020900031F082E392E00E94F00309E056C18BE345
:1020A00092E0F9CF83E68093BC020091BD02F090EC
:1020B000AE021091AB028E2DB601AE010E94E61960
:1020C000882E0F921459962D9053EDB7FEB7B1821A
:1020D000802F6F2D412F252D072DE92EC92C0E9411
:1020E000121A7B018C010F9082E190E0672D0E9413
:1020F000691C81E190E0652D0E94691C83E190E0FC
:10210000662D0E94691CC801B7012CE330E040E055
:1021100050E00E941E1C79018A018091AA022CE3E2
:10212000829FC0011124AA2797FDA095BA2FE81A13
:10213000F90A0A0B1B0B8091B802E81AF108010991
:102140001109E092A102F092A2020093A30210935F
:10215000A402C801B7012AE030E040E050E00E944C
:102160001E1CFB01EC57FF4F64916093B702C8013E
:10217000B7012AE030E040E050E00E941E1C122F20
:10218000032FF42EE52E622F732F842F952F2AE034
:1021900030E040E050E00E941E1CFB01EC57FF4F76
:1021A00064916093B602612F702F8F2D9E2D2AE0CF
:1021B00030E040E050E00E941E1C122F032FF42E4E
:1021C000E52E622F732F842F952F2AE030E040E018
:1021D00050E00E941E1CFB01EC57FF4F649160937E
:1021E000B502612F702F8F2D9E2D2AE030E040E048
:1021F00050E00E941E1C122F032FF42EE52E622F9A
:10220000732F842F952F2AE030E040E050E00E94A9
:102210001E1CFB01EC57FF4F64916093B402612FC9
:10222000702F8F2D9E2D2AE030E040E050E00E947C
:102230001E1C122F032FF42EE52E622F732F842FD6
:10224000952F2AE030E040E050E00E941E1CFB0188
:10225000EC57FF4F64916093B302612F702F8F2D65
:102260009E2D2AE030E040E050E00E941E1C122F1C
:10227000032FF42EE52E622F732F842F952F2AE043
:1022800030E040E050E00E941E1CFB01EC57FF4F85
:1022900064916093B202612F702F8F2D9E2D2AE0E2
:1022A00030E040E050E00E941E1C122F032FF42E5D
:1022B000E52E622F732F842F952F2AE030E040E027
:1022C00050E00E941E1CFB01EC57FF4F649160938D
:1022D000B102612F702F8F2D9E2D2AE030E040E05B
:1022E00050E00E941E1CCA01B9012AE030E040E023
:1022F00050E00E941E1CFB01EC57FF4F649160935D
:10230000B002789410929C0210929B0280919B02E2
:1023100090919C028C5D9540C8F31092BC02709223
:10232000AE025092BD026092AB02DF91CF911F913D
:102330000F91FF90EF90DF90CF90BF90AF909F9064
:102340008F907F906F905F90089580919E0282FDA4
:1023500004C080919F0282FFD0CD10929E02013076
:1023600061F58091BD028F5F8093BD028091BD02B7
:102370008D3010F00093BD0282E00E94170480911E
:102380009002882359F48091B00281608093B0025A
:102390008091B10281608093B1020AC08091B20243
:1023A00081608093B2028091B30281608093B30216
:1023B0006091BD028EE090E001C1023061F5809134
:1023C000AE028F5F8093AE028091AE02803210F039
:1023D0008092AE0282E00E941704809190028130C8
:1023E00059F48091B00281608093B0028091B10273
:1023F00081608093B1020AC08091B20281608093B3
:10240000B2028091B30281608093B3026091AE0208
:102410008FE090E0D3C0033041F58091AB028F5F35
:102420008093AB028091AB0264E60E94EB1B909319
:10243000AB0282E00E9417048091B4028160809315
:10244000B4028091B50281608093B5028091B6029A
:1024500081608093B6028091B70281608093B70259
:102460006091AB0280E190E0A9C0043089F410E0F3
:10247000992009F411E0912E112319F081EE91E0D9
:1024800002C08AEE91E00E94F00384E190E095C0E2
:102490000530E1F4A39423E0A22282E0A81659F0CB
:1024A000A21661F0E1E0AE1619F083EF91E008C0EA
:1024B0008CEF91E005C085E092E002C08EE092E0F2
:1024C0000E94F00385E190E06A2D78C00630C9F4DF
:1024D000E394F2E0FE1510F4EE2402C0EE2019F4AD
:1024E00087E192E008C021E0E21619F480E292E070
:1024F00002C089E292E00E94F00386E190E06E2D36
:102500005DC0073009F5EE2041F4259682E0C5391B
:10251000D80780F0C3E2D0E00DC0E1E0EE1641F450
:102520002396F1E0CD32DF0728F0CFE0D0E002C003
:102530002196D07087E190E0BE010E94771C8E2D1D
:10254000BE010E9490063CC0083029F5EE2059F4E7
:102550000894C11CD11C29E7C216D10490F0B4E242
:10256000CB2ED12C0EC081E0E81659F40894C11C82
:10257000D11CE2E3CE16E1E0DE0618F0ACE5CA2E8F
:10258000D12C89E190E0B6010E94771C8E2DB60116
:102590000E94210615C0093099F410E0BB2009F40F
:1025A00011E0B12E112319F082E392E002C08BE317
:1025B00092E00E94F0038BE190E0612F0E94691C81
:1025C00080919F0282FF99CC789410929C02109285
:1025D0009B0280919B0290919C02CC97D0F38DCC72
:1025E0009F92AF92BF92CF92DF92EF92FF920F93A2
:1025F0001F9315BC569A5E9884B714BE90E00E9453
:10260000091888E10FB6F89480936000109260007A
:102610000FBE2FE088E190E00FB6F894A895809364
:1026200060000FBE20936000A89511E01093920205
:10263000109293028AE190E00E9490178CE291E060
:1026400061E00E94B21788E480BF80ED97E00197B7
:10265000F1F700B605FE0BC080B7806180BF81E254
:1026600091E061E00E94B2170E94160845C00E94E6
:1026700015025B988EE091E061E00E94B2178BEF4B
:1026800090E061E00E94B217109369001DBB1092A8
:10269000BC0282EF90E061E00E94B21781E58CBD40
:1026A00087EE90E061E00E94B21789E090E00E941E
:1026B0005B1C0E94B00278948BE090E00E945B1C4F
:1026C000809390028AED90E061E00E94B2170E9430
:1026D000E50780EA9FE061E00E9469028FEC90E0EC
:1026E00061E00E94B2170E94160884EC90E061E05D
:1026F0000E94B2170E946B088FEB90E061E00E948D
:10270000B2175CE0952E43E6A42E36E0B32E28E007
:10271000C22E97E0D92E8BE0E82E05E0F02E03E0E4
:1027200014E0A89500B605FE03C00E94E901F9CFA8
:1027300080919E0280FF58C010929E028091BC0240
:10274000853071F1863038F4833009F18430A0F49B
:10275000882349F070C08730A9F1873050F1883064
:1027600009F069C038C01093BC0284E492E00E9472
:10277000F0030E94FF0DD5CF0093BC028EE492E0DF
:102780000E94F0030E940D0D10929202CACFF092A7
:10279000BC0287E592E00E94F0030E94E30BC1CFE8
:1027A000B092BC0280E692E00E94F0030E94020B0D
:1027B000B8CFD092BC0289E692E00E94F0030E945A
:1027C000730AAFCFC092BC0282E792E00E94F0038E
:1027D0000E94160AA6CFE092BC028BE792E00E940C
:1027E000F0030E94300F9DCF80919E0281FF16C0A2
:1027F00010929E02A092BC0281E00E941704A8954C
:10280000789410929C0210929B0280919B0290916E
:102810009C028C5D9540C8F3A8950DC080919E02E6
:1028200082FF7FCF10929E028091BC02882319F410
:102830009092BC0276CF1092BC0273CF1F920F927F
:102840000FB60F9211242F933F934F935F936F9383
:102850007F938F939F93AF93BF93EF93FF9389E6FB
:102860000E949D1729B17894789410929C0210923E
:102870009B0280919B0290919C020A97D0F389B1B0
:10288000247030E090E0847090702817390711F4BC
:102890000E946B08FF91EF91BF91AF919F918F9133
:1028A0007F916F915F914F913F912F910F900FBE4C
:1028B0000F901F9018956F927F928F929F92AF9278
:1028C000BF92CF92DF92EF92FF920F931F938EE011
:1028D00090E00E945B1C682E8FE090E00E945B1CE1
:1028E000782E80E190E00E945B1CB82E81E190E0A0
:1028F0000E945B1C982E82E190E00E945B1C082FD6
:1029000083E190E00E945B1CD82E84E190E00E945D
:102910005B1CC82E85E190E00E945B1CA82E86E11E
:1029200090E00E945B1C182F89E190E00E94631CDC
:102930007C0187E190E00E94631CAC01812FB7010C
:102940000E94E619882E8BE190E00E945B1C0F929A
:102950009CE6B90EE0EDDE0EEDB7FEB78183862D65
:10296000672D4B2D292DED2C0E94121A2CE330E0FF
:1029700040E050E00E941E1C59016A010F9081E165
:1029800090E00E945B1CF82E82E190E00E945B1CAC
:10299000182F83E190E00E945B1C2091BD02009102
:1029A000AE029091AB02482F405390538F2D612F70
:1029B000E92E0E94E91820EA35E040E050E00E944C
:1029C000CC1BA61AB70AC80AD90A8091AA022CE31E
:1029D000829FC0011124AA2797FDA095BA2FA81A9B
:1029E000B90ACA0ADB0A8091B802A81AB108C1085C
:1029F000D108A092A102B092A202C092A302D092EA
:102A0000A4021F910F91FF90EF90DF90CF90BF90A5
:102A1000AF909F908F907F906F9008951F920F922C
:102A20000FB60F921124DF92EF92FF920F931F9334
:102A30002F933F934F935F936F937F938F939F93C6
:102A4000AF93BF93EF93FF9380E880936100109260
:102A500061008091BE028F5F8093BE028091BE02B2
:102A60008C3330F11092BE028091B8028F5F809358
:102A7000B8028091A1029091A202A091A302B0910C
:102A8000A4020097A105B10599F08091A10290914F
:102A9000A202A091A302B091A4020197A109B109D9
:102AA0008093A1029093A202A093A302B093A402E8
:102AB0008091B8028C3398F01092B8028091AA02EB
:102AC0008F5F8093AA026091AA0284E090E00E9446
:102AD000691C6091B80285E090E00E94691C8091B9
:102AE000AA02883168F01092AA028091AE028F5F2C
:102AF0008093AE026091AE0283E090E00E94691C78
:102B00008091AE02803268F58091AE028F3181F4FF
:102B10008091BD02843029F18091BD02863009F197
:102B20008091BD028930E9F08091BD028B30C9F0FF
:102B30008091AE028E3121F48091BD02823089F005
:102B40008091AE028D31D9F48091BD028230B9F40A
:102B50008091AB0290E08053984F0E942802882316
:102B600071F481E08093AE028091BD028F5F80930B
:102B7000BD026091BD0282E090E00E94691C8091DC
:102B8000BD028D3070F08091AB028F5F8093AB02FD
:102B900081E08093BD026091AB0281E090E00E94F1
:102BA000691C80919102882309F08BC18091BC023D
:102BB000882311F580919202882349F08091BE020A
:102BC00080FF05C084E892E00E94F00308C0809175
:102BD000AA026091B8024091BE020E94F402809164
:102BE000B902882321F08091AF02826003C08091F6
:102BF000AF028D7F8093AF028091BC028C3009F0D0
:102C000018C10E945B14E090A102F090A202009112
:102C1000A3021091A402C801B7012AE030E040E00D
:102C200050E00E941E1CFB01EC57FF4F6491609323
:102C3000B702C801B7012AE030E040E050E00E944E
:102C40001E1C122F032FF42EE52E622F732F842FBC
:102C5000952F2AE030E040E050E00E941E1CFB016E
:102C6000EC57FF4F64916093B602612F702F8F2D48
:102C70009E2D2AE030E040E050E00E941E1C122F02
:102C8000032FF42EE52E622F732F842F952F2AE029
:102C900030E040E050E00E941E1CFB01EC57FF4F6B
:102CA00064916093B502612F702F8F2D9E2D2AE0C5
:102CB00030E040E050E00E941E1C122F032FF42E43
:102CC000E52E622F732F842F952F2AE030E040E00D
:102CD00050E00E941E1CFB01EC57FF4F6491609373
:102CE000B402612F702F8F2D9E2D2AE030E040E03E
:102CF00050E00E941E1C122F032FF42EE52E622F8F
:102D0000732F842F952F2AE030E040E050E00E949E
:102D10001E1CFB01EC57FF4F64916093B302612FBF
:102D2000702F8F2D9E2D2AE030E040E050E00E9471
:102D30001E1C122F032FF42EE52E622F732F842FCB
:102D4000952F2AE030E040E050E00E941E1CDC019C
:102D5000CB018C579F4FFC01D490D092B202612FCF
:102D6000702F8F2D9E2D2AE030E040E050E00E9431
:102D70001E1C122F032FF42EE52E622F732F842F8B
:102D8000952F2AE030E040E050E00E941E1CFB013D
:102D9000EC57FF4F64916093B102612F702F8F2D1C
:102DA0009E2D2AE030E040E050E00E941E1CCA0147
:102DB000B9012AE030E040E050E00E941E1CFB0117
:102DC000EC57FF4F64916093B0028091BE026BE3B9
:102DD00070E0681B71099B01442737FD4095542F13
:102DE00025FF04C0F1E0DF2AD092B20224FF05C023
:102DF0008091B30281608093B30223FF05C080916C
:102E0000B40281608093B40222FF05C08091B502B4
:102E100081608093B50221FF05C08091B602816078
:102E20008093B60260FF05C08091B70281608093F5
:102E3000B7028091B9028823E1F09091BA028091A3
:102E4000AA029817B1F49091AC028091B802981739
:102E500081F48091BE02882361F483E491E061E013
:102E60000E94B21781E08093BB0210929A021092E6
:102E700099028091A502882329F08091A5028150B2
:102E80008093A5028091A002882329F08091A0025E
:102E900081508093A0028091990290919A020097AC
:102EA00081F0019790939A028093990280FF04C069
:102EB0008091AF02826003C08091AF028D7F8093CA
:102EC000AF02FF91EF91BF91AF919F918F917F9151
:102ED0006F915F914F913F912F911F910F91FF90B3
:102EE000EF90DF900F900FBE0F901F90189506C0C7
:102EF00090E000009F5F9E31E1F781508823C1F789
:102F0000089548EC50E009C020E137E2FA0131971A
:102F1000F1F721503040D1F781508823A9F7089567
:102F20009093C5008093C40088E18093C1008EE037
:102F30008093C200519A50980895982F8091C000B4
:102F400085FFFCCF9093C60080E090E008958091CB
:102F5000C00087FFFCCF8091C60008958091C0001B
:102F600080780895AC0120E007C08091C00085FF03
:102F7000FCCF3093C6002F5FFA01E20FF11D3491B0
:102F8000332399F7662371F08091C00085FFFCCF51
:102F90008AE08093C6008091C00085FFFCCF8DE061
:102FA0008093C6000895FC0107C08091C00085FF92
:102FB000FCCF31969093C60090819923B1F7089584
:102FC000282F982F92959F709A3030F48091C000EE
:102FD00085FFFCCF905D05C08091C00085FFFCCFD0
:102FE000995A9093C600822F90E08F7090700A9744
:102FF0003CF48091C00085FFFCCF2F70205D06C09F
:103000008091C00085FFFCCF2F70295A2093C60005
:1030100008951F93182F892F0E94E017812F0E9477
:10302000E0171F910895EF92FF920F931F937B017A
:103030008C01C801AA27BB270E940918C7010E945A
:1030400009181F910F91FF90EF9008950F931F9310
:10305000CF93DF938C01E0E1F7E240E0C0E0D0E005
:10306000C801BF010E94F71B262F662329F44423C1
:1030700019F4E130F10549F48091C00085FFFCCFDF
:10308000205D2093C600205341E0CF016AE070E04C
:103090000E94F71B2196C530D10571F0822F90E078
:1030A0009C012E9FC0012F9F900D3E9F900D1124DB
:1030B000081B190BFB01D4CFDF91CF911F910F910A
:1030C00008954F925F926F927F928F929F92AF92EC
:1030D000BF92CF92DF92EF92FF920F931F93CF9305
:1030E000DF934B015C01E12C9AECF92E9AE9092F50
:1030F0009BE3192F4424C0E0D0E0C501B401A8012E
:1031000097010E941E1CD22E222341F4442031F448
:1031100081E0E816F1040105110561F48091C00019
:1031200085FFFCCF80E3D80ED092C60080EDD80E8C
:1031300044244394C801B7012AE030E040E050E065
:103140000E941E1CC22E732E642E552E2196CA304C
:10315000D105A9F06D2D70E080E090E0A801970105
:103160000E94CC1B861A970AA80AB90A2C2D372D63
:10317000462D552DC901DA017C018D01BECFDF91AD
:10318000CF911F910F91FF90EF90DF90CF90BF9064
:10319000AF909F908F907F906F905F904F90089529
:1031A0009C0160E971E00E94F71B892B11F481E01A
:1031B0000895C90164E670E00E94F71B892B11F4A1
:1031C00080E0089580E023703070232B09F481E0C3
:1031D00008956F927F928F929F92AF92BF92CF92FB
:1031E000DF92EF92FF920F931F93CF93DF93982F6D
:1031F000362FB42E722E602EAE2CE41620F0E4167C
:1032000091F4281780F4872D662D4A2D292F032F3E
:10321000EB2C0E94E91822273327A901261B370B24
:10322000480B590BC2C0971569F4BA1409F046C08F
:10323000862D90E0831B91099C01442737FD409522
:10324000542FB3C0BA1409F039C0092F10E0F801A7
:10325000EA59FC4FE491CE2FD0E0C31BD109923044
:1032600031F48B2D90E00E94D018C80FD11D97E645
:10327000C92E93E0D92EC00ED11EEE24FF240F5F7D
:103280001F4F872C992413C0F6018491C80FD11DBC
:103290002230310531F48B2D90E00E94D018C80FF8
:1032A000D11D0894E11CF11C0894C11CD11C98018B
:1032B0002E0D3F1D281539053CF370C0092F10E075
:1032C000F801EA59FC4FE491CE2FD0E0C31BD1099D
:1032D000923031F48B2D90E00E94D018C80FD11D90
:1032E00087E6C82E83E0D82EC00ED11EEE24FF2420
:1032F00048010894811C911C13C0F6018491C80FE9
:10330000D11D2230310531F48B2D90E00E94D01870
:10331000C80FD11D0894E11CF11C0894C11CD11CDC
:1033200094012E0D3F1D2D3031053CF38B2D90E087
:103330007C010894E11CF11C00E010E04C01CA2C57
:10334000DD240BC0C7010E94D01890E083599E4F26
:10335000C80FD91F0894E11CF11C0F5F1F4FC80153
:10336000880D991D8C159D056CF301E010E0E72C8C
:10337000FF2411C0F801EA59FC4FE491CE0FD11D92
:103380000230110531F48A2D90E00E94D018C80F48
:10339000D11D0F5F1F4F0E151F0564F3C60DD11D04
:1033A0009E01442737FD4095542FB901CA01DF9192
:1033B000CF911F910F91FF90EF90DF90CF90BF9032
:1033C000AF909F908F907F906F9008959B0188237E
:1033D00051F4229FB001239F700D329F700D112474
:1033E0008FEB92E00BC08130D9F4229FB001239F74
:1033F000700D329F700D112480E197E29C01429F75
:10340000C001439F900D529F900D11240E94F71B05
:10341000CB016F3F710529F020F08FEF90E0089508
:10342000842F08958F92AF92BF92CF92DF92EF9246
:10343000FF920F931F93DF93CF93CDB7DEB7BC2CD2
:103440000E94E91824E630E040E050E00E94CC1BE6
:103450007B018C012DEA3EE840E050E00E941E1CFA
:103460006901BB2029F06CE170E38CE290E004C0BC
:1034700064E67DE189E290E09B01AC012E193F09F1
:10348000400B510B79018A01882D90E08E32910515
:103490001CF08DE290E005C08831910514F488E1BC
:1034A00090E0AC014851504033E0A31609F0AEC0A3
:1034B000BB2009F050C06FEF70E68BEE9FEFE60E79
:1034C000F71E081F191F7E85713059F56FE473E0F0
:1034D00020E030E0FB0185919491C816D906D0F424
:1034E000F901EE0FFF1FEE0FFF1FEF5AFC4F259162
:1034F000349184E690E0DC012A9FC0012B9F900D5F
:103500003A9F900D1124A0E0B0E0E81AF90A0A0BE6
:103510001B0B07C02F5F3F4F6C5F7F4F2330310580
:10352000C9F6E8E8F2E0849190E0C816D9061CF4E8
:1035300080E090E009C07796849190E0C816D906A3
:103540000CF016C187E190E0480F591F47575D4FB7
:10355000FA01649147C068EF74EB89EE9FEFE60EC5
:10356000F71E081F191F7E85713059F56BE573E052
:1035700020E030E0FB0185919491C816D906D0F483
:10358000F901EE0FFF1FEE0FFF1FE35AFC4F2591CD
:10359000349184E690E0DC012A9FC0012B9F900DBE
:1035A0003A9F900D1124A0E0B0E0E81AF90A0A0B46
:1035B0001B0B07C02F5F3F4F6C5F7F4F23303105E0
:1035C000C9F620E030E0F901EA54FD4FE4918E2F76
:1035D00090E0C816D906A4F4420F531F49545D4F1A
:1035E000FA01649170E080E090E023E531E74FEF6D
:1035F0005FEF0E94CC1BE60EF71E081F191FB8C014
:10360000295E3F4F25343105F1F6B2C0BB2009F0E9
:1036100046C0FE85F13059F56BEF72E020E030E0F6
:10362000FB0185919491C816D906D0F4F901EE0FEB
:10363000FF1FEE0FFF1FE350FD4F2591349184E6ED
:1036400090E0BC01269FC001279F900D369F900DF2
:103650001124A0E0B0E0E81AF90A0A0B1B0B07C01E
:103660002F5F3F4F6C5F7F4F2B303105C9F620E055
:1036700030E0F901E35AFE4FE4918E2F90E0C81636
:10368000D9063CF4420F531F425A5E4FFA0164912F
:1036900045C0295E3F4F2A38310559F752C0FE8593
:1036A000F13059F567E273E020E030E0FB018591ED
:1036B0009491C816D906D0F4F901EE0FFF1FEE0F52
:1036C000FF1FE75DFC4F2591349184E690E0BC013B
:1036D000269FC001279F900D369F900D1124A0E0DA
:1036E000B0E0E81AF90A0A0B1B0B07C02F5F3F4F27
:1036F0006C5F7F4F2A303105C9F620E030E0F901D8
:10370000E951FE4FE4918E2F90E0C816D906A4F43B
:10371000420F531F48515E4FFA01649170E080E000
:1037200090E023E531E74FEF5FEF0E94CC1BE60E00
:10373000F71E081F191F05C0295E3F4F213A3105AA
:10374000F1F6F2E0AF1649F422EC32E945E050E040
:10375000E20EF31E041F151F0BC031E0A31641F447
:103760004DED53EA67EF7FEFE40EF51E061F171FBE
:10377000C801B70120E633E040E050E00E94CC1BD6
:10378000CF91DF911F910F91FF90EF90DF90CF903D
:10379000BF90AF908F900895629FD001739FF0010A
:1037A000829FE00DF11D649FE00DF11D929FF00DD1
:1037B000839FF00D749FF00D659FF00D9927729F08
:1037C000B00DE11DF91F639FB00DE11DF91FBD0193
:1037D000CF0111240895991B79E004C0991F961711
:1037E00008F0961B881F7A95C9F780950895AA1B43
:1037F000BB1B51E107C0AA1FBB1FA617B70710F0DC
:10380000A61BB70B881F991F5A95A9F7809590950D
:10381000BC01CD01089597FB092E07260AD077FD3C
:1038200004D0E5DF06D000201AF4709561957F4F33
:103830000895F6F7909581959F4F0895A1E21A2E6D
:10384000AA1BBB1BFD010DC0AA1FBB1FEE1FFF1F44
:10385000A217B307E407F50720F0A21BB30BE40B94
:10386000F50B661F771F881F991F1A9469F76095DB
:103870007095809590959B01AC01BD01CF01089595
:1038800097FB092E05260ED057FD04D0D7DF0AD0AE
:10389000001C38F450954095309521953F4F4F4F7F
:1038A0005F4F0895F6F790958095709561957F4FDD
:1038B0008F4F9F4F0895F999FECF92BD81BDF89A21
:1038C000992780B50895A8E1B0E042E050E00C945B
:1038D0007E1C262FF999FECF1FBA92BD81BD20BD57
:1038E0000FB6F894FA9AF99A0FBE019608950E94BD
:1038F000691C272F0C946A1CDC01CB01FC01F9998F
:10390000FECF06C0F2BDE1BDF89A319600B40D922B
:0C39100041505040B8F70895F894FFCFE4
:10391C0073756E646179006D6F6E64617900747596
:10392C006573646179007765646E736461790074A2
:10393C006875727364617900667269646179007389
:10394C0061747572646179006A616E00666562000B
:10395C006D6172636800617072696C006D617900F1
:10396C006A756E65006A756C7900617567737400B1
:10397C0073657074006F63746F62006E6F76656D43
:10398C0000646563656D0020202066742020200093
:10399C0020202020636D202000202020206C6273CA
:1039AC002000202020206B67202000202020206277
:1039BC006D692000616C61726D206F6E00736E6FAB
:1039CC006F7A696E67007573612D313268720065AC
:1039DC0075722D3234687200766F6C206869676876
:1039EC0000766F6C20206C6F7700627269746520B2
:1039FC000066656D616C652020006D616C65202032
:103A0C002020006E6F726D616C20200070657373E6
:103A1C00696D7374006F7074696D69737400736190
:103A2C0064697374696300696D70657269616C00B7
:103A3C006D6574726963202000646972656374201B
:103A4C002000736D6F6B65722020006E6F6E20739B
:103A5C006D6B720073657420616C61726D007365BF
:103A6C00742074696D6500736574206461746500FD
:103A7C0073657420627269740073657420766F6C60
:103A8C002000736574207265676E006465617468EC
:0E3A9C00636C6B0020202020202020200000E2
:00000001FF
