:100000000C945E010C94DB140C947B010C9441085D
:100010000C947B010C9495080C947B010C947B014F
:100020000C947B010C941B100C947B010C947B01B1
:100030000C947B010C947B010C947B010C947B0150
:100040000C94A2090C947B010C947B010C947B0111
:100050000C947B010C947B010C947B010C94BB0FE2
:100060000C947B010C947B01FA3E1A7ADE8EF62EFC
:100070006078AE1CAA2A3ACEF30AB61E3838B86E9B
:1000800076DA6800FC60DAF266B6BEE0FEE684006E
:1000900003070809060A050C0490000B10120F0D47
:1000A0000E11139B0014000000000000000000006F
:1000B0000000000000000000000000002800000018
:1000C0000001010101020202030303040404050507
:1000D00006060832000000000001010101020202D0
:1000E000020303040404050505073C0000000000AA
:1000F00000010101010202020303030404040505D7
:100100000646000000000101010101020202020393
:100110000303040404040000500000000000000079
:1001200000000000000000000000000000000514B6
:1001300000000000000000000000000000000000BF
:100140000000000000001E00000001010101020289
:100150000303030404050506060707080D2800002D
:100160000001010101020202030303040405050664
:100170000606070B32000000000001010102020226
:10018000030303040404050506060A3C00000000FE
:100190000000000101010102020203030304040440
:1001A00005074600000000000000000101010102F7
:1001B00002020202030303030550000000000000D6
:1001C0000000000000000101010101010101020223
:1001D000140000000000000000000000000000000B
:1001E00000000000000000280000000000000000E7
:1001F00001010101010102020202020303041400D1
:1002000000000000000000000000000000000000EE
:1002100000000000001E00000000000000010101BD
:100220000101020202020303030304062800000086
:1002300000000000010101010101020202020303AA
:10024000030305190000001E00B30A23008F0A28CB
:1002500000FD092D00D80932006A093700D9083C91
:1002600000FE074100FE06460047065000B504198F
:100270000000001E003F092D001B093200F6083760
:1002800000D1083C0090084100F606460022074BCA
:1002900000650550004804190000001E00FE0428F7
:1002A00000DA04190000001E00900528006C051FEC
:1002B0001C1F1E1F1E1F1F1E1F1E1F0011241FBEDE
:1002C000CFEFD4E0DEBFCDBF12E0A0E0B1E0EAE7BF
:1002D000FDE302C005900D92AE38B107D9F712E0E8
:1002E000AEE8B2E001C01D92A13CB107E1F70E9467
:1002F0004E160C94BB1E0C9400009C017894109236
:100300009D0210929C0280919C0290919D02821706
:100310009307C8F30895A8950895EF92FF920F935D
:100320001F93CF93DF937B018C012AE030E040E004
:1003300050E00E944D1EC4E8D0E0FE01E60FF71F1A
:10034000E491E093B802C801B7012AE030E040E050
:1003500050E00E944D1E122F032FF42EE52E622F27
:10036000732F842F952F2AE030E040E050E00E9468
:100370004D1EFE01E60FF71FE491E093B702612FD7
:10038000702F8F2D9E2D2AE030E040E050E00E943B
:100390004D1E122F032FF42EE52E622F732F842F64
:1003A000952F2AE030E040E050E00E944D1EFE0113
:1003B000E60FF71FE491E093B602612F702F8F2DA7
:1003C0009E2D2AE030E040E050E00E944D1E122FAA
:1003D000032FF42EE52E622F732F842F952F2AE002
:1003E00030E040E050E00E944D1EFE01E60FF71F96
:1003F000E491E093B502612F702F8F2D9E2D2AE09E
:1004000030E040E050E00E944D1E122F032FF42EEA
:10041000E52E622F732F842F952F2AE030E040E0E5
:1004200050E00E944D1EFE01E60FF71FE491E0939D
:10043000B402612F702F8F2D9E2D2AE030E040E016
:1004400050E00E944D1E122F032FF42EE52E622F36
:10045000732F842F952F2AE030E040E050E00E9477
:100460004D1EFE01E60FF71FE491E093B302612FEA
:10047000702F8F2D9E2D2AE030E040E050E00E944A
:100480004D1E122F032FF42EE52E622F732F842F73
:10049000952F2AE030E040E050E00E944D1EFE0122
:1004A000E60FF71FE491E093B202612F702F8F2DBA
:1004B0009E2D2AE030E040E050E00E944D1ECA012F
:1004C000B9012AE030E040E050E00E944D1EC60F26
:1004D000D71FFE0184918093B102DF91CF911F91CC
:1004E0000F91FF90EF90089581E0809392025B9AC4
:1004F0008CB58F7B8CBD85B1877D85B95E9815BC29
:100500001092AE021092680085B1897F85B98BB1D7
:100510008F7C8BB928988AB18F7C8AB920985A9899
:100520005298E1E6F0E090E8908388E08083449A76
:1005300083B7876083BF889590831082449808951D
:100540008EE284B988E48AB989E187B984E38BB9FA
:1005500091E095B985E08093680090936B0080E30B
:1005600080936D000895FC0183709070892B39F49D
:10057000CF0164E670E00E94261E892B49F420E03A
:1005800030E0CF0160E971E00E94261E892B11F452
:1005900021E030E0822F08951092800010928100B7
:1005A000299A2A98789410929D0210929C02809128
:1005B0009C0290919D020A97D0F32A9A29987894E8
:1005C00010929D0210929C0280919C0290919D023B
:1005D0000A97D0F385B1897F85B982EB809380003B
:1005E00088E18093810008951F93162F9C0140E0BD
:1005F00050E060E472E48FE090E00E946F1E309360
:1006000087002093860080918600909187009695C0
:10061000879590938B0080938A0080918A009091B7
:100620008B00909389008093880028EC30E01CC0F8
:100630008091810082608093810080ED97E0F901D4
:100640003197F1F70197D9F7809181008D7F8093E1
:10065000810085B1897F85B980ED97E0F9013197F7
:10066000F1F70197D9F71150112311F785B1897F5F
:1006700085B91F9108958B3590F58E3110F08E312C
:1006800011F48EE12DC0843210F483E229C0893246
:1006900010F488E225C08E3210F48DE221C083333D
:1006A00010F482E31DC0883310F487E319C08D3342
:1006B00010F48CE315C0823410F481E411C0873447
:1006C00010F486E40DC08C3410F48BE409C081353D
:1006D00010F480E505C0863510F485E501C08AE593
:1006E00087BD83E084BD81E085BD84B5806884BD1D
:1006F00080916E00816080936E00789408951F93BE
:10070000182F262F842F6AE00E941A1EE92FF0E08E
:10071000EC57FF4FE491E093B802842F0E941A1E19
:10072000E82FF0E0EC57FF4FE491E093B70210920E
:10073000B602822F0E941A1EE92FF0E0EC57FF4FFD
:10074000E491E093B502822F0E941A1EE82FF0E098
:10075000EC57FF4FE491E093B4021092B302809102
:100760009002882361F5812F90E00B966CE070E099
:100770000E943A1E9C012F5F3F4FC9016AE070E062
:100780000E943A1EFC01EC57FF4FE491E093B20245
:10079000C9016AE070E00E943A1EFB01EC57FF4F6E
:1007A000E491E093B1021C3020F08091B0028160AE
:1007B00003C08091B0028E7F8093B0021AC0812F57
:1007C00068E10E941A1E292F892F6AE00E941A1ED2
:1007D000E92FF0E0EC57FF4FE491E093B202822F53
:1007E0000E941A1EE82FF0E0EC57FF4FE491E093CF
:1007F000B1021F910895EF92FF920F931F93A82FBC
:10080000B62F809191028C3009F06FC08091BD02AB
:10081000843009F46AC0E090A202F090A302009133
:10082000A4021091A5028091AB02A81740F080911C
:10083000AB028A1709F58091B9026817E8F4209194
:10084000AB026091B9028091C002833019F041E09F
:1008500050E002C044E050E030E084EC9FEFFC0147
:100860002E9FC0012F9F900D3E9F900D1124861B3F
:10087000910980569A4F1AC02091AB026091B9023B
:100880008091C002833019F041E050E002C044E0A2
:1008900050E030E084EC9FEFFC012E9FC0012F9FC1
:1008A000900D3E9F900D1124861B91092CE3A29F71
:1008B00090011124820F931F8B0F911D9C01429F69
:1008C000C001439F900D529F900D1124AA2797FDC0
:1008D000A095BA2FA8019701281B390B4A0B5B0B77
:1008E000CA01B9010E948D017DC01092B802109218
:1008F000B7021092B6028B2F6AE00E941A1EE92FEF
:10090000F0E0EC57FF4FE491E093B5028B2F0E948B
:100910001A1EE82FF0E0EC57FF4FE491E093B40289
:100920001092B30280919002882309F03BC0AC3052
:1009300058F08091B00281608093B002E7E7F0E068
:10094000E491E093B7020AC0E8E6F0E0E491E093B6
:10095000B7028091B0028E7F8093B002E4E7F0E0AE
:10096000E491E093B8028A2F90E00B966CE070E07F
:100970000E943A1E9C012F5F3F4FC9016AE070E060
:100980000E943A1EFC01EC57FF4FE491E093B20243
:10099000C9016AE070E00E943A1EFB01EC57FF4F6C
:1009A000E4911EC08A2F90E0479668E170E00E94B3
:1009B0003A1E9C012F5F3F4FC9016AE070E00E9420
:1009C0003A1EFC01EC57FF4FE491E093B202C901DB
:1009D0006AE070E00E943A1EFB01EC57FF4FE49181
:1009E000E093B1021F910F91FF90EF900895CF9384
:1009F000DF931092B002EC01A1EBB2E0E881EE23AC
:100A0000D1F08E2F81568A3128F4F0E0E95FFF4F54
:100A1000E49108C08E2F80538A3030F4F0E0EC5A15
:100A2000FF4FE491EC9301C01C922196119682E055
:100A3000A93BB80719F7DF91CF910895CF93DF93C2
:100A4000882309F07AC01092B00282E08093B3024A
:100A50008093B60280919002882361F58091BE0256
:100A60006AE00E941A1EE82FF0E0EC57FF4FE49175
:100A7000E093B1028091BE020E941A1EE92FF0E0BD
:100A8000EC57FF4FE491E093B2028091AF020E94D5
:100A90001A1EE82FF0E0EC57FF4FE491E093B40208
:100AA0008091AF020E941A1EE92FF0E0EC57FF4F31
:100AB000E4912BC08091AF026AE00E941A1EE82FD9
:100AC000F0E0EC57FF4FE491E093B1028091AF0268
:100AD0000E941A1EE92FF0E0EC57FF4FE491E093DB
:100AE000B2028091BE020E941A1EE82FF0E0EC577D
:100AF000FF4FE491E093B4028091BE020E941A1E5F
:100B0000E92FF0E0EC57FF4FE491E093B5028091BC
:100B1000AC026AE00E941A1EE82FF0E0EC57FF4F8B
:100B2000E491E093B7028091AC020E941A1EE92F73
:100B3000F0E0EC57FF4FE49186C1823009F0A0C08D
:100B40001092B00280919002882361F58091BE02DC
:100B50006AE00E941A1EE82FF0E0EC57FF4FE49184
:100B6000E093B1028091BE020E941A1EE92FF0E0CC
:100B7000EC57FF4FE491E093B2028091AF020E94E4
:100B80001A1EE82FF0E0EC57FF4FE491E093B30218
:100B90008091AF020E941A1EE92FF0E0EC57FF4F40
:100BA000E4912BC08091AF026AE00E941A1EE82FE8
:100BB000F0E0EC57FF4FE491E093B1028091AF0277
:100BC0000E941A1EE92FF0E0EC57FF4FE491E093EA
:100BD000B2028091BE020E941A1EE82FF0E0EC578C
:100BE000FF4FE491E093B3028091BE020E941A1E6F
:100BF000E92FF0E0EC57FF4FE491E093B4028091CD
:100C0000AC0264E60E941A1E90E043966AE070E02F
:100C10000E943A1EFB01EC57FF4FE491E093B502AE
:100C20008091AC0264E60E941A1E90E043966AE04E
:100C300070E00E943A1EFC01EC57FF4FE491E093F4
:100C4000B6028091AC0264E60E941A1E892F6AE007
:100C50000E941A1EE82FF0E0EC57FF4FE491E0935A
:100C6000B7028091AC0264E60E941A1E892F6AE0E6
:100C70000E941A1EE92FF0E0EC57FF4FE491E3C009
:100C8000813009F0E2C08091BE02C82FD0E080918F
:100C9000AC02E82FF0E0E053F84F8091BE028330C1
:100CA00010F42C9631972091AF021092B702109257
:100CB000B80230E02F5F3F4F2E0F3F1FCE01880F4D
:100CC000991F280F391FCF0196958795969587957F
:100CD000280F391FCF0160E971E00E94261E260F00
:100CE000371FCF0164E670E00E94261E261B370BDB
:100CF000AE014F5F5F4FCA01880F991F840F951F88
:100D0000880F991F6AE070E00E94261EC901860FB5
:100D1000971F67E070E00E94261E8330B9F0843090
:100D200028F4813069F0823070F407C08530A1F07A
:100D3000853078F08630B9F412C080E091E011C0BF
:100D400087E091E00EC08EE091E00BC086E191E07B
:100D500008C08FE191E005C088E291E002C08FE217
:100D600091E00E94F704789410929D0210929C02E8
:100D700080919C0290919D02885E9340C8F31092EE
:100D8000B4021092B5021092B6028091BE02863073
:100D900079F1873070F4833011F1843028F4813098
:100DA000C1F08230D9F518C08430E1F08530B1F55A
:100DB0001CC0893031F18A3028F48730E1F0883066
:100DC00069F51CC08B3019F18B30F0F08C3031F5A7
:100DD00021C088E391E020C08CE391E01DC080E455
:100DE00091E01AC086E491E017C08CE491E014C051
:100DF00080E591E011C085E591E00EC08AE591E0C3
:100E00000BC080E691E008C085E691E005C08BE666
:100E100091E002C081E791E00E94F7048091AF0267
:100E20006AE00E941A1EE82FF0E0EC57FF4FE491B1
:100E3000E093B7028091AF020E941A1EE92FF0E002
:100E4000EC57FF4FE491E093B802DF91CF91089502
:100E50004A9B36C08091BA02882309F049C081E0DC
:100E60008093BA0210929B0210929A0287E791E057
:100E70000E94F70489E08093BD02789410929D024D
:100E800010929C0280919C0290919D02885E9340FA
:100E9000C8F38091BB026091AD020E94FB0378947D
:100EA00010929D0210929C0280919C0290919D0252
:100EB000805D9740C8F3809191028093BD020895B0
:100EC0008091BA028823A1F01092BA0210929B027C
:100ED00010929A028091BC02882351F01092BC02B9
:100EE000809181008D7F8093810085B1866085B976
:100EF0000895CF93DF93EB011092B002882309F09D
:100F00003BC080E891E00E94F704CE0168E770E002
:100F10000E94261EFB01EC57FF4FE491E093B102C3
:100F2000CE016CE070E00E94261ECB016AE070E00A
:100F30000E94261EFC01EC57FF4FE491E093B202A1
:100F4000CE016CE070E00E94261E9C016AE070E019
:100F50000E94261EFB01EC57FF4FE491E093B7027D
:100F6000C9016AE070E00E94261EFC01EC57FF4FA9
:100F7000E491E093B80229C089E891E00E94F70467
:100F8000CE0164E670E00E94261EFB01EC57FF4F85
:100F9000E491E093B102CE0164E670E00E94261E67
:100FA0006AE070E00E94261EFB01EC57FF4FE491BF
:100FB000E093B202CE016AE070E00E94261EFC01BE
:100FC000EC57FF4FE491E093B302DF91CF91089586
:100FD000CF93DF93EB011092B002882319F482E9DA
:100FE00091E007C0813019F48BE991E002C084EAF6
:100FF00091E00E94F704CE0164E670E00E94261E94
:10100000FB01EC57FF4FE491E093B102CE0164E69F
:1010100070E00E94261E6AE070E00E94261EFB011E
:10102000EC57FF4FE491E093B202CE016AE070E02A
:101030000E94261EFC01EC57FF4FE491E093B3029F
:10104000DF91CF91089588E592E090939B02809381
:101050009A028DEA91E00E94F70489E08093BD0234
:10106000789410929D0210929C0280919C02909123
:101070009D02885E9340C8F3809191028093BD02E7
:1010800008951F920F920FB60F9211242F933F9342
:101090004F935F936F937F938F939F93AF93BF9380
:1010A000EF93FF93109268007894189925C080916F
:1010B0009E0281FD26C0789410929D0210929C029F
:1010C00080919C0290919D020A97D0F3189919C0C3
:1010D0000E94CC028091BC02882319F00E94230850
:1010E00010C080919E02826080939E0280919F0238
:1010F000826080939F0205C080919E028D7F8093C5
:101100009E0285E080936800FF91EF91BF91AF91BF
:101110009F918F917F916F915F914F913F912F910F
:101120000F900FBE0F901F9018951F920F920FB641
:101130000F9211242F933F934F935F936F937F935D
:101140008F939F93AF93BF93EF93FF931092680099
:1011500078944D9922C080919E0280FD23C078949E
:1011600010929D0210929C0280919C0290919D028F
:101170000A97D0F34D9959C00E94CC028091BC02CD
:101180008823A1F580919E02816080939E028091C8
:101190009F02816080939F0205C080919E028E7F96
:1011A00080939E024C993AC080919E0282FD3DC080
:1011B000789410929D0210929C0280919C029091D2
:1011C0009D020A97D0F34C9930C082E08093A1022F
:1011D00016C04C9B14C00E94CC0280919E028B7F53
:1011E00080939E028091BC02882319F00E942308FC
:1011F0001CC080919F02846080939F0216C08091E2
:10120000A102882331F780919E02846080939E0220
:101210008091A00284608093A00207C01092A00277
:1012200080919E028B7F80939E0285E08093680070
:10123000FF91EF91BF91AF919F918F917F916F91AE
:101240005F914F913F912F910F900FBE0F901F9084
:10125000189581E58CBD08959B01AC01F894CA01F5
:10126000AA27BB278EBD0DB407FEFDCFBB27A52F38
:10127000942F832F8EBD0DB407FEFDCF2EBD0DB470
:1012800007FEFDCF409A409878940895AF92BF92A0
:10129000CF92DF92EF92FF920F931F93E82FF0E02F
:1012A000E057FF4FE49181E090E002C0880F991F62
:1012B000EA95E2F77C010027F7FC0095102F2091BA
:1012C000A7023091A8024091A9025091AA02A0E081
:1012D000B0E070E091E0A92EB12CC12CD12CCB0153
:1012E0000A2E02C0959587950A94E2F780FF11C0F7
:1012F000FD01E556FF4FE491A601950104C0220FC0
:10130000331F441F551FEA95D2F7E22AF32A042B14
:10131000152B1196A830B10511F72093A702309331
:10132000A8024093A9025093AA02C801B7010E94E3
:101330002C091F910F91FF90EF90DF90CF90BF90FD
:10134000AF9008951F920F920FB60F9211242F9312
:101350003F934F935F936F937F938F939F93AF933D
:10136000BF93EF93FF937894A89580919602909104
:10137000970201969093970280939602819708F4C2
:101380006CC0109297021092960280919C029091EC
:101390009D02019690939D0280939C0280919502FC
:1013A000893010F01092950280919502E82FF0E0BC
:1013B000E055FD4F60810E944609809195028F5F44
:1013C000809395028091BC02882309F446C08091E5
:1013D0009A0290919B02892B09F03FC0809198025C
:1013E0009091990201969093990280939802853684
:1013F000910598F110929902109298028AEF90E06C
:10140000909387008093860080918600909187005A
:101410009695879590938B0080938A0080918A009F
:1014200090918B0090938900809388008091BC02FA
:10143000807F49F08091BC028F708093BC028091C4
:1014400081008D7F08C08091BC02806F8093BC02B8
:1014500080918100826080938100FF91EF91BF9124
:10146000AF919F918F917F916F915F914F913F913C
:101470002F910F900FBE0F901F9018958EBD0DB439
:1014800007FEFDCF08958AE090E00E948A1E8093B7
:10149000AE0285B1866085B982E380938000809139
:1014A000AE02882329F080918000806880938000BC
:1014B00088E1809381008AEF90E090938700809389
:1014C00086008091860090918700969587959093ED
:1014D0008900809388008091880090918900909382
:1014E0008B0080938A00089584E090E00E948A1E19
:1014F00068E10E941A1E9093AB0285E090E00E9482
:101500008A1E6CE30E941A1E9093B90286E090E056
:101510000E948A1E6CE30E941A1E9093BF0288E00C
:1015200090E00E948A1E6CE30E941A1E9093AD0206
:1015300087E090E00E948A1E68E10E941A1E909344
:10154000BB0281E090E00E948A1E64E60E941A1E9F
:101550009093AC0282E090E00E948A1E6DE00E94AF
:101560001A1E9093BE0283E090E00E948A1E8F7143
:101570008093AF0291E090939402E6EBF0E08081DB
:101580008062808385E08093B100909370007894AE
:101590000895809192028823A9F180E880936100E8
:1015A000109261001092920280E49CE90197F1F799
:1015B00000B605FC27C00E94A00289E090E00E94CE
:1015C0008A1E0E943B0381E58CBD5B9843988AE0AC
:1015D00090E00E948A1E8093AE020E94430AA89562
:1015E0000E94280780E793E061E00E94F40280EE09
:1015F00096E061E00E94F40280EC9DE061E00E94D0
:10160000F402A89508950F931F938AE08093A60291
:101610008BE090E00E948A1E8093900210E00AE026
:1016200001C010E080919F02882321F48091A002E4
:10163000882319F00093A60204C08091A602882393
:10164000C9F080919F0280FD3AC080919F0281FF86
:1016500016C010929F02112369F480919002882392
:1016600019F486EB91E002C08FEB91E00E94F70441
:1016700011E005C0809191028093BD0220C080914D
:101680009F0282FFCFCF10929F02113051F690E05F
:1016900080919002882309F491E09093900299231D
:1016A00019F486EB91E002C08FEB91E00E94F70401
:1016B0008BE090E0609190020E94981EB3CF1F9142
:1016C0000F910895EF92FF920F931F938AE08093FA
:1016D000A6028AE090E00E948A1EF82E00E04AE00E
:1016E000E42E01C000E080919F02882321F48091C4
:1016F000A002882319F0E092A60204C08091A602FD
:10170000882369F180919F0280FD68C080919F02CB
:1017100081FF2AC010929F02002309F5FF2051F09B
:1017200088EC91E00E94F7048091B502816080937B
:10173000B50204C081ED91E00E94F7048091B602E9
:1017400081608093B6028091B70281608093B70276
:101750008091B80281608093B80201E005C0809159
:1017600091028093BD023AC080919F0282FFBBCF5D
:1017700010929F02013009F0B5CF10E0FF2009F46C
:1017800011E0F12E112351F088EC91E00E94F70452
:101790008091B50281608093B50204C081ED91E033
:1017A0000E94F7048091B60281608093B602809116
:1017B000B70281608093B7028091B8028160809304
:1017C000B8028AE090E0612F0E94981E0E94430AAE
:1017D00080EA9FE061E00E94F40285CF1F910F91A3
:1017E000FF90EF9008953F924F925F926F927F9299
:1017F0008F929F92AF92BF92CF92DF92EF92FF9221
:101800000F931F938AE08093A60289E090E00E94E4
:101810008A1E182F20E06AE0362E0EE15AE5552E7A
:1018200045E5442E30E5732E9BE4692E86E4882E30
:10183000B1E4AB2EACE39A2EF7E3BF2EE2E3DE2E4B
:101840007DE2C72E68E2F62E53E2E52E01C020E0CD
:1018500080919F02882321F48091A002882319F0AF
:101860003092A60204C08091A602882349F180919B
:101870009F0280FD8BC080919F0281FF2BC0109240
:101880009F022223E9F48AED91E00E94F704812F60
:101890006AE00E941A1EE82FF0E0EC57FF4FE49137
:1018A000E160E093B702812F0E941A1EE92FF0E059
:1018B000EC57FF4FE491E160E093B80221E00AC0E9
:1018C000809191028093BD0289E090E0612F0E9497
:1018D000981E5CC080919F0282FD04C08091A0028E
:1018E00082FFB6CF10929F02213009F0B0CF1B5F6C
:1018F0001C3508F01EE1812F6AE00E941A1EE82FB5
:10190000F0E0EC57FF4FE491E160E093B702812FE4
:101910000E941A1EE92FF0E0EC57FF4FE491E160BE
:10192000E093B8021F3180F1143210F4E7BC90CF7D
:10193000193210F4F7BC8CCF1E3210F4C7BC88CF1C
:10194000133310F4D7BC84CF183310F4B7BC80CF56
:101950001D3310F497BC7CCF123410F4A7BC78CFA1
:10196000173410F487BC74CF1C3410F467BC70CFEC
:10197000113510F477BC6CCF163510F447BC68CF26
:101980001B3511F057BC64CF07BD62CF1F910F917B
:10199000FF90EF90DF90CF90BF90AF909F908F908F
:1019A0007F906F905F904F903F900895FF920F93BC
:1019B0001F938AE08093A60210E00AE0FF24F394CC
:1019C00080919F02882321F48091A002882319F03E
:1019D0000093A60205C08091A602882309F46DC079
:1019E00080919F0280FD05C180919F0281FF6AC0A6
:1019F00010929F021123A9F480919002882311F084
:101A000012E001C011E080E00E941E058091B10249
:101A100081608093B1028091B20281608093B202B2
:101A200051C0113029F480919002882339F020C0F0
:101A30001230E1F4809190028130A9F480919002FB
:101A4000882311F011E001C012E080E00E941E0521
:101A50008091B40281608093B4028091B50281606C
:101A60008093B5022FC0882339F015C0113099F446
:101A700080919002813079F480E00E941E0580916F
:101A8000B70281608093B7028091B8028160809331
:101A9000B80213E017C083E68093BD0280E00E9485
:101AA0001E05789410929D0210929C0280919C02D7
:101AB00090919D028C5D9540C8F380919102809336
:101AC000BD0297C080919F0282FD04C08091A00258
:101AD00082FF76CF10929F02113061F58091BE0295
:101AE0008F5F8093BE028091BE028D3010F0109304
:101AF000BE0280E00E941E0580919002882359F466
:101B00008091B10281608093B1028091B2028160C4
:101B10008093B2020AC08091B40281608093B402C3
:101B20008091B50281608093B5026091BE0282E02F
:101B300090E04DC0123061F58091AF028F5F8093CD
:101B4000AF028091AF02803210F0F092AF0280E0DD
:101B50000E941E0580919002813059F48091B1025B
:101B600081608093B1028091B20281608093B20261
:101B70000AC08091B40281608093B4028091B50262
:101B800081608093B5026091AF0283E090E01FC056
:101B90001330F9F48091AC028F5F8093AC02809196
:101BA000AC0264E60E941A1E9093AC0280E00E9490
:101BB0001E058091B70281608093B7028091B802C0
:101BC00081608093B8026091AC0281E090E00E9455
:101BD000981E8091A00282FFF3CE789410929D020D
:101BE00010929C0280919C0290919D02CC97D0F320
:101BF000E7CE1F910F91FF900895DF92EF92FF9231
:101C00000F931F93E090AB02F090B9020091BF02D6
:101C10008AE08093A60210E07AE0D72E80919F029E
:101C200080FDD9C080919F02882321F48091A00279
:101C3000882319F0D092A60205C08091A6028823BD
:101C400009F44BC080919F0281FF4CC010929F020B
:101C50001123B9F4E090AB02F090B9020091BF02F9
:101C60008E2D6F2D402F0E947F038091B1028160E5
:101C70008093B1028091B20281608093B20211E040
:101C800031C0113089F48E2D6F2D402F0E947F03BB
:101C90008091B40281608093B4028091B50281602A
:101CA0008093B50212E01EC0123089F48E2D6F2D84
:101CB000402F0E947F038091B70281608093B7021A
:101CC0008091B80281608093B80213E00BC0E0926B
:101CD000AB02F092B9020093BF028091910280930F
:101CE000BD0279C080919F0282FD04C08091A00254
:101CF00082FF94CF10929F021130F9F48E2D90E064
:101D0000019668E170E00E943A1EE82E6F2D402F88
:101D10000E947F038091B10281608093B102809123
:101D2000B20281608093B202E092AB026091AB029A
:101D300084E090E00E94981E3DC0123001F58F2D86
:101D400090E001966CE370E00E943A1EF82E8E2D12
:101D50006F2D402F0E947F038091B4028160809399
:101D6000B4028091B50281608093B5026091B9029E
:101D700085E090E00E94981EF092B9021BC01330DB
:101D8000C9F4802F90E001966CE370E00E943A1E47
:101D9000082F8E2D6F2D402F0E947F038091B70258
:101DA00081608093B7028091B80281608093B8020D
:101DB0000093BF028091A00282FF30CF78941092EE
:101DC0009D0210929C0280919C0290919D028B3406
:101DD0009105C8F323CF1F910F91FF90EF90DF90F3
:101DE0000895EF92FF920F931F931091BB02009101
:101DF000AD028AE08093A602FF24FAE0EF2E8091E4
:101E00009F0280FDB3C080919F02882321F48091BE
:101E1000A002882319F0E092A60219C08091A602C0
:101E20008823A9F4809191028093BD021093BB0294
:101E30000093AD026091BB0287E090E00E94981E83
:101E40006091AD0288E090E00E94981E8FC0809162
:101E50009F0281FF3EC010929F02FF2089F4812FD4
:101E6000602F0E94FB038091B10281608093B102D8
:101E70008091B20281608093B202FF24F39429C062
:101E800081E0F81689F4812F602F0E94FB03809176
:101E9000B40281608093B4028091B5028160809326
:101EA000B502E2E0FE2E15C01093BB020093AD0216
:101EB0006091BB0287E090E00E94981E6091AD02A5
:101EC00088E090E00E94981E809191028093BD026C
:101ED0004DC080919F0282FD04C08091A00282FFCC
:101EE0008ECF10929F0281E0F816B1F4812F90E01E
:101EF000019668E170E00E943A1E182F602F0E9440
:101F0000FB038091B10281608093B1028091B202A3
:101F100081608093B20219C082E0F816B1F4802F7C
:101F200090E001966CE370E00E943A1E082F812F2A
:101F3000602F0E94FB038091B40281608093B40201
:101F40008091B50281608093B5028091A00282FFEA
:101F500056CF789410929D0210929C0280919C0220
:101F600090919D028B349105C8F349CF1F910F9139
:101F7000FF90EF9008951F920F920FB60F921124C9
:101F80002F933F934F935F936F937F938F939F9381
:101F9000AF93BF93EF93FF9300B605FE22C08091ED
:101FA00092028823B9F55B9A85B1877D85B95E98E1
:101FB0008CB58F7B8CBD80919402882361F06091F9
:101FC000B90285E090E00E94981E6091BF0286E011
:101FD00090E00E94981E15BC1092AE02109268000C
:101FE00014C0809192028823A9F0809194028823E2
:101FF00061F06091B90285E090E00E94981E6091C6
:10200000BF0286E090E00E94981EE0918E02F0915F
:102010008F020995FF91EF91BF91AF919F918F91A1
:102020007F916F915F914F913F912F910F900FBED4
:102030000F901F9018951F920F920FB60F921124B8
:102040002F933F934F935F936F937F938F939F93C0
:10205000AF93BF93EF93FF9380E88093610010925A
:1020600061008091BF028F5F8093BF028091BF02A9
:102070008C33A0F11092BF028091B9028F5F8093E0
:10208000B9028091A2029091A302A091A402B09102
:10209000A5020097A105B10509F12091A202309196
:1020A000A3024091A4025091A5028091C002833006
:1020B00029F081E090E0A0E0B0E004C084E090E08E
:1020C000A0E0B0E0281B390B4A0B5B0B2093A20267
:1020D0003093A3024093A4025093A5028091B902C9
:1020E0008C3398F01092B9028091AB028F5F80938D
:1020F000AB026091AB0284E090E00E94981E609178
:10210000B90285E090E00E94981E8091AB02883170
:1021100068F01092AB028091AF028F5F8093AF02A4
:102120006091AF0283E090E00E94981E8091AF0220
:10213000803268F58091AF028F3181F48091BE02C8
:10214000843029F18091BE02863009F18091BE026F
:102150008930E9F08091BE028B30C9F08091AF02E6
:102160008E3121F48091BE02823089F08091AF02DD
:102170008D31D9F48091BE028230B9F48091AC02E5
:1021800090E08053984F0E94B302882371F481E05D
:102190008093AF028091BE028F5F8093BE026091F8
:1021A000BE0282E090E00E94981E8091BE028D30B7
:1021B00070F08091AC028F5F8093AC0281E08093DD
:1021C000BE026091AC0281E090E00E94981E809176
:1021D0009202882309F0D1C08091BD02882311F5B5
:1021E00080919302882349F08091BF0280FF05C04F
:1021F00081EE91E00E94F70408C08091AB026091EB
:10220000B9024091BF020E947F038091BA028823E5
:1022100021F08091B002826003C08091B0028D7F76
:102220008093B0028091BD028C3009F063C0209190
:10223000A2023091A3024091A4025091A502809184
:10224000C002833029F080E090E0A0E0B0E008C058
:102250008091BF026FE00E941A1E90E0A0E0B0E003
:10226000281B390B4A0B5B0BCA01B9010E948D0177
:102270008091BF026BE370E0681B71099B014427EA
:1022800037FD4095542F25FF05C08091B302816032
:102290008093B30224FF05C08091B40281608093D3
:1022A000B40223FF05C08091B50281608093B5021E
:1022B00022FF05C08091B60281608093B60221FFA3
:1022C00005C08091B70281608093B70260FF05C0AE
:1022D0008091B80281608093B8028091BA0288230D
:1022E00021F08091B002826003C08091B0028D7FA6
:1022F0008093B0028091BA028823B9F09091BB021A
:102300008091AB02981789F49091AD028091B90247
:10231000981759F48091BF02882339F481E08093A3
:10232000BC0210929B0210929A028091A60288230E
:1023300029F08091A60281508093A6028091A1028B
:10234000882329F08091A10281508093A10280917D
:102350009A0290919B02009781F0019790939B02C3
:1023600080939A0280FF04C08091B002826003C013
:102370008091B0028D7F8093B002FF91EF91BF9169
:10238000AF919F918F917F916F915F914F913F910D
:102390002F910F900FBE0F901F9018955F926F9224
:1023A0007F928F929F92AF92BF92CF92DF92EF92E5
:1023B000FF920F931F93CF93DF938AE08093A6023F
:1023C0009090AF027090BE026090AC0284E190E009
:1023D0000E948A1E582E85E190E00E948A1EB82E27
:1023E0008FE090E00E948A1E8093AF028EE090E022
:1023F0000E948A1E8093BE0280E190E00E948A1EA5
:102400008093AC0286E190E00E948A1EE82E8BE168
:1024100090E00E948A1EA82E87E190E00E94921E02
:10242000EC0189E190E00E94921E6C0100E01AE04C
:10243000F12E8824839480919F02882321F4809137
:10244000A002882319F0F092A60205C08091A6028E
:10245000882309F44BC180919F0280FD4BC180917C
:102460009F0281FF5DC110929F020023A9F4809119
:102470009002882311F002E001C001E082E00E9496
:102480001E058091B10281608093B1028091B202F9
:1024900081608093B20244C1013029F4809190029E
:1024A000882339F020C00230E1F48091900281301D
:1024B000A9F480919002882311F001E001C002E0AC
:1024C00082E00E941E058091B30281608093B30276
:1024D0008091B40281608093B40222C1882341F0CC
:1024E0007AC00130F1F480919002813009F073C01C
:1024F00082E00E941E058091B50281608093B50242
:102500008091B60281608093B6028091B7028160AB
:102510008093B7028091B80281608093B80203E093
:10252000FFC0033059F4552019F08AEE91E002C043
:1025300083EF91E00E94F70404E0F2C00430C1F49C
:1025400022E0B21661F083E0B81661F0A1E0BA169D
:1025500019F08CEF91E008C085E092E005C08EE0B4
:1025600092E002C087E192E00E94F70405E0D8C043
:10257000053089F4EE2019F480E292E008C0B1E061
:10258000EB1619F489E292E002C082E392E00E9425
:10259000F70406E0C5C0063031F48E2DBE010E945E
:1025A000E80707E0BDC0073049F422E0E21641F039
:1025B0008E2DB6010E94790708E0B2C0083059F4A8
:1025C000AA2031F08BE392E00E94F70409E0A8C052
:1025D00084E492E0F9CF83E68093BD020091BE02CD
:1025E000F090AF021091AC028E2DB601AE010E94A8
:1025F000C419882E8091AB029091B9022091BF023C
:1026000000D000D0EDB7FEB731961459362D3053B7
:10261000ADB7BEB71196AC92818392832383802F8E
:102620006F2D412F272D092DE32EC52CAB2C0E9499
:10263000D51A7B018C01B092C0020F900F900F90C1
:102640000F9082E190E0692D0E94981E81E190E058
:10265000672D0E94981E83E190E0662D0E94981ECF
:102660006091B9028DE190E00E94981E6091AB02EA
:102670008CE190E00E94981E6091BF028EE190E094
:102680000E94981EC801B7012CE330E040E050E002
:102690000E944D1EB901CA012091AB02ECE32E9FAE
:1026A00090011124442737FD4095542F621B730B72
:1026B000840B950B2091B902621B71098109910964
:1026C0006093A2027093A3028093A4029093A50248
:1026D0000E948D01789410929D0210929C0280912C
:1026E0009C0290919D028C5D9540C8F3809191026F
:1026F0008093BD029092AF027092BE026092AC02D3
:10270000DF91CF911F910F91FF90EF90DF90CF90CD
:10271000BF90AF909F908F907F906F905F90089543
:1027200080919F0282FD04C08091A00282FF83CE2F
:1027300010929F02013061F58091BE028F5F8093FD
:10274000BE028091BE028D3010F00093BE0282E086
:102750000E941E0580919002882359F48091B10255
:1027600081608093B1028091B20281608093B20255
:102770000AC08091B30281608093B3028091B40259
:1027800081608093B4026091BE028EE090E001C14E
:10279000023061F58091AF028F5F8093AF0280912C
:1027A000AF02803210F08092AF0282E00E941E05DC
:1027B00080919002813059F48091B10281608093C0
:1027C000B1028091B20281608093B2020AC080910E
:1027D000B30281608093B3028091B40281608093E0
:1027E000B4026091AF028FE090E0D3C0033041F5B6
:1027F0008091AC028F5F8093AC028091AC0268EC58
:102800000E941A1E9093AC0282E00E941E058091E5
:10281000B50281608093B5028091B6028160809399
:10282000B6028091B70281608093B7028091B802AE
:1028300081608093B8026091AC0280E190E0A9C011
:10284000043089F410E0552009F411E0512E1123D1
:1028500019F08AEE91E002C083EF91E00E94F70444
:1028600084E190E095C00530E1F4B39423E0B22216
:1028700082E0B81659F0B21661F0A1E0BA1619F06C
:102880008CEF91E008C085E092E005C08EE092E018
:1028900002C087E192E00E94F70485E190E06B2D91
:1028A00078C00630C9F4E394B2E0BE1510F4EE240B
:1028B00002C0EE2019F480E292E008C021E0E216A6
:1028C00019F489E292E002C082E392E00E94F704E8
:1028D00086E190E06E2D5DC0073009F5EE2041F4F1
:1028E000259682E0C539D80780F0C3E2D0E00DC05C
:1028F000A1E0EA1641F42396B1E0CD32DB0728F0DF
:10290000CFE0D0E002C02196D07087E190E0BE0118
:102910000E94A61E8E2DBE010E94E8073CC0083012
:1029200029F5EE2059F40894C11CD11C29E7C216E0
:10293000D10490F0B4E2CB2ED12C0EC081E0E81689
:1029400059F40894C11CD11CA2E3CA16A1E0DA060E
:1029500018F0ACE5CA2ED12C89E190E0B6010E94B6
:10296000A61E8E2DB6010E94790715C0093099F474
:1029700010E0AA2009F411E0A12E112319F08BE335
:1029800092E002C084E492E00E94F7048BE190E0C0
:10299000612F0E94981E8091A00282FF4CCD7894F6
:1029A00010929D0210929C0280919C0290919D0237
:1029B000CC97D0F340CD1F920F920FB60F921124F7
:1029C0002F933F934F935F936F937F938F939F9337
:1029D000AF93BF93EF93FF9389E60E947B1729B1D2
:1029E0007894789410929D0210929C0280919C029F
:1029F00090919D020A97D0F389B1247030E090E065
:102A0000847090702817390711F40E942807FF91ED
:102A1000EF91BF91AF919F918F917F916F915F9156
:102A20004F913F912F910F900FBE0F901F901895CF
:102A30002F923F924F925F926F927F928F929F92CE
:102A4000AF92BF92CF92DF92EF92FF920F931F93BC
:102A500085E190E00E948A1E8093C0028EE090E0A3
:102A60000E948A1E682E8FE090E00E948A1E782EB7
:102A700080E190E00E948A1EB82E81E190E00E94E1
:102A80008A1E982E82E190E00E948A1E082F83E120
:102A900090E00E948A1ED82E84E190E00E948A1E57
:102AA000C82EA090C00286E190E00E948A1E182FD6
:102AB00089E190E00E94921E7C0187E190E00E94F3
:102AC000921EAC01812FB7010E94C419882E8BE1A0
:102AD00090E00E948A1EE82E8CE190E00E948A1EFF
:102AE000F82E8DE190E00E948A1E182F8EE190E072
:102AF0000E948A1E00D000D0EDB7FEB731964CE69A
:102B0000B40E50EDD50EADB7BEB71196EC92F18272
:102B100012838383862D672D4B2D292DED2C0E944A
:102B2000D51A1B012C010F900F900F900F9081E18F
:102B300090E00E948A1EF82E82E190E00E948A1E98
:102B4000182F83E190E00E948A1E2091BE0200911E
:102B5000AF029091AC02482F405390538F2D612FBC
:102B6000E92E0E94C7187B018C018091C00220E0F1
:102B700030E040E050E0833021F421E030E040E0FC
:102B800050E0CA01B90120EA35E040E050E00E947F
:102B9000FB1DA80197010E94FB1D611571058105B0
:102BA000910531F451E0652E712C812C912C05C0DA
:102BB00044E0642E712C812C912C9091AB02809179
:102BC000C00220E030E0833011F421E030E0892FB2
:102BD00090E0AC01249FC001259F900D349F900D83
:102BE0001124892B31F431E0A32EB12CC12CD12C2E
:102BF00005C024E0A22EB12CC12CD12C9091B90299
:102C00008091C00220E030E0833011F421E030E018
:102C1000892F90E0DC012A9FC0012B9F900D3A9FE5
:102C2000900D1124892B31F491E0E92EF12C012D26
:102C3000112D05C084E0E82EF12C012D112DC201CB
:102C4000B1012CE330E040E050E00E944D1EC9018C
:102C5000DA0186199709A809B9098A199B09AC09EB
:102C6000BD098E199F09A00BB10B8093A20290930E
:102C7000A302A093A402B093A5021F910F91FF900D
:102C8000EF90DF90CF90BF90AF909F908F907F900C
:102C90006F905F904F903F902F9008959F92AF92CA
:102CA000BF92CF92DF92EF92FF920F931F9315BCCA
:102CB000569A5E9884B714BE90E00E94E71788E1A8
:102CC0000FB6F89480936000109260000FBE2FE062
:102CD00088E190E00FB6F894A895809360000FBE4D
:102CE00020936000A89511E0109393021092940233
:102CF0008AE190E00E946E1788E480BF80ED97E043
:102D00000197F1F700B605FE06C080B7806180BF6D
:102D10000E94740A22C00E94A0025B98109369006E
:102D20001DBB1092BD0281E58CBD89E090E00E9440
:102D30008A1E0E943B0378948BE090E00E948A1EDA
:102D4000809390020E94430A80EA9FE061E00E9423
:102D5000F4020E94740A0E9428071CE0912EB3E638
:102D6000AB2EA6E0BA2EF4E0CF2EE8E0DE2E77E020
:102D7000E72E6BE0F62E05E013E0A89500B605FE01
:102D800003C00E947402F9CF80919F0280FF59C056
:102D900010929F028091BD02853079F1863038F41F
:102DA000833011F18430A8F4882351F063C0873058
:102DB000B1F1873058F18830D9F18C3009F05AC020
:102DC000C092BD028DE492E00E94F7040E94F10ED1
:102DD000D4CF1093BD0287E592E00E94F7040E94D1
:102DE000FD0D10929302C9CF0093BD0280E692E0E0
:102DF0000E94F7040E94D60CC0CFB092BD0289E6B3
:102E000092E00E94F7040E94F30BB7CFE092BD025C
:102E100082E792E00E94F7040E94620BAECFD0924C
:102E2000BD028BE792E00E94F7040E94030BA5CF3E
:102E3000F092BD0284E892E00E94F7040E94CE1155
:102E40009CCF80919F0281FF1AC010929F02A09296
:102E5000BD0281E00E941E05A895789410929D0203
:102E600010929C0280919C0290919D028C5D9540F5
:102E7000C8F3A895809191028093BD027ECF809186
:102E80009F0282FF7ACF10929F0280919102882345
:102E900019F49092910202C01092910280919102D5
:102EA0008093BD020E94181568CF06C090E0000014
:102EB0009F5F9E31E1F781508823C1F7089548EC68
:102EC00050E009C020E137E2FA013197F1F72150D3
:102ED0003040D1F781508823A9F708959093C50019
:102EE0008093C40088E18093C1008EE08093C2008B
:102EF000519A50980895982F8091C00085FFFCCF7B
:102F00009093C60080E090E008958091C00087FF14
:102F1000FCCF8091C60008958091C000807808950C
:102F2000AC0120E007C08091C00085FFFCCF30934A
:102F3000C6002F5FFA01E20FF11D3491332399F798
:102F4000662371F08091C00085FFFCCF8AE08093FA
:102F5000C6008091C00085FFFCCF8DE08093C60045
:102F60000895FC0107C08091C00085FFFCCF319619
:102F70009093C60090819923B1F70895282F982F38
:102F800092959F709A3030F48091C00085FFFCCFFD
:102F9000905D05C08091C00085FFFCCF995A909349
:102FA000C600822F90E08F7090700A973CF4809159
:102FB000C00085FFFCCF2F70205D06C08091C0004F
:102FC00085FFFCCF2F70295A2093C60008951F93C8
:102FD000182F892F0E94BE17812F0E94BE171F91A4
:102FE0000895EF92FF920F931F937B018C01C8010C
:102FF000AA27BB270E94E717C7010E94E7171F9166
:103000000F91FF90EF9008950F931F93CF93DF934D
:103010008C01E0E1F7E240E0C0E0D0E0C801BF0190
:103020000E94261E262F662329F4442319F4E1303A
:10303000F10549F48091C00085FFFCCF205D20930D
:10304000C600205341E0CF016AE070E00E94261ED6
:103050002196C530D10571F0822F90E09C012E9F02
:10306000C0012F9F900D3E9F900D1124081B190B3E
:10307000FB01D4CFDF91CF911F910F9108954F9213
:103080005F926F927F928F929F92AF92BF92CF92F8
:10309000DF92EF92FF920F931F93CF93DF934B0139
:1030A0005C01E12C9AECF92E9AE9092F9BE3192F88
:1030B0004424C0E0D0E0C501B401A80197010E94FA
:1030C0004D1ED22E222341F4442031F481E0E81633
:1030D000F1040105110561F48091C00085FFFCCF6A
:1030E00080E3D80ED092C60080EDD80E44244394DD
:1030F000C801B7012AE030E040E050E00E944D1ED8
:10310000C22E732E642E552E2196CA30D105A9F0F9
:103110006D2D70E080E090E0A80197010E94FB1DFA
:10312000861A970AA80AB90A2C2D372D462D552D37
:10313000C901DA017C018D01BECFDF91CF911F91D2
:103140000F91FF90EF90DF90CF90BF90AF909F9046
:103150008F907F906F905F904F9008959C0160E9F1
:1031600071E00E94261E892B11F481E00895C901A7
:1031700064E670E00E94261E892B11F480E0089519
:1031800080E023703070232B09F481E008956F9262
:103190007F928F929F92AF92BF92CF92DF92EF92E7
:1031A000FF920F931F93CF93DF93982F362FB42E58
:1031B000722E602EAE2CE41620F0E41691F428173F
:1031C00080F4872D662D4A2D292F032FEB2C0E948A
:1031D000C71822273327A901261B370B480B590B89
:1031E000C2C0971569F4BA1409F046C0862D90E064
:1031F000831B91099C01442737FD4095542FB3C090
:10320000BA1409F039C0092F10E0F801E255FD4F5A
:10321000E491CE2FD0E0C31BD109923031F48B2D35
:1032200090E00E94AE18C80FD11D9FEAC92E92E00F
:10323000D92EC00ED11EEE24FF240F5F1F4F872C06
:10324000992413C0F6018491C80FD11D2230310595
:1032500031F48B2D90E00E94AE18C80FD11D089458
:10326000E11CF11C0894C11CD11C98012E0D3F1DBE
:10327000281539053CF370C0092F10E0F801E2551C
:10328000FD4FE491CE2FD0E0C31BD109923031F431
:103290008B2D90E00E94AE18C80FD11D8FEAC82E6A
:1032A00082E0D82EC00ED11EEE24FF2448010894DF
:1032B000811C911C13C0F6018491C80FD11D2230CE
:1032C000310531F48B2D90E00E94AE18C80FD11D4E
:1032D0000894E11CF11C0894C11CD11C94012E0D12
:1032E0003F1D2D3031053CF38B2D90E07C0108947F
:1032F000E11CF11C00E010E04C01CA2CDD240BC0E5
:10330000C7010E94AE1890E083599E4FC80FD91F85
:103310000894E11CF11C0F5F1F4FC801880D991D17
:103320008C159D056CF301E010E0E72CFF2411C023
:10333000F801E255FD4FE491CE0FD11D0230110589
:1033400031F48A2D90E00E94AE18C80FD11D0F5F96
:103350001F4F0E151F0564F3C60DD11D9E01442796
:1033600037FD4095542FB901CA01DF91CF911F91CC
:103370000F91FF90EF90DF90CF90BF90AF909F9014
:103380008F907F906F9008959B01882351F4229F26
:10339000B001239F700D329F700D11248FEB92E0CE
:1033A0000BC08130D9F4229FB001239F700D329F52
:1033B000700D112480E197E29C01429FC001439F60
:1033C000900D529F900D11240E94261ECB016F3F3D
:1033D000710529F020F08FEF90E00895842F089573
:1033E0002F923F924F925F926F927F928F929F9215
:1033F000AF92BF92CF92DF92EF92FF920F931F9303
:10340000DF93CF93CDB7DEB728970FB6F894DEBF22
:103410000FBECDBF78876F835A834983DB012D9020
:103420003D904D905C90139714966D907D908D908B
:103430009C901797AA24BB2465019C0140E050E0B2
:103440002B833C834D835E837BC0F501E370F0707A
:10345000EE0FFF1FEE0FFF1F49815A81E40FF51F8A
:10346000E080F18002811381EA0CFB1C0C1D1D1D04
:10347000D401C30175E0B695A795979587957A9580
:10348000D1F7A401930164E0220F331F441F551F9D
:103490006A95D1F782279327A427B527860D971D14
:1034A000A81DB91DE826F9260A271B272E0C3F1C4C
:1034B000401E511E69EB79E787E39EE9A60EB71E11
:1034C000C81ED91EA2019101F5E056954795379582
:1034D0002795FA95D1F7D201C101E4E0880F991F31
:1034E000AA1FBB1FEA95D1F7282739274A275B2750
:1034F000220D331D441D551DD601C5017BE0B69537
:10350000A795979587957A95D1F783709070880FD6
:10351000991F880F991FA981BA818A0F9B1FFC01EF
:1035200080819181A281B3818A0D9B1DAC1DBD1D3F
:10353000282739274A275B27620E731E841E951E93
:103540006B817C818D819E8129EB39E747E35EE9C0
:103550000E94FB1DA616B706C806D90609F075CF4E
:10356000AF81B8852D923D924D925C921397FD01EB
:10357000648275828682978228960FB6F894DEBFA1
:103580000FBECDBFCF91DF911F910F91FF90EF90B4
:10359000DF90CF90BF90AF909F908F907F906F9073
:1035A0005F904F903F902F9008955F926F927F921F
:1035B0008F929F92AF92BF92CF92DF92EF92FF9243
:1035C0000F931F93DF93CF93CDB7DEB768970FB6F6
:1035D000F894DEBF0FBECDBF182FF62E942E722E9C
:1035E0006C2C5A2C262F30E040E050E0A901332704
:1035F000222790E0A0E0B0E0B82FAA2799278827DB
:10360000282B392B4A2B5B2B892D90E0A0E0B0E0D2
:10361000BA2FA92F982F8827282B392B4A2B5B2BC1
:10362000872D90E0A0E0B0E0282B392B4A2B5B2BB4
:1036300029873A874B875C872E2D30E040E050E0A9
:10364000A90133272227802F90E0A0E0B0E0B82F17
:10365000AA2799278827282B392B4A2B5B2B8C2DBF
:1036600090E0A0E0B0E0BA2FA92F982F8827282B50
:10367000392B4A2B5B2B8A2D90E0A0E0B0E0282B61
:10368000392B4A2B5B2B2D873E874F87588B6AA59A
:10369000262F30E040E050E0A90133272227882D73
:1036A00090E0A0E0B0E0B82FAA2799278827282B20
:1036B000392B4A2B5B2B8BA590E0A0E0B0E0BA2F12
:1036C000A92F982F8827282B392B4A2B5B2B8CA5C9
:1036D00090E0A0E0B0E0282B392B4A2B5B2B298B04
:1036E0003A8B4B8B5C8B8DA590E0A0E0B0E08D8B8E
:1036F0009E8BAF8BB88F19821A821B821C821D820F
:103700001E821F821886F9E0AF2EB12CAC0EBD1EB2
:1037100080E290E06E010894C11CD11CB601A501A5
:103720000E94F01989819A81AB81BC8189879A872F
:10373000AB87BC878D819E81AF81B8858D879E8741
:10374000AF87B88B80E290E0B601A5010E94F01926
:1037500089819A81AB81BC81898B9A8BAB8BBC8B25
:103760008D819E81AF81B8858D8B9E8BAF8BB88FFD
:10377000812F6F2D492D272D0E94C71824E630E098
:1037800040E050E00E94FB1D5B016C012DEA3EE829
:1037900040E050E00E944D1EA901662041F0ECE19E
:1037A000EE2EE0E3FE2EECE20E2F112D07C074E6A4
:1037B000E72E7DE1F72E79E2072F112DD801C70101
:1037C0008A199B09AC09BD095C016D01882D90E047
:1037D0008E3291051CF08DE290E005C08831910594
:1037E00014F488E190E08C010851104093E05916E0
:1037F00009F0AEC0662009F050C06FEF70E68BEEA6
:103800009FEFA60EB71EC81ED91E7AA5713059F5B6
:1038100067E972E020E030E0FB0185919491481760
:103820005907D0F4F901EE0FFF1FEE0FFF1FE75607
:10383000FD4F2591349184E690E0DC012A9FC00180
:103840002B9F900D3A9F900D1124A0E0B0E0A81A94
:10385000B90ACA0ADB0A07C02F5F3F4F6C5F7F4F70
:1038600023303105C9F6E0EDF1E0849190E048178E
:1038700059071CF480E090E009C07796849190E0AD
:10388000481759070CF099C187E190E0080F191FFC
:103890000F521E4FF801649147C068EF74EB89EE38
:1038A0009FEFA60EB71EC81ED91E7AA5713059F516
:1038B00063EA72E020E030E0FB01859194914817C3
:1038C0005907D0F4F901EE0FFF1FEE0FFF1FEB5564
:1038D000FD4F2591349184E690E0DC012A9FC001E0
:1038E0002B9F900D3A9F900D1124A0E0B0E0A81AF4
:1038F000B90ACA0ADB0A07C02F5F3F4F6C5F7F4FD0
:1039000023303105C9F620E030E0F901E250FE4FE6
:10391000E4918E2F90E048175907A4F4020F131F6B
:1039200001501E4FF801649170E080E090E023E5C3
:1039300031E74FEF5FEF0E94FB1DA60EB71EC81EBA
:10394000D91E3BC1295E3F4F25343105F1F635C103
:10395000662009F046C0FAA5F13059F563E472E03B
:1039600020E030E0FB018591949148175907D0F48D
:10397000F901EE0FFF1FEE0FFF1FEB5BFD4F2591CF
:10398000349184E690E0BC01269FC001279F900DF2
:10399000369F900D1124A0E0B0E0A81AB90ACA0A17
:1039A000DB0A07C02F5F3F4F6C5F7F4F2B30310525
:1039B000C9F620E030E0F901EB55FF4FE4918E2F7E
:1039C00090E0481759073CF4020F131F0A551F4F88
:1039D000F801649145C0295E3F4F2A38310559F7F7
:1039E00052C0FAA5F13059F56FE672E020E030E000
:1039F000FB018591949148175907D0F4F901EE0F16
:103A0000FF1FEE0FFF1FEF58FD4F2591349184E605
:103A100090E0BC01269FC001279F900D369F900D1E
:103A20001124A0E0B0E0A81AB90ACA0ADB0A07C04C
:103A30002F5F3F4F6C5F7F4F2A303105C9F620E082
:103A400030E0F901E15DFE4FE4918E2F90E04817E0
:103A50005907A4F4020F131F005D1E4FF801649173
:103A600070E080E090E023E531E74FEF5FEF0E94E8
:103A7000FB1DA60EB71EC81ED91E05C0295E3F4FEE
:103A8000213A3105F1F6F2E05F1609F049C082EC07
:103A9000E82E82E9F82E85E0082F112DEA0CFB1C98
:103AA0000C1D1D1D89819A81AB81BC818E259F25AE
:103AB000A027B12789839A83AB83BC8380E290E0FF
:103AC000BE016F5F7F4FAE01475F5F4F0E94F019ED
:103AD00069817A818B819C817F778070907028EEDC
:103AE00033E040E050E00E94FB1D2FEF3FE740E055
:103AF00050E00E944D1ECA01B9012CE33CE548E0AC
:103B000050E00E94FB1D28EE33E040E050E00E94B0
:103B10004D1E59016A01AE0CBF1CC01ED11E4DC006
:103B200061E0561609F049C0BDEDEB2EB3EAFB2E5D
:103B3000B7EF0B2FBFEF1B2FEA0CFB1C0C1D1D1D3D
:103B40008D819E81AF81B8858E259F25A027B127C5
:103B50008D839E83AF83B88780E290E0BE016F5F64
:103B60007F4FAE01475F5F4F0E94F0196D817E81EC
:103B70008F8198857F778070907028EE33E040E0E9
:103B800050E00E94FB1D2FEF3FE740E050E00E9415
:103B90004D1ECA01B90124EF32E945E050E00E9410
:103BA000FB1D28EE33E040E050E00E944D1E57011F
:103BB0006801A21AB30AC40AD50AC601B50120E6F3
:103BC00033E040E050E00E94FB1D68960FB6F89489
:103BD000DEBF0FBECDBFCF91DF911F910F91FF9040
:103BE000EF90DF90CF90BF90AF909F908F907F909D
:103BF0006F905F900895629FD001739FF001829F44
:103C0000E00DF11D649FE00DF11D929FF00D839F6B
:103C1000F00D749FF00D659FF00D9927729FB00D08
:103C2000E11DF91F639FB00DE11DF91FBD01CF011B
:103C300011240895991B79E004C0991F961708F084
:103C4000961B881F7A95C9F780950895AA1BBB1B00
:103C500051E107C0AA1FBB1FA617B70710F0A61B8C
:103C6000B70B881F991F5A95A9F780959095BC01AD
:103C7000CD01089597FB092E07260AD077FD04D0C1
:103C8000E5DF06D000201AF4709561957F4F089506
:103C9000F6F7909581959F4F0895A1E21A2EAA1BE1
:103CA000BB1BFD010DC0AA1FBB1FEE1FFF1FA217EC
:103CB000B307E407F50720F0A21BB30BE40BF50BE9
:103CC000661F771F881F991F1A9469F76095709572
:103CD000809590959B01AC01BD01CF01089597FBA4
:103CE000092E05260ED057FD04D0D7DF0AD0001CC0
:103CF00038F450954095309521953F4F4F4F5F4F89
:103D00000895F6F790958095709561957F4F8F4F48
:103D10009F4F0895F999FECF92BD81BDF89A9927DA
:103D200080B50895A8E1B0E042E050E00C94AD1EEB
:103D3000262FF999FECF1FBA92BD81BD20BD0FB6C7
:103D4000F894FA9AF99A0FBE019608950E94981E67
:103D5000272F0C94991EDC01CB01FC01F999FECFB1
:103D600006C0F2BDE1BDF89A319600B40D92415003
:0A3D70005040B8F70895F894FFCF13
:103D7A0073756E646179006D6F6E64617900747534
:103D8A006573646179007765646E73646179007440
:103D9A006875727364617900667269646179007327
:103DAA0061747572646179006A616E0066656200A9
:103DBA006D6172636800617072696C006D6179008F
:103DCA006A756E65006A756C79006175677374004F
:103DDA0073657074006F63746F62006E6F76656DE1
:103DEA0000646563656D00616C61726D206F6E00C1
:103DFA0020202066742020200020202020636D20AF
:103E0A002000202020206C62732000202020206BBC
:103E1A006720200020202020626D692000736E6FC9
:103E2A006F7A696E67007573612D31326872006549
:103E3A0075722D3234687200766F6C206869676813
:103E4A0000766F6C20206C6F77006272697465204F
:103E5A000020202020202020200066656D616C65EE
:103E6A002020006D616C6520202020006E6F726D2D
:103E7A00616C20200070657373696D7374006F70D4
:103E8A0074696D697374007361646973746963003A
:103E9A00696D70657269616C006D65747269632021
:103EAA002000646972656374202000736D6F6B650E
:103EBA00722020006E6F6E20736D6B7200736574D2
:103ECA0020616C61726D007365742074696D6500A0
:103EDA007365742064617465007365742062726925
:103EEA00740073657420766F6C2000736574207299
:0E3EFA0065676E006465617468636C6B000040
:00000001FF
